
ApplicationLayer.elf:     file format elf32-avr

Sections:
Idx Name          Size      VMA       LMA       File off  Algn
  0 .data         00000046  00800200  00002262  000022f6  2**0
                  CONTENTS, ALLOC, LOAD, DATA
  1 .text         00002262  00000000  00000000  00000094  2**1
                  CONTENTS, ALLOC, LOAD, READONLY, CODE
  2 .bss          0000130a  00800246  00800246  0000233c  2**0
                  ALLOC
  3 .comment      0000005c  00000000  00000000  0000233c  2**0
                  CONTENTS, READONLY
  4 .debug_aranges 00000350  00000000  00000000  00002398  2**0
                  CONTENTS, READONLY, DEBUGGING
  5 .debug_info   000048fb  00000000  00000000  000026e8  2**0
                  CONTENTS, READONLY, DEBUGGING
  6 .debug_abbrev 000012b6  00000000  00000000  00006fe3  2**0
                  CONTENTS, READONLY, DEBUGGING
  7 .debug_line   00002456  00000000  00000000  00008299  2**0
                  CONTENTS, READONLY, DEBUGGING
  8 .debug_frame  000008e8  00000000  00000000  0000a6f0  2**2
                  CONTENTS, READONLY, DEBUGGING
  9 .debug_str    000018e0  00000000  00000000  0000afd8  2**0
                  CONTENTS, READONLY, DEBUGGING
 10 .debug_loc    00002291  00000000  00000000  0000c8b8  2**0
                  CONTENTS, READONLY, DEBUGGING
 11 .debug_ranges 00000398  00000000  00000000  0000eb49  2**0
                  CONTENTS, READONLY, DEBUGGING

Disassembly of section .text:

00000000 <__vectors>:
       0:	7a c0       	rjmp	.+244    	; 0xf6 <__ctors_end>
       2:	00 00       	nop
       4:	98 c0       	rjmp	.+304    	; 0x136 <__bad_interrupt>
       6:	00 00       	nop
       8:	96 c0       	rjmp	.+300    	; 0x136 <__bad_interrupt>
       a:	00 00       	nop
       c:	94 c0       	rjmp	.+296    	; 0x136 <__bad_interrupt>
       e:	00 00       	nop
      10:	92 c0       	rjmp	.+292    	; 0x136 <__bad_interrupt>
      12:	00 00       	nop
      14:	0c 94 18 0b 	jmp	0x1630	; 0x1630 <__vector_5>
      18:	bf c0       	rjmp	.+382    	; 0x198 <__vector_6>
      1a:	00 00       	nop
      1c:	8c c0       	rjmp	.+280    	; 0x136 <__bad_interrupt>
      1e:	00 00       	nop
      20:	8a c0       	rjmp	.+276    	; 0x136 <__bad_interrupt>
      22:	00 00       	nop
      24:	88 c0       	rjmp	.+272    	; 0x136 <__bad_interrupt>
      26:	00 00       	nop
      28:	86 c0       	rjmp	.+268    	; 0x136 <__bad_interrupt>
      2a:	00 00       	nop
      2c:	84 c0       	rjmp	.+264    	; 0x136 <__bad_interrupt>
      2e:	00 00       	nop
      30:	82 c0       	rjmp	.+260    	; 0x136 <__bad_interrupt>
      32:	00 00       	nop
      34:	80 c0       	rjmp	.+256    	; 0x136 <__bad_interrupt>
      36:	00 00       	nop
      38:	7e c0       	rjmp	.+252    	; 0x136 <__bad_interrupt>
      3a:	00 00       	nop
      3c:	7c c0       	rjmp	.+248    	; 0x136 <__bad_interrupt>
      3e:	00 00       	nop
      40:	7a c0       	rjmp	.+244    	; 0x136 <__bad_interrupt>
      42:	00 00       	nop
      44:	4f c2       	rjmp	.+1182   	; 0x4e4 <__vector_17>
      46:	00 00       	nop
      48:	76 c0       	rjmp	.+236    	; 0x136 <__bad_interrupt>
      4a:	00 00       	nop
      4c:	74 c0       	rjmp	.+232    	; 0x136 <__bad_interrupt>
      4e:	00 00       	nop
      50:	72 c0       	rjmp	.+228    	; 0x136 <__bad_interrupt>
      52:	00 00       	nop
      54:	70 c0       	rjmp	.+224    	; 0x136 <__bad_interrupt>
      56:	00 00       	nop
      58:	6e c0       	rjmp	.+220    	; 0x136 <__bad_interrupt>
      5a:	00 00       	nop
      5c:	6c c0       	rjmp	.+216    	; 0x136 <__bad_interrupt>
      5e:	00 00       	nop
      60:	6a c0       	rjmp	.+212    	; 0x136 <__bad_interrupt>
      62:	00 00       	nop
      64:	68 c0       	rjmp	.+208    	; 0x136 <__bad_interrupt>
      66:	00 00       	nop
      68:	66 c0       	rjmp	.+204    	; 0x136 <__bad_interrupt>
      6a:	00 00       	nop
      6c:	64 c0       	rjmp	.+200    	; 0x136 <__bad_interrupt>
      6e:	00 00       	nop
      70:	62 c0       	rjmp	.+196    	; 0x136 <__bad_interrupt>
      72:	00 00       	nop
      74:	60 c0       	rjmp	.+192    	; 0x136 <__bad_interrupt>
      76:	00 00       	nop
      78:	5e c0       	rjmp	.+188    	; 0x136 <__bad_interrupt>
      7a:	00 00       	nop
      7c:	5c c0       	rjmp	.+184    	; 0x136 <__bad_interrupt>
      7e:	00 00       	nop
      80:	bc c0       	rjmp	.+376    	; 0x1fa <__vector_32>
      82:	00 00       	nop
      84:	58 c0       	rjmp	.+176    	; 0x136 <__bad_interrupt>
      86:	00 00       	nop
      88:	56 c0       	rjmp	.+172    	; 0x136 <__bad_interrupt>
      8a:	00 00       	nop
      8c:	54 c0       	rjmp	.+168    	; 0x136 <__bad_interrupt>
      8e:	00 00       	nop
      90:	0c 94 f5 0d 	jmp	0x1bea	; 0x1bea <__vector_36>
      94:	50 c0       	rjmp	.+160    	; 0x136 <__bad_interrupt>
      96:	00 00       	nop
      98:	4e c0       	rjmp	.+156    	; 0x136 <__bad_interrupt>
      9a:	00 00       	nop
      9c:	4c c0       	rjmp	.+152    	; 0x136 <__bad_interrupt>
      9e:	00 00       	nop
      a0:	4a c0       	rjmp	.+148    	; 0x136 <__bad_interrupt>
      a2:	00 00       	nop
      a4:	48 c0       	rjmp	.+144    	; 0x136 <__bad_interrupt>
      a6:	00 00       	nop
      a8:	46 c0       	rjmp	.+140    	; 0x136 <__bad_interrupt>
      aa:	00 00       	nop
      ac:	44 c0       	rjmp	.+136    	; 0x136 <__bad_interrupt>
      ae:	00 00       	nop
      b0:	42 c0       	rjmp	.+132    	; 0x136 <__bad_interrupt>
      b2:	00 00       	nop
      b4:	40 c0       	rjmp	.+128    	; 0x136 <__bad_interrupt>
      b6:	00 00       	nop
      b8:	3e c0       	rjmp	.+124    	; 0x136 <__bad_interrupt>
      ba:	00 00       	nop
      bc:	3c c0       	rjmp	.+120    	; 0x136 <__bad_interrupt>
      be:	00 00       	nop
      c0:	3a c0       	rjmp	.+116    	; 0x136 <__bad_interrupt>
      c2:	00 00       	nop
      c4:	38 c0       	rjmp	.+112    	; 0x136 <__bad_interrupt>
      c6:	00 00       	nop
      c8:	36 c0       	rjmp	.+108    	; 0x136 <__bad_interrupt>
      ca:	00 00       	nop
      cc:	34 c0       	rjmp	.+104    	; 0x136 <__bad_interrupt>
      ce:	00 00       	nop
      d0:	32 c0       	rjmp	.+100    	; 0x136 <__bad_interrupt>
      d2:	00 00       	nop
      d4:	30 c0       	rjmp	.+96     	; 0x136 <__bad_interrupt>
      d6:	00 00       	nop
      d8:	2e c0       	rjmp	.+92     	; 0x136 <__bad_interrupt>
      da:	00 00       	nop
      dc:	2c c0       	rjmp	.+88     	; 0x136 <__bad_interrupt>
      de:	00 00       	nop
      e0:	2a c0       	rjmp	.+84     	; 0x136 <__bad_interrupt>
      e2:	00 00       	nop
      e4:	ba 07       	cpc	r27, r26
      e6:	54 05       	cpc	r21, r4
      e8:	81 06       	cpc	r8, r17
      ea:	b9 06       	cpc	r11, r25
      ec:	d3 06       	cpc	r13, r19
      ee:	ba 07       	cpc	r27, r26
      f0:	f2 06       	cpc	r15, r18
      f2:	06 07       	cpc	r16, r22
      f4:	50 07       	cpc	r21, r16

000000f6 <__ctors_end>:
      f6:	11 24       	eor	r1, r1
      f8:	1f be       	out	0x3f, r1	; 63
      fa:	cf ef       	ldi	r28, 0xFF	; 255
      fc:	d1 e2       	ldi	r29, 0x21	; 33
      fe:	de bf       	out	0x3e, r29	; 62
     100:	cd bf       	out	0x3d, r28	; 61
     102:	00 e0       	ldi	r16, 0x00	; 0
     104:	0c bf       	out	0x3c, r16	; 60

00000106 <__do_copy_data>:
     106:	12 e0       	ldi	r17, 0x02	; 2
     108:	a0 e0       	ldi	r26, 0x00	; 0
     10a:	b2 e0       	ldi	r27, 0x02	; 2
     10c:	e2 e6       	ldi	r30, 0x62	; 98
     10e:	f2 e2       	ldi	r31, 0x22	; 34
     110:	00 e0       	ldi	r16, 0x00	; 0
     112:	0b bf       	out	0x3b, r16	; 59
     114:	02 c0       	rjmp	.+4      	; 0x11a <__do_copy_data+0x14>
     116:	07 90       	elpm	r0, Z+
     118:	0d 92       	st	X+, r0
     11a:	a6 34       	cpi	r26, 0x46	; 70
     11c:	b1 07       	cpc	r27, r17
     11e:	d9 f7       	brne	.-10     	; 0x116 <__do_copy_data+0x10>

00000120 <__do_clear_bss>:
     120:	25 e1       	ldi	r18, 0x15	; 21
     122:	a6 e4       	ldi	r26, 0x46	; 70
     124:	b2 e0       	ldi	r27, 0x02	; 2
     126:	01 c0       	rjmp	.+2      	; 0x12a <.do_clear_bss_start>

00000128 <.do_clear_bss_loop>:
     128:	1d 92       	st	X+, r1

0000012a <.do_clear_bss_start>:
     12a:	a0 35       	cpi	r26, 0x50	; 80
     12c:	b2 07       	cpc	r27, r18
     12e:	e1 f7       	brne	.-8      	; 0x128 <.do_clear_bss_loop>
     130:	f2 d7       	rcall	.+4068   	; 0x1116 <main>
     132:	0c 94 2f 11 	jmp	0x225e	; 0x225e <_exit>

00000136 <__bad_interrupt>:
     136:	64 cf       	rjmp	.-312    	; 0x0 <__vectors>

00000138 <_Z7IR_initv>:
//Output on pin 10 (PB4/OC2A)
//Input on pin 3 (PE5/INT5)
void IR_init() {
	
	//PWM Timer 2
	DDRB |= (1<<PB4);	
     138:	24 9a       	sbi	0x04, 4	; 4
	TCCR2A = 0;
     13a:	a0 eb       	ldi	r26, 0xB0	; 176
     13c:	b0 e0       	ldi	r27, 0x00	; 0
     13e:	1c 92       	st	X, r1
	TCCR2B = 0;
     140:	e1 eb       	ldi	r30, 0xB1	; 177
     142:	f0 e0       	ldi	r31, 0x00	; 0
     144:	10 82       	st	Z, r1
	//Set to Fast PWM mode 15
	TCCR2A |= (1<<WGM20) | (1<<WGM21);
     146:	8c 91       	ld	r24, X
     148:	83 60       	ori	r24, 0x03	; 3
     14a:	8c 93       	st	X, r24
	TCCR2B |= (1<<WGM22);
     14c:	80 81       	ld	r24, Z
     14e:	88 60       	ori	r24, 0x08	; 8
     150:	80 83       	st	Z, r24
	//No Prescaller
	TCCR2B |= (1<<CS20);
     152:	80 81       	ld	r24, Z
     154:	81 60       	ori	r24, 0x01	; 1
     156:	80 83       	st	Z, r24
	OCR1A=421;  //38khz
     158:	85 ea       	ldi	r24, 0xA5	; 165
     15a:	91 e0       	ldi	r25, 0x01	; 1
     15c:	90 93 89 00 	sts	0x0089, r25
     160:	80 93 88 00 	sts	0x0088, r24
	OCR1C = 210;//50% duty cycle
     164:	82 ed       	ldi	r24, 0xD2	; 210
     166:	90 e0       	ldi	r25, 0x00	; 0
     168:	90 93 8d 00 	sts	0x008D, r25
     16c:	80 93 8c 00 	sts	0x008C, r24
	
	
	
	//Interrupt Timer 1.
	TCCR3A = 0;
     170:	10 92 90 00 	sts	0x0090, r1
	TCCR3B = 0;
     174:	e1 e9       	ldi	r30, 0x91	; 145
     176:	f0 e0       	ldi	r31, 0x00	; 0
     178:	10 82       	st	Z, r1
	//Leave on normal mode.	
	//No prescaller
	TCCR3B |= (1<<CS10);
     17a:	80 81       	ld	r24, Z
     17c:	81 60       	ori	r24, 0x01	; 1
     17e:	80 83       	st	Z, r24
	//Make sure interrupt is disabled until external interrupt
	TIMSK3 &= ~(1<<OCIE3A);
     180:	e1 e7       	ldi	r30, 0x71	; 113
     182:	f0 e0       	ldi	r31, 0x00	; 0
     184:	80 81       	ld	r24, Z
     186:	8d 7f       	andi	r24, 0xFD	; 253
     188:	80 83       	st	Z, r24
	

	//Setup the input interrupt on pin 3 (PE5/INT4)
	DDRE &= ~(1<<PE5);
     18a:	6d 98       	cbi	0x0d, 5	; 13
	EICRB |= (1<<ISC51) | (1<<ISC50);
     18c:	ea e6       	ldi	r30, 0x6A	; 106
     18e:	f0 e0       	ldi	r31, 0x00	; 0
     190:	80 81       	ld	r24, Z
     192:	8c 60       	ori	r24, 0x0C	; 12
     194:	80 83       	st	Z, r24
     196:	08 95       	ret

00000198 <__vector_6>:
// 	EICRB |=
}


//Receiving a signal.
ISR(INT5_vect) {
     198:	1f 92       	push	r1
     19a:	0f 92       	push	r0
     19c:	0f b6       	in	r0, 0x3f	; 63
     19e:	0f 92       	push	r0
     1a0:	11 24       	eor	r1, r1
     1a2:	0b b6       	in	r0, 0x3b	; 59
     1a4:	0f 92       	push	r0
     1a6:	8f 93       	push	r24
     1a8:	9f 93       	push	r25
     1aa:	ef 93       	push	r30
     1ac:	ff 93       	push	r31
	if(!is_receiving) {
     1ae:	80 91 49 02 	lds	r24, 0x0249
     1b2:	81 11       	cpse	r24, r1
     1b4:	17 c0       	rjmp	.+46     	; 0x1e4 <__vector_6+0x4c>
		//Start a new byte, start the timers.
		is_receiving = 1;
     1b6:	81 e0       	ldi	r24, 0x01	; 1
     1b8:	80 93 49 02 	sts	0x0249, r24
		currentBit = 0;
     1bc:	10 92 47 02 	sts	0x0247, r1
		currentByte = 0;
     1c0:	10 92 46 02 	sts	0x0246, r1
		//Clear any existing timer interrupts.
		TIFR1 |= (1<<OCF1A);
     1c4:	b1 9a       	sbi	0x16, 1	; 22
		//Delay by 1.5 bit lengths.
		OCR1A = TCNT1 + 12000;
     1c6:	80 91 84 00 	lds	r24, 0x0084
     1ca:	90 91 85 00 	lds	r25, 0x0085
     1ce:	80 52       	subi	r24, 0x20	; 32
     1d0:	91 4d       	sbci	r25, 0xD1	; 209
     1d2:	90 93 89 00 	sts	0x0089, r25
     1d6:	80 93 88 00 	sts	0x0088, r24
		TIMSK1 |= (1<<OCIE1A);		
     1da:	ef e6       	ldi	r30, 0x6F	; 111
     1dc:	f0 e0       	ldi	r31, 0x00	; 0
     1de:	80 81       	ld	r24, Z
     1e0:	82 60       	ori	r24, 0x02	; 2
     1e2:	80 83       	st	Z, r24
	}	
}
     1e4:	ff 91       	pop	r31
     1e6:	ef 91       	pop	r30
     1e8:	9f 91       	pop	r25
     1ea:	8f 91       	pop	r24
     1ec:	0f 90       	pop	r0
     1ee:	0b be       	out	0x3b, r0	; 59
     1f0:	0f 90       	pop	r0
     1f2:	0f be       	out	0x3f, r0	; 63
     1f4:	0f 90       	pop	r0
     1f6:	1f 90       	pop	r1
     1f8:	18 95       	reti

000001fa <__vector_32>:

//Read a new arriving signal.
ISR(TIMER3_COMPA_vect) {
     1fa:	1f 92       	push	r1
     1fc:	0f 92       	push	r0
     1fe:	0f b6       	in	r0, 0x3f	; 63
     200:	0f 92       	push	r0
     202:	11 24       	eor	r1, r1
     204:	0b b6       	in	r0, 0x3b	; 59
     206:	0f 92       	push	r0
     208:	2f 93       	push	r18
     20a:	3f 93       	push	r19
     20c:	8f 93       	push	r24
     20e:	9f 93       	push	r25
     210:	ef 93       	push	r30
     212:	ff 93       	push	r31
	if(is_receiving) {
     214:	80 91 49 02 	lds	r24, 0x0249
     218:	88 23       	and	r24, r24
     21a:	59 f1       	breq	.+86     	; 0x272 <__vector_32+0x78>
		if(PINE & (1<<PE4)) {
     21c:	64 9b       	sbis	0x0c, 4	; 12
     21e:	0e c0       	rjmp	.+28     	; 0x23c <__vector_32+0x42>
			currentByte |= (1<<currentBit);
     220:	30 91 47 02 	lds	r19, 0x0247
     224:	20 91 46 02 	lds	r18, 0x0246
     228:	81 e0       	ldi	r24, 0x01	; 1
     22a:	90 e0       	ldi	r25, 0x00	; 0
     22c:	02 c0       	rjmp	.+4      	; 0x232 <__vector_32+0x38>
     22e:	88 0f       	add	r24, r24
     230:	99 1f       	adc	r25, r25
     232:	3a 95       	dec	r19
     234:	e2 f7       	brpl	.-8      	; 0x22e <__vector_32+0x34>
     236:	82 2b       	or	r24, r18
     238:	80 93 46 02 	sts	0x0246, r24
		}
	
		++currentBit;
     23c:	80 91 47 02 	lds	r24, 0x0247
     240:	8f 5f       	subi	r24, 0xFF	; 255
     242:	80 93 47 02 	sts	0x0247, r24
		OCR1A += 8000;
     246:	e8 e8       	ldi	r30, 0x88	; 136
     248:	f0 e0       	ldi	r31, 0x00	; 0
     24a:	80 81       	ld	r24, Z
     24c:	91 81       	ldd	r25, Z+1	; 0x01
     24e:	80 5c       	subi	r24, 0xC0	; 192
     250:	90 4e       	sbci	r25, 0xE0	; 224
     252:	91 83       	std	Z+1, r25	; 0x01
     254:	80 83       	st	Z, r24
	
		if(currentBit >= 8) {
     256:	80 91 47 02 	lds	r24, 0x0247
     25a:	88 30       	cpi	r24, 0x08	; 8
     25c:	60 f0       	brcs	.+24     	; 0x276 <__vector_32+0x7c>
			is_receiving = 0;
     25e:	10 92 49 02 	sts	0x0249, r1
			TIMSK1 &= ~(1<<OCIE1A);
     262:	ef e6       	ldi	r30, 0x6F	; 111
     264:	f0 e0       	ldi	r31, 0x00	; 0
     266:	80 81       	ld	r24, Z
     268:	8d 7f       	andi	r24, 0xFD	; 253
     26a:	80 83       	st	Z, r24
			TIFR1 |= (1<<OCF1A);
     26c:	b1 9a       	sbi	0x16, 1	; 22
			EIFR |= (1<<INTF4);
     26e:	e4 9a       	sbi	0x1c, 4	; 28
     270:	02 c0       	rjmp	.+4      	; 0x276 <__vector_32+0x7c>
		}
	}else if (is_transmitting) {
     272:	80 91 48 02 	lds	r24, 0x0248
		
	}
	
}
     276:	ff 91       	pop	r31
     278:	ef 91       	pop	r30
     27a:	9f 91       	pop	r25
     27c:	8f 91       	pop	r24
     27e:	3f 91       	pop	r19
     280:	2f 91       	pop	r18
     282:	0f 90       	pop	r0
     284:	0b be       	out	0x3b, r0	; 59
     286:	0f 90       	pop	r0
     288:	0f be       	out	0x3f, r0	; 63
     28a:	0f 90       	pop	r0
     28c:	1f 90       	pop	r1
     28e:	18 95       	reti

00000290 <_Z15enable_interuptv>:

void enable_interupt() {
	//Clears existing interrupts.
	EIFR |= (1<<INTF4);
     290:	e4 9a       	sbi	0x1c, 4	; 28
	EIMSK |= (1<<INT4);
     292:	ec 9a       	sbi	0x1d, 4	; 29
     294:	08 95       	ret

00000296 <_Z16disable_interuptv>:
}

void disable_interupt() {
	EIMSK &= ~(1<<INT4);
     296:	ec 98       	cbi	0x1d, 4	; 29
	TIMSK1 &= ~(1<<OCIE1A);
     298:	ef e6       	ldi	r30, 0x6F	; 111
     29a:	f0 e0       	ldi	r31, 0x00	; 0
     29c:	80 81       	ld	r24, Z
     29e:	8d 7f       	andi	r24, 0xFD	; 253
     2a0:	80 83       	st	Z, r24
	TIFR1 |= (1<<OCF1A);
     2a2:	b1 9a       	sbi	0x16, 1	; 22
	is_receiving = 0;
     2a4:	10 92 49 02 	sts	0x0249, r1
     2a8:	08 95       	ret

000002aa <_Z4markv>:
}

void mark() {
	TCCR2A |= (1<<COM2A1);;
     2aa:	e0 eb       	ldi	r30, 0xB0	; 176
     2ac:	f0 e0       	ldi	r31, 0x00	; 0
     2ae:	80 81       	ld	r24, Z
     2b0:	80 68       	ori	r24, 0x80	; 128
     2b2:	80 83       	st	Z, r24
	#else
		//round up by default
		__ticks_dc = (uint32_t)(ceil(fabs(__tmp)));
	#endif

	__builtin_avr_delay_cycles(__ticks_dc);
     2b4:	86 ea       	ldi	r24, 0xA6	; 166
     2b6:	8a 95       	dec	r24
     2b8:	f1 f7       	brne	.-4      	; 0x2b6 <_Z4markv+0xc>
     2ba:	00 c0       	rjmp	.+0      	; 0x2bc <_Z4markv+0x12>
     2bc:	08 95       	ret

000002be <_Z5spacev>:
//	PORTC |= (1 << PC2);
	_delay_us(500);
}
void space() {
	TCCR2A &= ~(1 << COM2A1);
     2be:	e0 eb       	ldi	r30, 0xB0	; 176
     2c0:	f0 e0       	ldi	r31, 0x00	; 0
     2c2:	80 81       	ld	r24, Z
     2c4:	8f 77       	andi	r24, 0x7F	; 127
     2c6:	80 83       	st	Z, r24
     2c8:	86 ea       	ldi	r24, 0xA6	; 166
     2ca:	8a 95       	dec	r24
     2cc:	f1 f7       	brne	.-4      	; 0x2ca <_Z5spacev+0xc>
     2ce:	00 c0       	rjmp	.+0      	; 0x2d0 <_Z5spacev+0x12>
     2d0:	08 95       	ret

000002d2 <_Z11IR_transmith>:
//	PORTC &= ~(1 << PC2);
	_delay_us(500);
}

void IR_transmit(uint8_t data) {
     2d2:	0f 93       	push	r16
     2d4:	1f 93       	push	r17
     2d6:	cf 93       	push	r28
     2d8:	df 93       	push	r29
     2da:	08 2f       	mov	r16, r24
	cli();
     2dc:	f8 94       	cli
	disable_interupt();
     2de:	db df       	rcall	.-74     	; 0x296 <_Z16disable_interuptv>
	mark();
     2e0:	e4 df       	rcall	.-56     	; 0x2aa <_Z4markv>
	space();
     2e2:	ed df       	rcall	.-38     	; 0x2be <_Z5spacev>
	for(int i = 0; i < 8; i++) {
     2e4:	c0 e0       	ldi	r28, 0x00	; 0
     2e6:	d0 e0       	ldi	r29, 0x00	; 0
		if(((data >> i) & 0x1)) {
     2e8:	10 e0       	ldi	r17, 0x00	; 0
     2ea:	98 01       	movw	r18, r16
     2ec:	0c 2e       	mov	r0, r28
     2ee:	02 c0       	rjmp	.+4      	; 0x2f4 <_Z11IR_transmith+0x22>
     2f0:	35 95       	asr	r19
     2f2:	27 95       	ror	r18
     2f4:	0a 94       	dec	r0
     2f6:	e2 f7       	brpl	.-8      	; 0x2f0 <_Z11IR_transmith+0x1e>
     2f8:	20 ff       	sbrs	r18, 0
     2fa:	02 c0       	rjmp	.+4      	; 0x300 <_Z11IR_transmith+0x2e>
			mark();
     2fc:	d6 df       	rcall	.-84     	; 0x2aa <_Z4markv>
     2fe:	01 c0       	rjmp	.+2      	; 0x302 <_Z11IR_transmith+0x30>
		} else {
			space();
     300:	de df       	rcall	.-68     	; 0x2be <_Z5spacev>
void IR_transmit(uint8_t data) {
	cli();
	disable_interupt();
	mark();
	space();
	for(int i = 0; i < 8; i++) {
     302:	21 96       	adiw	r28, 0x01	; 1
     304:	c8 30       	cpi	r28, 0x08	; 8
     306:	d1 05       	cpc	r29, r1
     308:	81 f7       	brne	.-32     	; 0x2ea <_Z11IR_transmith+0x18>
			mark();
		} else {
			space();
		}
	}
	space();
     30a:	d9 df       	rcall	.-78     	; 0x2be <_Z5spacev>
	enable_interupt();
     30c:	c1 df       	rcall	.-126    	; 0x290 <_Z15enable_interuptv>
	sei();
     30e:	78 94       	sei
     310:	df 91       	pop	r29
     312:	cf 91       	pop	r28
     314:	1f 91       	pop	r17
     316:	0f 91       	pop	r16
     318:	08 95       	ret

0000031a <_ZL4idlev>:
    arg = cur_task->arg;

    SREG = sreg;

    return arg;
}
     31a:	ff cf       	rjmp	.-2      	; 0x31a <_ZL4idlev>

0000031c <_ZL11exit_kernelv>:
     31c:	ff 93       	push	r31
     31e:	fc b7       	in	r31, 0x3c	; 60
     320:	ff 93       	push	r31
     322:	ff b7       	in	r31, 0x3f	; 63
     324:	f8 94       	cli
     326:	ff 93       	push	r31
     328:	ef 93       	push	r30
     32a:	df 93       	push	r29
     32c:	cf 93       	push	r28
     32e:	bf 93       	push	r27
     330:	af 93       	push	r26
     332:	9f 93       	push	r25
     334:	8f 93       	push	r24
     336:	7f 93       	push	r23
     338:	6f 93       	push	r22
     33a:	5f 93       	push	r21
     33c:	4f 93       	push	r20
     33e:	3f 93       	push	r19
     340:	2f 93       	push	r18
     342:	1f 93       	push	r17
     344:	0f 93       	push	r16
     346:	ff 92       	push	r15
     348:	ef 92       	push	r14
     34a:	df 92       	push	r13
     34c:	cf 92       	push	r12
     34e:	bf 92       	push	r11
     350:	af 92       	push	r10
     352:	9f 92       	push	r9
     354:	8f 92       	push	r8
     356:	7f 92       	push	r7
     358:	6f 92       	push	r6
     35a:	5f 92       	push	r5
     35c:	4f 92       	push	r4
     35e:	3f 92       	push	r3
     360:	2f 92       	push	r2
     362:	1f 92       	push	r1
     364:	0f 92       	push	r0
     366:	8d b7       	in	r24, 0x3d	; 61
     368:	9e b7       	in	r25, 0x3e	; 62
     36a:	90 93 1f 15 	sts	0x151F, r25
     36e:	80 93 1e 15 	sts	0x151E, r24
     372:	e0 91 20 15 	lds	r30, 0x1520
     376:	f0 91 21 15 	lds	r31, 0x1521
     37a:	fe 5f       	subi	r31, 0xFE	; 254
     37c:	80 81       	ld	r24, Z
     37e:	91 81       	ldd	r25, Z+1	; 0x01
     380:	9e bf       	out	0x3e, r25	; 62
     382:	8d bf       	out	0x3d, r24	; 61
     384:	0f 90       	pop	r0
     386:	1f 90       	pop	r1
     388:	2f 90       	pop	r2
     38a:	3f 90       	pop	r3
     38c:	4f 90       	pop	r4
     38e:	5f 90       	pop	r5
     390:	6f 90       	pop	r6
     392:	7f 90       	pop	r7
     394:	8f 90       	pop	r8
     396:	9f 90       	pop	r9
     398:	af 90       	pop	r10
     39a:	bf 90       	pop	r11
     39c:	cf 90       	pop	r12
     39e:	df 90       	pop	r13
     3a0:	ef 90       	pop	r14
     3a2:	ff 90       	pop	r15
     3a4:	0f 91       	pop	r16
     3a6:	1f 91       	pop	r17
     3a8:	2f 91       	pop	r18
     3aa:	3f 91       	pop	r19
     3ac:	4f 91       	pop	r20
     3ae:	5f 91       	pop	r21
     3b0:	6f 91       	pop	r22
     3b2:	7f 91       	pop	r23
     3b4:	8f 91       	pop	r24
     3b6:	9f 91       	pop	r25
     3b8:	af 91       	pop	r26
     3ba:	bf 91       	pop	r27
     3bc:	cf 91       	pop	r28
     3be:	df 91       	pop	r29
     3c0:	ef 91       	pop	r30
     3c2:	ff 91       	pop	r31
     3c4:	ff bf       	out	0x3f, r31	; 63
     3c6:	ff 91       	pop	r31
     3c8:	fc bf       	out	0x3c, r31	; 60
     3ca:	ff 91       	pop	r31
     3cc:	08 95       	ret

000003ce <_ZL12enter_kernelv>:
     3ce:	ff 93       	push	r31
     3d0:	fc b7       	in	r31, 0x3c	; 60
     3d2:	ff 93       	push	r31
     3d4:	ff b7       	in	r31, 0x3f	; 63
     3d6:	f8 94       	cli
     3d8:	ff 93       	push	r31
     3da:	ef 93       	push	r30
     3dc:	df 93       	push	r29
     3de:	cf 93       	push	r28
     3e0:	bf 93       	push	r27
     3e2:	af 93       	push	r26
     3e4:	9f 93       	push	r25
     3e6:	8f 93       	push	r24
     3e8:	7f 93       	push	r23
     3ea:	6f 93       	push	r22
     3ec:	5f 93       	push	r21
     3ee:	4f 93       	push	r20
     3f0:	3f 93       	push	r19
     3f2:	2f 93       	push	r18
     3f4:	1f 93       	push	r17
     3f6:	0f 93       	push	r16
     3f8:	ff 92       	push	r15
     3fa:	ef 92       	push	r14
     3fc:	df 92       	push	r13
     3fe:	cf 92       	push	r12
     400:	bf 92       	push	r11
     402:	af 92       	push	r10
     404:	9f 92       	push	r9
     406:	8f 92       	push	r8
     408:	7f 92       	push	r7
     40a:	6f 92       	push	r6
     40c:	5f 92       	push	r5
     40e:	4f 92       	push	r4
     410:	3f 92       	push	r3
     412:	2f 92       	push	r2
     414:	1f 92       	push	r1
     416:	0f 92       	push	r0
     418:	e0 91 20 15 	lds	r30, 0x1520
     41c:	f0 91 21 15 	lds	r31, 0x1521
     420:	8d b7       	in	r24, 0x3d	; 61
     422:	9e b7       	in	r25, 0x3e	; 62
     424:	fe 5f       	subi	r31, 0xFE	; 254
     426:	91 83       	std	Z+1, r25	; 0x01
     428:	80 83       	st	Z, r24
     42a:	80 91 1e 15 	lds	r24, 0x151E
     42e:	90 91 1f 15 	lds	r25, 0x151F
     432:	9e bf       	out	0x3e, r25	; 62
     434:	8d bf       	out	0x3d, r24	; 61
     436:	0f 90       	pop	r0
     438:	1f 90       	pop	r1
     43a:	2f 90       	pop	r2
     43c:	3f 90       	pop	r3
     43e:	4f 90       	pop	r4
     440:	5f 90       	pop	r5
     442:	6f 90       	pop	r6
     444:	7f 90       	pop	r7
     446:	8f 90       	pop	r8
     448:	9f 90       	pop	r9
     44a:	af 90       	pop	r10
     44c:	bf 90       	pop	r11
     44e:	cf 90       	pop	r12
     450:	df 90       	pop	r13
     452:	ef 90       	pop	r14
     454:	ff 90       	pop	r15
     456:	0f 91       	pop	r16
     458:	1f 91       	pop	r17
     45a:	2f 91       	pop	r18
     45c:	3f 91       	pop	r19
     45e:	4f 91       	pop	r20
     460:	5f 91       	pop	r21
     462:	6f 91       	pop	r22
     464:	7f 91       	pop	r23
     466:	8f 91       	pop	r24
     468:	9f 91       	pop	r25
     46a:	af 91       	pop	r26
     46c:	bf 91       	pop	r27
     46e:	cf 91       	pop	r28
     470:	df 91       	pop	r29
     472:	ef 91       	pop	r30
     474:	ff 91       	pop	r31
     476:	ff bf       	out	0x3f, r31	; 63
     478:	ff 91       	pop	r31
     47a:	fc bf       	out	0x3c, r31	; 60
     47c:	ff 91       	pop	r31
     47e:	08 95       	ret

00000480 <_ZL7enqueueP7queue_tP9td_struct>:
     480:	fc 01       	movw	r30, r24
     482:	db 01       	movw	r26, r22
     484:	a9 5f       	subi	r26, 0xF9	; 249
     486:	bd 4f       	sbci	r27, 0xFD	; 253
     488:	1d 92       	st	X+, r1
     48a:	1c 92       	st	X, r1
     48c:	80 81       	ld	r24, Z
     48e:	91 81       	ldd	r25, Z+1	; 0x01
     490:	89 2b       	or	r24, r25
     492:	29 f4       	brne	.+10     	; 0x49e <_ZL7enqueueP7queue_tP9td_struct+0x1e>
     494:	71 83       	std	Z+1, r23	; 0x01
     496:	60 83       	st	Z, r22
     498:	73 83       	std	Z+3, r23	; 0x03
     49a:	62 83       	std	Z+2, r22	; 0x02
     49c:	08 95       	ret
     49e:	a2 81       	ldd	r26, Z+2	; 0x02
     4a0:	b3 81       	ldd	r27, Z+3	; 0x03
     4a2:	a9 5f       	subi	r26, 0xF9	; 249
     4a4:	bd 4f       	sbci	r27, 0xFD	; 253
     4a6:	6d 93       	st	X+, r22
     4a8:	7c 93       	st	X, r23
     4aa:	73 83       	std	Z+3, r23	; 0x03
     4ac:	62 83       	std	Z+2, r22	; 0x02
     4ae:	08 95       	ret

000004b0 <_ZL7dequeueP7queue_t>:
     4b0:	fc 01       	movw	r30, r24
     4b2:	80 81       	ld	r24, Z
     4b4:	91 81       	ldd	r25, Z+1	; 0x01
     4b6:	00 97       	sbiw	r24, 0x00	; 0
     4b8:	51 f0       	breq	.+20     	; 0x4ce <_ZL7dequeueP7queue_t+0x1e>
     4ba:	dc 01       	movw	r26, r24
     4bc:	a9 5f       	subi	r26, 0xF9	; 249
     4be:	bd 4f       	sbci	r27, 0xFD	; 253
     4c0:	2d 91       	ld	r18, X+
     4c2:	3c 91       	ld	r19, X
     4c4:	11 97       	sbiw	r26, 0x01	; 1
     4c6:	31 83       	std	Z+1, r19	; 0x01
     4c8:	20 83       	st	Z, r18
     4ca:	1d 92       	st	X+, r1
     4cc:	1c 92       	st	X, r1
     4ce:	08 95       	ret

000004d0 <Task_Terminate>:
     4d0:	cf 93       	push	r28
     4d2:	cf b7       	in	r28, 0x3f	; 63
     4d4:	f8 94       	cli
     4d6:	83 e0       	ldi	r24, 0x03	; 3
     4d8:	80 93 96 02 	sts	0x0296, r24
     4dc:	78 df       	rcall	.-272    	; 0x3ce <_ZL12enter_kernelv>
     4de:	cf bf       	out	0x3f, r28	; 63
     4e0:	cf 91       	pop	r28
     4e2:	08 95       	ret

000004e4 <__vector_17>:
     4e4:	ff 93       	push	r31
     4e6:	fc b7       	in	r31, 0x3c	; 60
     4e8:	ff 93       	push	r31
     4ea:	ff b7       	in	r31, 0x3f	; 63
     4ec:	f8 94       	cli
     4ee:	f0 68       	ori	r31, 0x80	; 128
     4f0:	ff 93       	push	r31
     4f2:	ef 93       	push	r30
     4f4:	df 93       	push	r29
     4f6:	cf 93       	push	r28
     4f8:	bf 93       	push	r27
     4fa:	af 93       	push	r26
     4fc:	9f 93       	push	r25
     4fe:	8f 93       	push	r24
     500:	7f 93       	push	r23
     502:	6f 93       	push	r22
     504:	5f 93       	push	r21
     506:	4f 93       	push	r20
     508:	3f 93       	push	r19
     50a:	2f 93       	push	r18
     50c:	1f 93       	push	r17
     50e:	0f 93       	push	r16
     510:	ff 92       	push	r15
     512:	ef 92       	push	r14
     514:	df 92       	push	r13
     516:	cf 92       	push	r12
     518:	bf 92       	push	r11
     51a:	af 92       	push	r10
     51c:	9f 92       	push	r9
     51e:	8f 92       	push	r8
     520:	7f 92       	push	r7
     522:	6f 92       	push	r6
     524:	5f 92       	push	r5
     526:	4f 92       	push	r4
     528:	3f 92       	push	r3
     52a:	2f 92       	push	r2
     52c:	1f 92       	push	r1
     52e:	0f 92       	push	r0
     530:	e0 91 20 15 	lds	r30, 0x1520
     534:	f0 91 21 15 	lds	r31, 0x1521
     538:	8d b7       	in	r24, 0x3d	; 61
     53a:	9e b7       	in	r25, 0x3e	; 62
     53c:	fe 5f       	subi	r31, 0xFE	; 254
     53e:	91 83       	std	Z+1, r25	; 0x01
     540:	80 83       	st	Z, r24
     542:	80 91 1e 15 	lds	r24, 0x151E
     546:	90 91 1f 15 	lds	r25, 0x151F
     54a:	9e bf       	out	0x3e, r25	; 62
     54c:	8d bf       	out	0x3d, r24	; 61
     54e:	81 e0       	ldi	r24, 0x01	; 1
     550:	80 93 96 02 	sts	0x0296, r24
     554:	e8 e8       	ldi	r30, 0x88	; 136
     556:	f0 e0       	ldi	r31, 0x00	; 0
     558:	80 81       	ld	r24, Z
     55a:	91 81       	ldd	r25, Z+1	; 0x01
     55c:	80 5f       	subi	r24, 0xF0	; 240
     55e:	98 4d       	sbci	r25, 0xD8	; 216
     560:	91 83       	std	Z+1, r25	; 0x01
     562:	80 83       	st	Z, r24
     564:	80 91 1e 15 	lds	r24, 0x151E
     568:	90 91 1f 15 	lds	r25, 0x151F
     56c:	9e bf       	out	0x3e, r25	; 62
     56e:	8d bf       	out	0x3d, r24	; 61
     570:	0f 90       	pop	r0
     572:	1f 90       	pop	r1
     574:	2f 90       	pop	r2
     576:	3f 90       	pop	r3
     578:	4f 90       	pop	r4
     57a:	5f 90       	pop	r5
     57c:	6f 90       	pop	r6
     57e:	7f 90       	pop	r7
     580:	8f 90       	pop	r8
     582:	9f 90       	pop	r9
     584:	af 90       	pop	r10
     586:	bf 90       	pop	r11
     588:	cf 90       	pop	r12
     58a:	df 90       	pop	r13
     58c:	ef 90       	pop	r14
     58e:	ff 90       	pop	r15
     590:	0f 91       	pop	r16
     592:	1f 91       	pop	r17
     594:	2f 91       	pop	r18
     596:	3f 91       	pop	r19
     598:	4f 91       	pop	r20
     59a:	5f 91       	pop	r21
     59c:	6f 91       	pop	r22
     59e:	7f 91       	pop	r23
     5a0:	8f 91       	pop	r24
     5a2:	9f 91       	pop	r25
     5a4:	af 91       	pop	r26
     5a6:	bf 91       	pop	r27
     5a8:	cf 91       	pop	r28
     5aa:	df 91       	pop	r29
     5ac:	ef 91       	pop	r30
     5ae:	ff 91       	pop	r31
     5b0:	ff bf       	out	0x3f, r31	; 63
     5b2:	ff 91       	pop	r31
     5b4:	fc bf       	out	0x3c, r31	; 60
     5b6:	ff 91       	pop	r31
     5b8:	08 95       	ret

000005ba <OS_Abort>:
     5ba:	f8 94       	cli
     5bc:	80 e8       	ldi	r24, 0x80	; 128
     5be:	84 b9       	out	0x04, r24	; 4
     5c0:	15 b8       	out	0x05, r1	; 5
     5c2:	20 91 14 02 	lds	r18, 0x0214
     5c6:	2f 5f       	subi	r18, 0xFF	; 255
     5c8:	90 e0       	ldi	r25, 0x00	; 0
     5ca:	38 ec       	ldi	r19, 0xC8	; 200
     5cc:	40 e0       	ldi	r20, 0x00	; 0
     5ce:	18 c0       	rjmp	.+48     	; 0x600 <OS_Abort+0x46>
     5d0:	84 b1       	in	r24, 0x04	; 4
     5d2:	85 b9       	out	0x05, r24	; 5
     5d4:	80 e5       	ldi	r24, 0x50	; 80
     5d6:	e9 e6       	ldi	r30, 0x69	; 105
     5d8:	f8 e1       	ldi	r31, 0x18	; 24
     5da:	31 97       	sbiw	r30, 0x01	; 1
     5dc:	f1 f7       	brne	.-4      	; 0x5da <OS_Abort+0x20>
     5de:	00 c0       	rjmp	.+0      	; 0x5e0 <OS_Abort+0x26>
     5e0:	00 00       	nop
     5e2:	81 50       	subi	r24, 0x01	; 1
     5e4:	c1 f7       	brne	.-16     	; 0x5d6 <OS_Abort+0x1c>
     5e6:	15 b8       	out	0x05, r1	; 5
     5e8:	80 e5       	ldi	r24, 0x50	; 80
     5ea:	e9 e6       	ldi	r30, 0x69	; 105
     5ec:	f8 e1       	ldi	r31, 0x18	; 24
     5ee:	31 97       	sbiw	r30, 0x01	; 1
     5f0:	f1 f7       	brne	.-4      	; 0x5ee <OS_Abort+0x34>
     5f2:	00 c0       	rjmp	.+0      	; 0x5f4 <OS_Abort+0x3a>
     5f4:	00 00       	nop
     5f6:	81 50       	subi	r24, 0x01	; 1
     5f8:	c1 f7       	brne	.-16     	; 0x5ea <OS_Abort+0x30>
     5fa:	9f 5f       	subi	r25, 0xFF	; 255
     5fc:	01 c0       	rjmp	.+2      	; 0x600 <OS_Abort+0x46>
     5fe:	94 2f       	mov	r25, r20
     600:	92 17       	cp	r25, r18
     602:	30 f3       	brcs	.-52     	; 0x5d0 <OS_Abort+0x16>
     604:	83 2f       	mov	r24, r19
     606:	e9 e6       	ldi	r30, 0x69	; 105
     608:	f8 e1       	ldi	r31, 0x18	; 24
     60a:	31 97       	sbiw	r30, 0x01	; 1
     60c:	f1 f7       	brne	.-4      	; 0x60a <OS_Abort+0x50>
     60e:	00 c0       	rjmp	.+0      	; 0x610 <OS_Abort+0x56>
     610:	00 00       	nop
     612:	81 50       	subi	r24, 0x01	; 1
     614:	c1 f7       	brne	.-16     	; 0x606 <OS_Abort+0x4c>
     616:	f3 cf       	rjmp	.-26     	; 0x5fe <OS_Abort+0x44>

00000618 <_ZL18kernel_create_taskv>:
     618:	af 92       	push	r10
     61a:	bf 92       	push	r11
     61c:	cf 92       	push	r12
     61e:	df 92       	push	r13
     620:	ef 92       	push	r14
     622:	ff 92       	push	r15
     624:	0f 93       	push	r16
     626:	1f 93       	push	r17
     628:	cf 93       	push	r28
     62a:	df 93       	push	r29
     62c:	80 91 81 02 	lds	r24, 0x0281
     630:	90 91 82 02 	lds	r25, 0x0282
     634:	89 2b       	or	r24, r25
     636:	09 f4       	brne	.+2      	; 0x63a <_ZL18kernel_create_taskv+0x22>
     638:	47 c1       	rjmp	.+654    	; 0x8c8 <_ZL18kernel_create_taskv+0x2b0>
     63a:	80 91 8f 02 	lds	r24, 0x028F
     63e:	82 30       	cpi	r24, 0x02	; 2
     640:	09 f0       	breq	.+2      	; 0x644 <_ZL18kernel_create_taskv+0x2c>
     642:	4f c1       	rjmp	.+670    	; 0x8e2 <_ZL18kernel_create_taskv+0x2ca>
     644:	80 91 90 02 	lds	r24, 0x0290
     648:	90 91 91 02 	lds	r25, 0x0291
     64c:	89 2b       	or	r24, r25
     64e:	09 f4       	brne	.+2      	; 0x652 <_ZL18kernel_create_taskv+0x3a>
     650:	44 c1       	rjmp	.+648    	; 0x8da <_ZL18kernel_create_taskv+0x2c2>
     652:	80 91 92 02 	lds	r24, 0x0292
     656:	90 91 93 02 	lds	r25, 0x0293
     65a:	89 2b       	or	r24, r25
     65c:	09 f4       	brne	.+2      	; 0x660 <_ZL18kernel_create_taskv+0x48>
     65e:	3d c1       	rjmp	.+634    	; 0x8da <_ZL18kernel_create_taskv+0x2c2>
     660:	40 c1       	rjmp	.+640    	; 0x8e2 <_ZL18kernel_create_taskv+0x2ca>
     662:	81 e8       	ldi	r24, 0x81	; 129
     664:	92 e0       	ldi	r25, 0x02	; 2
     666:	24 df       	rcall	.-440    	; 0x4b0 <_ZL7dequeueP7queue_t>
     668:	bc 01       	movw	r22, r24
     66a:	02 c0       	rjmp	.+4      	; 0x670 <_ZL18kernel_create_taskv+0x58>
     66c:	6f e0       	ldi	r22, 0x0F	; 15
     66e:	73 e1       	ldi	r23, 0x13	; 19
     670:	cb 01       	movw	r24, r22
     672:	89 52       	subi	r24, 0x29	; 41
     674:	9e 4f       	sbci	r25, 0xFE	; 254
     676:	fc 01       	movw	r30, r24
     678:	20 e0       	ldi	r18, 0x00	; 0
     67a:	21 93       	st	Z+, r18
     67c:	2f 5f       	subi	r18, 0xFF	; 255
     67e:	2f 31       	cpi	r18, 0x1F	; 31
     680:	e1 f7       	brne	.-8      	; 0x67a <_ZL18kernel_create_taskv+0x62>
     682:	25 e5       	ldi	r18, 0x55	; 85
     684:	fb 01       	movw	r30, r22
     686:	ea 50       	subi	r30, 0x0A	; 10
     688:	fe 4f       	sbci	r31, 0xFE	; 254
     68a:	20 83       	st	Z, r18
     68c:	2e ee       	ldi	r18, 0xEE	; 238
     68e:	31 96       	adiw	r30, 0x01	; 1
     690:	20 83       	st	Z, r18
     692:	7e 97       	sbiw	r30, 0x1e	; 30
     694:	10 82       	st	Z, r1
     696:	20 e8       	ldi	r18, 0x80	; 128
     698:	7f 96       	adiw	r30, 0x1f	; 31
     69a:	20 83       	st	Z, r18
     69c:	32 96       	adiw	r30, 0x02	; 2
     69e:	10 82       	st	Z, r1
     6a0:	eb e8       	ldi	r30, 0x8B	; 139
     6a2:	f2 e0       	ldi	r31, 0x02	; 2
     6a4:	20 81       	ld	r18, Z
     6a6:	31 81       	ldd	r19, Z+1	; 0x01
     6a8:	db 01       	movw	r26, r22
     6aa:	a5 50       	subi	r26, 0x05	; 5
     6ac:	be 4f       	sbci	r27, 0xFE	; 254
     6ae:	3c 93       	st	X, r19
     6b0:	20 81       	ld	r18, Z
     6b2:	31 81       	ldd	r19, Z+1	; 0x01
     6b4:	fb 01       	movw	r30, r22
     6b6:	e4 50       	subi	r30, 0x04	; 4
     6b8:	fe 4f       	sbci	r31, 0xFE	; 254
     6ba:	20 83       	st	Z, r18
     6bc:	31 96       	adiw	r30, 0x01	; 1
     6be:	10 82       	st	Z, r1
     6c0:	28 e6       	ldi	r18, 0x68	; 104
     6c2:	32 e0       	ldi	r19, 0x02	; 2
     6c4:	31 96       	adiw	r30, 0x01	; 1
     6c6:	30 83       	st	Z, r19
     6c8:	31 96       	adiw	r30, 0x01	; 1
     6ca:	20 83       	st	Z, r18
     6cc:	31 96       	adiw	r30, 0x01	; 1
     6ce:	91 83       	std	Z+1, r25	; 0x01
     6d0:	80 83       	st	Z, r24
     6d2:	82 e0       	ldi	r24, 0x02	; 2
     6d4:	33 96       	adiw	r30, 0x03	; 3
     6d6:	80 83       	st	Z, r24
     6d8:	80 91 8d 02 	lds	r24, 0x028D
     6dc:	90 91 8e 02 	lds	r25, 0x028E
     6e0:	31 96       	adiw	r30, 0x01	; 1
     6e2:	91 83       	std	Z+1, r25	; 0x01
     6e4:	80 83       	st	Z, r24
     6e6:	ef e8       	ldi	r30, 0x8F	; 143
     6e8:	f2 e0       	ldi	r31, 0x02	; 2
     6ea:	80 81       	ld	r24, Z
     6ec:	1b 96       	adiw	r26, 0x0b	; 11
     6ee:	8c 93       	st	X, r24
     6f0:	80 81       	ld	r24, Z
     6f2:	82 30       	cpi	r24, 0x02	; 2
     6f4:	39 f0       	breq	.+14     	; 0x704 <_ZL18kernel_create_taskv+0xec>
     6f6:	83 30       	cpi	r24, 0x03	; 3
     6f8:	09 f4       	brne	.+2      	; 0x6fc <_ZL18kernel_create_taskv+0xe4>
     6fa:	da c0       	rjmp	.+436    	; 0x8b0 <_ZL18kernel_create_taskv+0x298>
     6fc:	81 30       	cpi	r24, 0x01	; 1
     6fe:	09 f0       	breq	.+2      	; 0x702 <_ZL18kernel_create_taskv+0xea>
     700:	e6 c0       	rjmp	.+460    	; 0x8ce <_ZL18kernel_create_taskv+0x2b6>
     702:	dc c0       	rjmp	.+440    	; 0x8bc <_ZL18kernel_create_taskv+0x2a4>
     704:	80 91 94 02 	lds	r24, 0x0294
     708:	90 91 95 02 	lds	r25, 0x0295
     70c:	fb 01       	movw	r30, r22
     70e:	e3 5f       	subi	r30, 0xF3	; 243
     710:	fd 4f       	sbci	r31, 0xFD	; 253
     712:	91 83       	std	Z+1, r25	; 0x01
     714:	80 83       	st	Z, r24
     716:	80 91 92 02 	lds	r24, 0x0292
     71a:	90 91 93 02 	lds	r25, 0x0293
     71e:	32 97       	sbiw	r30, 0x02	; 2
     720:	91 83       	std	Z+1, r25	; 0x01
     722:	80 83       	st	Z, r24
     724:	80 91 90 02 	lds	r24, 0x0290
     728:	90 91 91 02 	lds	r25, 0x0291
     72c:	32 97       	sbiw	r30, 0x02	; 2
     72e:	91 83       	std	Z+1, r25	; 0x01
     730:	80 83       	st	Z, r24
     732:	32 97       	sbiw	r30, 0x02	; 2
     734:	11 82       	std	Z+1, r1	; 0x01
     736:	10 82       	st	Z, r1
     738:	e0 90 74 02 	lds	r14, 0x0274
     73c:	f0 90 75 02 	lds	r15, 0x0275
     740:	e1 14       	cp	r14, r1
     742:	f1 04       	cpc	r15, r1
     744:	99 f4       	brne	.+38     	; 0x76c <_ZL18kernel_create_taskv+0x154>
     746:	70 93 75 02 	sts	0x0275, r23
     74a:	60 93 74 02 	sts	0x0274, r22
     74e:	70 93 77 02 	sts	0x0277, r23
     752:	60 93 76 02 	sts	0x0276, r22
     756:	32 96       	adiw	r30, 0x02	; 2
     758:	80 81       	ld	r24, Z
     75a:	80 93 53 02 	sts	0x0253, r24
     75e:	70 93 4d 02 	sts	0x024D, r23
     762:	60 93 4c 02 	sts	0x024C, r22
     766:	81 e0       	ldi	r24, 0x01	; 1
     768:	90 e0       	ldi	r25, 0x00	; 0
     76a:	cf c0       	rjmp	.+414    	; 0x90a <_ZL18kernel_create_taskv+0x2f2>
     76c:	fb 01       	movw	r30, r22
     76e:	e3 5f       	subi	r30, 0xF3	; 243
     770:	fd 4f       	sbci	r31, 0xFD	; 253
     772:	20 81       	ld	r18, Z
     774:	31 81       	ldd	r19, Z+1	; 0x01
     776:	f7 01       	movw	r30, r14
     778:	e3 5f       	subi	r30, 0xF3	; 243
     77a:	fd 4f       	sbci	r31, 0xFD	; 253
     77c:	80 81       	ld	r24, Z
     77e:	91 81       	ldd	r25, Z+1	; 0x01
     780:	28 17       	cp	r18, r24
     782:	39 07       	cpc	r19, r25
     784:	08 f0       	brcs	.+2      	; 0x788 <_ZL18kernel_create_taskv+0x170>
     786:	b6 c0       	rjmp	.+364    	; 0x8f4 <_ZL18kernel_create_taskv+0x2dc>
     788:	fb 01       	movw	r30, r22
     78a:	e7 5f       	subi	r30, 0xF7	; 247
     78c:	fd 4f       	sbci	r31, 0xFD	; 253
     78e:	40 81       	ld	r20, Z
     790:	51 81       	ldd	r21, Z+1	; 0x01
     792:	24 0f       	add	r18, r20
     794:	35 1f       	adc	r19, r21
     796:	82 17       	cp	r24, r18
     798:	93 07       	cpc	r25, r19
     79a:	08 f4       	brcc	.+2      	; 0x79e <_ZL18kernel_create_taskv+0x186>
     79c:	ab c0       	rjmp	.+342    	; 0x8f4 <_ZL18kernel_create_taskv+0x2dc>
     79e:	32 97       	sbiw	r30, 0x02	; 2
     7a0:	f1 82       	std	Z+1, r15	; 0x01
     7a2:	e0 82       	st	Z, r14
     7a4:	70 93 75 02 	sts	0x0275, r23
     7a8:	60 93 74 02 	sts	0x0274, r22
     7ac:	f7 01       	movw	r30, r14
     7ae:	e9 5f       	subi	r30, 0xF9	; 249
     7b0:	fd 4f       	sbci	r31, 0xFD	; 253
     7b2:	80 81       	ld	r24, Z
     7b4:	91 81       	ldd	r25, Z+1	; 0x01
     7b6:	89 2b       	or	r24, r25
     7b8:	09 f0       	breq	.+2      	; 0x7bc <_ZL18kernel_create_taskv+0x1a4>
     7ba:	99 c0       	rjmp	.+306    	; 0x8ee <_ZL18kernel_create_taskv+0x2d6>
     7bc:	c7 01       	movw	r24, r14
     7be:	41 e0       	ldi	r20, 0x01	; 1
     7c0:	4e c0       	rjmp	.+156    	; 0x85e <_ZL18kernel_create_taskv+0x246>
     7c2:	db 01       	movw	r26, r22
     7c4:	a3 5f       	subi	r26, 0xF3	; 243
     7c6:	bd 4f       	sbci	r27, 0xFD	; 253
     7c8:	eb 01       	movw	r28, r22
     7ca:	c7 5f       	subi	r28, 0xF7	; 247
     7cc:	dd 4f       	sbci	r29, 0xFD	; 253
     7ce:	8b 01       	movw	r16, r22
     7d0:	09 5f       	subi	r16, 0xF9	; 249
     7d2:	1d 4f       	sbci	r17, 0xFD	; 253
     7d4:	aa 24       	eor	r10, r10
     7d6:	a3 94       	inc	r10
     7d8:	b1 2c       	mov	r11, r1
     7da:	2d 91       	ld	r18, X+
     7dc:	3c 91       	ld	r19, X
     7de:	11 97       	sbiw	r26, 0x01	; 1
     7e0:	fc 01       	movw	r30, r24
     7e2:	e3 5f       	subi	r30, 0xF3	; 243
     7e4:	fd 4f       	sbci	r31, 0xFD	; 253
     7e6:	40 81       	ld	r20, Z
     7e8:	51 81       	ldd	r21, Z+1	; 0x01
     7ea:	24 17       	cp	r18, r20
     7ec:	35 07       	cpc	r19, r21
     7ee:	00 f5       	brcc	.+64     	; 0x830 <_ZL18kernel_create_taskv+0x218>
     7f0:	e8 81       	ld	r30, Y
     7f2:	f9 81       	ldd	r31, Y+1	; 0x01
     7f4:	e2 0f       	add	r30, r18
     7f6:	f3 1f       	adc	r31, r19
     7f8:	4e 17       	cp	r20, r30
     7fa:	5f 07       	cpc	r21, r31
     7fc:	c8 f0       	brcs	.+50     	; 0x830 <_ZL18kernel_create_taskv+0x218>
     7fe:	f7 01       	movw	r30, r14
     800:	e7 5f       	subi	r30, 0xF7	; 247
     802:	fd 4f       	sbci	r31, 0xFD	; 253
     804:	c0 80       	ld	r12, Z
     806:	d1 80       	ldd	r13, Z+1	; 0x01
     808:	34 96       	adiw	r30, 0x04	; 4
     80a:	01 90       	ld	r0, Z+
     80c:	f0 81       	ld	r31, Z
     80e:	e0 2d       	mov	r30, r0
     810:	ec 0d       	add	r30, r12
     812:	fd 1d       	adc	r31, r13
     814:	2e 17       	cp	r18, r30
     816:	3f 07       	cpc	r19, r31
     818:	58 f0       	brcs	.+22     	; 0x830 <_ZL18kernel_create_taskv+0x218>
     81a:	f8 01       	movw	r30, r16
     81c:	91 83       	std	Z+1, r25	; 0x01
     81e:	80 83       	st	Z, r24
     820:	f7 01       	movw	r30, r14
     822:	e9 5f       	subi	r30, 0xF9	; 249
     824:	fd 4f       	sbci	r31, 0xFD	; 253
     826:	71 83       	std	Z+1, r23	; 0x01
     828:	60 83       	st	Z, r22
     82a:	c7 01       	movw	r24, r14
     82c:	4a 2d       	mov	r20, r10
     82e:	08 c0       	rjmp	.+16     	; 0x840 <_ZL18kernel_create_taskv+0x228>
     830:	42 17       	cp	r20, r18
     832:	53 07       	cpc	r21, r19
     834:	20 f0       	brcs	.+8      	; 0x83e <_ZL18kernel_create_taskv+0x226>
     836:	83 e0       	ldi	r24, 0x03	; 3
     838:	80 93 14 02 	sts	0x0214, r24
     83c:	be de       	rcall	.-644    	; 0x5ba <OS_Abort>
     83e:	4b 2d       	mov	r20, r11
     840:	00 97       	sbiw	r24, 0x00	; 0
     842:	69 f0       	breq	.+26     	; 0x85e <_ZL18kernel_create_taskv+0x246>
     844:	fc 01       	movw	r30, r24
     846:	e9 5f       	subi	r30, 0xF9	; 249
     848:	fd 4f       	sbci	r31, 0xFD	; 253
     84a:	20 81       	ld	r18, Z
     84c:	31 81       	ldd	r19, Z+1	; 0x01
     84e:	21 15       	cp	r18, r1
     850:	31 05       	cpc	r19, r1
     852:	29 f0       	breq	.+10     	; 0x85e <_ZL18kernel_create_taskv+0x246>
     854:	41 11       	cpse	r20, r1
     856:	4b c0       	rjmp	.+150    	; 0x8ee <_ZL18kernel_create_taskv+0x2d6>
     858:	7c 01       	movw	r14, r24
     85a:	c9 01       	movw	r24, r18
     85c:	be cf       	rjmp	.-132    	; 0x7da <_ZL18kernel_create_taskv+0x1c2>
     85e:	41 11       	cpse	r20, r1
     860:	39 c0       	rjmp	.+114    	; 0x8d4 <_ZL18kernel_create_taskv+0x2bc>
     862:	fc 01       	movw	r30, r24
     864:	e7 5f       	subi	r30, 0xF7	; 247
     866:	fd 4f       	sbci	r31, 0xFD	; 253
     868:	dc 01       	movw	r26, r24
     86a:	a3 5f       	subi	r26, 0xF3	; 243
     86c:	bd 4f       	sbci	r27, 0xFD	; 253
     86e:	20 81       	ld	r18, Z
     870:	31 81       	ldd	r19, Z+1	; 0x01
     872:	8d 91       	ld	r24, X+
     874:	9c 91       	ld	r25, X
     876:	28 0f       	add	r18, r24
     878:	39 1f       	adc	r19, r25
     87a:	fb 01       	movw	r30, r22
     87c:	e3 5f       	subi	r30, 0xF3	; 243
     87e:	fd 4f       	sbci	r31, 0xFD	; 253
     880:	80 81       	ld	r24, Z
     882:	91 81       	ldd	r25, Z+1	; 0x01
     884:	82 17       	cp	r24, r18
     886:	93 07       	cpc	r25, r19
     888:	78 f0       	brcs	.+30     	; 0x8a8 <_ZL18kernel_create_taskv+0x290>
     88a:	e0 91 76 02 	lds	r30, 0x0276
     88e:	f0 91 77 02 	lds	r31, 0x0277
     892:	e9 5f       	subi	r30, 0xF9	; 249
     894:	fd 4f       	sbci	r31, 0xFD	; 253
     896:	71 83       	std	Z+1, r23	; 0x01
     898:	60 83       	st	Z, r22
     89a:	70 93 77 02 	sts	0x0277, r23
     89e:	60 93 76 02 	sts	0x0276, r22
     8a2:	81 e0       	ldi	r24, 0x01	; 1
     8a4:	90 e0       	ldi	r25, 0x00	; 0
     8a6:	31 c0       	rjmp	.+98     	; 0x90a <_ZL18kernel_create_taskv+0x2f2>
     8a8:	83 e0       	ldi	r24, 0x03	; 3
     8aa:	80 93 14 02 	sts	0x0214, r24
     8ae:	85 de       	rcall	.-758    	; 0x5ba <OS_Abort>
     8b0:	88 e7       	ldi	r24, 0x78	; 120
     8b2:	92 e0       	ldi	r25, 0x02	; 2
     8b4:	e5 dd       	rcall	.-1078   	; 0x480 <_ZL7enqueueP7queue_tP9td_struct>
     8b6:	81 e0       	ldi	r24, 0x01	; 1
     8b8:	90 e0       	ldi	r25, 0x00	; 0
     8ba:	27 c0       	rjmp	.+78     	; 0x90a <_ZL18kernel_create_taskv+0x2f2>
     8bc:	8c e7       	ldi	r24, 0x7C	; 124
     8be:	92 e0       	ldi	r25, 0x02	; 2
     8c0:	df dd       	rcall	.-1090   	; 0x480 <_ZL7enqueueP7queue_tP9td_struct>
     8c2:	81 e0       	ldi	r24, 0x01	; 1
     8c4:	90 e0       	ldi	r25, 0x00	; 0
     8c6:	21 c0       	rjmp	.+66     	; 0x90a <_ZL18kernel_create_taskv+0x2f2>
     8c8:	80 e0       	ldi	r24, 0x00	; 0
     8ca:	90 e0       	ldi	r25, 0x00	; 0
     8cc:	1e c0       	rjmp	.+60     	; 0x90a <_ZL18kernel_create_taskv+0x2f2>
     8ce:	81 e0       	ldi	r24, 0x01	; 1
     8d0:	90 e0       	ldi	r25, 0x00	; 0
     8d2:	1b c0       	rjmp	.+54     	; 0x90a <_ZL18kernel_create_taskv+0x2f2>
     8d4:	81 e0       	ldi	r24, 0x01	; 1
     8d6:	90 e0       	ldi	r25, 0x00	; 0
     8d8:	18 c0       	rjmp	.+48     	; 0x90a <_ZL18kernel_create_taskv+0x2f2>
     8da:	81 e0       	ldi	r24, 0x01	; 1
     8dc:	80 93 14 02 	sts	0x0214, r24
     8e0:	6c de       	rcall	.-808    	; 0x5ba <OS_Abort>
     8e2:	80 91 8f 02 	lds	r24, 0x028F
     8e6:	88 23       	and	r24, r24
     8e8:	09 f4       	brne	.+2      	; 0x8ec <_ZL18kernel_create_taskv+0x2d4>
     8ea:	c0 ce       	rjmp	.-640    	; 0x66c <_ZL18kernel_create_taskv+0x54>
     8ec:	ba ce       	rjmp	.-652    	; 0x662 <_ZL18kernel_create_taskv+0x4a>
     8ee:	81 e0       	ldi	r24, 0x01	; 1
     8f0:	90 e0       	ldi	r25, 0x00	; 0
     8f2:	0b c0       	rjmp	.+22     	; 0x90a <_ZL18kernel_create_taskv+0x2f2>
     8f4:	f7 01       	movw	r30, r14
     8f6:	e9 5f       	subi	r30, 0xF9	; 249
     8f8:	fd 4f       	sbci	r31, 0xFD	; 253
     8fa:	80 81       	ld	r24, Z
     8fc:	91 81       	ldd	r25, Z+1	; 0x01
     8fe:	00 97       	sbiw	r24, 0x00	; 0
     900:	09 f0       	breq	.+2      	; 0x904 <_ZL18kernel_create_taskv+0x2ec>
     902:	5f cf       	rjmp	.-322    	; 0x7c2 <_ZL18kernel_create_taskv+0x1aa>
     904:	c7 01       	movw	r24, r14
     906:	40 e0       	ldi	r20, 0x00	; 0
     908:	aa cf       	rjmp	.-172    	; 0x85e <_ZL18kernel_create_taskv+0x246>
     90a:	df 91       	pop	r29
     90c:	cf 91       	pop	r28
     90e:	1f 91       	pop	r17
     910:	0f 91       	pop	r16
     912:	ff 90       	pop	r15
     914:	ef 90       	pop	r14
     916:	df 90       	pop	r13
     918:	cf 90       	pop	r12
     91a:	bf 90       	pop	r11
     91c:	af 90       	pop	r10
     91e:	08 95       	ret

00000920 <_Z7OS_Initv>:
     920:	cf 93       	push	r28
     922:	df 93       	push	r29
     924:	1f 92       	push	r1
     926:	1f 92       	push	r1
     928:	cd b7       	in	r28, 0x3d	; 61
     92a:	de b7       	in	r29, 0x3e	; 62
     92c:	e1 e8       	ldi	r30, 0x81	; 129
     92e:	f0 e0       	ldi	r31, 0x00	; 0
     930:	80 81       	ld	r24, Z
     932:	82 60       	ori	r24, 0x02	; 2
     934:	80 83       	st	Z, r24
     936:	ea e9       	ldi	r30, 0x9A	; 154
     938:	f4 e0       	ldi	r31, 0x04	; 4
     93a:	23 e0       	ldi	r18, 0x03	; 3
     93c:	33 e1       	ldi	r19, 0x13	; 19
     93e:	10 82       	st	Z, r1
     940:	cf 01       	movw	r24, r30
     942:	0c 96       	adiw	r24, 0x0c	; 12
     944:	95 83       	std	Z+5, r25	; 0x05
     946:	84 83       	std	Z+4, r24	; 0x04
     948:	e1 5f       	subi	r30, 0xF1	; 241
     94a:	fd 4f       	sbci	r31, 0xFD	; 253
     94c:	e2 17       	cp	r30, r18
     94e:	f3 07       	cpc	r31, r19
     950:	b1 f7       	brne	.-20     	; 0x93e <_Z7OS_Initv+0x1e>
     952:	10 92 08 13 	sts	0x1308, r1
     956:	10 92 07 13 	sts	0x1307, r1
     95a:	0f 2e       	mov	r0, r31
     95c:	f7 e9       	ldi	r31, 0x97	; 151
     95e:	ef 2e       	mov	r14, r31
     960:	f2 e0       	ldi	r31, 0x02	; 2
     962:	ff 2e       	mov	r15, r31
     964:	f0 2d       	mov	r31, r0
     966:	f0 92 82 02 	sts	0x0282, r15
     96a:	e0 92 81 02 	sts	0x0281, r14
     96e:	80 e0       	ldi	r24, 0x00	; 0
     970:	91 e1       	ldi	r25, 0x11	; 17
     972:	90 93 84 02 	sts	0x0284, r25
     976:	80 93 83 02 	sts	0x0283, r24
     97a:	0b e8       	ldi	r16, 0x8B	; 139
     97c:	12 e0       	ldi	r17, 0x02	; 2
     97e:	8d e8       	ldi	r24, 0x8D	; 141
     980:	91 e0       	ldi	r25, 0x01	; 1
     982:	d8 01       	movw	r26, r16
     984:	11 96       	adiw	r26, 0x01	; 1
     986:	9c 93       	st	X, r25
     988:	8e 93       	st	-X, r24
     98a:	0f 2e       	mov	r0, r31
     98c:	ff e8       	ldi	r31, 0x8F	; 143
     98e:	cf 2e       	mov	r12, r31
     990:	f2 e0       	ldi	r31, 0x02	; 2
     992:	df 2e       	mov	r13, r31
     994:	f0 2d       	mov	r31, r0
     996:	f6 01       	movw	r30, r12
     998:	10 82       	st	Z, r1
     99a:	3e de       	rcall	.-900    	; 0x618 <_ZL18kernel_create_taskv>
     99c:	8c eb       	ldi	r24, 0xBC	; 188
     99e:	9c e0       	ldi	r25, 0x0C	; 12
     9a0:	d8 01       	movw	r26, r16
     9a2:	11 96       	adiw	r26, 0x01	; 1
     9a4:	9c 93       	st	X, r25
     9a6:	8e 93       	st	-X, r24
     9a8:	83 e0       	ldi	r24, 0x03	; 3
     9aa:	f6 01       	movw	r30, r12
     9ac:	80 83       	st	Z, r24
     9ae:	34 de       	rcall	.-920    	; 0x618 <_ZL18kernel_create_taskv>
     9b0:	f0 92 21 15 	sts	0x1521, r15
     9b4:	e0 92 20 15 	sts	0x1520, r14
     9b8:	81 e0       	ldi	r24, 0x01	; 1
     9ba:	80 93 9a 04 	sts	0x049A, r24
     9be:	88 e7       	ldi	r24, 0x78	; 120
     9c0:	92 e0       	ldi	r25, 0x02	; 2
     9c2:	76 dd       	rcall	.-1300   	; 0x4b0 <_ZL7dequeueP7queue_t>
     9c4:	ef e6       	ldi	r30, 0x6F	; 111
     9c6:	f0 e0       	ldi	r31, 0x00	; 0
     9c8:	80 81       	ld	r24, Z
     9ca:	82 60       	ori	r24, 0x02	; 2
     9cc:	80 83       	st	Z, r24
     9ce:	80 91 84 00 	lds	r24, 0x0084
     9d2:	90 91 85 00 	lds	r25, 0x0085
     9d6:	80 5f       	subi	r24, 0xF0	; 240
     9d8:	98 4d       	sbci	r25, 0xD8	; 216
     9da:	90 93 89 00 	sts	0x0089, r25
     9de:	80 93 88 00 	sts	0x0088, r24
     9e2:	82 e0       	ldi	r24, 0x02	; 2
     9e4:	86 bb       	out	0x16, r24	; 22
     9e6:	ee 24       	eor	r14, r14
     9e8:	e3 94       	inc	r14
     9ea:	0f 2e       	mov	r0, r31
     9ec:	f4 e7       	ldi	r31, 0x74	; 116
     9ee:	6f 2e       	mov	r6, r31
     9f0:	f2 e0       	ldi	r31, 0x02	; 2
     9f2:	7f 2e       	mov	r7, r31
     9f4:	f0 2d       	mov	r31, r0
     9f6:	0f 2e       	mov	r0, r31
     9f8:	fc e7       	ldi	r31, 0x7C	; 124
     9fa:	af 2e       	mov	r10, r31
     9fc:	f2 e0       	ldi	r31, 0x02	; 2
     9fe:	bf 2e       	mov	r11, r31
     a00:	f0 2d       	mov	r31, r0
     a02:	0f 2e       	mov	r0, r31
     a04:	f7 e8       	ldi	r31, 0x87	; 135
     a06:	4f 2e       	mov	r4, r31
     a08:	f2 e0       	ldi	r31, 0x02	; 2
     a0a:	5f 2e       	mov	r5, r31
     a0c:	f0 2d       	mov	r31, r0
     a0e:	68 94       	set
     a10:	ff 24       	eor	r15, r15
     a12:	f1 f8       	bld	r15, 1
     a14:	91 2c       	mov	r9, r1
     a16:	81 2c       	mov	r8, r1
     a18:	99 82       	std	Y+1, r9	; 0x01
     a1a:	8a 82       	std	Y+2, r8	; 0x02
     a1c:	80 91 20 15 	lds	r24, 0x1520
     a20:	90 91 21 15 	lds	r25, 0x1521
     a24:	fc 01       	movw	r30, r24
     a26:	ed 5f       	subi	r30, 0xFD	; 253
     a28:	fd 4f       	sbci	r31, 0xFD	; 253
     a2a:	20 81       	ld	r18, Z
     a2c:	21 30       	cpi	r18, 0x01	; 1
     a2e:	19 f4       	brne	.+6      	; 0xa36 <_Z7OS_Initv+0x116>
     a30:	8f 50       	subi	r24, 0x0F	; 15
     a32:	93 41       	sbci	r25, 0x13	; 19
     a34:	61 f5       	brne	.+88     	; 0xa8e <_Z7OS_Initv+0x16e>
     a36:	a8 e7       	ldi	r26, 0x78	; 120
     a38:	b2 e0       	ldi	r27, 0x02	; 2
     a3a:	8d 91       	ld	r24, X+
     a3c:	9c 91       	ld	r25, X
     a3e:	11 97       	sbiw	r26, 0x01	; 1
     a40:	89 2b       	or	r24, r25
     a42:	51 f0       	breq	.+20     	; 0xa58 <_Z7OS_Initv+0x138>
     a44:	83 b3       	in	r24, 0x13	; 19
     a46:	84 bb       	out	0x14, r24	; 20
     a48:	18 b8       	out	0x08, r1	; 8
     a4a:	cd 01       	movw	r24, r26
     a4c:	31 dd       	rcall	.-1438   	; 0x4b0 <_ZL7dequeueP7queue_t>
     a4e:	90 93 21 15 	sts	0x1521, r25
     a52:	80 93 20 15 	sts	0x1520, r24
     a56:	14 c0       	rjmp	.+40     	; 0xa80 <_Z7OS_Initv+0x160>
     a58:	f3 01       	movw	r30, r6
     a5a:	80 81       	ld	r24, Z
     a5c:	91 81       	ldd	r25, Z+1	; 0x01
     a5e:	89 2b       	or	r24, r25
     a60:	09 f4       	brne	.+2      	; 0xa64 <_Z7OS_Initv+0x144>
     a62:	bd c2       	rjmp	.+1402   	; 0xfde <_Z7OS_Initv+0x6be>
     a64:	80 91 4e 02 	lds	r24, 0x024E
     a68:	81 11       	cpse	r24, r1
     a6a:	b2 c2       	rjmp	.+1380   	; 0xfd0 <_Z7OS_Initv+0x6b0>
     a6c:	80 91 52 02 	lds	r24, 0x0252
     a70:	81 11       	cpse	r24, r1
     a72:	ae c2       	rjmp	.+1372   	; 0xfd0 <_Z7OS_Initv+0x6b0>
     a74:	82 c2       	rjmp	.+1284   	; 0xf7a <_Z7OS_Initv+0x65a>
     a76:	80 91 52 02 	lds	r24, 0x0252
     a7a:	81 11       	cpse	r24, r1
     a7c:	8a c2       	rjmp	.+1300   	; 0xf92 <_Z7OS_Initv+0x672>
     a7e:	91 c2       	rjmp	.+1314   	; 0xfa2 <_Z7OS_Initv+0x682>
     a80:	e0 91 20 15 	lds	r30, 0x1520
     a84:	f0 91 21 15 	lds	r31, 0x1521
     a88:	ed 5f       	subi	r30, 0xFD	; 253
     a8a:	fd 4f       	sbci	r31, 0xFD	; 253
     a8c:	e0 82       	st	Z, r14
     a8e:	46 dc       	rcall	.-1908   	; 0x31c <_ZL11exit_kernelv>
     a90:	80 91 96 02 	lds	r24, 0x0296
     a94:	90 e0       	ldi	r25, 0x00	; 0
     a96:	89 30       	cpi	r24, 0x09	; 9
     a98:	91 05       	cpc	r25, r1
     a9a:	08 f0       	brcs	.+2      	; 0xa9e <_Z7OS_Initv+0x17e>
     a9c:	67 c2       	rjmp	.+1230   	; 0xf6c <_Z7OS_Initv+0x64c>
     a9e:	fc 01       	movw	r30, r24
     aa0:	ee 58       	subi	r30, 0x8E	; 142
     aa2:	ff 4f       	sbci	r31, 0xFF	; 255
     aa4:	0c 94 67 0e 	jmp	0x1cce	; 0x1cce <__tablejump2__>
     aa8:	d3 01       	movw	r26, r6
     aaa:	8d 91       	ld	r24, X+
     aac:	9c 91       	ld	r25, X
     aae:	89 2b       	or	r24, r25
     ab0:	09 f4       	brne	.+2      	; 0xab4 <_Z7OS_Initv+0x194>
     ab2:	f8 c0       	rjmp	.+496    	; 0xca4 <_Z7OS_Initv+0x384>
     ab4:	80 91 53 02 	lds	r24, 0x0253
     ab8:	81 50       	subi	r24, 0x01	; 1
     aba:	80 93 53 02 	sts	0x0253, r24
     abe:	80 91 52 02 	lds	r24, 0x0252
     ac2:	88 23       	and	r24, r24
     ac4:	01 f1       	breq	.+64     	; 0xb06 <_Z7OS_Initv+0x1e6>
     ac6:	80 91 4c 02 	lds	r24, 0x024C
     aca:	90 91 4d 02 	lds	r25, 0x024D
     ace:	fc 01       	movw	r30, r24
     ad0:	e3 5f       	subi	r30, 0xF3	; 243
     ad2:	fd 4f       	sbci	r31, 0xFD	; 253
     ad4:	20 91 4a 02 	lds	r18, 0x024A
     ad8:	30 91 4b 02 	lds	r19, 0x024B
     adc:	40 91 4f 02 	lds	r20, 0x024F
     ae0:	50 91 50 02 	lds	r21, 0x0250
     ae4:	24 1b       	sub	r18, r20
     ae6:	35 0b       	sbc	r19, r21
     ae8:	40 81       	ld	r20, Z
     aea:	51 81       	ldd	r21, Z+1	; 0x01
     aec:	24 17       	cp	r18, r20
     aee:	35 07       	cpc	r19, r21
     af0:	08 f4       	brcc	.+2      	; 0xaf4 <_Z7OS_Initv+0x1d4>
     af2:	e0 c0       	rjmp	.+448    	; 0xcb4 <_Z7OS_Initv+0x394>
     af4:	34 97       	sbiw	r30, 0x04	; 4
     af6:	80 81       	ld	r24, Z
     af8:	80 93 53 02 	sts	0x0253, r24
     afc:	10 92 4e 02 	sts	0x024E, r1
     b00:	10 92 52 02 	sts	0x0252, r1
     b04:	d7 c0       	rjmp	.+430    	; 0xcb4 <_Z7OS_Initv+0x394>
     b06:	80 91 51 02 	lds	r24, 0x0251
     b0a:	88 23       	and	r24, r24
     b0c:	09 f4       	brne	.+2      	; 0xb10 <_Z7OS_Initv+0x1f0>
     b0e:	72 c0       	rjmp	.+228    	; 0xbf4 <_Z7OS_Initv+0x2d4>
     b10:	18 b8       	out	0x08, r1	; 8
     b12:	60 91 4c 02 	lds	r22, 0x024C
     b16:	70 91 4d 02 	lds	r23, 0x024D
     b1a:	f3 01       	movw	r30, r6
     b1c:	20 81       	ld	r18, Z
     b1e:	31 81       	ldd	r19, Z+1	; 0x01
     b20:	62 17       	cp	r22, r18
     b22:	73 07       	cpc	r23, r19
     b24:	79 f0       	breq	.+30     	; 0xb44 <_Z7OS_Initv+0x224>
     b26:	a6 e7       	ldi	r26, 0x76	; 118
     b28:	b2 e0       	ldi	r27, 0x02	; 2
     b2a:	0d 91       	ld	r16, X+
     b2c:	1c 91       	ld	r17, X
     b2e:	29 2c       	mov	r2, r9
     b30:	38 2c       	mov	r3, r8
     b32:	fb 01       	movw	r30, r22
     b34:	e3 5f       	subi	r30, 0xF3	; 243
     b36:	fd 4f       	sbci	r31, 0xFD	; 253
     b38:	6b 01       	movw	r12, r22
     b3a:	b9 ef       	ldi	r27, 0xF9	; 249
     b3c:	cb 1a       	sub	r12, r27
     b3e:	bd ef       	ldi	r27, 0xFD	; 253
     b40:	db 0a       	sbc	r13, r27
     b42:	33 c0       	rjmp	.+102    	; 0xbaa <_Z7OS_Initv+0x28a>
     b44:	fb 01       	movw	r30, r22
     b46:	e9 5f       	subi	r30, 0xF9	; 249
     b48:	fd 4f       	sbci	r31, 0xFD	; 253
     b4a:	80 81       	ld	r24, Z
     b4c:	91 81       	ldd	r25, Z+1	; 0x01
     b4e:	f3 01       	movw	r30, r6
     b50:	91 83       	std	Z+1, r25	; 0x01
     b52:	80 83       	st	Z, r24
     b54:	81 e8       	ldi	r24, 0x81	; 129
     b56:	92 e0       	ldi	r25, 0x02	; 2
     b58:	93 dc       	rcall	.-1754   	; 0x480 <_ZL7enqueueP7queue_tP9td_struct>
     b5a:	d3 01       	movw	r26, r6
     b5c:	2d 90       	ld	r2, X+
     b5e:	3c 90       	ld	r3, X
     b60:	2f c0       	rjmp	.+94     	; 0xbc0 <_Z7OS_Initv+0x2a0>
     b62:	dc 01       	movw	r26, r24
     b64:	a3 5f       	subi	r26, 0xF3	; 243
     b66:	bd 4f       	sbci	r27, 0xFD	; 253
     b68:	6d 91       	ld	r22, X+
     b6a:	7c 91       	ld	r23, X
     b6c:	40 81       	ld	r20, Z
     b6e:	51 81       	ldd	r21, Z+1	; 0x01
     b70:	64 17       	cp	r22, r20
     b72:	75 07       	cpc	r23, r21
     b74:	11 f0       	breq	.+4      	; 0xb7a <_Z7OS_Initv+0x25a>
     b76:	9c 01       	movw	r18, r24
     b78:	18 c0       	rjmp	.+48     	; 0xbaa <_Z7OS_Initv+0x28a>
     b7a:	d6 01       	movw	r26, r12
     b7c:	2d 90       	ld	r2, X+
     b7e:	3c 90       	ld	r3, X
     b80:	d9 01       	movw	r26, r18
     b82:	a9 5f       	subi	r26, 0xF9	; 249
     b84:	bd 4f       	sbci	r27, 0xFD	; 253
     b86:	2d 92       	st	X+, r2
     b88:	3c 92       	st	X, r3
     b8a:	d6 01       	movw	r26, r12
     b8c:	1d 92       	st	X+, r1
     b8e:	1c 92       	st	X, r1
     b90:	40 81       	ld	r20, Z
     b92:	51 81       	ldd	r21, Z+1	; 0x01
     b94:	d8 01       	movw	r26, r16
     b96:	a3 5f       	subi	r26, 0xF3	; 243
     b98:	bd 4f       	sbci	r27, 0xFD	; 253
     b9a:	8d 91       	ld	r24, X+
     b9c:	9c 91       	ld	r25, X
     b9e:	48 17       	cp	r20, r24
     ba0:	59 07       	cpc	r21, r25
     ba2:	19 f4       	brne	.+6      	; 0xbaa <_Z7OS_Initv+0x28a>
     ba4:	89 01       	movw	r16, r18
     ba6:	29 80       	ldd	r2, Y+1	; 0x01
     ba8:	3a 80       	ldd	r3, Y+2	; 0x02
     baa:	d9 01       	movw	r26, r18
     bac:	a9 5f       	subi	r26, 0xF9	; 249
     bae:	bd 4f       	sbci	r27, 0xFD	; 253
     bb0:	8d 91       	ld	r24, X+
     bb2:	9c 91       	ld	r25, X
     bb4:	00 97       	sbiw	r24, 0x00	; 0
     bb6:	a9 f6       	brne	.-86     	; 0xb62 <_Z7OS_Initv+0x242>
     bb8:	e6 e7       	ldi	r30, 0x76	; 118
     bba:	f2 e0       	ldi	r31, 0x02	; 2
     bbc:	11 83       	std	Z+1, r17	; 0x01
     bbe:	00 83       	st	Z, r16
     bc0:	30 92 4d 02 	sts	0x024D, r3
     bc4:	20 92 4c 02 	sts	0x024C, r2
     bc8:	23 28       	or	r2, r3
     bca:	79 f4       	brne	.+30     	; 0xbea <_Z7OS_Initv+0x2ca>
     bcc:	80 91 4a 02 	lds	r24, 0x024A
     bd0:	90 91 4b 02 	lds	r25, 0x024B
     bd4:	90 93 50 02 	sts	0x0250, r25
     bd8:	80 93 4f 02 	sts	0x024F, r24
     bdc:	d3 01       	movw	r26, r6
     bde:	8d 91       	ld	r24, X+
     be0:	9c 91       	ld	r25, X
     be2:	90 93 4d 02 	sts	0x024D, r25
     be6:	80 93 4c 02 	sts	0x024C, r24
     bea:	10 92 51 02 	sts	0x0251, r1
     bee:	e0 92 52 02 	sts	0x0252, r14
     bf2:	60 c0       	rjmp	.+192    	; 0xcb4 <_Z7OS_Initv+0x394>
     bf4:	80 91 53 02 	lds	r24, 0x0253
     bf8:	81 11       	cpse	r24, r1
     bfa:	5c c0       	rjmp	.+184    	; 0xcb4 <_Z7OS_Initv+0x394>
     bfc:	18 b8       	out	0x08, r1	; 8
     bfe:	80 91 20 15 	lds	r24, 0x1520
     c02:	90 91 21 15 	lds	r25, 0x1521
     c06:	00 97       	sbiw	r24, 0x00	; 0
     c08:	71 f0       	breq	.+28     	; 0xc26 <_Z7OS_Initv+0x306>
     c0a:	fc 01       	movw	r30, r24
     c0c:	ea 5f       	subi	r30, 0xFA	; 250
     c0e:	fd 4f       	sbci	r31, 0xFD	; 253
     c10:	80 81       	ld	r24, Z
     c12:	82 30       	cpi	r24, 0x02	; 2
     c14:	41 f4       	brne	.+16     	; 0xc26 <_Z7OS_Initv+0x306>
     c16:	80 91 4e 02 	lds	r24, 0x024E
     c1a:	81 11       	cpse	r24, r1
     c1c:	04 c0       	rjmp	.+8      	; 0xc26 <_Z7OS_Initv+0x306>
     c1e:	86 e0       	ldi	r24, 0x06	; 6
     c20:	80 93 14 02 	sts	0x0214, r24
     c24:	ca dc       	rcall	.-1644   	; 0x5ba <OS_Abort>
     c26:	e0 91 4c 02 	lds	r30, 0x024C
     c2a:	f0 91 4d 02 	lds	r31, 0x024D
     c2e:	e9 5f       	subi	r30, 0xF9	; 249
     c30:	fd 4f       	sbci	r31, 0xFD	; 253
     c32:	80 81       	ld	r24, Z
     c34:	91 81       	ldd	r25, Z+1	; 0x01
     c36:	90 93 4d 02 	sts	0x024D, r25
     c3a:	80 93 4c 02 	sts	0x024C, r24
     c3e:	89 2b       	or	r24, r25
     c40:	79 f4       	brne	.+30     	; 0xc60 <_Z7OS_Initv+0x340>
     c42:	80 91 4a 02 	lds	r24, 0x024A
     c46:	90 91 4b 02 	lds	r25, 0x024B
     c4a:	90 93 50 02 	sts	0x0250, r25
     c4e:	80 93 4f 02 	sts	0x024F, r24
     c52:	f3 01       	movw	r30, r6
     c54:	80 81       	ld	r24, Z
     c56:	91 81       	ldd	r25, Z+1	; 0x01
     c58:	90 93 4d 02 	sts	0x024D, r25
     c5c:	80 93 4c 02 	sts	0x024C, r24
     c60:	80 91 4c 02 	lds	r24, 0x024C
     c64:	90 91 4d 02 	lds	r25, 0x024D
     c68:	fc 01       	movw	r30, r24
     c6a:	e3 5f       	subi	r30, 0xF3	; 243
     c6c:	fd 4f       	sbci	r31, 0xFD	; 253
     c6e:	20 91 4a 02 	lds	r18, 0x024A
     c72:	30 91 4b 02 	lds	r19, 0x024B
     c76:	40 91 4f 02 	lds	r20, 0x024F
     c7a:	50 91 50 02 	lds	r21, 0x0250
     c7e:	24 1b       	sub	r18, r20
     c80:	35 0b       	sbc	r19, r21
     c82:	40 81       	ld	r20, Z
     c84:	51 81       	ldd	r21, Z+1	; 0x01
     c86:	24 17       	cp	r18, r20
     c88:	35 07       	cpc	r19, r21
     c8a:	18 f4       	brcc	.+6      	; 0xc92 <_Z7OS_Initv+0x372>
     c8c:	e0 92 52 02 	sts	0x0252, r14
     c90:	11 c0       	rjmp	.+34     	; 0xcb4 <_Z7OS_Initv+0x394>
     c92:	fc 01       	movw	r30, r24
     c94:	e7 5f       	subi	r30, 0xF7	; 247
     c96:	fd 4f       	sbci	r31, 0xFD	; 253
     c98:	80 81       	ld	r24, Z
     c9a:	80 93 53 02 	sts	0x0253, r24
     c9e:	10 92 4e 02 	sts	0x024E, r1
     ca2:	08 c0       	rjmp	.+16     	; 0xcb4 <_Z7OS_Initv+0x394>
     ca4:	80 91 4a 02 	lds	r24, 0x024A
     ca8:	90 91 4b 02 	lds	r25, 0x024B
     cac:	90 93 50 02 	sts	0x0250, r25
     cb0:	80 93 4f 02 	sts	0x024F, r24
     cb4:	80 91 4a 02 	lds	r24, 0x024A
     cb8:	90 91 4b 02 	lds	r25, 0x024B
     cbc:	01 96       	adiw	r24, 0x01	; 1
     cbe:	90 93 4b 02 	sts	0x024B, r25
     cc2:	80 93 4a 02 	sts	0x024A, r24
     cc6:	80 91 20 15 	lds	r24, 0x1520
     cca:	90 91 21 15 	lds	r25, 0x1521
     cce:	fc 01       	movw	r30, r24
     cd0:	ea 5f       	subi	r30, 0xFA	; 250
     cd2:	fd 4f       	sbci	r31, 0xFD	; 253
     cd4:	20 81       	ld	r18, Z
     cd6:	21 30       	cpi	r18, 0x01	; 1
     cd8:	09 f0       	breq	.+2      	; 0xcdc <_Z7OS_Initv+0x3bc>
     cda:	4c c1       	rjmp	.+664    	; 0xf74 <_Z7OS_Initv+0x654>
     cdc:	33 97       	sbiw	r30, 0x03	; 3
     cde:	80 81       	ld	r24, Z
     ce0:	81 30       	cpi	r24, 0x01	; 1
     ce2:	09 f0       	breq	.+2      	; 0xce6 <_Z7OS_Initv+0x3c6>
     ce4:	47 c1       	rjmp	.+654    	; 0xf74 <_Z7OS_Initv+0x654>
     ce6:	84 b1       	in	r24, 0x04	; 4
     ce8:	85 b9       	out	0x05, r24	; 5
     cea:	15 b8       	out	0x05, r1	; 5
     cec:	60 91 20 15 	lds	r22, 0x1520
     cf0:	70 91 21 15 	lds	r23, 0x1521
     cf4:	fb 01       	movw	r30, r22
     cf6:	ed 5f       	subi	r30, 0xFD	; 253
     cf8:	fd 4f       	sbci	r31, 0xFD	; 253
     cfa:	f0 82       	st	Z, r15
     cfc:	c5 01       	movw	r24, r10
     cfe:	c0 db       	rcall	.-2176   	; 0x480 <_ZL7enqueueP7queue_tP9td_struct>
     d00:	39 c1       	rjmp	.+626    	; 0xf74 <_Z7OS_Initv+0x654>
     d02:	8a dc       	rcall	.-1772   	; 0x618 <_ZL18kernel_create_taskv>
     d04:	90 93 8a 02 	sts	0x028A, r25
     d08:	80 93 89 02 	sts	0x0289, r24
     d0c:	80 91 89 02 	lds	r24, 0x0289
     d10:	90 91 8a 02 	lds	r25, 0x028A
     d14:	89 2b       	or	r24, r25
     d16:	09 f4       	brne	.+2      	; 0xd1a <_Z7OS_Initv+0x3fa>
     d18:	2d c1       	rjmp	.+602    	; 0xf74 <_Z7OS_Initv+0x654>
     d1a:	af e8       	ldi	r26, 0x8F	; 143
     d1c:	b2 e0       	ldi	r27, 0x02	; 2
     d1e:	8c 91       	ld	r24, X
     d20:	83 30       	cpi	r24, 0x03	; 3
     d22:	61 f4       	brne	.+24     	; 0xd3c <_Z7OS_Initv+0x41c>
     d24:	80 91 20 15 	lds	r24, 0x1520
     d28:	90 91 21 15 	lds	r25, 0x1521
     d2c:	fc 01       	movw	r30, r24
     d2e:	ea 5f       	subi	r30, 0xFA	; 250
     d30:	fd 4f       	sbci	r31, 0xFD	; 253
     d32:	20 81       	ld	r18, Z
     d34:	23 30       	cpi	r18, 0x03	; 3
     d36:	09 f0       	breq	.+2      	; 0xd3a <_Z7OS_Initv+0x41a>
     d38:	3c c1       	rjmp	.+632    	; 0xfb2 <_Z7OS_Initv+0x692>
     d3a:	1c c1       	rjmp	.+568    	; 0xf74 <_Z7OS_Initv+0x654>
     d3c:	60 91 20 15 	lds	r22, 0x1520
     d40:	70 91 21 15 	lds	r23, 0x1521
     d44:	fb 01       	movw	r30, r22
     d46:	ea 5f       	subi	r30, 0xFA	; 250
     d48:	fd 4f       	sbci	r31, 0xFD	; 253
     d4a:	80 81       	ld	r24, Z
     d4c:	81 30       	cpi	r24, 0x01	; 1
     d4e:	09 f0       	breq	.+2      	; 0xd52 <_Z7OS_Initv+0x432>
     d50:	11 c1       	rjmp	.+546    	; 0xf74 <_Z7OS_Initv+0x654>
     d52:	ef e8       	ldi	r30, 0x8F	; 143
     d54:	f2 e0       	ldi	r31, 0x02	; 2
     d56:	80 81       	ld	r24, Z
     d58:	82 30       	cpi	r24, 0x02	; 2
     d5a:	09 f4       	brne	.+2      	; 0xd5e <_Z7OS_Initv+0x43e>
     d5c:	2f c1       	rjmp	.+606    	; 0xfbc <_Z7OS_Initv+0x69c>
     d5e:	fb 01       	movw	r30, r22
     d60:	ed 5f       	subi	r30, 0xFD	; 253
     d62:	fd 4f       	sbci	r31, 0xFD	; 253
     d64:	80 81       	ld	r24, Z
     d66:	82 30       	cpi	r24, 0x02	; 2
     d68:	09 f0       	breq	.+2      	; 0xd6c <_Z7OS_Initv+0x44c>
     d6a:	04 c1       	rjmp	.+520    	; 0xf74 <_Z7OS_Initv+0x654>
     d6c:	c5 01       	movw	r24, r10
     d6e:	88 db       	rcall	.-2288   	; 0x480 <_ZL7enqueueP7queue_tP9td_struct>
     d70:	01 c1       	rjmp	.+514    	; 0xf74 <_Z7OS_Initv+0x654>
     d72:	60 91 20 15 	lds	r22, 0x1520
     d76:	70 91 21 15 	lds	r23, 0x1521
     d7a:	f3 e1       	ldi	r31, 0x13	; 19
     d7c:	6f 30       	cpi	r22, 0x0F	; 15
     d7e:	7f 07       	cpc	r23, r31
     d80:	09 f4       	brne	.+2      	; 0xd84 <_Z7OS_Initv+0x464>
     d82:	f8 c0       	rjmp	.+496    	; 0xf74 <_Z7OS_Initv+0x654>
     d84:	fb 01       	movw	r30, r22
     d86:	ed 5f       	subi	r30, 0xFD	; 253
     d88:	fd 4f       	sbci	r31, 0xFD	; 253
     d8a:	10 82       	st	Z, r1
     d8c:	33 96       	adiw	r30, 0x03	; 3
     d8e:	80 81       	ld	r24, Z
     d90:	82 30       	cpi	r24, 0x02	; 2
     d92:	29 f4       	brne	.+10     	; 0xd9e <_Z7OS_Initv+0x47e>
     d94:	e0 92 51 02 	sts	0x0251, r14
     d98:	e0 92 4e 02 	sts	0x024E, r14
     d9c:	eb c0       	rjmp	.+470    	; 0xf74 <_Z7OS_Initv+0x654>
     d9e:	81 e8       	ldi	r24, 0x81	; 129
     da0:	92 e0       	ldi	r25, 0x02	; 2
     da2:	6e db       	rcall	.-2340   	; 0x480 <_ZL7enqueueP7queue_tP9td_struct>
     da4:	e7 c0       	rjmp	.+462    	; 0xf74 <_Z7OS_Initv+0x654>
     da6:	00 91 20 15 	lds	r16, 0x1520
     daa:	10 91 21 15 	lds	r17, 0x1521
     dae:	f8 01       	movw	r30, r16
     db0:	ea 5f       	subi	r30, 0xFA	; 250
     db2:	fd 4f       	sbci	r31, 0xFD	; 253
     db4:	80 81       	ld	r24, Z
     db6:	82 30       	cpi	r24, 0x02	; 2
     db8:	51 f0       	breq	.+20     	; 0xdce <_Z7OS_Initv+0x4ae>
     dba:	83 30       	cpi	r24, 0x03	; 3
     dbc:	19 f0       	breq	.+6      	; 0xdc4 <_Z7OS_Initv+0x4a4>
     dbe:	81 30       	cpi	r24, 0x01	; 1
     dc0:	61 f4       	brne	.+24     	; 0xdda <_Z7OS_Initv+0x4ba>
     dc2:	08 c0       	rjmp	.+16     	; 0xdd4 <_Z7OS_Initv+0x4b4>
     dc4:	b8 01       	movw	r22, r16
     dc6:	88 e7       	ldi	r24, 0x78	; 120
     dc8:	92 e0       	ldi	r25, 0x02	; 2
     dca:	5a db       	rcall	.-2380   	; 0x480 <_ZL7enqueueP7queue_tP9td_struct>
     dcc:	06 c0       	rjmp	.+12     	; 0xdda <_Z7OS_Initv+0x4ba>
     dce:	e0 92 4e 02 	sts	0x024E, r14
     dd2:	03 c0       	rjmp	.+6      	; 0xdda <_Z7OS_Initv+0x4ba>
     dd4:	b8 01       	movw	r22, r16
     dd6:	c5 01       	movw	r24, r10
     dd8:	53 db       	rcall	.-2394   	; 0x480 <_ZL7enqueueP7queue_tP9td_struct>
     dda:	f8 01       	movw	r30, r16
     ddc:	ed 5f       	subi	r30, 0xFD	; 253
     dde:	fd 4f       	sbci	r31, 0xFD	; 253
     de0:	f0 82       	st	Z, r15
     de2:	c8 c0       	rjmp	.+400    	; 0xf74 <_Z7OS_Initv+0x654>
     de4:	90 92 87 02 	sts	0x0287, r9
     de8:	80 92 88 02 	sts	0x0288, r8
     dec:	20 91 80 02 	lds	r18, 0x0280
     df0:	28 30       	cpi	r18, 0x08	; 8
     df2:	08 f0       	brcs	.+2      	; 0xdf6 <_Z7OS_Initv+0x4d6>
     df4:	bf c0       	rjmp	.+382    	; 0xf74 <_Z7OS_Initv+0x654>
     df6:	82 2f       	mov	r24, r18
     df8:	90 e0       	ldi	r25, 0x00	; 0
     dfa:	01 96       	adiw	r24, 0x01	; 1
     dfc:	90 93 88 02 	sts	0x0288, r25
     e00:	80 93 87 02 	sts	0x0287, r24
     e04:	2f 5f       	subi	r18, 0xFF	; 255
     e06:	20 93 80 02 	sts	0x0280, r18
     e0a:	b4 c0       	rjmp	.+360    	; 0xf74 <_Z7OS_Initv+0x654>
     e0c:	80 91 20 15 	lds	r24, 0x1520
     e10:	90 91 21 15 	lds	r25, 0x1521
     e14:	23 e1       	ldi	r18, 0x13	; 19
     e16:	8f 30       	cpi	r24, 0x0F	; 15
     e18:	92 07       	cpc	r25, r18
     e1a:	09 f4       	brne	.+2      	; 0xe1e <_Z7OS_Initv+0x4fe>
     e1c:	ab c0       	rjmp	.+342    	; 0xf74 <_Z7OS_Initv+0x654>
     e1e:	20 91 85 02 	lds	r18, 0x0285
     e22:	30 91 86 02 	lds	r19, 0x0286
     e26:	fc 01       	movw	r30, r24
     e28:	ea 5f       	subi	r30, 0xFA	; 250
     e2a:	fd 4f       	sbci	r31, 0xFD	; 253
     e2c:	80 81       	ld	r24, Z
     e2e:	81 30       	cpi	r24, 0x01	; 1
     e30:	21 f4       	brne	.+8      	; 0xe3a <_Z7OS_Initv+0x51a>
     e32:	84 b1       	in	r24, 0x04	; 4
     e34:	85 b9       	out	0x05, r24	; 5
     e36:	15 b8       	out	0x05, r1	; 5
     e38:	09 c0       	rjmp	.+18     	; 0xe4c <_Z7OS_Initv+0x52c>
     e3a:	82 30       	cpi	r24, 0x02	; 2
     e3c:	21 f4       	brne	.+8      	; 0xe46 <_Z7OS_Initv+0x526>
     e3e:	87 b1       	in	r24, 0x07	; 7
     e40:	88 b9       	out	0x08, r24	; 8
     e42:	18 b8       	out	0x08, r1	; 8
     e44:	03 c0       	rjmp	.+6      	; 0xe4c <_Z7OS_Initv+0x52c>
     e46:	83 b3       	in	r24, 0x13	; 19
     e48:	84 bb       	out	0x14, r24	; 20
     e4a:	14 ba       	out	0x14, r1	; 20
     e4c:	d2 01       	movw	r26, r4
     e4e:	8c 91       	ld	r24, X
     e50:	81 50       	subi	r24, 0x01	; 1
     e52:	90 91 80 02 	lds	r25, 0x0280
     e56:	89 17       	cp	r24, r25
     e58:	20 f0       	brcs	.+8      	; 0xe62 <_Z7OS_Initv+0x542>
     e5a:	89 e0       	ldi	r24, 0x09	; 9
     e5c:	80 93 14 02 	sts	0x0214, r24
     e60:	ac db       	rcall	.-2216   	; 0x5ba <OS_Abort>
     e62:	60 91 20 15 	lds	r22, 0x1520
     e66:	70 91 21 15 	lds	r23, 0x1521
     e6a:	fb 01       	movw	r30, r22
     e6c:	ea 5f       	subi	r30, 0xFA	; 250
     e6e:	fd 4f       	sbci	r31, 0xFD	; 253
     e70:	90 81       	ld	r25, Z
     e72:	92 30       	cpi	r25, 0x02	; 2
     e74:	21 f4       	brne	.+8      	; 0xe7e <_Z7OS_Initv+0x55e>
     e76:	8a e0       	ldi	r24, 0x0A	; 10
     e78:	80 93 14 02 	sts	0x0214, r24
     e7c:	9e db       	rcall	.-2244   	; 0x5ba <OS_Abort>
     e7e:	fb 01       	movw	r30, r22
     e80:	ed 5f       	subi	r30, 0xFD	; 253
     e82:	fd 4f       	sbci	r31, 0xFD	; 253
     e84:	93 e0       	ldi	r25, 0x03	; 3
     e86:	90 83       	st	Z, r25
     e88:	31 96       	adiw	r30, 0x01	; 1
     e8a:	31 83       	std	Z+1, r19	; 0x01
     e8c:	20 83       	st	Z, r18
     e8e:	90 e0       	ldi	r25, 0x00	; 0
     e90:	88 0f       	add	r24, r24
     e92:	99 1f       	adc	r25, r25
     e94:	88 0f       	add	r24, r24
     e96:	99 1f       	adc	r25, r25
     e98:	8c 5a       	subi	r24, 0xAC	; 172
     e9a:	9d 4f       	sbci	r25, 0xFD	; 253
     e9c:	f1 da       	rcall	.-2590   	; 0x480 <_ZL7enqueueP7queue_tP9td_struct>
     e9e:	6a c0       	rjmp	.+212    	; 0xf74 <_Z7OS_Initv+0x654>
     ea0:	e0 91 85 02 	lds	r30, 0x0285
     ea4:	f0 91 86 02 	lds	r31, 0x0286
     ea8:	c0 80       	ld	r12, Z
     eaa:	d1 80       	ldd	r13, Z+1	; 0x01
     eac:	e0 91 20 15 	lds	r30, 0x1520
     eb0:	f0 91 21 15 	lds	r31, 0x1521
     eb4:	ea 5f       	subi	r30, 0xFA	; 250
     eb6:	fd 4f       	sbci	r31, 0xFD	; 253
     eb8:	80 81       	ld	r24, Z
     eba:	81 30       	cpi	r24, 0x01	; 1
     ebc:	21 f4       	brne	.+8      	; 0xec6 <_Z7OS_Initv+0x5a6>
     ebe:	84 b1       	in	r24, 0x04	; 4
     ec0:	85 b9       	out	0x05, r24	; 5
     ec2:	15 b8       	out	0x05, r1	; 5
     ec4:	09 c0       	rjmp	.+18     	; 0xed8 <_Z7OS_Initv+0x5b8>
     ec6:	82 30       	cpi	r24, 0x02	; 2
     ec8:	21 f4       	brne	.+8      	; 0xed2 <_Z7OS_Initv+0x5b2>
     eca:	87 b1       	in	r24, 0x07	; 7
     ecc:	88 b9       	out	0x08, r24	; 8
     ece:	18 b8       	out	0x08, r1	; 8
     ed0:	03 c0       	rjmp	.+6      	; 0xed8 <_Z7OS_Initv+0x5b8>
     ed2:	83 b3       	in	r24, 0x13	; 19
     ed4:	84 bb       	out	0x14, r24	; 20
     ed6:	14 ba       	out	0x14, r1	; 20
     ed8:	f2 01       	movw	r30, r4
     eda:	00 81       	ld	r16, Z
     edc:	01 50       	subi	r16, 0x01	; 1
     ede:	80 91 80 02 	lds	r24, 0x0280
     ee2:	08 17       	cp	r16, r24
     ee4:	50 f4       	brcc	.+20     	; 0xefa <_Z7OS_Initv+0x5da>
     ee6:	10 e0       	ldi	r17, 0x00	; 0
     ee8:	00 0f       	add	r16, r16
     eea:	11 1f       	adc	r17, r17
     eec:	00 0f       	add	r16, r16
     eee:	11 1f       	adc	r17, r17
     ef0:	0c 5a       	subi	r16, 0xAC	; 172
     ef2:	1d 4f       	sbci	r17, 0xFD	; 253
     ef4:	20 2e       	mov	r2, r16
     ef6:	31 2e       	mov	r3, r17
     ef8:	21 c0       	rjmp	.+66     	; 0xf3c <_Z7OS_Initv+0x61c>
     efa:	8c e0       	ldi	r24, 0x0C	; 12
     efc:	80 93 14 02 	sts	0x0214, r24
     f00:	5c db       	rcall	.-2376   	; 0x5ba <OS_Abort>
     f02:	82 2d       	mov	r24, r2
     f04:	93 2d       	mov	r25, r3
     f06:	d4 da       	rcall	.-2648   	; 0x4b0 <_ZL7dequeueP7queue_t>
     f08:	fc 01       	movw	r30, r24
     f0a:	ed 5f       	subi	r30, 0xFD	; 253
     f0c:	fd 4f       	sbci	r31, 0xFD	; 253
     f0e:	f0 82       	st	Z, r15
     f10:	31 96       	adiw	r30, 0x01	; 1
     f12:	01 90       	ld	r0, Z+
     f14:	f0 81       	ld	r31, Z
     f16:	e0 2d       	mov	r30, r0
     f18:	d1 82       	std	Z+1, r13	; 0x01
     f1a:	c0 82       	st	Z, r12
     f1c:	fc 01       	movw	r30, r24
     f1e:	ea 5f       	subi	r30, 0xFA	; 250
     f20:	fd 4f       	sbci	r31, 0xFD	; 253
     f22:	20 81       	ld	r18, Z
     f24:	21 30       	cpi	r18, 0x01	; 1
     f26:	39 f0       	breq	.+14     	; 0xf36 <_Z7OS_Initv+0x616>
     f28:	23 30       	cpi	r18, 0x03	; 3
     f2a:	41 f4       	brne	.+16     	; 0xf3c <_Z7OS_Initv+0x61c>
     f2c:	bc 01       	movw	r22, r24
     f2e:	88 e7       	ldi	r24, 0x78	; 120
     f30:	92 e0       	ldi	r25, 0x02	; 2
     f32:	a6 da       	rcall	.-2740   	; 0x480 <_ZL7enqueueP7queue_tP9td_struct>
     f34:	03 c0       	rjmp	.+6      	; 0xf3c <_Z7OS_Initv+0x61c>
     f36:	bc 01       	movw	r22, r24
     f38:	c5 01       	movw	r24, r10
     f3a:	a2 da       	rcall	.-2748   	; 0x480 <_ZL7enqueueP7queue_tP9td_struct>
     f3c:	d8 01       	movw	r26, r16
     f3e:	2d 91       	ld	r18, X+
     f40:	3c 91       	ld	r19, X
     f42:	23 2b       	or	r18, r19
     f44:	f1 f6       	brne	.-68     	; 0xf02 <_Z7OS_Initv+0x5e2>
     f46:	60 91 20 15 	lds	r22, 0x1520
     f4a:	70 91 21 15 	lds	r23, 0x1521
     f4e:	b3 e1       	ldi	r27, 0x13	; 19
     f50:	6f 30       	cpi	r22, 0x0F	; 15
     f52:	7b 07       	cpc	r23, r27
     f54:	79 f0       	breq	.+30     	; 0xf74 <_Z7OS_Initv+0x654>
     f56:	fb 01       	movw	r30, r22
     f58:	ed 5f       	subi	r30, 0xFD	; 253
     f5a:	fd 4f       	sbci	r31, 0xFD	; 253
     f5c:	f0 82       	st	Z, r15
     f5e:	33 96       	adiw	r30, 0x03	; 3
     f60:	80 81       	ld	r24, Z
     f62:	81 30       	cpi	r24, 0x01	; 1
     f64:	39 f4       	brne	.+14     	; 0xf74 <_Z7OS_Initv+0x654>
     f66:	c5 01       	movw	r24, r10
     f68:	8b da       	rcall	.-2794   	; 0x480 <_ZL7enqueueP7queue_tP9td_struct>
     f6a:	04 c0       	rjmp	.+8      	; 0xf74 <_Z7OS_Initv+0x654>
     f6c:	8b e0       	ldi	r24, 0x0B	; 11
     f6e:	80 93 14 02 	sts	0x0214, r24
     f72:	23 db       	rcall	.-2490   	; 0x5ba <OS_Abort>
     f74:	10 92 96 02 	sts	0x0296, r1
     f78:	51 cd       	rjmp	.-1374   	; 0xa1c <_Z7OS_Initv+0xfc>
     f7a:	80 91 4c 02 	lds	r24, 0x024C
     f7e:	90 91 4d 02 	lds	r25, 0x024D
     f82:	90 93 21 15 	sts	0x1521, r25
     f86:	80 93 20 15 	sts	0x1520, r24
     f8a:	87 b1       	in	r24, 0x07	; 7
     f8c:	88 b9       	out	0x08, r24	; 8
     f8e:	14 ba       	out	0x14, r1	; 20
     f90:	77 cd       	rjmp	.-1298   	; 0xa80 <_Z7OS_Initv+0x160>
     f92:	c5 01       	movw	r24, r10
     f94:	8d da       	rcall	.-2790   	; 0x4b0 <_ZL7dequeueP7queue_t>
     f96:	90 93 21 15 	sts	0x1521, r25
     f9a:	80 93 20 15 	sts	0x1520, r24
     f9e:	14 ba       	out	0x14, r1	; 20
     fa0:	6f cd       	rjmp	.-1314   	; 0xa80 <_Z7OS_Initv+0x160>
     fa2:	ef e0       	ldi	r30, 0x0F	; 15
     fa4:	f3 e1       	ldi	r31, 0x13	; 19
     fa6:	f0 93 21 15 	sts	0x1521, r31
     faa:	e0 93 20 15 	sts	0x1520, r30
     fae:	14 ba       	out	0x14, r1	; 20
     fb0:	67 cd       	rjmp	.-1330   	; 0xa80 <_Z7OS_Initv+0x160>
     fb2:	fc 01       	movw	r30, r24
     fb4:	ed 5f       	subi	r30, 0xFD	; 253
     fb6:	fd 4f       	sbci	r31, 0xFD	; 253
     fb8:	f0 82       	st	Z, r15
     fba:	c0 ce       	rjmp	.-640    	; 0xd3c <_Z7OS_Initv+0x41c>
     fbc:	fb 01       	movw	r30, r22
     fbe:	ed 5f       	subi	r30, 0xFD	; 253
     fc0:	fd 4f       	sbci	r31, 0xFD	; 253
     fc2:	f0 82       	st	Z, r15
     fc4:	33 96       	adiw	r30, 0x03	; 3
     fc6:	80 81       	ld	r24, Z
     fc8:	81 30       	cpi	r24, 0x01	; 1
     fca:	09 f4       	brne	.+2      	; 0xfce <_Z7OS_Initv+0x6ae>
     fcc:	c8 ce       	rjmp	.-624    	; 0xd5e <_Z7OS_Initv+0x43e>
     fce:	d2 cf       	rjmp	.-92     	; 0xf74 <_Z7OS_Initv+0x654>
     fd0:	d5 01       	movw	r26, r10
     fd2:	8d 91       	ld	r24, X+
     fd4:	9c 91       	ld	r25, X
     fd6:	89 2b       	or	r24, r25
     fd8:	09 f0       	breq	.+2      	; 0xfdc <_Z7OS_Initv+0x6bc>
     fda:	4d cd       	rjmp	.-1382   	; 0xa76 <_Z7OS_Initv+0x156>
     fdc:	e2 cf       	rjmp	.-60     	; 0xfa2 <_Z7OS_Initv+0x682>
     fde:	f5 01       	movw	r30, r10
     fe0:	80 81       	ld	r24, Z
     fe2:	91 81       	ldd	r25, Z+1	; 0x01
     fe4:	89 2b       	or	r24, r25
     fe6:	a9 f6       	brne	.-86     	; 0xf92 <_Z7OS_Initv+0x672>
     fe8:	dc cf       	rjmp	.-72     	; 0xfa2 <_Z7OS_Initv+0x682>

00000fea <Task_Create_RR>:
     fea:	cf 93       	push	r28
     fec:	cf b7       	in	r28, 0x3f	; 63
     fee:	f8 94       	cli
     ff0:	90 93 8c 02 	sts	0x028C, r25
     ff4:	80 93 8b 02 	sts	0x028B, r24
     ff8:	e0 91 8d 02 	lds	r30, 0x028D
     ffc:	f0 91 8e 02 	lds	r31, 0x028E
    1000:	71 83       	std	Z+1, r23	; 0x01
    1002:	60 83       	st	Z, r22
    1004:	81 e0       	ldi	r24, 0x01	; 1
    1006:	80 93 8f 02 	sts	0x028F, r24
    100a:	82 e0       	ldi	r24, 0x02	; 2
    100c:	80 93 96 02 	sts	0x0296, r24
    1010:	de d9       	rcall	.-3140   	; 0x3ce <_ZL12enter_kernelv>
    1012:	80 91 89 02 	lds	r24, 0x0289
    1016:	90 91 8a 02 	lds	r25, 0x028A
    101a:	cf bf       	out	0x3f, r28	; 63
    101c:	cf 91       	pop	r28
    101e:	08 95       	ret

00001020 <Task_Create_Periodic>:
    1020:	0f 93       	push	r16
    1022:	1f 93       	push	r17
    1024:	cf 93       	push	r28
    1026:	cf b7       	in	r28, 0x3f	; 63
    1028:	f8 94       	cli
    102a:	90 93 8c 02 	sts	0x028C, r25
    102e:	80 93 8b 02 	sts	0x028B, r24
    1032:	e0 91 8d 02 	lds	r30, 0x028D
    1036:	f0 91 8e 02 	lds	r31, 0x028E
    103a:	71 83       	std	Z+1, r23	; 0x01
    103c:	60 83       	st	Z, r22
    103e:	82 e0       	ldi	r24, 0x02	; 2
    1040:	80 93 8f 02 	sts	0x028F, r24
    1044:	50 93 91 02 	sts	0x0291, r21
    1048:	40 93 90 02 	sts	0x0290, r20
    104c:	30 93 93 02 	sts	0x0293, r19
    1050:	20 93 92 02 	sts	0x0292, r18
    1054:	10 93 95 02 	sts	0x0295, r17
    1058:	00 93 94 02 	sts	0x0294, r16
    105c:	80 93 96 02 	sts	0x0296, r24
    1060:	b6 d9       	rcall	.-3220   	; 0x3ce <_ZL12enter_kernelv>
    1062:	80 91 89 02 	lds	r24, 0x0289
    1066:	90 91 8a 02 	lds	r25, 0x028A
    106a:	cf bf       	out	0x3f, r28	; 63
    106c:	cf 91       	pop	r28
    106e:	1f 91       	pop	r17
    1070:	0f 91       	pop	r16
    1072:	08 95       	ret

00001074 <Now>:
    1074:	80 91 4a 02 	lds	r24, 0x024A
    1078:	90 91 4b 02 	lds	r25, 0x024B
    107c:	84 33       	cpi	r24, 0x34	; 52
    107e:	93 43       	sbci	r25, 0x33	; 51
    1080:	20 f0       	brcs	.+8      	; 0x108a <Now+0x16>
    1082:	10 92 4b 02 	sts	0x024B, r1
    1086:	10 92 4a 02 	sts	0x024A, r1
    108a:	80 91 4a 02 	lds	r24, 0x024A
    108e:	90 91 4b 02 	lds	r25, 0x024B
    1092:	9c 01       	movw	r18, r24
    1094:	22 0f       	add	r18, r18
    1096:	33 1f       	adc	r19, r19
    1098:	22 0f       	add	r18, r18
    109a:	33 1f       	adc	r19, r19
    109c:	82 0f       	add	r24, r18
    109e:	93 1f       	adc	r25, r19
    10a0:	08 95       	ret

000010a2 <Service_Init>:
    10a2:	cf 93       	push	r28
    10a4:	cf b7       	in	r28, 0x3f	; 63
    10a6:	f8 94       	cli
    10a8:	86 e0       	ldi	r24, 0x06	; 6
    10aa:	80 93 96 02 	sts	0x0296, r24
    10ae:	8f d9       	rcall	.-3298   	; 0x3ce <_ZL12enter_kernelv>
    10b0:	80 91 87 02 	lds	r24, 0x0287
    10b4:	90 91 88 02 	lds	r25, 0x0288
    10b8:	00 97       	sbiw	r24, 0x00	; 0
    10ba:	21 f4       	brne	.+8      	; 0x10c4 <Service_Init+0x22>
    10bc:	8d e0       	ldi	r24, 0x0D	; 13
    10be:	80 93 14 02 	sts	0x0214, r24
    10c2:	7b da       	rcall	.-2826   	; 0x5ba <OS_Abort>
    10c4:	cf bf       	out	0x3f, r28	; 63
    10c6:	cf 91       	pop	r28
    10c8:	08 95       	ret

000010ca <Service_Subscribe>:
    10ca:	cf 93       	push	r28
    10cc:	cf b7       	in	r28, 0x3f	; 63
    10ce:	f8 94       	cli
    10d0:	27 e0       	ldi	r18, 0x07	; 7
    10d2:	20 93 96 02 	sts	0x0296, r18
    10d6:	90 93 88 02 	sts	0x0288, r25
    10da:	80 93 87 02 	sts	0x0287, r24
    10de:	70 93 86 02 	sts	0x0286, r23
    10e2:	60 93 85 02 	sts	0x0285, r22
    10e6:	73 d9       	rcall	.-3354   	; 0x3ce <_ZL12enter_kernelv>
    10e8:	cf bf       	out	0x3f, r28	; 63
    10ea:	cf 91       	pop	r28
    10ec:	08 95       	ret

000010ee <Service_Publish>:
    10ee:	cf 93       	push	r28
    10f0:	cf b7       	in	r28, 0x3f	; 63
    10f2:	f8 94       	cli
    10f4:	28 e0       	ldi	r18, 0x08	; 8
    10f6:	20 93 96 02 	sts	0x0296, r18
    10fa:	90 93 88 02 	sts	0x0288, r25
    10fe:	80 93 87 02 	sts	0x0287, r24
    1102:	e0 91 85 02 	lds	r30, 0x0285
    1106:	f0 91 86 02 	lds	r31, 0x0286
    110a:	71 83       	std	Z+1, r23	; 0x01
    110c:	60 83       	st	Z, r22
    110e:	5f d9       	rcall	.-3394   	; 0x3ce <_ZL12enter_kernelv>
    1110:	cf bf       	out	0x3f, r28	; 63
    1112:	cf 91       	pop	r28
    1114:	08 95       	ret

00001116 <main>:
 */
int main()
{
	// Enable LED for output
	// RR: Pin 13
	DDRB = (uint8_t)(_BV(DDB7));
    1116:	80 e8       	ldi	r24, 0x80	; 128
    1118:	84 b9       	out	0x04, r24	; 4
	// System: Pin 41
	DDRG = (uint8_t)(_BV(DDG0));
    111a:	91 e0       	ldi	r25, 0x01	; 1
    111c:	93 bb       	out	0x13, r25	; 19
	// Periodic: Pin 37
	DDRC = (uint8_t)(_BV(DDC0));
    111e:	97 b9       	out	0x07, r25	; 7
	// Profiling: Pin 5
	DDRE = (uint8_t)(_BV(DDE3));
    1120:	98 e0       	ldi	r25, 0x08	; 8
    1122:	9d b9       	out	0x0d, r25	; 13
	
	// Set both pins low
	PORTB = 0;
    1124:	15 b8       	out	0x05, r1	; 5
	PORTG = 0;
    1126:	14 ba       	out	0x14, r1	; 20
	PORTC = 0;
    1128:	18 b8       	out	0x08, r1	; 8
	PORTE = 0;
    112a:	1e b8       	out	0x0e, r1	; 14
	
	/* Set up the clocks */
	CLOCK16MHZ();
    112c:	e1 e6       	ldi	r30, 0x61	; 97
    112e:	f0 e0       	ldi	r31, 0x00	; 0
    1130:	80 83       	st	Z, r24
    1132:	10 82       	st	Z, r1
	
	OS_Init();
    1134:	f5 db       	rcall	.-2070   	; 0x920 <_Z7OS_Initv>

00001136 <_ZL10get_statusv>:
}

void Radio_Flush()
{
	send_instruction(FLUSH_TX, NULL, NULL, 0);
	send_instruction(FLUSH_RX, NULL, NULL, 0);
    1136:	cf 93       	push	r28
    1138:	df 93       	push	r29
    113a:	c2 e0       	ldi	r28, 0x02	; 2
    113c:	d1 e0       	ldi	r29, 0x01	; 1
    113e:	88 81       	ld	r24, Y
    1140:	8f 7b       	andi	r24, 0xBF	; 191
    1142:	88 83       	st	Y, r24
    1144:	8f ef       	ldi	r24, 0xFF	; 255
    1146:	27 d3       	rcall	.+1614   	; 0x1796 <_Z14SPI_Write_Byteh>
    1148:	98 81       	ld	r25, Y
    114a:	90 64       	ori	r25, 0x40	; 64
    114c:	98 83       	st	Y, r25
    114e:	df 91       	pop	r29
    1150:	cf 91       	pop	r28
    1152:	08 95       	ret

00001154 <_ZL12set_registerhPhh>:
    1154:	ef 92       	push	r14
    1156:	ff 92       	push	r15
    1158:	0f 93       	push	r16
    115a:	1f 93       	push	r17
    115c:	cf 93       	push	r28
    115e:	df 93       	push	r29
    1160:	8b 01       	movw	r16, r22
    1162:	e4 2e       	mov	r14, r20
    1164:	c2 e0       	ldi	r28, 0x02	; 2
    1166:	d1 e0       	ldi	r29, 0x01	; 1
    1168:	98 81       	ld	r25, Y
    116a:	9f 7b       	andi	r25, 0xBF	; 191
    116c:	98 83       	st	Y, r25
    116e:	8f 71       	andi	r24, 0x1F	; 31
    1170:	80 62       	ori	r24, 0x20	; 32
    1172:	11 d3       	rcall	.+1570   	; 0x1796 <_Z14SPI_Write_Byteh>
    1174:	f8 2e       	mov	r15, r24
    1176:	6e 2d       	mov	r22, r14
    1178:	c8 01       	movw	r24, r16
    117a:	fe d2       	rcall	.+1532   	; 0x1778 <_Z15SPI_Write_BlockPhh>
    117c:	88 81       	ld	r24, Y
    117e:	80 64       	ori	r24, 0x40	; 64
    1180:	88 83       	st	Y, r24
    1182:	8f 2d       	mov	r24, r15
    1184:	df 91       	pop	r29
    1186:	cf 91       	pop	r28
    1188:	1f 91       	pop	r17
    118a:	0f 91       	pop	r16
    118c:	ff 90       	pop	r15
    118e:	ef 90       	pop	r14
    1190:	08 95       	ret

00001192 <_ZL19reset_pipe0_addressv>:
    1192:	80 91 22 02 	lds	r24, 0x0222
    1196:	88 23       	and	r24, r24
    1198:	29 f0       	breq	.+10     	; 0x11a4 <_ZL19reset_pipe0_addressv+0x12>
    119a:	45 e0       	ldi	r20, 0x05	; 5
    119c:	68 e1       	ldi	r22, 0x18	; 24
    119e:	72 e0       	ldi	r23, 0x02	; 2
    11a0:	8a e0       	ldi	r24, 0x0A	; 10
    11a2:	d8 cf       	rjmp	.-80     	; 0x1154 <_ZL12set_registerhPhh>
    11a4:	08 95       	ret

000011a6 <_ZL16send_instructionhPhS_h>:
    11a6:	ff 92       	push	r15
    11a8:	0f 93       	push	r16
    11aa:	1f 93       	push	r17
    11ac:	cf 93       	push	r28
    11ae:	df 93       	push	r29
    11b0:	8b 01       	movw	r16, r22
    11b2:	ea 01       	movw	r28, r20
    11b4:	f2 2e       	mov	r15, r18
    11b6:	e2 e0       	ldi	r30, 0x02	; 2
    11b8:	f1 e0       	ldi	r31, 0x01	; 1
    11ba:	90 81       	ld	r25, Z
    11bc:	9f 7b       	andi	r25, 0xBF	; 191
    11be:	90 83       	st	Z, r25
    11c0:	ea d2       	rcall	.+1492   	; 0x1796 <_Z14SPI_Write_Byteh>
    11c2:	ff 20       	and	r15, r15
    11c4:	51 f0       	breq	.+20     	; 0x11da <_ZL16send_instructionhPhS_h+0x34>
    11c6:	20 97       	sbiw	r28, 0x00	; 0
    11c8:	21 f4       	brne	.+8      	; 0x11d2 <_ZL16send_instructionhPhS_h+0x2c>
    11ca:	6f 2d       	mov	r22, r15
    11cc:	c8 01       	movw	r24, r16
    11ce:	d4 d2       	rcall	.+1448   	; 0x1778 <_Z15SPI_Write_BlockPhh>
    11d0:	04 c0       	rjmp	.+8      	; 0x11da <_ZL16send_instructionhPhS_h+0x34>
    11d2:	4f 2d       	mov	r20, r15
    11d4:	be 01       	movw	r22, r28
    11d6:	c8 01       	movw	r24, r16
    11d8:	bc d2       	rcall	.+1400   	; 0x1752 <_Z19SPI_ReadWrite_BlockPhS_h>
    11da:	e2 e0       	ldi	r30, 0x02	; 2
    11dc:	f1 e0       	ldi	r31, 0x01	; 1
    11de:	80 81       	ld	r24, Z
    11e0:	80 64       	ori	r24, 0x40	; 64
    11e2:	80 83       	st	Z, r24
    11e4:	df 91       	pop	r29
    11e6:	cf 91       	pop	r28
    11e8:	1f 91       	pop	r17
    11ea:	0f 91       	pop	r16
    11ec:	ff 90       	pop	r15
    11ee:	08 95       	ret

000011f0 <_ZL12get_registerhPhh>:
    11f0:	ef 92       	push	r14
    11f2:	ff 92       	push	r15
    11f4:	0f 93       	push	r16
    11f6:	1f 93       	push	r17
    11f8:	cf 93       	push	r28
    11fa:	df 93       	push	r29
    11fc:	06 2f       	mov	r16, r22
    11fe:	f7 2e       	mov	r15, r23
    1200:	14 2f       	mov	r17, r20
    1202:	44 23       	and	r20, r20
    1204:	49 f0       	breq	.+18     	; 0x1218 <_ZL12get_registerhPhh+0x28>
    1206:	36 2f       	mov	r19, r22
    1208:	e6 2f       	mov	r30, r22
    120a:	f7 2f       	mov	r31, r23
    120c:	2f ef       	ldi	r18, 0xFF	; 255
    120e:	21 93       	st	Z+, r18
    1210:	9e 2f       	mov	r25, r30
    1212:	93 1b       	sub	r25, r19
    1214:	91 17       	cp	r25, r17
    1216:	d8 f3       	brcs	.-10     	; 0x120e <_ZL12get_registerhPhh+0x1e>
    1218:	c2 e0       	ldi	r28, 0x02	; 2
    121a:	d1 e0       	ldi	r29, 0x01	; 1
    121c:	98 81       	ld	r25, Y
    121e:	9f 7b       	andi	r25, 0xBF	; 191
    1220:	98 83       	st	Y, r25
    1222:	8f 71       	andi	r24, 0x1F	; 31
    1224:	b8 d2       	rcall	.+1392   	; 0x1796 <_Z14SPI_Write_Byteh>
    1226:	e8 2e       	mov	r14, r24
    1228:	41 2f       	mov	r20, r17
    122a:	60 2f       	mov	r22, r16
    122c:	7f 2d       	mov	r23, r15
    122e:	80 e0       	ldi	r24, 0x00	; 0
    1230:	90 e0       	ldi	r25, 0x00	; 0
    1232:	8f d2       	rcall	.+1310   	; 0x1752 <_Z19SPI_ReadWrite_BlockPhS_h>
    1234:	88 81       	ld	r24, Y
    1236:	80 64       	ori	r24, 0x40	; 64
    1238:	88 83       	st	Y, r24
    123a:	8e 2d       	mov	r24, r14
    123c:	df 91       	pop	r29
    123e:	cf 91       	pop	r28
    1240:	1f 91       	pop	r17
    1242:	0f 91       	pop	r16
    1244:	ff 90       	pop	r15
    1246:	ef 90       	pop	r14
    1248:	08 95       	ret

0000124a <_ZL11set_rx_modev>:
    124a:	cf 93       	push	r28
    124c:	df 93       	push	r29
    124e:	1f 92       	push	r1
    1250:	cd b7       	in	r28, 0x3d	; 61
    1252:	de b7       	in	r29, 0x3e	; 62
    1254:	41 e0       	ldi	r20, 0x01	; 1
    1256:	be 01       	movw	r22, r28
    1258:	6f 5f       	subi	r22, 0xFF	; 255
    125a:	7f 4f       	sbci	r23, 0xFF	; 255
    125c:	80 e0       	ldi	r24, 0x00	; 0
    125e:	c8 df       	rcall	.-112    	; 0x11f0 <_ZL12get_registerhPhh>
    1260:	89 81       	ldd	r24, Y+1	; 0x01
    1262:	80 fd       	sbrc	r24, 0
    1264:	10 c0       	rjmp	.+32     	; 0x1286 <_ZL11set_rx_modev+0x3c>
    1266:	81 60       	ori	r24, 0x01	; 1
    1268:	89 83       	std	Y+1, r24	; 0x01
    126a:	41 e0       	ldi	r20, 0x01	; 1
    126c:	be 01       	movw	r22, r28
    126e:	6f 5f       	subi	r22, 0xFF	; 255
    1270:	7f 4f       	sbci	r23, 0xFF	; 255
    1272:	80 e0       	ldi	r24, 0x00	; 0
    1274:	6f df       	rcall	.-290    	; 0x1154 <_ZL12set_registerhPhh>
    1276:	85 e1       	ldi	r24, 0x15	; 21
    1278:	8a 95       	dec	r24
    127a:	f1 f7       	brne	.-4      	; 0x1278 <_ZL11set_rx_modev+0x2e>
    127c:	00 c0       	rjmp	.+0      	; 0x127e <_ZL11set_rx_modev+0x34>
    127e:	85 e1       	ldi	r24, 0x15	; 21
    1280:	8a 95       	dec	r24
    1282:	f1 f7       	brne	.-4      	; 0x1280 <_ZL11set_rx_modev+0x36>
    1284:	00 c0       	rjmp	.+0      	; 0x1286 <_ZL11set_rx_modev+0x3c>
    1286:	0f 90       	pop	r0
    1288:	df 91       	pop	r29
    128a:	cf 91       	pop	r28
    128c:	08 95       	ret

0000128e <_Z10Radio_Initv>:
    128e:	cf 93       	push	r28
    1290:	df 93       	push	r29
    1292:	1f 92       	push	r1
    1294:	cd b7       	in	r28, 0x3d	; 61
    1296:	de b7       	in	r29, 0x3e	; 62
    1298:	10 92 22 15 	sts	0x1522, r1
    129c:	e1 e0       	ldi	r30, 0x01	; 1
    129e:	f1 e0       	ldi	r31, 0x01	; 1
    12a0:	80 81       	ld	r24, Z
    12a2:	88 61       	ori	r24, 0x18	; 24
    12a4:	80 83       	st	Z, r24
    12a6:	a2 e0       	ldi	r26, 0x02	; 2
    12a8:	b1 e0       	ldi	r27, 0x01	; 1
    12aa:	8c 91       	ld	r24, X
    12ac:	8f 7e       	andi	r24, 0xEF	; 239
    12ae:	8c 93       	st	X, r24
    12b0:	8c 91       	ld	r24, X
    12b2:	87 7f       	andi	r24, 0xF7	; 247
    12b4:	8c 93       	st	X, r24
    12b6:	8c 91       	ld	r24, X
    12b8:	8f 7d       	andi	r24, 0xDF	; 223
    12ba:	8c 93       	st	X, r24
    12bc:	80 81       	ld	r24, Z
    12be:	80 62       	ori	r24, 0x20	; 32
    12c0:	80 83       	st	Z, r24
    12c2:	80 81       	ld	r24, Z
    12c4:	80 64       	ori	r24, 0x40	; 64
    12c6:	80 83       	st	Z, r24
    12c8:	6c 98       	cbi	0x0d, 4	; 13
    12ca:	ea e6       	ldi	r30, 0x6A	; 106
    12cc:	f0 e0       	ldi	r31, 0x00	; 0
    12ce:	80 81       	ld	r24, Z
    12d0:	82 60       	ori	r24, 0x02	; 2
    12d2:	80 83       	st	Z, r24
    12d4:	80 81       	ld	r24, Z
    12d6:	8e 7f       	andi	r24, 0xFE	; 254
    12d8:	80 83       	st	Z, r24
    12da:	ec 9a       	sbi	0x1d, 4	; 29
    12dc:	e4 9a       	sbi	0x1c, 4	; 28
    12de:	8d eb       	ldi	r24, 0xBD	; 189
    12e0:	9a e0       	ldi	r25, 0x0A	; 10
    12e2:	01 97       	sbiw	r24, 0x01	; 1
    12e4:	f1 f7       	brne	.-4      	; 0x12e2 <_Z10Radio_Initv+0x54>
    12e6:	00 c0       	rjmp	.+0      	; 0x12e8 <_Z10Radio_Initv+0x5a>
    12e8:	00 00       	nop
    12ea:	26 d2       	rcall	.+1100   	; 0x1738 <_Z8SPI_Initv>
    12ec:	83 e0       	ldi	r24, 0x03	; 3
    12ee:	89 83       	std	Y+1, r24	; 0x01
    12f0:	41 e0       	ldi	r20, 0x01	; 1
    12f2:	be 01       	movw	r22, r28
    12f4:	6f 5f       	subi	r22, 0xFF	; 255
    12f6:	7f 4f       	sbci	r23, 0xFF	; 255
    12f8:	2d df       	rcall	.-422    	; 0x1154 <_ZL12set_registerhPhh>
    12fa:	85 e1       	ldi	r24, 0x15	; 21
    12fc:	89 83       	std	Y+1, r24	; 0x01
    12fe:	41 e0       	ldi	r20, 0x01	; 1
    1300:	be 01       	movw	r22, r28
    1302:	6f 5f       	subi	r22, 0xFF	; 255
    1304:	7f 4f       	sbci	r23, 0xFF	; 255
    1306:	84 e0       	ldi	r24, 0x04	; 4
    1308:	25 df       	rcall	.-438    	; 0x1154 <_ZL12set_registerhPhh>
    130a:	88 e6       	ldi	r24, 0x68	; 104
    130c:	89 83       	std	Y+1, r24	; 0x01
    130e:	41 e0       	ldi	r20, 0x01	; 1
    1310:	be 01       	movw	r22, r28
    1312:	6f 5f       	subi	r22, 0xFF	; 255
    1314:	7f 4f       	sbci	r23, 0xFF	; 255
    1316:	85 e0       	ldi	r24, 0x05	; 5
    1318:	1d df       	rcall	.-454    	; 0x1154 <_ZL12set_registerhPhh>
    131a:	89 e0       	ldi	r24, 0x09	; 9
    131c:	89 83       	std	Y+1, r24	; 0x01
    131e:	41 e0       	ldi	r20, 0x01	; 1
    1320:	be 01       	movw	r22, r28
    1322:	6f 5f       	subi	r22, 0xFF	; 255
    1324:	7f 4f       	sbci	r23, 0xFF	; 255
    1326:	86 e0       	ldi	r24, 0x06	; 6
    1328:	15 df       	rcall	.-470    	; 0x1154 <_ZL12set_registerhPhh>
    132a:	8f e0       	ldi	r24, 0x0F	; 15
    132c:	89 83       	std	Y+1, r24	; 0x01
    132e:	41 e0       	ldi	r20, 0x01	; 1
    1330:	be 01       	movw	r22, r28
    1332:	6f 5f       	subi	r22, 0xFF	; 255
    1334:	7f 4f       	sbci	r23, 0xFF	; 255
    1336:	80 e0       	ldi	r24, 0x00	; 0
    1338:	0d df       	rcall	.-486    	; 0x1154 <_ZL12set_registerhPhh>
    133a:	80 e7       	ldi	r24, 0x70	; 112
    133c:	89 83       	std	Y+1, r24	; 0x01
    133e:	41 e0       	ldi	r20, 0x01	; 1
    1340:	be 01       	movw	r22, r28
    1342:	6f 5f       	subi	r22, 0xFF	; 255
    1344:	7f 4f       	sbci	r23, 0xFF	; 255
    1346:	87 e0       	ldi	r24, 0x07	; 7
    1348:	05 df       	rcall	.-502    	; 0x1154 <_ZL12set_registerhPhh>
    134a:	20 e0       	ldi	r18, 0x00	; 0
    134c:	40 e0       	ldi	r20, 0x00	; 0
    134e:	50 e0       	ldi	r21, 0x00	; 0
    1350:	60 e0       	ldi	r22, 0x00	; 0
    1352:	70 e0       	ldi	r23, 0x00	; 0
    1354:	81 ee       	ldi	r24, 0xE1	; 225
    1356:	27 df       	rcall	.-434    	; 0x11a6 <_ZL16send_instructionhPhS_h>
    1358:	20 e0       	ldi	r18, 0x00	; 0
    135a:	40 e0       	ldi	r20, 0x00	; 0
    135c:	50 e0       	ldi	r21, 0x00	; 0
    135e:	60 e0       	ldi	r22, 0x00	; 0
    1360:	70 e0       	ldi	r23, 0x00	; 0
    1362:	82 ee       	ldi	r24, 0xE2	; 226
    1364:	20 df       	rcall	.-448    	; 0x11a6 <_ZL16send_instructionhPhS_h>
    1366:	83 ef       	ldi	r24, 0xF3	; 243
    1368:	91 e0       	ldi	r25, 0x01	; 1
    136a:	01 97       	sbiw	r24, 0x01	; 1
    136c:	f1 f7       	brne	.-4      	; 0x136a <_Z10Radio_Initv+0xdc>
    136e:	00 c0       	rjmp	.+0      	; 0x1370 <_Z10Radio_Initv+0xe2>
    1370:	00 00       	nop
    1372:	e2 e0       	ldi	r30, 0x02	; 2
    1374:	f1 e0       	ldi	r31, 0x01	; 1
    1376:	80 81       	ld	r24, Z
    1378:	80 62       	ori	r24, 0x20	; 32
    137a:	80 83       	st	Z, r24
    137c:	80 81       	ld	r24, Z
    137e:	80 61       	ori	r24, 0x10	; 16
    1380:	80 83       	st	Z, r24
    1382:	0f 90       	pop	r0
    1384:	df 91       	pop	r29
    1386:	cf 91       	pop	r28
    1388:	08 95       	ret

0000138a <_Z18Radio_Configure_Rx11_radio_pipePh3_ed>:
    138a:	cf 92       	push	r12
    138c:	df 92       	push	r13
    138e:	ef 92       	push	r14
    1390:	ff 92       	push	r15
    1392:	0f 93       	push	r16
    1394:	1f 93       	push	r17
    1396:	cf 93       	push	r28
    1398:	df 93       	push	r29
    139a:	1f 92       	push	r1
    139c:	cd b7       	in	r28, 0x3d	; 61
    139e:	de b7       	in	r29, 0x3e	; 62
    13a0:	d8 2e       	mov	r13, r24
    13a2:	c4 2e       	mov	r12, r20
    13a4:	85 e0       	ldi	r24, 0x05	; 5
    13a6:	8d 15       	cp	r24, r13
    13a8:	08 f4       	brcc	.+2      	; 0x13ac <_Z18Radio_Configure_Rx11_radio_pipePh3_ed+0x22>
    13aa:	6f c0       	rjmp	.+222    	; 0x148a <_Z18Radio_Configure_Rx11_radio_pipePh3_ed+0x100>
    13ac:	d1 10       	cpse	r13, r1
    13ae:	11 c0       	rjmp	.+34     	; 0x13d2 <_Z18Radio_Configure_Rx11_radio_pipePh3_ed+0x48>
    13b0:	fb 01       	movw	r30, r22
    13b2:	80 81       	ld	r24, Z
    13b4:	80 93 18 02 	sts	0x0218, r24
    13b8:	81 81       	ldd	r24, Z+1	; 0x01
    13ba:	80 93 19 02 	sts	0x0219, r24
    13be:	82 81       	ldd	r24, Z+2	; 0x02
    13c0:	80 93 1a 02 	sts	0x021A, r24
    13c4:	83 81       	ldd	r24, Z+3	; 0x03
    13c6:	80 93 1b 02 	sts	0x021B, r24
    13ca:	84 81       	ldd	r24, Z+4	; 0x04
    13cc:	80 93 1c 02 	sts	0x021C, r24
    13d0:	03 c0       	rjmp	.+6      	; 0x13d8 <_Z18Radio_Configure_Rx11_radio_pipePh3_ed+0x4e>
    13d2:	f1 e0       	ldi	r31, 0x01	; 1
    13d4:	fd 15       	cp	r31, r13
    13d6:	10 f0       	brcs	.+4      	; 0x13dc <_Z18Radio_Configure_Rx11_radio_pipePh3_ed+0x52>
    13d8:	45 e0       	ldi	r20, 0x05	; 5
    13da:	01 c0       	rjmp	.+2      	; 0x13de <_Z18Radio_Configure_Rx11_radio_pipePh3_ed+0x54>
    13dc:	41 e0       	ldi	r20, 0x01	; 1
    13de:	8a e0       	ldi	r24, 0x0A	; 10
    13e0:	8d 0d       	add	r24, r13
    13e2:	b8 de       	rcall	.-656    	; 0x1154 <_ZL12set_registerhPhh>
    13e4:	41 e0       	ldi	r20, 0x01	; 1
    13e6:	be 01       	movw	r22, r28
    13e8:	6f 5f       	subi	r22, 0xFF	; 255
    13ea:	7f 4f       	sbci	r23, 0xFF	; 255
    13ec:	81 e0       	ldi	r24, 0x01	; 1
    13ee:	00 df       	rcall	.-512    	; 0x11f0 <_ZL12get_registerhPhh>
    13f0:	ed 2c       	mov	r14, r13
    13f2:	f1 2c       	mov	r15, r1
    13f4:	01 e0       	ldi	r16, 0x01	; 1
    13f6:	10 e0       	ldi	r17, 0x00	; 0
    13f8:	0d 2c       	mov	r0, r13
    13fa:	02 c0       	rjmp	.+4      	; 0x1400 <_Z18Radio_Configure_Rx11_radio_pipePh3_ed+0x76>
    13fc:	00 0f       	add	r16, r16
    13fe:	11 1f       	adc	r17, r17
    1400:	0a 94       	dec	r0
    1402:	e2 f7       	brpl	.-8      	; 0x13fc <_Z18Radio_Configure_Rx11_radio_pipePh3_ed+0x72>
    1404:	89 81       	ldd	r24, Y+1	; 0x01
    1406:	80 2b       	or	r24, r16
    1408:	89 83       	std	Y+1, r24	; 0x01
    140a:	41 e0       	ldi	r20, 0x01	; 1
    140c:	be 01       	movw	r22, r28
    140e:	6f 5f       	subi	r22, 0xFF	; 255
    1410:	7f 4f       	sbci	r23, 0xFF	; 255
    1412:	81 e0       	ldi	r24, 0x01	; 1
    1414:	9f de       	rcall	.-706    	; 0x1154 <_ZL12set_registerhPhh>
    1416:	c1 10       	cpse	r12, r1
    1418:	08 c0       	rjmp	.+16     	; 0x142a <_Z18Radio_Configure_Rx11_radio_pipePh3_ed+0xa0>
    141a:	1f c0       	rjmp	.+62     	; 0x145a <_Z18Radio_Configure_Rx11_radio_pipePh3_ed+0xd0>
    141c:	41 e0       	ldi	r20, 0x01	; 1
    141e:	be 01       	movw	r22, r28
    1420:	6f 5f       	subi	r22, 0xFF	; 255
    1422:	7f 4f       	sbci	r23, 0xFF	; 255
    1424:	82 e0       	ldi	r24, 0x02	; 2
    1426:	96 de       	rcall	.-724    	; 0x1154 <_ZL12set_registerhPhh>
    1428:	30 c0       	rjmp	.+96     	; 0x148a <_Z18Radio_Configure_Rx11_radio_pipePh3_ed+0x100>
    142a:	80 e2       	ldi	r24, 0x20	; 32
    142c:	89 83       	std	Y+1, r24	; 0x01
    142e:	41 e0       	ldi	r20, 0x01	; 1
    1430:	be 01       	movw	r22, r28
    1432:	6f 5f       	subi	r22, 0xFF	; 255
    1434:	7f 4f       	sbci	r23, 0xFF	; 255
    1436:	81 e1       	ldi	r24, 0x11	; 17
    1438:	8d 0d       	add	r24, r13
    143a:	8c de       	rcall	.-744    	; 0x1154 <_ZL12set_registerhPhh>
    143c:	89 81       	ldd	r24, Y+1	; 0x01
    143e:	f7 01       	movw	r30, r14
    1440:	ee 5d       	subi	r30, 0xDE	; 222
    1442:	fd 4f       	sbci	r31, 0xFD	; 253
    1444:	80 83       	st	Z, r24
    1446:	41 e0       	ldi	r20, 0x01	; 1
    1448:	be 01       	movw	r22, r28
    144a:	6f 5f       	subi	r22, 0xFF	; 255
    144c:	7f 4f       	sbci	r23, 0xFF	; 255
    144e:	82 e0       	ldi	r24, 0x02	; 2
    1450:	cf de       	rcall	.-610    	; 0x11f0 <_ZL12get_registerhPhh>
    1452:	89 81       	ldd	r24, Y+1	; 0x01
    1454:	08 2b       	or	r16, r24
    1456:	09 83       	std	Y+1, r16	; 0x01
    1458:	e1 cf       	rjmp	.-62     	; 0x141c <_Z18Radio_Configure_Rx11_radio_pipePh3_ed+0x92>
    145a:	19 82       	std	Y+1, r1	; 0x01
    145c:	41 e0       	ldi	r20, 0x01	; 1
    145e:	be 01       	movw	r22, r28
    1460:	6f 5f       	subi	r22, 0xFF	; 255
    1462:	7f 4f       	sbci	r23, 0xFF	; 255
    1464:	81 e1       	ldi	r24, 0x11	; 17
    1466:	8d 0d       	add	r24, r13
    1468:	75 de       	rcall	.-790    	; 0x1154 <_ZL12set_registerhPhh>
    146a:	89 81       	ldd	r24, Y+1	; 0x01
    146c:	f7 01       	movw	r30, r14
    146e:	ee 5d       	subi	r30, 0xDE	; 222
    1470:	fd 4f       	sbci	r31, 0xFD	; 253
    1472:	80 83       	st	Z, r24
    1474:	41 e0       	ldi	r20, 0x01	; 1
    1476:	be 01       	movw	r22, r28
    1478:	6f 5f       	subi	r22, 0xFF	; 255
    147a:	7f 4f       	sbci	r23, 0xFF	; 255
    147c:	82 e0       	ldi	r24, 0x02	; 2
    147e:	b8 de       	rcall	.-656    	; 0x11f0 <_ZL12get_registerhPhh>
    1480:	00 95       	com	r16
    1482:	89 81       	ldd	r24, Y+1	; 0x01
    1484:	08 23       	and	r16, r24
    1486:	09 83       	std	Y+1, r16	; 0x01
    1488:	c9 cf       	rjmp	.-110    	; 0x141c <_Z18Radio_Configure_Rx11_radio_pipePh3_ed+0x92>
    148a:	0f 90       	pop	r0
    148c:	df 91       	pop	r29
    148e:	cf 91       	pop	r28
    1490:	1f 91       	pop	r17
    1492:	0f 91       	pop	r16
    1494:	ff 90       	pop	r15
    1496:	ef 90       	pop	r14
    1498:	df 90       	pop	r13
    149a:	cf 90       	pop	r12
    149c:	08 95       	ret

0000149e <_Z17Radio_Set_Tx_AddrPh>:
    149e:	fc 01       	movw	r30, r24
    14a0:	80 81       	ld	r24, Z
    14a2:	80 93 1d 02 	sts	0x021D, r24
    14a6:	81 81       	ldd	r24, Z+1	; 0x01
    14a8:	80 93 1e 02 	sts	0x021E, r24
    14ac:	82 81       	ldd	r24, Z+2	; 0x02
    14ae:	80 93 1f 02 	sts	0x021F, r24
    14b2:	83 81       	ldd	r24, Z+3	; 0x03
    14b4:	80 93 20 02 	sts	0x0220, r24
    14b8:	84 81       	ldd	r24, Z+4	; 0x04
    14ba:	80 93 21 02 	sts	0x0221, r24
    14be:	45 e0       	ldi	r20, 0x05	; 5
    14c0:	bf 01       	movw	r22, r30
    14c2:	80 e1       	ldi	r24, 0x10	; 16
    14c4:	47 ce       	rjmp	.-882    	; 0x1154 <_ZL12set_registerhPhh>
    14c6:	08 95       	ret

000014c8 <_Z15Radio_Configure9_radio_dr15_radio_tx_power>:
    14c8:	0f 93       	push	r16
    14ca:	1f 93       	push	r17
    14cc:	cf 93       	push	r28
    14ce:	df 93       	push	r29
    14d0:	1f 92       	push	r1
    14d2:	cd b7       	in	r28, 0x3d	; 61
    14d4:	de b7       	in	r29, 0x3e	; 62
    14d6:	08 2f       	mov	r16, r24
    14d8:	16 2f       	mov	r17, r22
    14da:	64 30       	cpi	r22, 0x04	; 4
    14dc:	c8 f4       	brcc	.+50     	; 0x1510 <_Z15Radio_Configure9_radio_dr15_radio_tx_power+0x48>
    14de:	82 30       	cpi	r24, 0x02	; 2
    14e0:	b8 f4       	brcc	.+46     	; 0x1510 <_Z15Radio_Configure9_radio_dr15_radio_tx_power+0x48>
    14e2:	41 e0       	ldi	r20, 0x01	; 1
    14e4:	be 01       	movw	r22, r28
    14e6:	6f 5f       	subi	r22, 0xFF	; 255
    14e8:	7f 4f       	sbci	r23, 0xFF	; 255
    14ea:	86 e0       	ldi	r24, 0x06	; 6
    14ec:	81 de       	rcall	.-766    	; 0x11f0 <_ZL12get_registerhPhh>
    14ee:	11 0f       	add	r17, r17
    14f0:	89 81       	ldd	r24, Y+1	; 0x01
    14f2:	86 60       	ori	r24, 0x06	; 6
    14f4:	18 23       	and	r17, r24
    14f6:	00 23       	and	r16, r16
    14f8:	19 f0       	breq	.+6      	; 0x1500 <_Z15Radio_Configure9_radio_dr15_radio_tx_power+0x38>
    14fa:	18 60       	ori	r17, 0x08	; 8
    14fc:	19 83       	std	Y+1, r17	; 0x01
    14fe:	02 c0       	rjmp	.+4      	; 0x1504 <_Z15Radio_Configure9_radio_dr15_radio_tx_power+0x3c>
    1500:	17 7f       	andi	r17, 0xF7	; 247
    1502:	19 83       	std	Y+1, r17	; 0x01
    1504:	41 e0       	ldi	r20, 0x01	; 1
    1506:	be 01       	movw	r22, r28
    1508:	6f 5f       	subi	r22, 0xFF	; 255
    150a:	7f 4f       	sbci	r23, 0xFF	; 255
    150c:	86 e0       	ldi	r24, 0x06	; 6
    150e:	22 de       	rcall	.-956    	; 0x1154 <_ZL12set_registerhPhh>
    1510:	0f 90       	pop	r0
    1512:	df 91       	pop	r29
    1514:	cf 91       	pop	r28
    1516:	1f 91       	pop	r17
    1518:	0f 91       	pop	r16
    151a:	08 95       	ret

0000151c <_Z14Radio_TransmitP3_rp14_radio_tx_wait>:
    151c:	df 92       	push	r13
    151e:	ef 92       	push	r14
    1520:	ff 92       	push	r15
    1522:	0f 93       	push	r16
    1524:	1f 93       	push	r17
    1526:	cf 93       	push	r28
    1528:	df 93       	push	r29
    152a:	1f 92       	push	r1
    152c:	cd b7       	in	r28, 0x3d	; 61
    152e:	de b7       	in	r29, 0x3e	; 62
    1530:	7c 01       	movw	r14, r24
    1532:	d6 2e       	mov	r13, r22
    1534:	81 e0       	ldi	r24, 0x01	; 1
    1536:	80 93 22 15 	sts	0x1522, r24
    153a:	e2 e0       	ldi	r30, 0x02	; 2
    153c:	f1 e0       	ldi	r31, 0x01	; 1
    153e:	80 81       	ld	r24, Z
    1540:	8f 7d       	andi	r24, 0xDF	; 223
    1542:	80 83       	st	Z, r24
    1544:	41 e0       	ldi	r20, 0x01	; 1
    1546:	be 01       	movw	r22, r28
    1548:	6f 5f       	subi	r22, 0xFF	; 255
    154a:	7f 4f       	sbci	r23, 0xFF	; 255
    154c:	80 e0       	ldi	r24, 0x00	; 0
    154e:	50 de       	rcall	.-864    	; 0x11f0 <_ZL12get_registerhPhh>
    1550:	89 81       	ldd	r24, Y+1	; 0x01
    1552:	80 ff       	sbrs	r24, 0
    1554:	10 c0       	rjmp	.+32     	; 0x1576 <_Z14Radio_TransmitP3_rp14_radio_tx_wait+0x5a>
    1556:	8e 7f       	andi	r24, 0xFE	; 254
    1558:	89 83       	std	Y+1, r24	; 0x01
    155a:	41 e0       	ldi	r20, 0x01	; 1
    155c:	be 01       	movw	r22, r28
    155e:	6f 5f       	subi	r22, 0xFF	; 255
    1560:	7f 4f       	sbci	r23, 0xFF	; 255
    1562:	80 e0       	ldi	r24, 0x00	; 0
    1564:	f7 dd       	rcall	.-1042   	; 0x1154 <_ZL12set_registerhPhh>
    1566:	85 e1       	ldi	r24, 0x15	; 21
    1568:	8a 95       	dec	r24
    156a:	f1 f7       	brne	.-4      	; 0x1568 <_Z14Radio_TransmitP3_rp14_radio_tx_wait+0x4c>
    156c:	00 c0       	rjmp	.+0      	; 0x156e <_Z14Radio_TransmitP3_rp14_radio_tx_wait+0x52>
    156e:	e5 e1       	ldi	r30, 0x15	; 21
    1570:	ea 95       	dec	r30
    1572:	f1 f7       	brne	.-4      	; 0x1570 <_Z14Radio_TransmitP3_rp14_radio_tx_wait+0x54>
    1574:	00 c0       	rjmp	.+0      	; 0x1576 <_Z14Radio_TransmitP3_rp14_radio_tx_wait+0x5a>
    1576:	45 e0       	ldi	r20, 0x05	; 5
    1578:	6d e1       	ldi	r22, 0x1D	; 29
    157a:	72 e0       	ldi	r23, 0x02	; 2
    157c:	8a e0       	ldi	r24, 0x0A	; 10
    157e:	ea dd       	rcall	.-1068   	; 0x1154 <_ZL12set_registerhPhh>
    1580:	02 e0       	ldi	r16, 0x02	; 2
    1582:	11 e0       	ldi	r17, 0x01	; 1
    1584:	f8 01       	movw	r30, r16
    1586:	80 81       	ld	r24, Z
    1588:	88 60       	ori	r24, 0x08	; 8
    158a:	80 83       	st	Z, r24
    158c:	20 e2       	ldi	r18, 0x20	; 32
    158e:	40 e0       	ldi	r20, 0x00	; 0
    1590:	50 e0       	ldi	r21, 0x00	; 0
    1592:	b7 01       	movw	r22, r14
    1594:	80 ea       	ldi	r24, 0xA0	; 160
    1596:	07 de       	rcall	.-1010   	; 0x11a6 <_ZL16send_instructionhPhS_h>
    1598:	f8 01       	movw	r30, r16
    159a:	80 81       	ld	r24, Z
    159c:	80 62       	ori	r24, 0x20	; 32
    159e:	80 83       	st	Z, r24
    15a0:	d1 10       	cpse	r13, r1
    15a2:	07 c0       	rjmp	.+14     	; 0x15b2 <_Z14Radio_TransmitP3_rp14_radio_tx_wait+0x96>
    15a4:	80 91 22 15 	lds	r24, 0x1522
    15a8:	81 11       	cpse	r24, r1
    15aa:	fc cf       	rjmp	.-8      	; 0x15a4 <_Z14Radio_TransmitP3_rp14_radio_tx_wait+0x88>
    15ac:	80 91 15 02 	lds	r24, 0x0215
    15b0:	01 c0       	rjmp	.+2      	; 0x15b4 <_Z14Radio_TransmitP3_rp14_radio_tx_wait+0x98>
    15b2:	81 e0       	ldi	r24, 0x01	; 1
    15b4:	0f 90       	pop	r0
    15b6:	df 91       	pop	r29
    15b8:	cf 91       	pop	r28
    15ba:	1f 91       	pop	r17
    15bc:	0f 91       	pop	r16
    15be:	ff 90       	pop	r15
    15c0:	ef 90       	pop	r14
    15c2:	df 90       	pop	r13
    15c4:	08 95       	ret

000015c6 <_Z13Radio_ReceiveP3_rp>:
    15c6:	cf 93       	push	r28
    15c8:	df 93       	push	r29
    15ca:	ec 01       	movw	r28, r24
    15cc:	10 92 22 15 	sts	0x1522, r1
    15d0:	e2 e0       	ldi	r30, 0x02	; 2
    15d2:	f1 e0       	ldi	r31, 0x01	; 1
    15d4:	80 81       	ld	r24, Z
    15d6:	8f 7d       	andi	r24, 0xDF	; 223
    15d8:	80 83       	st	Z, r24
    15da:	ad dd       	rcall	.-1190   	; 0x1136 <_ZL10get_statusv>
    15dc:	8e 70       	andi	r24, 0x0E	; 14
    15de:	28 2f       	mov	r18, r24
    15e0:	30 e0       	ldi	r19, 0x00	; 0
    15e2:	35 95       	asr	r19
    15e4:	27 95       	ror	r18
    15e6:	f9 01       	movw	r30, r18
    15e8:	ff 27       	eor	r31, r31
    15ea:	df 01       	movw	r26, r30
    15ec:	ae 5d       	subi	r26, 0xDE	; 222
    15ee:	bd 4f       	sbci	r27, 0xFD	; 253
    15f0:	8c 91       	ld	r24, X
    15f2:	81 32       	cpi	r24, 0x21	; 33
    15f4:	70 f4       	brcc	.+28     	; 0x1612 <_Z13Radio_ReceiveP3_rp+0x4c>
    15f6:	27 30       	cpi	r18, 0x07	; 7
    15f8:	71 f0       	breq	.+28     	; 0x1616 <_Z13Radio_ReceiveP3_rp+0x50>
    15fa:	fd 01       	movw	r30, r26
    15fc:	20 81       	ld	r18, Z
    15fe:	ae 01       	movw	r20, r28
    1600:	be 01       	movw	r22, r28
    1602:	81 e6       	ldi	r24, 0x61	; 97
    1604:	d0 dd       	rcall	.-1120   	; 0x11a6 <_ZL16send_instructionhPhS_h>
    1606:	97 dd       	rcall	.-1234   	; 0x1136 <_ZL10get_statusv>
    1608:	8e 70       	andi	r24, 0x0E	; 14
    160a:	8e 30       	cpi	r24, 0x0E	; 14
    160c:	31 f0       	breq	.+12     	; 0x161a <_Z13Radio_ReceiveP3_rp+0x54>
    160e:	83 e0       	ldi	r24, 0x03	; 3
    1610:	05 c0       	rjmp	.+10     	; 0x161c <_Z13Radio_ReceiveP3_rp+0x56>
    1612:	80 e0       	ldi	r24, 0x00	; 0
    1614:	03 c0       	rjmp	.+6      	; 0x161c <_Z13Radio_ReceiveP3_rp+0x56>
    1616:	82 e0       	ldi	r24, 0x02	; 2
    1618:	01 c0       	rjmp	.+2      	; 0x161c <_Z13Radio_ReceiveP3_rp+0x56>
    161a:	84 e0       	ldi	r24, 0x04	; 4
    161c:	e2 e0       	ldi	r30, 0x02	; 2
    161e:	f1 e0       	ldi	r31, 0x01	; 1
    1620:	90 81       	ld	r25, Z
    1622:	90 62       	ori	r25, 0x20	; 32
    1624:	90 83       	st	Z, r25
    1626:	10 92 22 15 	sts	0x1522, r1
    162a:	df 91       	pop	r29
    162c:	cf 91       	pop	r28
    162e:	08 95       	ret

00001630 <__vector_5>:
}


// Interrupt handler
ISR(INT4_vect)
{
    1630:	1f 92       	push	r1
    1632:	0f 92       	push	r0
    1634:	0f b6       	in	r0, 0x3f	; 63
    1636:	0f 92       	push	r0
    1638:	11 24       	eor	r1, r1
    163a:	0b b6       	in	r0, 0x3b	; 59
    163c:	0f 92       	push	r0
    163e:	2f 93       	push	r18
    1640:	3f 93       	push	r19
    1642:	4f 93       	push	r20
    1644:	5f 93       	push	r21
    1646:	6f 93       	push	r22
    1648:	7f 93       	push	r23
    164a:	8f 93       	push	r24
    164c:	9f 93       	push	r25
    164e:	af 93       	push	r26
    1650:	bf 93       	push	r27
    1652:	ef 93       	push	r30
    1654:	ff 93       	push	r31
    1656:	cf 93       	push	r28
    1658:	df 93       	push	r29
    165a:	1f 92       	push	r1
    165c:	cd b7       	in	r28, 0x3d	; 61
    165e:	de b7       	in	r29, 0x3e	; 62
    uint8_t status;
    uint8_t pipe_number;

	DEBUG_2_LOW;
    1660:	e2 e0       	ldi	r30, 0x02	; 2
    1662:	f1 e0       	ldi	r31, 0x01	; 1
    1664:	80 81       	ld	r24, Z
    1666:	8f 7e       	andi	r24, 0xEF	; 239
    1668:	80 83       	st	Z, r24
    CE_LOW();
    166a:	80 81       	ld	r24, Z
    166c:	8f 7d       	andi	r24, 0xDF	; 223
    166e:	80 83       	st	Z, r24

    status = get_status();
    1670:	62 dd       	rcall	.-1340   	; 0x1136 <_ZL10get_statusv>
    1672:	89 83       	std	Y+1, r24	; 0x01

    if (status & _BV(RX_DR))
    1674:	86 ff       	sbrs	r24, 6
    1676:	03 c0       	rjmp	.+6      	; 0x167e <__vector_5+0x4e>
    {
    	pipe_number =  (status & 0xE) >> 1;
    1678:	8e 70       	andi	r24, 0x0E	; 14
    	radio_rxhandler(pipe_number);
    167a:	86 95       	lsr	r24
    167c:	c1 d0       	rcall	.+386    	; 0x1800 <_Z15radio_rxhandlerh>
    }
    // We can get the TX_DS or the MAX_RT interrupt, but not both.
    if (status & _BV(TX_DS))
    167e:	89 81       	ldd	r24, Y+1	; 0x01
    1680:	85 ff       	sbrs	r24, 5
    1682:	1b c0       	rjmp	.+54     	; 0x16ba <__vector_5+0x8a>
    {
        // if there's nothing left to transmit, switch back to receive mode.
        transmit_lock = 0;
    1684:	10 92 22 15 	sts	0x1522, r1
        reset_pipe0_address();
    1688:	84 dd       	rcall	.-1272   	; 0x1192 <_ZL19reset_pipe0_addressv>
        set_rx_mode();
    168a:	df dd       	rcall	.-1090   	; 0x124a <_ZL11set_rx_modev>

    	// indicate in the history that a packet was transmitted successfully by appending a 1.
    	tx_history <<= 1;
    168c:	80 91 16 02 	lds	r24, 0x0216
    1690:	90 91 17 02 	lds	r25, 0x0217
    1694:	88 0f       	add	r24, r24
    1696:	99 1f       	adc	r25, r25
    1698:	90 93 17 02 	sts	0x0217, r25
    169c:	80 93 16 02 	sts	0x0216, r24
    	tx_history |= 1;
    16a0:	80 91 16 02 	lds	r24, 0x0216
    16a4:	90 91 17 02 	lds	r25, 0x0217
    16a8:	81 60       	ori	r24, 0x01	; 1
    16aa:	90 93 17 02 	sts	0x0217, r25
    16ae:	80 93 16 02 	sts	0x0216, r24

    	tx_last_status = RADIO_TX_SUCCESS;
    16b2:	81 e0       	ldi	r24, 0x01	; 1
    16b4:	80 93 15 02 	sts	0x0215, r24
    16b8:	19 c0       	rjmp	.+50     	; 0x16ec <__vector_5+0xbc>
    }
    else if (status & _BV(MAX_RT))
    16ba:	84 ff       	sbrs	r24, 4
    16bc:	17 c0       	rjmp	.+46     	; 0x16ec <__vector_5+0xbc>
    {
        send_instruction(FLUSH_TX, NULL, NULL, 0);
    16be:	20 e0       	ldi	r18, 0x00	; 0
    16c0:	40 e0       	ldi	r20, 0x00	; 0
    16c2:	50 e0       	ldi	r21, 0x00	; 0
    16c4:	60 e0       	ldi	r22, 0x00	; 0
    16c6:	70 e0       	ldi	r23, 0x00	; 0
    16c8:	81 ee       	ldi	r24, 0xE1	; 225
    16ca:	6d dd       	rcall	.-1318   	; 0x11a6 <_ZL16send_instructionhPhS_h>

    	transmit_lock = 0;
    16cc:	10 92 22 15 	sts	0x1522, r1
    	reset_pipe0_address();
    16d0:	60 dd       	rcall	.-1344   	; 0x1192 <_ZL19reset_pipe0_addressv>
		set_rx_mode();
    16d2:	bb dd       	rcall	.-1162   	; 0x124a <_ZL11set_rx_modev>
    	// indicate in the history that a packet was dropped by appending a 0.
    	tx_history <<= 1;
    16d4:	80 91 16 02 	lds	r24, 0x0216
    16d8:	90 91 17 02 	lds	r25, 0x0217
    16dc:	88 0f       	add	r24, r24
    16de:	99 1f       	adc	r25, r25
    16e0:	90 93 17 02 	sts	0x0217, r25
    16e4:	80 93 16 02 	sts	0x0216, r24

    	tx_last_status = RADIO_TX_MAX_RT;
    16e8:	10 92 15 02 	sts	0x0215, r1
    }
	
    // clear the interrupt flags.
	status = _BV(RX_DR) | _BV(TX_DS) | _BV(MAX_RT);
    16ec:	80 e7       	ldi	r24, 0x70	; 112
    16ee:	89 83       	std	Y+1, r24	; 0x01
	set_register(STATUS, &status, 1);
    16f0:	41 e0       	ldi	r20, 0x01	; 1
    16f2:	be 01       	movw	r22, r28
    16f4:	6f 5f       	subi	r22, 0xFF	; 255
    16f6:	7f 4f       	sbci	r23, 0xFF	; 255
    16f8:	87 e0       	ldi	r24, 0x07	; 7
    16fa:	2c dd       	rcall	.-1448   	; 0x1154 <_ZL12set_registerhPhh>
	DEBUG_2_HIGH;
    16fc:	e2 e0       	ldi	r30, 0x02	; 2
    16fe:	f1 e0       	ldi	r31, 0x01	; 1
    1700:	80 81       	ld	r24, Z
    1702:	80 61       	ori	r24, 0x10	; 16
    1704:	80 83       	st	Z, r24
	
    CE_HIGH();
    1706:	80 81       	ld	r24, Z
    1708:	80 62       	ori	r24, 0x20	; 32
    170a:	80 83       	st	Z, r24
}
    170c:	0f 90       	pop	r0
    170e:	df 91       	pop	r29
    1710:	cf 91       	pop	r28
    1712:	ff 91       	pop	r31
    1714:	ef 91       	pop	r30
    1716:	bf 91       	pop	r27
    1718:	af 91       	pop	r26
    171a:	9f 91       	pop	r25
    171c:	8f 91       	pop	r24
    171e:	7f 91       	pop	r23
    1720:	6f 91       	pop	r22
    1722:	5f 91       	pop	r21
    1724:	4f 91       	pop	r20
    1726:	3f 91       	pop	r19
    1728:	2f 91       	pop	r18
    172a:	0f 90       	pop	r0
    172c:	0b be       	out	0x3b, r0	; 59
    172e:	0f 90       	pop	r0
    1730:	0f be       	out	0x3f, r0	; 63
    1732:	0f 90       	pop	r0
    1734:	1f 90       	pop	r1
    1736:	18 95       	reti

00001738 <_Z8SPI_Initv>:
	// The DDR operations are pretty fragile and doing this less awkwardly breaks SPI.  I don't care enough
	// to figure out why right now.  Note that SPI_SS is the actual SPI port's SS pin, which is not necessarily
	// the SS pin that's used for a given slave.  Anything that uses this driver must handle its own slave selection.
	// It must set its SS pin direction to output, set the pin low before doing an SPI operation, and set it high
	// when the SPI operation is complete.
    SPI_DDR &= ~(_BV(SPI_MOSI)|_BV(SPI_MISO)|_BV(SPI_SS)|_BV(SPI_SCK));
    1738:	84 b1       	in	r24, 0x04	; 4
    173a:	80 7f       	andi	r24, 0xF0	; 240
    173c:	84 b9       	out	0x04, r24	; 4
    // Define the following pins as output
    SPI_DDR |= (_BV(SPI_MOSI) | _BV(SPI_SS) | _BV(SPI_SCK));
    173e:	84 b1       	in	r24, 0x04	; 4
    1740:	87 60       	ori	r24, 0x07	; 7
    1742:	84 b9       	out	0x04, r24	; 4
	 * SPR1 | SPR0 - Determines SCK frequency along with the SPI2X bit in SPSR.  See Table 17-4 in hardware manual [p178].
	 * bit 0
	 */

    // Set the AT90's SS pin high during config (this disables the Flash RAM or something)
    SPI_PORT |= _BV(SPI_SS);
    1744:	28 9a       	sbi	0x05, 0	; 5

	SPCR = _BV(SPE) | _BV(MSTR);	// enable SPI, set as master, set prescaler to f(osc)/4
    1746:	80 e5       	ldi	r24, 0x50	; 80
    1748:	8c bd       	out	0x2c, r24	; 44

	SPSR = _BV(SPI2X);							// Double SCK to f(osc)/2 (4 MHz)
    174a:	81 e0       	ldi	r24, 0x01	; 1
    174c:	8d bd       	out	0x2d, r24	; 45

	SPI_PORT &= ~_BV(SPI_SS);
    174e:	28 98       	cbi	0x05, 0	; 5
    1750:	08 95       	ret

00001752 <_Z19SPI_ReadWrite_BlockPhS_h>:
}

void SPI_ReadWrite_Block(uint8_t* data, uint8_t* buffer, uint8_t len)
{
    uint8_t i;
    for (i = 0; i < len; i++) {
    1752:	44 23       	and	r20, r20
    1754:	81 f0       	breq	.+32     	; 0x1776 <_Z19SPI_ReadWrite_BlockPhS_h+0x24>
    1756:	28 2f       	mov	r18, r24
    1758:	a6 2f       	mov	r26, r22
    175a:	b7 2f       	mov	r27, r23
    175c:	e8 2f       	mov	r30, r24
    175e:	f9 2f       	mov	r31, r25
          SPDR = data[i];
    1760:	81 91       	ld	r24, Z+
    1762:	8e bd       	out	0x2e, r24	; 46
          SPI_WAIT();
    1764:	0d b4       	in	r0, 0x2d	; 45
    1766:	07 fe       	sbrs	r0, 7
    1768:	fd cf       	rjmp	.-6      	; 0x1764 <_Z19SPI_ReadWrite_BlockPhS_h+0x12>
          buffer[i] = SPDR;
    176a:	8e b5       	in	r24, 0x2e	; 46
    176c:	8d 93       	st	X+, r24
    176e:	8e 2f       	mov	r24, r30
    1770:	82 1b       	sub	r24, r18
}

void SPI_ReadWrite_Block(uint8_t* data, uint8_t* buffer, uint8_t len)
{
    uint8_t i;
    for (i = 0; i < len; i++) {
    1772:	84 17       	cp	r24, r20
    1774:	a8 f3       	brcs	.-22     	; 0x1760 <_Z19SPI_ReadWrite_BlockPhS_h+0xe>
    1776:	08 95       	ret

00001778 <_Z15SPI_Write_BlockPhh>:
}

void SPI_Write_Block(uint8_t* data, uint8_t len)
{
    uint8_t i;
    for (i = 0; i < len; i++) {
    1778:	66 23       	and	r22, r22
    177a:	61 f0       	breq	.+24     	; 0x1794 <_Z15SPI_Write_BlockPhh+0x1c>
    177c:	28 2f       	mov	r18, r24
    177e:	e8 2f       	mov	r30, r24
    1780:	f9 2f       	mov	r31, r25
          SPDR = data[i];
    1782:	81 91       	ld	r24, Z+
    1784:	8e bd       	out	0x2e, r24	; 46
          SPI_WAIT();
    1786:	0d b4       	in	r0, 0x2d	; 45
    1788:	07 fe       	sbrs	r0, 7
    178a:	fd cf       	rjmp	.-6      	; 0x1786 <_Z15SPI_Write_BlockPhh+0xe>
    178c:	8e 2f       	mov	r24, r30
    178e:	82 1b       	sub	r24, r18
}

void SPI_Write_Block(uint8_t* data, uint8_t len)
{
    uint8_t i;
    for (i = 0; i < len; i++) {
    1790:	86 17       	cp	r24, r22
    1792:	b8 f3       	brcs	.-18     	; 0x1782 <_Z15SPI_Write_BlockPhh+0xa>
    1794:	08 95       	ret

00001796 <_Z14SPI_Write_Byteh>:
    }
}

uint8_t SPI_Write_Byte(uint8_t byte)
{
    SPDR = byte;
    1796:	8e bd       	out	0x2e, r24	; 46
    SPI_WAIT();
    1798:	0d b4       	in	r0, 0x2d	; 45
    179a:	07 fe       	sbrs	r0, 7
    179c:	fd cf       	rjmp	.-6      	; 0x1798 <_Z14SPI_Write_Byteh+0x2>
    return SPDR;
    179e:	8e b5       	in	r24, 0x2e	; 46
}
    17a0:	08 95       	ret

000017a2 <per_roomba_timeout>:
	} else if(roomba_num == ROBBER2 && last_ir_value == IR_WAKE_ROBBER2) {
		current_roomba_status = ROOMBA_ALIVE;
	} else {
		last_ir_value = ir_value;
	}
}
    17a2:	86 e2       	ldi	r24, 0x26	; 38
    17a4:	95 e1       	ldi	r25, 0x15	; 21
    17a6:	a3 d1       	rcall	.+838    	; 0x1aee <_Z11timer_resetPV8os_timer>
    17a8:	86 e2       	ldi	r24, 0x26	; 38
    17aa:	95 e1       	ldi	r25, 0x15	; 21
    17ac:	c4 d1       	rcall	.+904    	; 0x1b36 <_Z12timer_resumePV8os_timer>
    17ae:	c1 e0       	ldi	r28, 0x01	; 1
    17b0:	86 e2       	ldi	r24, 0x26	; 38
    17b2:	95 e1       	ldi	r25, 0x15	; 21
    17b4:	82 d1       	rcall	.+772    	; 0x1aba <_Z11timer_valuePV8os_timer>
    17b6:	81 36       	cpi	r24, 0x61	; 97
    17b8:	9a 4e       	sbci	r25, 0xEA	; 234
    17ba:	d0 f3       	brcs	.-12     	; 0x17b0 <per_roomba_timeout+0xe>
    17bc:	86 e2       	ldi	r24, 0x26	; 38
    17be:	95 e1       	ldi	r25, 0x15	; 21
    17c0:	9f d1       	rcall	.+830    	; 0x1b00 <_Z11timer_pausePV8os_timer>
    17c2:	80 91 25 15 	lds	r24, 0x1525
    17c6:	81 11       	cpse	r24, r1
    17c8:	f3 cf       	rjmp	.-26     	; 0x17b0 <per_roomba_timeout+0xe>
    17ca:	c0 93 25 15 	sts	0x1525, r28
    17ce:	72 d1       	rcall	.+740    	; 0x1ab4 <_Z13Roomba_Finishv>
    17d0:	ef cf       	rjmp	.-34     	; 0x17b0 <per_roomba_timeout+0xe>

000017d2 <roomba_Drive>:
    17d2:	0f 93       	push	r16
    17d4:	1f 93       	push	r17
    17d6:	cf 93       	push	r28
    17d8:	df 93       	push	r29
    17da:	18 2f       	mov	r17, r24
    17dc:	09 2f       	mov	r16, r25
    17de:	c6 2f       	mov	r28, r22
    17e0:	d7 2f       	mov	r29, r23
    17e2:	89 e8       	ldi	r24, 0x89	; 137
    17e4:	ba d1       	rcall	.+884    	; 0x1b5a <_Z16Roomba_Send_Byteh>
    17e6:	80 2f       	mov	r24, r16
    17e8:	b8 d1       	rcall	.+880    	; 0x1b5a <_Z16Roomba_Send_Byteh>
    17ea:	81 2f       	mov	r24, r17
    17ec:	b6 d1       	rcall	.+876    	; 0x1b5a <_Z16Roomba_Send_Byteh>
    17ee:	8d 2f       	mov	r24, r29
    17f0:	b4 d1       	rcall	.+872    	; 0x1b5a <_Z16Roomba_Send_Byteh>
    17f2:	8c 2f       	mov	r24, r28
    17f4:	b2 d1       	rcall	.+868    	; 0x1b5a <_Z16Roomba_Send_Byteh>
    17f6:	df 91       	pop	r29
    17f8:	cf 91       	pop	r28
    17fa:	1f 91       	pop	r17
    17fc:	0f 91       	pop	r16
    17fe:	08 95       	ret

00001800 <_Z15radio_rxhandlerh>:
    1800:	60 e0       	ldi	r22, 0x00	; 0
    1802:	70 e0       	ldi	r23, 0x00	; 0
    1804:	80 91 2d 15 	lds	r24, 0x152D
    1808:	90 91 2e 15 	lds	r25, 0x152E
    180c:	70 cc       	rjmp	.-1824   	; 0x10ee <Service_Publish>
    180e:	08 95       	ret

00001810 <handleRoombaPacket>:

void handleRoombaPacket(radiopacket_t *packet) {
    1810:	ef 92       	push	r14
    1812:	ff 92       	push	r15
    1814:	0f 93       	push	r16
    1816:	1f 93       	push	r17
    1818:	cf 93       	push	r28
    181a:	df 93       	push	r29
    181c:	8c 01       	movw	r16, r24
	//Filter out unwanted commands.
	if (packet->payload.command.command == START ||
    181e:	fc 01       	movw	r30, r24
    1820:	80 85       	ldd	r24, Z+8	; 0x08
    1822:	80 38       	cpi	r24, 0x80	; 128
    1824:	71 f1       	breq	.+92     	; 0x1882 <handleRoombaPacket+0x72>
		packet->payload.command.command == BAUD ||
    1826:	9d e7       	ldi	r25, 0x7D	; 125
    1828:	98 0f       	add	r25, r24
    182a:	92 30       	cpi	r25, 0x02	; 2
    182c:	50 f1       	brcs	.+84     	; 0x1882 <handleRoombaPacket+0x72>
		packet->payload.command.command == SAFE ||
		packet->payload.command.command == FULL ||
    182e:	8e 38       	cpi	r24, 0x8E	; 142
    1830:	41 f1       	breq	.+80     	; 0x1882 <handleRoombaPacket+0x72>
	{
		return;
	}
	
	//If the Roomba is dead it should not start moving.
	if(packet->payload.command.command != DRIVE || current_roomba_status == ROOMBA_ALIVE) {	
    1832:	89 38       	cpi	r24, 0x89	; 137
    1834:	21 f4       	brne	.+8      	; 0x183e <handleRoombaPacket+0x2e>
    1836:	90 91 23 15 	lds	r25, 0x1523
    183a:	91 11       	cpse	r25, r1
    183c:	16 c0       	rjmp	.+44     	; 0x186a <handleRoombaPacket+0x5a>
		//Pass the command to the Roomba.
		Roomba_Send_Byte(packet->payload.command.command);
    183e:	8d d1       	rcall	.+794    	; 0x1b5a <_Z16Roomba_Send_Byteh>
		for (int i = 0; i < packet->payload.command.num_arg_bytes; i++)
    1840:	f8 01       	movw	r30, r16
    1842:	81 85       	ldd	r24, Z+9	; 0x09
    1844:	88 23       	and	r24, r24
    1846:	89 f0       	breq	.+34     	; 0x186a <handleRoombaPacket+0x5a>
    1848:	78 01       	movw	r14, r16
    184a:	fa e0       	ldi	r31, 0x0A	; 10
    184c:	ef 0e       	add	r14, r31
    184e:	f1 1c       	adc	r15, r1
    1850:	c0 e0       	ldi	r28, 0x00	; 0
    1852:	d0 e0       	ldi	r29, 0x00	; 0
		{
			Roomba_Send_Byte(packet->payload.command.arguments[i]);
    1854:	f7 01       	movw	r30, r14
    1856:	81 91       	ld	r24, Z+
    1858:	7f 01       	movw	r14, r30
    185a:	7f d1       	rcall	.+766    	; 0x1b5a <_Z16Roomba_Send_Byteh>
	
	//If the Roomba is dead it should not start moving.
	if(packet->payload.command.command != DRIVE || current_roomba_status == ROOMBA_ALIVE) {	
		//Pass the command to the Roomba.
		Roomba_Send_Byte(packet->payload.command.command);
		for (int i = 0; i < packet->payload.command.num_arg_bytes; i++)
    185c:	21 96       	adiw	r28, 0x01	; 1
    185e:	f8 01       	movw	r30, r16
    1860:	81 85       	ldd	r24, Z+9	; 0x09
    1862:	90 e0       	ldi	r25, 0x00	; 0
    1864:	c8 17       	cp	r28, r24
    1866:	d9 07       	cpc	r29, r25
    1868:	ac f3       	brlt	.-22     	; 0x1854 <handleRoombaPacket+0x44>
			Roomba_Send_Byte(packet->payload.command.arguments[i]);
		}
	}
	
	// Set the radio's destination address to be the remote station's address
	Radio_Set_Tx_Addr(packet->payload.command.sender_address);
    186a:	c8 01       	movw	r24, r16
    186c:	03 96       	adiw	r24, 0x03	; 3
    186e:	17 de       	rcall	.-978    	; 0x149e <_Z17Radio_Set_Tx_AddrPh>
	//Roomba_UpdateSensorPacket(1, &packet.payload.sensors.sensors);
	//Roomba_UpdateSensorPacket(2, &packet.payload.sensors.sensors);
	//Roomba_UpdateSensorPacket(3, &packet.payload.sensors.sensors);

	// send the sensor packet back to the remote station.
	packet->type = SENSOR_DATA;
    1870:	81 e0       	ldi	r24, 0x01	; 1
    1872:	f8 01       	movw	r30, r16
    1874:	80 83       	st	Z, r24
	packet->payload.sensors.roomba_number = roomba_num;
    1876:	80 91 24 15 	lds	r24, 0x1524
    187a:	83 83       	std	Z+3, r24	; 0x03
	Radio_Transmit(packet, RADIO_RETURN_ON_TX);	
    187c:	61 e0       	ldi	r22, 0x01	; 1
    187e:	c8 01       	movw	r24, r16
    1880:	4d de       	rcall	.-870    	; 0x151c <_Z14Radio_TransmitP3_rp14_radio_tx_wait>
}
    1882:	df 91       	pop	r29
    1884:	cf 91       	pop	r28
    1886:	1f 91       	pop	r17
    1888:	0f 91       	pop	r16
    188a:	ff 90       	pop	r15
    188c:	ef 90       	pop	r14
    188e:	08 95       	ret

00001890 <handleIRPacket>:

void handleIRPacket(radiopacket_t *packet) {
    1890:	cf 93       	push	r28
    1892:	df 93       	push	r29
    1894:	ec 01       	movw	r28, r24
	
	//Transmit data
	if(packet->payload.ir_command.ir_command == SEND_BYTE) {
    1896:	88 85       	ldd	r24, Y+8	; 0x08
    1898:	81 11       	cpse	r24, r1
    189a:	05 c0       	rjmp	.+10     	; 0x18a6 <handleIRPacket+0x16>
		cli();
    189c:	f8 94       	cli
		IR_transmit(packet->payload.ir_command.ir_data);
    189e:	89 85       	ldd	r24, Y+9	; 0x09
    18a0:	0e 94 69 01 	call	0x2d2	; 0x2d2 <_Z11IR_transmith>
		sei();
    18a4:	78 94       	sei
	if(packet->payload.ir_command.ir_command == AIM_SERVO) {
		//Aim the servo!
	}
	
	// Set the radio's destination address to be the remote station's address
	Radio_Set_Tx_Addr(packet->payload.command.sender_address);
    18a6:	ce 01       	movw	r24, r28
    18a8:	03 96       	adiw	r24, 0x03	; 3
    18aa:	f9 dd       	rcall	.-1038   	; 0x149e <_Z17Radio_Set_Tx_AddrPh>
	
	//Return last IR command recieved
	packet->type = IR_DATA;
    18ac:	83 e0       	ldi	r24, 0x03	; 3
    18ae:	88 83       	st	Y, r24
	
	Radio_Transmit(packet, RADIO_RETURN_ON_TX);		
    18b0:	61 e0       	ldi	r22, 0x01	; 1
    18b2:	ce 01       	movw	r24, r28
    18b4:	33 de       	rcall	.-922    	; 0x151c <_Z14Radio_TransmitP3_rp14_radio_tx_wait>
}
    18b6:	df 91       	pop	r29
    18b8:	cf 91       	pop	r28
    18ba:	08 95       	ret

000018bc <handleStatusPacket>:
void handleStatusPacket(radiopacket_t *packet) {
    18bc:	cf 93       	push	r28
    18be:	df 93       	push	r29
    18c0:	ec 01       	movw	r28, r24
	//Figure out if we are reviving the Roomba or not.
	if(packet->payload.status_command.revive_roomba) {
    18c2:	88 85       	ldd	r24, Y+8	; 0x08
    18c4:	81 11       	cpse	r24, r1
		current_roomba_status = ROOMBA_ALIVE;
    18c6:	10 92 23 15 	sts	0x1523, r1
	}
	
	Radio_Set_Tx_Addr(packet->payload.command.sender_address);
    18ca:	ce 01       	movw	r24, r28
    18cc:	03 96       	adiw	r24, 0x03	; 3
    18ce:	e7 dd       	rcall	.-1074   	; 0x149e <_Z17Radio_Set_Tx_AddrPh>
	packet->type = ROOMBA_STATUS_UPDATE;
    18d0:	85 e0       	ldi	r24, 0x05	; 5
    18d2:	88 83       	st	Y, r24
	packet->payload.status_info.roomba_number = roomba_num;
    18d4:	80 91 24 15 	lds	r24, 0x1524
    18d8:	8b 83       	std	Y+3, r24	; 0x03
	packet->payload.status_info.roomba_status = current_roomba_status;
    18da:	80 91 23 15 	lds	r24, 0x1523
    18de:	8c 83       	std	Y+4, r24	; 0x04
	
	Radio_Transmit(packet, RADIO_RETURN_ON_TX);		
    18e0:	61 e0       	ldi	r22, 0x01	; 1
    18e2:	ce 01       	movw	r24, r28
    18e4:	1b de       	rcall	.-970    	; 0x151c <_Z14Radio_TransmitP3_rp14_radio_tx_wait>
}
    18e6:	df 91       	pop	r29
    18e8:	cf 91       	pop	r28
    18ea:	08 95       	ret

000018ec <rr_roomba_controler>:

void rr_roomba_controler() {
    18ec:	cf 93       	push	r28
    18ee:	df 93       	push	r29
    18f0:	cd b7       	in	r28, 0x3d	; 61
    18f2:	de b7       	in	r29, 0x3e	; 62
    18f4:	a2 97       	sbiw	r28, 0x22	; 34
    18f6:	0f b6       	in	r0, 0x3f	; 63
    18f8:	f8 94       	cli
    18fa:	de bf       	out	0x3e, r29	; 62
    18fc:	0f be       	out	0x3f, r0	; 63
    18fe:	cd bf       	out	0x3d, r28	; 61
	//Start the Roomba for the first time.
	int x;
	
	Roomba_Init();
    1900:	b2 d0       	rcall	.+356    	; 0x1a66 <_Z11Roomba_Initv>
	
	for(;;) {
		Service_Subscribe(radio_receive_service, &x);
    1902:	be 01       	movw	r22, r28
    1904:	6f 5d       	subi	r22, 0xDF	; 223
    1906:	7f 4f       	sbci	r23, 0xFF	; 255
    1908:	80 91 2d 15 	lds	r24, 0x152D
    190c:	90 91 2e 15 	lds	r25, 0x152E
    1910:	dc db       	rcall	.-2120   	; 0x10ca <Service_Subscribe>
		
		//Restart the timeout timer.
		timer_reset(&roomba_timeout_timer);
    1912:	86 e2       	ldi	r24, 0x26	; 38
    1914:	95 e1       	ldi	r25, 0x15	; 21
    1916:	eb d0       	rcall	.+470    	; 0x1aee <_Z11timer_resetPV8os_timer>
		timer_resume(&roomba_timeout_timer);
    1918:	86 e2       	ldi	r24, 0x26	; 38
    191a:	95 e1       	ldi	r25, 0x15	; 21
    191c:	0c d1       	rcall	.+536    	; 0x1b36 <_Z12timer_resumePV8os_timer>
		
		if(is_roomba_timedout) {
    191e:	80 91 25 15 	lds	r24, 0x1525
    1922:	88 23       	and	r24, r24
    1924:	19 f0       	breq	.+6      	; 0x192c <rr_roomba_controler+0x40>
			is_roomba_timedout = 0;
    1926:	10 92 25 15 	sts	0x1525, r1
			Roomba_Init();
    192a:	9d d0       	rcall	.+314    	; 0x1a66 <_Z11Roomba_Initv>
		}
		
		
		// Stop the Roomba if it is dead.
		if(current_roomba_status == ROOMBA_DEAD) {
    192c:	80 91 23 15 	lds	r24, 0x1523
    1930:	81 30       	cpi	r24, 0x01	; 1
    1932:	29 f4       	brne	.+10     	; 0x193e <rr_roomba_controler+0x52>
			roomba_Drive(0,500);
    1934:	64 ef       	ldi	r22, 0xF4	; 244
    1936:	71 e0       	ldi	r23, 0x01	; 1
    1938:	80 e0       	ldi	r24, 0x00	; 0
    193a:	90 e0       	ldi	r25, 0x00	; 0
    193c:	4a df       	rcall	.-364    	; 0x17d2 <roomba_Drive>
		
		//Handle the packets
		RADIO_RX_STATUS result;
		radiopacket_t packet;
		do {
			result = Radio_Receive(&packet);
    193e:	ce 01       	movw	r24, r28
    1940:	01 96       	adiw	r24, 0x01	; 1
    1942:	41 de       	rcall	.-894    	; 0x15c6 <_Z13Radio_ReceiveP3_rp>
    1944:	18 2f       	mov	r17, r24
			if(result == RADIO_RX_SUCCESS || result == RADIO_RX_MORE_PACKETS) {				
    1946:	8d ef       	ldi	r24, 0xFD	; 253
    1948:	81 0f       	add	r24, r17
    194a:	82 30       	cpi	r24, 0x02	; 2
    194c:	90 f4       	brcc	.+36     	; 0x1972 <rr_roomba_controler+0x86>
				//Handle Roomba Commands
				if(packet.type == COMMAND) {
    194e:	89 81       	ldd	r24, Y+1	; 0x01
    1950:	81 11       	cpse	r24, r1
    1952:	03 c0       	rjmp	.+6      	; 0x195a <rr_roomba_controler+0x6e>
					handleRoombaPacket(&packet);
    1954:	ce 01       	movw	r24, r28
    1956:	01 96       	adiw	r24, 0x01	; 1
    1958:	5b df       	rcall	.-330    	; 0x1810 <handleRoombaPacket>
				}
				
				//Handle IR Commands
				if(packet.type == IR_COMMAND) {
    195a:	89 81       	ldd	r24, Y+1	; 0x01
    195c:	82 30       	cpi	r24, 0x02	; 2
    195e:	19 f4       	brne	.+6      	; 0x1966 <rr_roomba_controler+0x7a>
					handleIRPacket(&packet);
    1960:	ce 01       	movw	r24, r28
    1962:	01 96       	adiw	r24, 0x01	; 1
    1964:	95 df       	rcall	.-214    	; 0x1890 <handleIRPacket>
				}
				
				if(packet.type == REQUEST_ROOMBA_STATUS_UPDATE) {
    1966:	89 81       	ldd	r24, Y+1	; 0x01
    1968:	84 30       	cpi	r24, 0x04	; 4
    196a:	19 f4       	brne	.+6      	; 0x1972 <rr_roomba_controler+0x86>
					handleStatusPacket(&packet);
    196c:	ce 01       	movw	r24, r28
    196e:	01 96       	adiw	r24, 0x01	; 1
    1970:	a5 df       	rcall	.-182    	; 0x18bc <handleStatusPacket>
		}
		
		//Handle the packets
		RADIO_RX_STATUS result;
		radiopacket_t packet;
		do {
    1972:	13 30       	cpi	r17, 0x03	; 3
    1974:	21 f3       	breq	.-56     	; 0x193e <rr_roomba_controler+0x52>
    1976:	c5 cf       	rjmp	.-118    	; 0x1902 <rr_roomba_controler+0x16>

00001978 <r_main>:
		}
	}
}

int r_main(void)
{
    1978:	0f 93       	push	r16
    197a:	1f 93       	push	r17
    197c:	cf 93       	push	r28
    197e:	df 93       	push	r29
	// Set up the UART
	USART_Init(MYUBRR); // Initializes the serial communication
    1980:	87 e6       	ldi	r24, 0x67	; 103
    1982:	90 e0       	ldi	r25, 0x00	; 0
    1984:	58 d1       	rcall	.+688    	; 0x1c36 <_Z10USART_Initj>
		
	// test_now();
		
	int i = 1;
    1986:	c1 e0       	ldi	r28, 0x01	; 1
    1988:	d0 e0       	ldi	r29, 0x00	; 0
	while(i <= 3 )
	{
		USART_Send_string("ApplicationLayer Init: ");
    198a:	88 e2       	ldi	r24, 0x28	; 40
    198c:	92 e0       	ldi	r25, 0x02	; 2
    198e:	66 d1       	rcall	.+716    	; 0x1c5c <_Z17USART_Send_stringPKc>
		USART_Send_int(i);
    1990:	ce 01       	movw	r24, r28
    1992:	72 d1       	rcall	.+740    	; 0x1c78 <_Z14USART_Send_intj>
		USART_Send_string("\n");
    1994:	80 e4       	ldi	r24, 0x40	; 64
    1996:	92 e0       	ldi	r25, 0x02	; 2
    1998:	61 d1       	rcall	.+706    	; 0x1c5c <_Z17USART_Send_stringPKc>
	#else
		//round up by default
		__ticks_dc = (uint32_t)(ceil(fabs(__tmp)));
	#endif

	__builtin_avr_delay_cycles(__ticks_dc);
    199a:	24 e5       	ldi	r18, 0x54	; 84
    199c:	31 e8       	ldi	r19, 0x81	; 129
    199e:	82 ef       	ldi	r24, 0xF2	; 242
    19a0:	97 e0       	ldi	r25, 0x07	; 7
    19a2:	21 50       	subi	r18, 0x01	; 1
    19a4:	30 40       	sbci	r19, 0x00	; 0
    19a6:	80 40       	sbci	r24, 0x00	; 0
    19a8:	90 40       	sbci	r25, 0x00	; 0
    19aa:	d9 f7       	brne	.-10     	; 0x19a2 <r_main+0x2a>
    19ac:	00 c0       	rjmp	.+0      	; 0x19ae <r_main+0x36>
    19ae:	00 c0       	rjmp	.+0      	; 0x19b0 <r_main+0x38>
    19b0:	00 00       	nop
		_delay_ms(50000);
		i++;
    19b2:	21 96       	adiw	r28, 0x01	; 1
	USART_Init(MYUBRR); // Initializes the serial communication
		
	// test_now();
		
	int i = 1;
	while(i <= 3 )
    19b4:	c4 30       	cpi	r28, 0x04	; 4
    19b6:	d1 05       	cpc	r29, r1
    19b8:	41 f7       	brne	.-48     	; 0x198a <r_main+0x12>
		_delay_ms(50000);
		i++;
	}
	
	//Turn off radio power.
	DDRL |= (1 << PL2);
    19ba:	ea e0       	ldi	r30, 0x0A	; 10
    19bc:	f1 e0       	ldi	r31, 0x01	; 1
    19be:	80 81       	ld	r24, Z
    19c0:	84 60       	ori	r24, 0x04	; 4
    19c2:	80 83       	st	Z, r24
	PORTL &= ~(1<<PL2);
    19c4:	eb e0       	ldi	r30, 0x0B	; 11
    19c6:	f1 e0       	ldi	r31, 0x01	; 1
    19c8:	80 81       	ld	r24, Z
    19ca:	8b 7f       	andi	r24, 0xFB	; 251
    19cc:	80 83       	st	Z, r24
    19ce:	2f ef       	ldi	r18, 0xFF	; 255
    19d0:	39 e6       	ldi	r19, 0x69	; 105
    19d2:	88 e1       	ldi	r24, 0x18	; 24
    19d4:	21 50       	subi	r18, 0x01	; 1
    19d6:	30 40       	sbci	r19, 0x00	; 0
    19d8:	80 40       	sbci	r24, 0x00	; 0
    19da:	e1 f7       	brne	.-8      	; 0x19d4 <r_main+0x5c>
    19dc:	00 c0       	rjmp	.+0      	; 0x19de <r_main+0x66>
    19de:	00 00       	nop
	_delay_ms(500);
	PORTL |= (1<<PL2);
    19e0:	80 81       	ld	r24, Z
    19e2:	84 60       	ori	r24, 0x04	; 4
    19e4:	80 83       	st	Z, r24
    19e6:	9f ef       	ldi	r25, 0xFF	; 255
    19e8:	29 e6       	ldi	r18, 0x69	; 105
    19ea:	38 e1       	ldi	r19, 0x18	; 24
    19ec:	91 50       	subi	r25, 0x01	; 1
    19ee:	20 40       	sbci	r18, 0x00	; 0
    19f0:	30 40       	sbci	r19, 0x00	; 0
    19f2:	e1 f7       	brne	.-8      	; 0x19ec <r_main+0x74>
    19f4:	00 c0       	rjmp	.+0      	; 0x19f6 <r_main+0x7e>
    19f6:	00 00       	nop
	_delay_ms(500);
	
	//Initialize radio.
	cli();
    19f8:	f8 94       	cli
	Radio_Init();
    19fa:	49 dc       	rcall	.-1902   	; 0x128e <_Z10Radio_Initv>
	IR_init();
    19fc:	0e 94 9c 00 	call	0x138	; 0x138 <_Z7IR_initv>
	Radio_Configure_Rx(RADIO_PIPE_0, ROOMBA_ADDRESSES[roomba_num], ENABLE);
    1a00:	80 91 24 15 	lds	r24, 0x1524
    1a04:	90 e0       	ldi	r25, 0x00	; 0
    1a06:	bc 01       	movw	r22, r24
    1a08:	66 0f       	add	r22, r22
    1a0a:	77 1f       	adc	r23, r23
    1a0c:	66 0f       	add	r22, r22
    1a0e:	77 1f       	adc	r23, r23
    1a10:	86 0f       	add	r24, r22
    1a12:	97 1f       	adc	r25, r23
    1a14:	bc 01       	movw	r22, r24
    1a16:	60 50       	subi	r22, 0x00	; 0
    1a18:	7e 4f       	sbci	r23, 0xFE	; 254
    1a1a:	41 e0       	ldi	r20, 0x01	; 1
    1a1c:	80 e0       	ldi	r24, 0x00	; 0
    1a1e:	b5 dc       	rcall	.-1686   	; 0x138a <_Z18Radio_Configure_Rx11_radio_pipePh3_ed>
	Radio_Configure(RADIO_2MBPS, RADIO_HIGHEST_POWER);
    1a20:	63 e0       	ldi	r22, 0x03	; 3
    1a22:	81 e0       	ldi	r24, 0x01	; 1
    1a24:	51 dd       	rcall	.-1374   	; 0x14c8 <_Z15Radio_Configure9_radio_dr15_radio_tx_power>
	sei();
    1a26:	78 94       	sei
	
	radio_receive_service = Service_Init();
    1a28:	3c db       	rcall	.-2440   	; 0x10a2 <Service_Init>
    1a2a:	90 93 2e 15 	sts	0x152E, r25
    1a2e:	80 93 2d 15 	sts	0x152D, r24
	ir_receive_service = Service_Init();
    1a32:	37 db       	rcall	.-2450   	; 0x10a2 <Service_Init>
    1a34:	90 93 2c 15 	sts	0x152C, r25
    1a38:	80 93 2b 15 	sts	0x152B, r24
	Task_Create_RR(rr_roomba_controler,0);
    1a3c:	60 e0       	ldi	r22, 0x00	; 0
    1a3e:	70 e0       	ldi	r23, 0x00	; 0
    1a40:	86 e7       	ldi	r24, 0x76	; 118
    1a42:	9c e0       	ldi	r25, 0x0C	; 12
    1a44:	d2 da       	rcall	.-2652   	; 0xfea <Task_Create_RR>
 	Task_Create_Periodic(per_roomba_timeout,0,10,9,0);
    1a46:	00 e0       	ldi	r16, 0x00	; 0
    1a48:	10 e0       	ldi	r17, 0x00	; 0
    1a4a:	29 e0       	ldi	r18, 0x09	; 9
    1a4c:	30 e0       	ldi	r19, 0x00	; 0
    1a4e:	4a e0       	ldi	r20, 0x0A	; 10
    1a50:	50 e0       	ldi	r21, 0x00	; 0
    1a52:	60 e0       	ldi	r22, 0x00	; 0
    1a54:	70 e0       	ldi	r23, 0x00	; 0
    1a56:	81 ed       	ldi	r24, 0xD1	; 209
    1a58:	9b e0       	ldi	r25, 0x0B	; 11
    1a5a:	e2 da       	rcall	.-2620   	; 0x1020 <Task_Create_Periodic>
    1a5c:	df 91       	pop	r29
    1a5e:	cf 91       	pop	r28
    1a60:	1f 91       	pop	r17
    1a62:	0f 91       	pop	r16
    1a64:	08 95       	ret

00001a66 <_Z11Roomba_Initv>:
	// At 8 MHz, the AT90 generates a 57600 bps signal with a framing error rate of over 2%, which means that more than
	// 1 out of every 50 bits is wrong.  The fastest bitrate with a low error rate that the Roomba supports is
	// 38400 bps (0.2% error rate, or 1 bit out of every 500).

	// Try 57.6 kbps to start (this is the Roomba's default baud rate after the battery is installed).
	Roomba_UART_Init(UART_115200);
    1a66:	83 e0       	ldi	r24, 0x03	; 3
    1a68:	80 d0       	rcall	.+256    	; 0x1b6a <_Z16Roomba_UART_Init9_uart_bps>

	// Try to start the SCI
	Roomba_Send_Byte(START);
    1a6a:	80 e8       	ldi	r24, 0x80	; 128
    1a6c:	76 d0       	rcall	.+236    	; 0x1b5a <_Z16Roomba_Send_Byteh>
    1a6e:	87 e8       	ldi	r24, 0x87	; 135
    1a70:	93 e1       	ldi	r25, 0x13	; 19
    1a72:	01 97       	sbiw	r24, 0x01	; 1
    1a74:	f1 f7       	brne	.-4      	; 0x1a72 <_Z11Roomba_Initv+0xc>
    1a76:	00 c0       	rjmp	.+0      	; 0x1a78 <_Z11Roomba_Initv+0x12>
    1a78:	00 00       	nop
	_delay_ms(20);

	// change the baud rate to 38400 bps.  Have to wait for 100 ms after changing the baud rate.
	Roomba_Send_Byte(BAUD);
    1a7a:	81 e8       	ldi	r24, 0x81	; 129
    1a7c:	6e d0       	rcall	.+220    	; 0x1b5a <_Z16Roomba_Send_Byteh>
	Roomba_Send_Byte(ROOMBA_19200BPS);
    1a7e:	87 e0       	ldi	r24, 0x07	; 7
    1a80:	6c d0       	rcall	.+216    	; 0x1b5a <_Z16Roomba_Send_Byteh>
    1a82:	87 ea       	ldi	r24, 0xA7	; 167
    1a84:	91 e6       	ldi	r25, 0x61	; 97
    1a86:	01 97       	sbiw	r24, 0x01	; 1
    1a88:	f1 f7       	brne	.-4      	; 0x1a86 <_Z11Roomba_Initv+0x20>
    1a8a:	00 c0       	rjmp	.+0      	; 0x1a8c <_Z11Roomba_Initv+0x26>
    1a8c:	00 00       	nop
	_delay_ms(100);		// this delay will not work on old versions of WinAVR (new versions will see reduced but
						// still acceptable resolution; see _delay_ms definition)

	// change the AT90's UART clock
	Roomba_UART_Init(UART_19200);
    1a8e:	80 e0       	ldi	r24, 0x00	; 0
    1a90:	6c d0       	rcall	.+216    	; 0x1b6a <_Z16Roomba_UART_Init9_uart_bps>

	// start the SCI again in case the first start didn't go through.
	Roomba_Send_Byte(START);
    1a92:	80 e8       	ldi	r24, 0x80	; 128
    1a94:	62 d0       	rcall	.+196    	; 0x1b5a <_Z16Roomba_Send_Byteh>
    1a96:	87 e8       	ldi	r24, 0x87	; 135
    1a98:	93 e1       	ldi	r25, 0x13	; 19
    1a9a:	01 97       	sbiw	r24, 0x01	; 1
    1a9c:	f1 f7       	brne	.-4      	; 0x1a9a <_Z11Roomba_Initv+0x34>
    1a9e:	00 c0       	rjmp	.+0      	; 0x1aa0 <_Z11Roomba_Initv+0x3a>
    1aa0:	00 00       	nop
	_delay_ms(20);

	// finally put the Roomba into safe mode.
	Roomba_Send_Byte(SAFE);
    1aa2:	83 e8       	ldi	r24, 0x83	; 131
    1aa4:	5a d0       	rcall	.+180    	; 0x1b5a <_Z16Roomba_Send_Byteh>
    1aa6:	87 e8       	ldi	r24, 0x87	; 135
    1aa8:	93 e1       	ldi	r25, 0x13	; 19
    1aaa:	01 97       	sbiw	r24, 0x01	; 1
    1aac:	f1 f7       	brne	.-4      	; 0x1aaa <_Z11Roomba_Initv+0x44>
    1aae:	00 c0       	rjmp	.+0      	; 0x1ab0 <_Z11Roomba_Initv+0x4a>
    1ab0:	00 00       	nop
    1ab2:	08 95       	ret

00001ab4 <_Z13Roomba_Finishv>:
	_delay_ms(20);
}

void Roomba_Finish() {
	Roomba_Send_Byte(STOP);
    1ab4:	8d ea       	ldi	r24, 0xAD	; 173
    1ab6:	51 c0       	rjmp	.+162    	; 0x1b5a <_Z16Roomba_Send_Byteh>
    1ab8:	08 95       	ret

00001aba <_Z11timer_valuePV8os_timer>:
/**
Retrieve the elapsed time.
	@param	timer	Address of an OS_TIMER.
	@return			The elapsed time since the last timer reading.
*/
unsigned int timer_value (volatile OS_TIMER* timer) {
    1aba:	1f 93       	push	r17
    1abc:	cf 93       	push	r28
    1abe:	df 93       	push	r29
    1ac0:	ec 01       	movw	r28, r24
	
	unsigned int temp;
	uint8_t sreg;
	sreg = SREG;
    1ac2:	1f b7       	in	r17, 0x3f	; 63
	cli();
    1ac4:	f8 94       	cli
	unsigned int r = 0;

	if(timer->paused) {
    1ac6:	8c 81       	ldd	r24, Y+4	; 0x04
    1ac8:	88 23       	and	r24, r24
    1aca:	19 f0       	breq	.+6      	; 0x1ad2 <_Z11timer_valuePV8os_timer+0x18>
		r = timer->elapsed_time;
    1acc:	88 81       	ld	r24, Y
    1ace:	99 81       	ldd	r25, Y+1	; 0x01
    1ad0:	09 c0       	rjmp	.+18     	; 0x1ae4 <_Z11timer_valuePV8os_timer+0x2a>
	} else {
		unsigned int current_time = Now();
    1ad2:	d0 da       	rcall	.-2656   	; 0x1074 <Now>
		temp = (current_time - timer->last_update);
    1ad4:	4a 81       	ldd	r20, Y+2	; 0x02
    1ad6:	5b 81       	ldd	r21, Y+3	; 0x03
		r = timer->elapsed_time + temp;
    1ad8:	28 81       	ld	r18, Y
    1ada:	39 81       	ldd	r19, Y+1	; 0x01

	if(timer->paused) {
		r = timer->elapsed_time;
	} else {
		unsigned int current_time = Now();
		temp = (current_time - timer->last_update);
    1adc:	24 1b       	sub	r18, r20
    1ade:	35 0b       	sbc	r19, r21
		r = timer->elapsed_time + temp;
    1ae0:	82 0f       	add	r24, r18
    1ae2:	93 1f       	adc	r25, r19
	}
	
	SREG = sreg;	
    1ae4:	1f bf       	out	0x3f, r17	; 63
	return r;
}
    1ae6:	df 91       	pop	r29
    1ae8:	cf 91       	pop	r28
    1aea:	1f 91       	pop	r17
    1aec:	08 95       	ret

00001aee <_Z11timer_resetPV8os_timer>:
	@param timer	The address of the timer to be reset.
*/
void timer_reset(volatile OS_TIMER* timer) {
	
	uint8_t sreg;
	sreg = SREG;
    1aee:	2f b7       	in	r18, 0x3f	; 63
	cli();
    1af0:	f8 94       	cli

	timer->paused = 1;
    1af2:	31 e0       	ldi	r19, 0x01	; 1
    1af4:	fc 01       	movw	r30, r24
    1af6:	34 83       	std	Z+4, r19	; 0x04
	timer->elapsed_time = 0;	
    1af8:	11 82       	std	Z+1, r1	; 0x01
    1afa:	10 82       	st	Z, r1
	
	SREG = sreg;
    1afc:	2f bf       	out	0x3f, r18	; 63
    1afe:	08 95       	ret

00001b00 <_Z11timer_pausePV8os_timer>:

/**
Pauses a timer so it stops counting
	@param timer	The address of the timer to be paused.
*/
void timer_pause(volatile OS_TIMER* timer) {
    1b00:	1f 93       	push	r17
    1b02:	cf 93       	push	r28
    1b04:	df 93       	push	r29
    1b06:	ec 01       	movw	r28, r24
	
	unsigned int current_time, temp;
	uint8_t sreg;
	sreg = SREG;
    1b08:	1f b7       	in	r17, 0x3f	; 63
	cli();	
    1b0a:	f8 94       	cli

	if(!(timer->paused)){
    1b0c:	8c 81       	ldd	r24, Y+4	; 0x04
    1b0e:	81 11       	cpse	r24, r1
    1b10:	0d c0       	rjmp	.+26     	; 0x1b2c <_Z11timer_pausePV8os_timer+0x2c>
		timer->paused = 1;
    1b12:	81 e0       	ldi	r24, 0x01	; 1
    1b14:	8c 83       	std	Y+4, r24	; 0x04
		current_time = Now();
    1b16:	ae da       	rcall	.-2724   	; 0x1074 <Now>
		temp = (current_time - timer->last_update);
    1b18:	4a 81       	ldd	r20, Y+2	; 0x02
    1b1a:	5b 81       	ldd	r21, Y+3	; 0x03
		timer->elapsed_time += temp;
    1b1c:	28 81       	ld	r18, Y
    1b1e:	39 81       	ldd	r19, Y+1	; 0x01
	cli();	

	if(!(timer->paused)){
		timer->paused = 1;
		current_time = Now();
		temp = (current_time - timer->last_update);
    1b20:	24 1b       	sub	r18, r20
    1b22:	35 0b       	sbc	r19, r21
		timer->elapsed_time += temp;
    1b24:	82 0f       	add	r24, r18
    1b26:	93 1f       	adc	r25, r19
    1b28:	99 83       	std	Y+1, r25	; 0x01
    1b2a:	88 83       	st	Y, r24
	}
	
	SREG = sreg;	
    1b2c:	1f bf       	out	0x3f, r17	; 63
}
    1b2e:	df 91       	pop	r29
    1b30:	cf 91       	pop	r28
    1b32:	1f 91       	pop	r17
    1b34:	08 95       	ret

00001b36 <_Z12timer_resumePV8os_timer>:
/**
Resumes a timer so it continues counting from where it left off, skipping any
	time it was paused.
	@param timer	The address of the timer to be resumed.
*/
void timer_resume(volatile OS_TIMER* timer) {
    1b36:	1f 93       	push	r17
    1b38:	cf 93       	push	r28
    1b3a:	df 93       	push	r29
    1b3c:	ec 01       	movw	r28, r24
	
	uint8_t sreg;
	sreg = SREG;
    1b3e:	1f b7       	in	r17, 0x3f	; 63
	cli();	
    1b40:	f8 94       	cli
	
	if(timer->paused){
    1b42:	8c 81       	ldd	r24, Y+4	; 0x04
    1b44:	88 23       	and	r24, r24
    1b46:	21 f0       	breq	.+8      	; 0x1b50 <_Z12timer_resumePV8os_timer+0x1a>
		timer->paused = 0;
    1b48:	1c 82       	std	Y+4, r1	; 0x04
		timer->last_update = Now();		
    1b4a:	94 da       	rcall	.-2776   	; 0x1074 <Now>
    1b4c:	9b 83       	std	Y+3, r25	; 0x03
    1b4e:	8a 83       	std	Y+2, r24	; 0x02
	}	
	
	SREG = sreg;
    1b50:	1f bf       	out	0x3f, r17	; 63
    1b52:	df 91       	pop	r29
    1b54:	cf 91       	pop	r28
    1b56:	1f 91       	pop	r17
    1b58:	08 95       	ret

00001b5a <_Z16Roomba_Send_Byteh>:
	return uart_buffer_index;
}

void uart_reset_receive(void)
{
	uart_buffer_index = 0;
    1b5a:	e8 ec       	ldi	r30, 0xC8	; 200
    1b5c:	f0 e0       	ldi	r31, 0x00	; 0
    1b5e:	90 81       	ld	r25, Z
    1b60:	95 ff       	sbrs	r25, 5
    1b62:	fd cf       	rjmp	.-6      	; 0x1b5e <_Z16Roomba_Send_Byteh+0x4>
    1b64:	80 93 ce 00 	sts	0x00CE, r24
    1b68:	08 95       	ret

00001b6a <_Z16Roomba_UART_Init9_uart_bps>:
    1b6a:	2f b7       	in	r18, 0x3f	; 63
    1b6c:	f8 94       	cli
    1b6e:	e5 e6       	ldi	r30, 0x65	; 101
    1b70:	f0 e0       	ldi	r31, 0x00	; 0
    1b72:	90 81       	ld	r25, Z
    1b74:	9e 7f       	andi	r25, 0xFE	; 254
    1b76:	90 83       	st	Z, r25
    1b78:	81 30       	cpi	r24, 0x01	; 1
    1b7a:	69 f0       	breq	.+26     	; 0x1b96 <_Z16Roomba_UART_Init9_uart_bps+0x2c>
    1b7c:	28 f0       	brcs	.+10     	; 0x1b88 <_Z16Roomba_UART_Init9_uart_bps+0x1e>
    1b7e:	82 30       	cpi	r24, 0x02	; 2
    1b80:	89 f0       	breq	.+34     	; 0x1ba4 <_Z16Roomba_UART_Init9_uart_bps+0x3a>
    1b82:	83 30       	cpi	r24, 0x03	; 3
    1b84:	b1 f0       	breq	.+44     	; 0x1bb2 <_Z16Roomba_UART_Init9_uart_bps+0x48>
    1b86:	1c c0       	rjmp	.+56     	; 0x1bc0 <_Z16Roomba_UART_Init9_uart_bps+0x56>
    1b88:	83 e3       	ldi	r24, 0x33	; 51
    1b8a:	90 e0       	ldi	r25, 0x00	; 0
    1b8c:	90 93 cd 00 	sts	0x00CD, r25
    1b90:	80 93 cc 00 	sts	0x00CC, r24
    1b94:	1b c0       	rjmp	.+54     	; 0x1bcc <_Z16Roomba_UART_Init9_uart_bps+0x62>
    1b96:	89 e1       	ldi	r24, 0x19	; 25
    1b98:	90 e0       	ldi	r25, 0x00	; 0
    1b9a:	90 93 cd 00 	sts	0x00CD, r25
    1b9e:	80 93 cc 00 	sts	0x00CC, r24
    1ba2:	14 c0       	rjmp	.+40     	; 0x1bcc <_Z16Roomba_UART_Init9_uart_bps+0x62>
    1ba4:	80 e1       	ldi	r24, 0x10	; 16
    1ba6:	90 e0       	ldi	r25, 0x00	; 0
    1ba8:	90 93 cd 00 	sts	0x00CD, r25
    1bac:	80 93 cc 00 	sts	0x00CC, r24
    1bb0:	0d c0       	rjmp	.+26     	; 0x1bcc <_Z16Roomba_UART_Init9_uart_bps+0x62>
    1bb2:	88 e0       	ldi	r24, 0x08	; 8
    1bb4:	90 e0       	ldi	r25, 0x00	; 0
    1bb6:	90 93 cd 00 	sts	0x00CD, r25
    1bba:	80 93 cc 00 	sts	0x00CC, r24
    1bbe:	06 c0       	rjmp	.+12     	; 0x1bcc <_Z16Roomba_UART_Init9_uart_bps+0x62>
    1bc0:	80 e1       	ldi	r24, 0x10	; 16
    1bc2:	90 e0       	ldi	r25, 0x00	; 0
    1bc4:	90 93 cd 00 	sts	0x00CD, r25
    1bc8:	80 93 cc 00 	sts	0x00CC, r24
    1bcc:	e8 ec       	ldi	r30, 0xC8	; 200
    1bce:	f0 e0       	ldi	r31, 0x00	; 0
    1bd0:	80 e4       	ldi	r24, 0x40	; 64
    1bd2:	80 83       	st	Z, r24
    1bd4:	88 e0       	ldi	r24, 0x08	; 8
    1bd6:	80 93 c9 00 	sts	0x00C9, r24
    1bda:	86 e0       	ldi	r24, 0x06	; 6
    1bdc:	80 93 ca 00 	sts	0x00CA, r24
    1be0:	80 81       	ld	r24, Z
    1be2:	8d 7f       	andi	r24, 0xFD	; 253
    1be4:	80 83       	st	Z, r24
    1be6:	2f bf       	out	0x3f, r18	; 63
    1be8:	08 95       	ret

00001bea <__vector_36>:

/**
 * UART receive byte ISR
 */
ISR(USART1_RX_vect)
{
    1bea:	1f 92       	push	r1
    1bec:	0f 92       	push	r0
    1bee:	0f b6       	in	r0, 0x3f	; 63
    1bf0:	0f 92       	push	r0
    1bf2:	11 24       	eor	r1, r1
    1bf4:	0b b6       	in	r0, 0x3b	; 59
    1bf6:	0f 92       	push	r0
    1bf8:	8f 93       	push	r24
    1bfa:	9f 93       	push	r25
    1bfc:	ef 93       	push	r30
    1bfe:	ff 93       	push	r31
    uart_buffer[uart_buffer_index] = UDR1;
    1c00:	e0 91 2f 15 	lds	r30, 0x152F
    1c04:	f0 e0       	ldi	r31, 0x00	; 0
    1c06:	80 91 ce 00 	lds	r24, 0x00CE
    1c0a:	e0 5d       	subi	r30, 0xD0	; 208
    1c0c:	fa 4e       	sbci	r31, 0xEA	; 234
    1c0e:	80 83       	st	Z, r24
    uart_buffer_index = (uart_buffer_index + 1) % UART_BUFFER_SIZE;
    1c10:	80 91 2f 15 	lds	r24, 0x152F
    1c14:	90 e0       	ldi	r25, 0x00	; 0
    1c16:	01 96       	adiw	r24, 0x01	; 1
    1c18:	8f 71       	andi	r24, 0x1F	; 31
    1c1a:	90 78       	andi	r25, 0x80	; 128
    1c1c:	80 93 2f 15 	sts	0x152F, r24
}
    1c20:	ff 91       	pop	r31
    1c22:	ef 91       	pop	r30
    1c24:	9f 91       	pop	r25
    1c26:	8f 91       	pop	r24
    1c28:	0f 90       	pop	r0
    1c2a:	0b be       	out	0x3b, r0	; 59
    1c2c:	0f 90       	pop	r0
    1c2e:	0f be       	out	0x3f, r0	; 63
    1c30:	0f 90       	pop	r0
    1c32:	1f 90       	pop	r1
    1c34:	18 95       	reti

00001c36 <_Z10USART_Initj>:
#include <stdio.h>			// Conversions

void USART_Init( unsigned int ubrr)
{
/*Set baud rate */
UBRR0H = (unsigned char)(ubrr>>8);
    1c36:	90 93 c5 00 	sts	0x00C5, r25
UBRR0L = (unsigned char)ubrr;
    1c3a:	80 93 c4 00 	sts	0x00C4, r24
//Enable receiver and transmitter */
UCSR0B = (1<<RXEN0)|(1<<TXEN0);
    1c3e:	88 e1       	ldi	r24, 0x18	; 24
    1c40:	80 93 c1 00 	sts	0x00C1, r24
/* Set frame format: 8data, 2stop bit */
UCSR0C = (1<<USBS0)|(3<<UCSZ00);
    1c44:	8e e0       	ldi	r24, 0x0E	; 14
    1c46:	80 93 c2 00 	sts	0x00C2, r24
    1c4a:	08 95       	ret

00001c4c <_Z14USART_Sendbyteh>:


void USART_Sendbyte( unsigned char data )
{
/* Wait for empty transmit buffer */
while ( !( UCSR0A & (1<<UDRE0)) )
    1c4c:	e0 ec       	ldi	r30, 0xC0	; 192
    1c4e:	f0 e0       	ldi	r31, 0x00	; 0
    1c50:	90 81       	ld	r25, Z
    1c52:	95 ff       	sbrs	r25, 5
    1c54:	fd cf       	rjmp	.-6      	; 0x1c50 <_Z14USART_Sendbyteh+0x4>
;
/* Put data into buffer, sends the data */
UDR0 = char(data);
    1c56:	80 93 c6 00 	sts	0x00C6, r24
    1c5a:	08 95       	ret

00001c5c <_Z17USART_Send_stringPKc>:
}

void USART_Send_string(const char *str)
{
    1c5c:	cf 93       	push	r28
    1c5e:	df 93       	push	r29
    1c60:	ec 01       	movw	r28, r24

	  while (*str) 
    1c62:	88 81       	ld	r24, Y
    1c64:	88 23       	and	r24, r24
    1c66:	29 f0       	breq	.+10     	; 0x1c72 <_Z17USART_Send_stringPKc+0x16>
    1c68:	21 96       	adiw	r28, 0x01	; 1
      USART_Sendbyte(*str++);
    1c6a:	f0 df       	rcall	.-32     	; 0x1c4c <_Z14USART_Sendbyteh>
}

void USART_Send_string(const char *str)
{

	  while (*str) 
    1c6c:	89 91       	ld	r24, Y+
    1c6e:	81 11       	cpse	r24, r1
    1c70:	fc cf       	rjmp	.-8      	; 0x1c6a <_Z17USART_Send_stringPKc+0xe>
      USART_Sendbyte(*str++);
	
}
    1c72:	df 91       	pop	r29
    1c74:	cf 91       	pop	r28
    1c76:	08 95       	ret

00001c78 <_Z14USART_Send_intj>:

void USART_Send_int(unsigned int d )
{
    1c78:	0f 93       	push	r16
    1c7a:	1f 93       	push	r17
    1c7c:	cf 93       	push	r28
    1c7e:	df 93       	push	r29
    1c80:	cd b7       	in	r28, 0x3d	; 61
    1c82:	de b7       	in	r29, 0x3e	; 62
    1c84:	2a 97       	sbiw	r28, 0x0a	; 10
    1c86:	0f b6       	in	r0, 0x3f	; 63
    1c88:	f8 94       	cli
    1c8a:	de bf       	out	0x3e, r29	; 62
    1c8c:	0f be       	out	0x3f, r0	; 63
    1c8e:	cd bf       	out	0x3d, r28	; 61
	char str[10];
	sprintf(str,"%u",d);
    1c90:	9f 93       	push	r25
    1c92:	8f 93       	push	r24
    1c94:	82 e4       	ldi	r24, 0x42	; 66
    1c96:	92 e0       	ldi	r25, 0x02	; 2
    1c98:	9f 93       	push	r25
    1c9a:	8f 93       	push	r24
    1c9c:	8e 01       	movw	r16, r28
    1c9e:	0f 5f       	subi	r16, 0xFF	; 255
    1ca0:	1f 4f       	sbci	r17, 0xFF	; 255
    1ca2:	1f 93       	push	r17
    1ca4:	0f 93       	push	r16
    1ca6:	19 d0       	rcall	.+50     	; 0x1cda <sprintf>
	USART_Send_string(str);
    1ca8:	c8 01       	movw	r24, r16
    1caa:	d8 df       	rcall	.-80     	; 0x1c5c <_Z17USART_Send_stringPKc>
    1cac:	0f 90       	pop	r0
    1cae:	0f 90       	pop	r0
    1cb0:	0f 90       	pop	r0
    1cb2:	0f 90       	pop	r0
    1cb4:	0f 90       	pop	r0
    1cb6:	0f 90       	pop	r0
	
}
    1cb8:	2a 96       	adiw	r28, 0x0a	; 10
    1cba:	0f b6       	in	r0, 0x3f	; 63
    1cbc:	f8 94       	cli
    1cbe:	de bf       	out	0x3e, r29	; 62
    1cc0:	0f be       	out	0x3f, r0	; 63
    1cc2:	cd bf       	out	0x3d, r28	; 61
    1cc4:	df 91       	pop	r29
    1cc6:	cf 91       	pop	r28
    1cc8:	1f 91       	pop	r17
    1cca:	0f 91       	pop	r16
    1ccc:	08 95       	ret

00001cce <__tablejump2__>:
    1cce:	ee 0f       	add	r30, r30
    1cd0:	ff 1f       	adc	r31, r31

00001cd2 <__tablejump__>:
    1cd2:	05 90       	lpm	r0, Z+
    1cd4:	f4 91       	lpm	r31, Z
    1cd6:	e0 2d       	mov	r30, r0
    1cd8:	19 94       	eijmp

00001cda <sprintf>:
    1cda:	0f 93       	push	r16
    1cdc:	1f 93       	push	r17
    1cde:	cf 93       	push	r28
    1ce0:	df 93       	push	r29
    1ce2:	cd b7       	in	r28, 0x3d	; 61
    1ce4:	de b7       	in	r29, 0x3e	; 62
    1ce6:	2e 97       	sbiw	r28, 0x0e	; 14
    1ce8:	0f b6       	in	r0, 0x3f	; 63
    1cea:	f8 94       	cli
    1cec:	de bf       	out	0x3e, r29	; 62
    1cee:	0f be       	out	0x3f, r0	; 63
    1cf0:	cd bf       	out	0x3d, r28	; 61
    1cf2:	0e 89       	ldd	r16, Y+22	; 0x16
    1cf4:	1f 89       	ldd	r17, Y+23	; 0x17
    1cf6:	86 e0       	ldi	r24, 0x06	; 6
    1cf8:	8c 83       	std	Y+4, r24	; 0x04
    1cfa:	1a 83       	std	Y+2, r17	; 0x02
    1cfc:	09 83       	std	Y+1, r16	; 0x01
    1cfe:	8f ef       	ldi	r24, 0xFF	; 255
    1d00:	9f e7       	ldi	r25, 0x7F	; 127
    1d02:	9e 83       	std	Y+6, r25	; 0x06
    1d04:	8d 83       	std	Y+5, r24	; 0x05
    1d06:	ae 01       	movw	r20, r28
    1d08:	46 5e       	subi	r20, 0xE6	; 230
    1d0a:	5f 4f       	sbci	r21, 0xFF	; 255
    1d0c:	68 8d       	ldd	r22, Y+24	; 0x18
    1d0e:	79 8d       	ldd	r23, Y+25	; 0x19
    1d10:	ce 01       	movw	r24, r28
    1d12:	01 96       	adiw	r24, 0x01	; 1
    1d14:	10 d0       	rcall	.+32     	; 0x1d36 <vfprintf>
    1d16:	ef 81       	ldd	r30, Y+7	; 0x07
    1d18:	f8 85       	ldd	r31, Y+8	; 0x08
    1d1a:	e0 0f       	add	r30, r16
    1d1c:	f1 1f       	adc	r31, r17
    1d1e:	10 82       	st	Z, r1
    1d20:	2e 96       	adiw	r28, 0x0e	; 14
    1d22:	0f b6       	in	r0, 0x3f	; 63
    1d24:	f8 94       	cli
    1d26:	de bf       	out	0x3e, r29	; 62
    1d28:	0f be       	out	0x3f, r0	; 63
    1d2a:	cd bf       	out	0x3d, r28	; 61
    1d2c:	df 91       	pop	r29
    1d2e:	cf 91       	pop	r28
    1d30:	1f 91       	pop	r17
    1d32:	0f 91       	pop	r16
    1d34:	08 95       	ret

00001d36 <vfprintf>:
    1d36:	2f 92       	push	r2
    1d38:	3f 92       	push	r3
    1d3a:	4f 92       	push	r4
    1d3c:	5f 92       	push	r5
    1d3e:	6f 92       	push	r6
    1d40:	7f 92       	push	r7
    1d42:	8f 92       	push	r8
    1d44:	9f 92       	push	r9
    1d46:	af 92       	push	r10
    1d48:	bf 92       	push	r11
    1d4a:	cf 92       	push	r12
    1d4c:	df 92       	push	r13
    1d4e:	ef 92       	push	r14
    1d50:	ff 92       	push	r15
    1d52:	0f 93       	push	r16
    1d54:	1f 93       	push	r17
    1d56:	cf 93       	push	r28
    1d58:	df 93       	push	r29
    1d5a:	cd b7       	in	r28, 0x3d	; 61
    1d5c:	de b7       	in	r29, 0x3e	; 62
    1d5e:	2c 97       	sbiw	r28, 0x0c	; 12
    1d60:	0f b6       	in	r0, 0x3f	; 63
    1d62:	f8 94       	cli
    1d64:	de bf       	out	0x3e, r29	; 62
    1d66:	0f be       	out	0x3f, r0	; 63
    1d68:	cd bf       	out	0x3d, r28	; 61
    1d6a:	7c 01       	movw	r14, r24
    1d6c:	6b 01       	movw	r12, r22
    1d6e:	8a 01       	movw	r16, r20
    1d70:	fc 01       	movw	r30, r24
    1d72:	17 82       	std	Z+7, r1	; 0x07
    1d74:	16 82       	std	Z+6, r1	; 0x06
    1d76:	83 81       	ldd	r24, Z+3	; 0x03
    1d78:	81 ff       	sbrs	r24, 1
    1d7a:	b0 c1       	rjmp	.+864    	; 0x20dc <vfprintf+0x3a6>
    1d7c:	ce 01       	movw	r24, r28
    1d7e:	01 96       	adiw	r24, 0x01	; 1
    1d80:	4c 01       	movw	r8, r24
    1d82:	f7 01       	movw	r30, r14
    1d84:	93 81       	ldd	r25, Z+3	; 0x03
    1d86:	f6 01       	movw	r30, r12
    1d88:	93 fd       	sbrc	r25, 3
    1d8a:	85 91       	lpm	r24, Z+
    1d8c:	93 ff       	sbrs	r25, 3
    1d8e:	81 91       	ld	r24, Z+
    1d90:	6f 01       	movw	r12, r30
    1d92:	88 23       	and	r24, r24
    1d94:	09 f4       	brne	.+2      	; 0x1d98 <vfprintf+0x62>
    1d96:	9e c1       	rjmp	.+828    	; 0x20d4 <vfprintf+0x39e>
    1d98:	85 32       	cpi	r24, 0x25	; 37
    1d9a:	39 f4       	brne	.+14     	; 0x1daa <vfprintf+0x74>
    1d9c:	93 fd       	sbrc	r25, 3
    1d9e:	85 91       	lpm	r24, Z+
    1da0:	93 ff       	sbrs	r25, 3
    1da2:	81 91       	ld	r24, Z+
    1da4:	6f 01       	movw	r12, r30
    1da6:	85 32       	cpi	r24, 0x25	; 37
    1da8:	21 f4       	brne	.+8      	; 0x1db2 <vfprintf+0x7c>
    1daa:	b7 01       	movw	r22, r14
    1dac:	90 e0       	ldi	r25, 0x00	; 0
    1dae:	c7 d1       	rcall	.+910    	; 0x213e <fputc>
    1db0:	e8 cf       	rjmp	.-48     	; 0x1d82 <vfprintf+0x4c>
    1db2:	51 2c       	mov	r5, r1
    1db4:	31 2c       	mov	r3, r1
    1db6:	20 e0       	ldi	r18, 0x00	; 0
    1db8:	20 32       	cpi	r18, 0x20	; 32
    1dba:	a0 f4       	brcc	.+40     	; 0x1de4 <vfprintf+0xae>
    1dbc:	8b 32       	cpi	r24, 0x2B	; 43
    1dbe:	69 f0       	breq	.+26     	; 0x1dda <vfprintf+0xa4>
    1dc0:	30 f4       	brcc	.+12     	; 0x1dce <vfprintf+0x98>
    1dc2:	80 32       	cpi	r24, 0x20	; 32
    1dc4:	59 f0       	breq	.+22     	; 0x1ddc <vfprintf+0xa6>
    1dc6:	83 32       	cpi	r24, 0x23	; 35
    1dc8:	69 f4       	brne	.+26     	; 0x1de4 <vfprintf+0xae>
    1dca:	20 61       	ori	r18, 0x10	; 16
    1dcc:	2c c0       	rjmp	.+88     	; 0x1e26 <vfprintf+0xf0>
    1dce:	8d 32       	cpi	r24, 0x2D	; 45
    1dd0:	39 f0       	breq	.+14     	; 0x1de0 <vfprintf+0xaa>
    1dd2:	80 33       	cpi	r24, 0x30	; 48
    1dd4:	39 f4       	brne	.+14     	; 0x1de4 <vfprintf+0xae>
    1dd6:	21 60       	ori	r18, 0x01	; 1
    1dd8:	26 c0       	rjmp	.+76     	; 0x1e26 <vfprintf+0xf0>
    1dda:	22 60       	ori	r18, 0x02	; 2
    1ddc:	24 60       	ori	r18, 0x04	; 4
    1dde:	23 c0       	rjmp	.+70     	; 0x1e26 <vfprintf+0xf0>
    1de0:	28 60       	ori	r18, 0x08	; 8
    1de2:	21 c0       	rjmp	.+66     	; 0x1e26 <vfprintf+0xf0>
    1de4:	27 fd       	sbrc	r18, 7
    1de6:	27 c0       	rjmp	.+78     	; 0x1e36 <vfprintf+0x100>
    1de8:	30 ed       	ldi	r19, 0xD0	; 208
    1dea:	38 0f       	add	r19, r24
    1dec:	3a 30       	cpi	r19, 0x0A	; 10
    1dee:	78 f4       	brcc	.+30     	; 0x1e0e <vfprintf+0xd8>
    1df0:	26 ff       	sbrs	r18, 6
    1df2:	06 c0       	rjmp	.+12     	; 0x1e00 <vfprintf+0xca>
    1df4:	fa e0       	ldi	r31, 0x0A	; 10
    1df6:	5f 9e       	mul	r5, r31
    1df8:	30 0d       	add	r19, r0
    1dfa:	11 24       	eor	r1, r1
    1dfc:	53 2e       	mov	r5, r19
    1dfe:	13 c0       	rjmp	.+38     	; 0x1e26 <vfprintf+0xf0>
    1e00:	8a e0       	ldi	r24, 0x0A	; 10
    1e02:	38 9e       	mul	r3, r24
    1e04:	30 0d       	add	r19, r0
    1e06:	11 24       	eor	r1, r1
    1e08:	33 2e       	mov	r3, r19
    1e0a:	20 62       	ori	r18, 0x20	; 32
    1e0c:	0c c0       	rjmp	.+24     	; 0x1e26 <vfprintf+0xf0>
    1e0e:	8e 32       	cpi	r24, 0x2E	; 46
    1e10:	21 f4       	brne	.+8      	; 0x1e1a <vfprintf+0xe4>
    1e12:	26 fd       	sbrc	r18, 6
    1e14:	5f c1       	rjmp	.+702    	; 0x20d4 <vfprintf+0x39e>
    1e16:	20 64       	ori	r18, 0x40	; 64
    1e18:	06 c0       	rjmp	.+12     	; 0x1e26 <vfprintf+0xf0>
    1e1a:	8c 36       	cpi	r24, 0x6C	; 108
    1e1c:	11 f4       	brne	.+4      	; 0x1e22 <vfprintf+0xec>
    1e1e:	20 68       	ori	r18, 0x80	; 128
    1e20:	02 c0       	rjmp	.+4      	; 0x1e26 <vfprintf+0xf0>
    1e22:	88 36       	cpi	r24, 0x68	; 104
    1e24:	41 f4       	brne	.+16     	; 0x1e36 <vfprintf+0x100>
    1e26:	f6 01       	movw	r30, r12
    1e28:	93 fd       	sbrc	r25, 3
    1e2a:	85 91       	lpm	r24, Z+
    1e2c:	93 ff       	sbrs	r25, 3
    1e2e:	81 91       	ld	r24, Z+
    1e30:	6f 01       	movw	r12, r30
    1e32:	81 11       	cpse	r24, r1
    1e34:	c1 cf       	rjmp	.-126    	; 0x1db8 <vfprintf+0x82>
    1e36:	98 2f       	mov	r25, r24
    1e38:	9f 7d       	andi	r25, 0xDF	; 223
    1e3a:	95 54       	subi	r25, 0x45	; 69
    1e3c:	93 30       	cpi	r25, 0x03	; 3
    1e3e:	28 f4       	brcc	.+10     	; 0x1e4a <vfprintf+0x114>
    1e40:	0c 5f       	subi	r16, 0xFC	; 252
    1e42:	1f 4f       	sbci	r17, 0xFF	; 255
    1e44:	ff e3       	ldi	r31, 0x3F	; 63
    1e46:	f9 83       	std	Y+1, r31	; 0x01
    1e48:	0d c0       	rjmp	.+26     	; 0x1e64 <vfprintf+0x12e>
    1e4a:	83 36       	cpi	r24, 0x63	; 99
    1e4c:	31 f0       	breq	.+12     	; 0x1e5a <vfprintf+0x124>
    1e4e:	83 37       	cpi	r24, 0x73	; 115
    1e50:	71 f0       	breq	.+28     	; 0x1e6e <vfprintf+0x138>
    1e52:	83 35       	cpi	r24, 0x53	; 83
    1e54:	09 f0       	breq	.+2      	; 0x1e58 <vfprintf+0x122>
    1e56:	57 c0       	rjmp	.+174    	; 0x1f06 <vfprintf+0x1d0>
    1e58:	21 c0       	rjmp	.+66     	; 0x1e9c <vfprintf+0x166>
    1e5a:	f8 01       	movw	r30, r16
    1e5c:	80 81       	ld	r24, Z
    1e5e:	89 83       	std	Y+1, r24	; 0x01
    1e60:	0e 5f       	subi	r16, 0xFE	; 254
    1e62:	1f 4f       	sbci	r17, 0xFF	; 255
    1e64:	44 24       	eor	r4, r4
    1e66:	43 94       	inc	r4
    1e68:	51 2c       	mov	r5, r1
    1e6a:	54 01       	movw	r10, r8
    1e6c:	14 c0       	rjmp	.+40     	; 0x1e96 <vfprintf+0x160>
    1e6e:	38 01       	movw	r6, r16
    1e70:	f2 e0       	ldi	r31, 0x02	; 2
    1e72:	6f 0e       	add	r6, r31
    1e74:	71 1c       	adc	r7, r1
    1e76:	f8 01       	movw	r30, r16
    1e78:	a0 80       	ld	r10, Z
    1e7a:	b1 80       	ldd	r11, Z+1	; 0x01
    1e7c:	26 ff       	sbrs	r18, 6
    1e7e:	03 c0       	rjmp	.+6      	; 0x1e86 <vfprintf+0x150>
    1e80:	65 2d       	mov	r22, r5
    1e82:	70 e0       	ldi	r23, 0x00	; 0
    1e84:	02 c0       	rjmp	.+4      	; 0x1e8a <vfprintf+0x154>
    1e86:	6f ef       	ldi	r22, 0xFF	; 255
    1e88:	7f ef       	ldi	r23, 0xFF	; 255
    1e8a:	c5 01       	movw	r24, r10
    1e8c:	2c 87       	std	Y+12, r18	; 0x0c
    1e8e:	4c d1       	rcall	.+664    	; 0x2128 <strnlen>
    1e90:	2c 01       	movw	r4, r24
    1e92:	83 01       	movw	r16, r6
    1e94:	2c 85       	ldd	r18, Y+12	; 0x0c
    1e96:	2f 77       	andi	r18, 0x7F	; 127
    1e98:	22 2e       	mov	r2, r18
    1e9a:	16 c0       	rjmp	.+44     	; 0x1ec8 <vfprintf+0x192>
    1e9c:	38 01       	movw	r6, r16
    1e9e:	f2 e0       	ldi	r31, 0x02	; 2
    1ea0:	6f 0e       	add	r6, r31
    1ea2:	71 1c       	adc	r7, r1
    1ea4:	f8 01       	movw	r30, r16
    1ea6:	a0 80       	ld	r10, Z
    1ea8:	b1 80       	ldd	r11, Z+1	; 0x01
    1eaa:	26 ff       	sbrs	r18, 6
    1eac:	03 c0       	rjmp	.+6      	; 0x1eb4 <vfprintf+0x17e>
    1eae:	65 2d       	mov	r22, r5
    1eb0:	70 e0       	ldi	r23, 0x00	; 0
    1eb2:	02 c0       	rjmp	.+4      	; 0x1eb8 <vfprintf+0x182>
    1eb4:	6f ef       	ldi	r22, 0xFF	; 255
    1eb6:	7f ef       	ldi	r23, 0xFF	; 255
    1eb8:	c5 01       	movw	r24, r10
    1eba:	2c 87       	std	Y+12, r18	; 0x0c
    1ebc:	2a d1       	rcall	.+596    	; 0x2112 <strnlen_P>
    1ebe:	2c 01       	movw	r4, r24
    1ec0:	2c 85       	ldd	r18, Y+12	; 0x0c
    1ec2:	20 68       	ori	r18, 0x80	; 128
    1ec4:	22 2e       	mov	r2, r18
    1ec6:	83 01       	movw	r16, r6
    1ec8:	23 fc       	sbrc	r2, 3
    1eca:	19 c0       	rjmp	.+50     	; 0x1efe <vfprintf+0x1c8>
    1ecc:	83 2d       	mov	r24, r3
    1ece:	90 e0       	ldi	r25, 0x00	; 0
    1ed0:	48 16       	cp	r4, r24
    1ed2:	59 06       	cpc	r5, r25
    1ed4:	a0 f4       	brcc	.+40     	; 0x1efe <vfprintf+0x1c8>
    1ed6:	b7 01       	movw	r22, r14
    1ed8:	80 e2       	ldi	r24, 0x20	; 32
    1eda:	90 e0       	ldi	r25, 0x00	; 0
    1edc:	30 d1       	rcall	.+608    	; 0x213e <fputc>
    1ede:	3a 94       	dec	r3
    1ee0:	f5 cf       	rjmp	.-22     	; 0x1ecc <vfprintf+0x196>
    1ee2:	f5 01       	movw	r30, r10
    1ee4:	27 fc       	sbrc	r2, 7
    1ee6:	85 91       	lpm	r24, Z+
    1ee8:	27 fe       	sbrs	r2, 7
    1eea:	81 91       	ld	r24, Z+
    1eec:	5f 01       	movw	r10, r30
    1eee:	b7 01       	movw	r22, r14
    1ef0:	90 e0       	ldi	r25, 0x00	; 0
    1ef2:	25 d1       	rcall	.+586    	; 0x213e <fputc>
    1ef4:	31 10       	cpse	r3, r1
    1ef6:	3a 94       	dec	r3
    1ef8:	f1 e0       	ldi	r31, 0x01	; 1
    1efa:	4f 1a       	sub	r4, r31
    1efc:	51 08       	sbc	r5, r1
    1efe:	41 14       	cp	r4, r1
    1f00:	51 04       	cpc	r5, r1
    1f02:	79 f7       	brne	.-34     	; 0x1ee2 <vfprintf+0x1ac>
    1f04:	de c0       	rjmp	.+444    	; 0x20c2 <vfprintf+0x38c>
    1f06:	84 36       	cpi	r24, 0x64	; 100
    1f08:	11 f0       	breq	.+4      	; 0x1f0e <vfprintf+0x1d8>
    1f0a:	89 36       	cpi	r24, 0x69	; 105
    1f0c:	31 f5       	brne	.+76     	; 0x1f5a <vfprintf+0x224>
    1f0e:	f8 01       	movw	r30, r16
    1f10:	27 ff       	sbrs	r18, 7
    1f12:	07 c0       	rjmp	.+14     	; 0x1f22 <vfprintf+0x1ec>
    1f14:	60 81       	ld	r22, Z
    1f16:	71 81       	ldd	r23, Z+1	; 0x01
    1f18:	82 81       	ldd	r24, Z+2	; 0x02
    1f1a:	93 81       	ldd	r25, Z+3	; 0x03
    1f1c:	0c 5f       	subi	r16, 0xFC	; 252
    1f1e:	1f 4f       	sbci	r17, 0xFF	; 255
    1f20:	08 c0       	rjmp	.+16     	; 0x1f32 <vfprintf+0x1fc>
    1f22:	60 81       	ld	r22, Z
    1f24:	71 81       	ldd	r23, Z+1	; 0x01
    1f26:	88 27       	eor	r24, r24
    1f28:	77 fd       	sbrc	r23, 7
    1f2a:	80 95       	com	r24
    1f2c:	98 2f       	mov	r25, r24
    1f2e:	0e 5f       	subi	r16, 0xFE	; 254
    1f30:	1f 4f       	sbci	r17, 0xFF	; 255
    1f32:	2f 76       	andi	r18, 0x6F	; 111
    1f34:	b2 2e       	mov	r11, r18
    1f36:	97 ff       	sbrs	r25, 7
    1f38:	09 c0       	rjmp	.+18     	; 0x1f4c <vfprintf+0x216>
    1f3a:	90 95       	com	r25
    1f3c:	80 95       	com	r24
    1f3e:	70 95       	com	r23
    1f40:	61 95       	neg	r22
    1f42:	7f 4f       	sbci	r23, 0xFF	; 255
    1f44:	8f 4f       	sbci	r24, 0xFF	; 255
    1f46:	9f 4f       	sbci	r25, 0xFF	; 255
    1f48:	20 68       	ori	r18, 0x80	; 128
    1f4a:	b2 2e       	mov	r11, r18
    1f4c:	2a e0       	ldi	r18, 0x0A	; 10
    1f4e:	30 e0       	ldi	r19, 0x00	; 0
    1f50:	a4 01       	movw	r20, r8
    1f52:	27 d1       	rcall	.+590    	; 0x21a2 <__ultoa_invert>
    1f54:	a8 2e       	mov	r10, r24
    1f56:	a8 18       	sub	r10, r8
    1f58:	43 c0       	rjmp	.+134    	; 0x1fe0 <vfprintf+0x2aa>
    1f5a:	85 37       	cpi	r24, 0x75	; 117
    1f5c:	29 f4       	brne	.+10     	; 0x1f68 <vfprintf+0x232>
    1f5e:	2f 7e       	andi	r18, 0xEF	; 239
    1f60:	b2 2e       	mov	r11, r18
    1f62:	2a e0       	ldi	r18, 0x0A	; 10
    1f64:	30 e0       	ldi	r19, 0x00	; 0
    1f66:	25 c0       	rjmp	.+74     	; 0x1fb2 <vfprintf+0x27c>
    1f68:	f2 2f       	mov	r31, r18
    1f6a:	f9 7f       	andi	r31, 0xF9	; 249
    1f6c:	bf 2e       	mov	r11, r31
    1f6e:	8f 36       	cpi	r24, 0x6F	; 111
    1f70:	c1 f0       	breq	.+48     	; 0x1fa2 <vfprintf+0x26c>
    1f72:	18 f4       	brcc	.+6      	; 0x1f7a <vfprintf+0x244>
    1f74:	88 35       	cpi	r24, 0x58	; 88
    1f76:	79 f0       	breq	.+30     	; 0x1f96 <vfprintf+0x260>
    1f78:	ad c0       	rjmp	.+346    	; 0x20d4 <vfprintf+0x39e>
    1f7a:	80 37       	cpi	r24, 0x70	; 112
    1f7c:	19 f0       	breq	.+6      	; 0x1f84 <vfprintf+0x24e>
    1f7e:	88 37       	cpi	r24, 0x78	; 120
    1f80:	21 f0       	breq	.+8      	; 0x1f8a <vfprintf+0x254>
    1f82:	a8 c0       	rjmp	.+336    	; 0x20d4 <vfprintf+0x39e>
    1f84:	2f 2f       	mov	r18, r31
    1f86:	20 61       	ori	r18, 0x10	; 16
    1f88:	b2 2e       	mov	r11, r18
    1f8a:	b4 fe       	sbrs	r11, 4
    1f8c:	0d c0       	rjmp	.+26     	; 0x1fa8 <vfprintf+0x272>
    1f8e:	8b 2d       	mov	r24, r11
    1f90:	84 60       	ori	r24, 0x04	; 4
    1f92:	b8 2e       	mov	r11, r24
    1f94:	09 c0       	rjmp	.+18     	; 0x1fa8 <vfprintf+0x272>
    1f96:	24 ff       	sbrs	r18, 4
    1f98:	0a c0       	rjmp	.+20     	; 0x1fae <vfprintf+0x278>
    1f9a:	9f 2f       	mov	r25, r31
    1f9c:	96 60       	ori	r25, 0x06	; 6
    1f9e:	b9 2e       	mov	r11, r25
    1fa0:	06 c0       	rjmp	.+12     	; 0x1fae <vfprintf+0x278>
    1fa2:	28 e0       	ldi	r18, 0x08	; 8
    1fa4:	30 e0       	ldi	r19, 0x00	; 0
    1fa6:	05 c0       	rjmp	.+10     	; 0x1fb2 <vfprintf+0x27c>
    1fa8:	20 e1       	ldi	r18, 0x10	; 16
    1faa:	30 e0       	ldi	r19, 0x00	; 0
    1fac:	02 c0       	rjmp	.+4      	; 0x1fb2 <vfprintf+0x27c>
    1fae:	20 e1       	ldi	r18, 0x10	; 16
    1fb0:	32 e0       	ldi	r19, 0x02	; 2
    1fb2:	f8 01       	movw	r30, r16
    1fb4:	b7 fe       	sbrs	r11, 7
    1fb6:	07 c0       	rjmp	.+14     	; 0x1fc6 <vfprintf+0x290>
    1fb8:	60 81       	ld	r22, Z
    1fba:	71 81       	ldd	r23, Z+1	; 0x01
    1fbc:	82 81       	ldd	r24, Z+2	; 0x02
    1fbe:	93 81       	ldd	r25, Z+3	; 0x03
    1fc0:	0c 5f       	subi	r16, 0xFC	; 252
    1fc2:	1f 4f       	sbci	r17, 0xFF	; 255
    1fc4:	06 c0       	rjmp	.+12     	; 0x1fd2 <vfprintf+0x29c>
    1fc6:	60 81       	ld	r22, Z
    1fc8:	71 81       	ldd	r23, Z+1	; 0x01
    1fca:	80 e0       	ldi	r24, 0x00	; 0
    1fcc:	90 e0       	ldi	r25, 0x00	; 0
    1fce:	0e 5f       	subi	r16, 0xFE	; 254
    1fd0:	1f 4f       	sbci	r17, 0xFF	; 255
    1fd2:	a4 01       	movw	r20, r8
    1fd4:	e6 d0       	rcall	.+460    	; 0x21a2 <__ultoa_invert>
    1fd6:	a8 2e       	mov	r10, r24
    1fd8:	a8 18       	sub	r10, r8
    1fda:	fb 2d       	mov	r31, r11
    1fdc:	ff 77       	andi	r31, 0x7F	; 127
    1fde:	bf 2e       	mov	r11, r31
    1fe0:	b6 fe       	sbrs	r11, 6
    1fe2:	0b c0       	rjmp	.+22     	; 0x1ffa <vfprintf+0x2c4>
    1fe4:	2b 2d       	mov	r18, r11
    1fe6:	2e 7f       	andi	r18, 0xFE	; 254
    1fe8:	a5 14       	cp	r10, r5
    1fea:	50 f4       	brcc	.+20     	; 0x2000 <vfprintf+0x2ca>
    1fec:	b4 fe       	sbrs	r11, 4
    1fee:	0a c0       	rjmp	.+20     	; 0x2004 <vfprintf+0x2ce>
    1ff0:	b2 fc       	sbrc	r11, 2
    1ff2:	08 c0       	rjmp	.+16     	; 0x2004 <vfprintf+0x2ce>
    1ff4:	2b 2d       	mov	r18, r11
    1ff6:	2e 7e       	andi	r18, 0xEE	; 238
    1ff8:	05 c0       	rjmp	.+10     	; 0x2004 <vfprintf+0x2ce>
    1ffa:	7a 2c       	mov	r7, r10
    1ffc:	2b 2d       	mov	r18, r11
    1ffe:	03 c0       	rjmp	.+6      	; 0x2006 <vfprintf+0x2d0>
    2000:	7a 2c       	mov	r7, r10
    2002:	01 c0       	rjmp	.+2      	; 0x2006 <vfprintf+0x2d0>
    2004:	75 2c       	mov	r7, r5
    2006:	24 ff       	sbrs	r18, 4
    2008:	0d c0       	rjmp	.+26     	; 0x2024 <vfprintf+0x2ee>
    200a:	fe 01       	movw	r30, r28
    200c:	ea 0d       	add	r30, r10
    200e:	f1 1d       	adc	r31, r1
    2010:	80 81       	ld	r24, Z
    2012:	80 33       	cpi	r24, 0x30	; 48
    2014:	11 f4       	brne	.+4      	; 0x201a <vfprintf+0x2e4>
    2016:	29 7e       	andi	r18, 0xE9	; 233
    2018:	09 c0       	rjmp	.+18     	; 0x202c <vfprintf+0x2f6>
    201a:	22 ff       	sbrs	r18, 2
    201c:	06 c0       	rjmp	.+12     	; 0x202a <vfprintf+0x2f4>
    201e:	73 94       	inc	r7
    2020:	73 94       	inc	r7
    2022:	04 c0       	rjmp	.+8      	; 0x202c <vfprintf+0x2f6>
    2024:	82 2f       	mov	r24, r18
    2026:	86 78       	andi	r24, 0x86	; 134
    2028:	09 f0       	breq	.+2      	; 0x202c <vfprintf+0x2f6>
    202a:	73 94       	inc	r7
    202c:	23 fd       	sbrc	r18, 3
    202e:	12 c0       	rjmp	.+36     	; 0x2054 <vfprintf+0x31e>
    2030:	20 ff       	sbrs	r18, 0
    2032:	06 c0       	rjmp	.+12     	; 0x2040 <vfprintf+0x30a>
    2034:	5a 2c       	mov	r5, r10
    2036:	73 14       	cp	r7, r3
    2038:	18 f4       	brcc	.+6      	; 0x2040 <vfprintf+0x30a>
    203a:	53 0c       	add	r5, r3
    203c:	57 18       	sub	r5, r7
    203e:	73 2c       	mov	r7, r3
    2040:	73 14       	cp	r7, r3
    2042:	60 f4       	brcc	.+24     	; 0x205c <vfprintf+0x326>
    2044:	b7 01       	movw	r22, r14
    2046:	80 e2       	ldi	r24, 0x20	; 32
    2048:	90 e0       	ldi	r25, 0x00	; 0
    204a:	2c 87       	std	Y+12, r18	; 0x0c
    204c:	78 d0       	rcall	.+240    	; 0x213e <fputc>
    204e:	73 94       	inc	r7
    2050:	2c 85       	ldd	r18, Y+12	; 0x0c
    2052:	f6 cf       	rjmp	.-20     	; 0x2040 <vfprintf+0x30a>
    2054:	73 14       	cp	r7, r3
    2056:	10 f4       	brcc	.+4      	; 0x205c <vfprintf+0x326>
    2058:	37 18       	sub	r3, r7
    205a:	01 c0       	rjmp	.+2      	; 0x205e <vfprintf+0x328>
    205c:	31 2c       	mov	r3, r1
    205e:	24 ff       	sbrs	r18, 4
    2060:	11 c0       	rjmp	.+34     	; 0x2084 <vfprintf+0x34e>
    2062:	b7 01       	movw	r22, r14
    2064:	80 e3       	ldi	r24, 0x30	; 48
    2066:	90 e0       	ldi	r25, 0x00	; 0
    2068:	2c 87       	std	Y+12, r18	; 0x0c
    206a:	69 d0       	rcall	.+210    	; 0x213e <fputc>
    206c:	2c 85       	ldd	r18, Y+12	; 0x0c
    206e:	22 ff       	sbrs	r18, 2
    2070:	16 c0       	rjmp	.+44     	; 0x209e <vfprintf+0x368>
    2072:	21 ff       	sbrs	r18, 1
    2074:	03 c0       	rjmp	.+6      	; 0x207c <vfprintf+0x346>
    2076:	88 e5       	ldi	r24, 0x58	; 88
    2078:	90 e0       	ldi	r25, 0x00	; 0
    207a:	02 c0       	rjmp	.+4      	; 0x2080 <vfprintf+0x34a>
    207c:	88 e7       	ldi	r24, 0x78	; 120
    207e:	90 e0       	ldi	r25, 0x00	; 0
    2080:	b7 01       	movw	r22, r14
    2082:	0c c0       	rjmp	.+24     	; 0x209c <vfprintf+0x366>
    2084:	82 2f       	mov	r24, r18
    2086:	86 78       	andi	r24, 0x86	; 134
    2088:	51 f0       	breq	.+20     	; 0x209e <vfprintf+0x368>
    208a:	21 fd       	sbrc	r18, 1
    208c:	02 c0       	rjmp	.+4      	; 0x2092 <vfprintf+0x35c>
    208e:	80 e2       	ldi	r24, 0x20	; 32
    2090:	01 c0       	rjmp	.+2      	; 0x2094 <vfprintf+0x35e>
    2092:	8b e2       	ldi	r24, 0x2B	; 43
    2094:	27 fd       	sbrc	r18, 7
    2096:	8d e2       	ldi	r24, 0x2D	; 45
    2098:	b7 01       	movw	r22, r14
    209a:	90 e0       	ldi	r25, 0x00	; 0
    209c:	50 d0       	rcall	.+160    	; 0x213e <fputc>
    209e:	a5 14       	cp	r10, r5
    20a0:	30 f4       	brcc	.+12     	; 0x20ae <vfprintf+0x378>
    20a2:	b7 01       	movw	r22, r14
    20a4:	80 e3       	ldi	r24, 0x30	; 48
    20a6:	90 e0       	ldi	r25, 0x00	; 0
    20a8:	4a d0       	rcall	.+148    	; 0x213e <fputc>
    20aa:	5a 94       	dec	r5
    20ac:	f8 cf       	rjmp	.-16     	; 0x209e <vfprintf+0x368>
    20ae:	aa 94       	dec	r10
    20b0:	f4 01       	movw	r30, r8
    20b2:	ea 0d       	add	r30, r10
    20b4:	f1 1d       	adc	r31, r1
    20b6:	80 81       	ld	r24, Z
    20b8:	b7 01       	movw	r22, r14
    20ba:	90 e0       	ldi	r25, 0x00	; 0
    20bc:	40 d0       	rcall	.+128    	; 0x213e <fputc>
    20be:	a1 10       	cpse	r10, r1
    20c0:	f6 cf       	rjmp	.-20     	; 0x20ae <vfprintf+0x378>
    20c2:	33 20       	and	r3, r3
    20c4:	09 f4       	brne	.+2      	; 0x20c8 <vfprintf+0x392>
    20c6:	5d ce       	rjmp	.-838    	; 0x1d82 <vfprintf+0x4c>
    20c8:	b7 01       	movw	r22, r14
    20ca:	80 e2       	ldi	r24, 0x20	; 32
    20cc:	90 e0       	ldi	r25, 0x00	; 0
    20ce:	37 d0       	rcall	.+110    	; 0x213e <fputc>
    20d0:	3a 94       	dec	r3
    20d2:	f7 cf       	rjmp	.-18     	; 0x20c2 <vfprintf+0x38c>
    20d4:	f7 01       	movw	r30, r14
    20d6:	86 81       	ldd	r24, Z+6	; 0x06
    20d8:	97 81       	ldd	r25, Z+7	; 0x07
    20da:	02 c0       	rjmp	.+4      	; 0x20e0 <vfprintf+0x3aa>
    20dc:	8f ef       	ldi	r24, 0xFF	; 255
    20de:	9f ef       	ldi	r25, 0xFF	; 255
    20e0:	2c 96       	adiw	r28, 0x0c	; 12
    20e2:	0f b6       	in	r0, 0x3f	; 63
    20e4:	f8 94       	cli
    20e6:	de bf       	out	0x3e, r29	; 62
    20e8:	0f be       	out	0x3f, r0	; 63
    20ea:	cd bf       	out	0x3d, r28	; 61
    20ec:	df 91       	pop	r29
    20ee:	cf 91       	pop	r28
    20f0:	1f 91       	pop	r17
    20f2:	0f 91       	pop	r16
    20f4:	ff 90       	pop	r15
    20f6:	ef 90       	pop	r14
    20f8:	df 90       	pop	r13
    20fa:	cf 90       	pop	r12
    20fc:	bf 90       	pop	r11
    20fe:	af 90       	pop	r10
    2100:	9f 90       	pop	r9
    2102:	8f 90       	pop	r8
    2104:	7f 90       	pop	r7
    2106:	6f 90       	pop	r6
    2108:	5f 90       	pop	r5
    210a:	4f 90       	pop	r4
    210c:	3f 90       	pop	r3
    210e:	2f 90       	pop	r2
    2110:	08 95       	ret

00002112 <strnlen_P>:
    2112:	fc 01       	movw	r30, r24
    2114:	05 90       	lpm	r0, Z+
    2116:	61 50       	subi	r22, 0x01	; 1
    2118:	70 40       	sbci	r23, 0x00	; 0
    211a:	01 10       	cpse	r0, r1
    211c:	d8 f7       	brcc	.-10     	; 0x2114 <strnlen_P+0x2>
    211e:	80 95       	com	r24
    2120:	90 95       	com	r25
    2122:	8e 0f       	add	r24, r30
    2124:	9f 1f       	adc	r25, r31
    2126:	08 95       	ret

00002128 <strnlen>:
    2128:	fc 01       	movw	r30, r24
    212a:	61 50       	subi	r22, 0x01	; 1
    212c:	70 40       	sbci	r23, 0x00	; 0
    212e:	01 90       	ld	r0, Z+
    2130:	01 10       	cpse	r0, r1
    2132:	d8 f7       	brcc	.-10     	; 0x212a <strnlen+0x2>
    2134:	80 95       	com	r24
    2136:	90 95       	com	r25
    2138:	8e 0f       	add	r24, r30
    213a:	9f 1f       	adc	r25, r31
    213c:	08 95       	ret

0000213e <fputc>:
    213e:	0f 93       	push	r16
    2140:	1f 93       	push	r17
    2142:	cf 93       	push	r28
    2144:	df 93       	push	r29
    2146:	18 2f       	mov	r17, r24
    2148:	09 2f       	mov	r16, r25
    214a:	eb 01       	movw	r28, r22
    214c:	8b 81       	ldd	r24, Y+3	; 0x03
    214e:	81 fd       	sbrc	r24, 1
    2150:	03 c0       	rjmp	.+6      	; 0x2158 <fputc+0x1a>
    2152:	8f ef       	ldi	r24, 0xFF	; 255
    2154:	9f ef       	ldi	r25, 0xFF	; 255
    2156:	20 c0       	rjmp	.+64     	; 0x2198 <fputc+0x5a>
    2158:	82 ff       	sbrs	r24, 2
    215a:	10 c0       	rjmp	.+32     	; 0x217c <fputc+0x3e>
    215c:	4e 81       	ldd	r20, Y+6	; 0x06
    215e:	5f 81       	ldd	r21, Y+7	; 0x07
    2160:	2c 81       	ldd	r18, Y+4	; 0x04
    2162:	3d 81       	ldd	r19, Y+5	; 0x05
    2164:	42 17       	cp	r20, r18
    2166:	53 07       	cpc	r21, r19
    2168:	7c f4       	brge	.+30     	; 0x2188 <fputc+0x4a>
    216a:	e8 81       	ld	r30, Y
    216c:	f9 81       	ldd	r31, Y+1	; 0x01
    216e:	9f 01       	movw	r18, r30
    2170:	2f 5f       	subi	r18, 0xFF	; 255
    2172:	3f 4f       	sbci	r19, 0xFF	; 255
    2174:	39 83       	std	Y+1, r19	; 0x01
    2176:	28 83       	st	Y, r18
    2178:	10 83       	st	Z, r17
    217a:	06 c0       	rjmp	.+12     	; 0x2188 <fputc+0x4a>
    217c:	e8 85       	ldd	r30, Y+8	; 0x08
    217e:	f9 85       	ldd	r31, Y+9	; 0x09
    2180:	81 2f       	mov	r24, r17
    2182:	19 95       	eicall
    2184:	89 2b       	or	r24, r25
    2186:	29 f7       	brne	.-54     	; 0x2152 <fputc+0x14>
    2188:	2e 81       	ldd	r18, Y+6	; 0x06
    218a:	3f 81       	ldd	r19, Y+7	; 0x07
    218c:	2f 5f       	subi	r18, 0xFF	; 255
    218e:	3f 4f       	sbci	r19, 0xFF	; 255
    2190:	3f 83       	std	Y+7, r19	; 0x07
    2192:	2e 83       	std	Y+6, r18	; 0x06
    2194:	81 2f       	mov	r24, r17
    2196:	90 2f       	mov	r25, r16
    2198:	df 91       	pop	r29
    219a:	cf 91       	pop	r28
    219c:	1f 91       	pop	r17
    219e:	0f 91       	pop	r16
    21a0:	08 95       	ret

000021a2 <__ultoa_invert>:
    21a2:	fa 01       	movw	r30, r20
    21a4:	aa 27       	eor	r26, r26
    21a6:	28 30       	cpi	r18, 0x08	; 8
    21a8:	51 f1       	breq	.+84     	; 0x21fe <__ultoa_invert+0x5c>
    21aa:	20 31       	cpi	r18, 0x10	; 16
    21ac:	81 f1       	breq	.+96     	; 0x220e <__stack+0xf>
    21ae:	e8 94       	clt
    21b0:	6f 93       	push	r22
    21b2:	6e 7f       	andi	r22, 0xFE	; 254
    21b4:	6e 5f       	subi	r22, 0xFE	; 254
    21b6:	7f 4f       	sbci	r23, 0xFF	; 255
    21b8:	8f 4f       	sbci	r24, 0xFF	; 255
    21ba:	9f 4f       	sbci	r25, 0xFF	; 255
    21bc:	af 4f       	sbci	r26, 0xFF	; 255
    21be:	b1 e0       	ldi	r27, 0x01	; 1
    21c0:	3e d0       	rcall	.+124    	; 0x223e <__stack+0x3f>
    21c2:	b4 e0       	ldi	r27, 0x04	; 4
    21c4:	3c d0       	rcall	.+120    	; 0x223e <__stack+0x3f>
    21c6:	67 0f       	add	r22, r23
    21c8:	78 1f       	adc	r23, r24
    21ca:	89 1f       	adc	r24, r25
    21cc:	9a 1f       	adc	r25, r26
    21ce:	a1 1d       	adc	r26, r1
    21d0:	68 0f       	add	r22, r24
    21d2:	79 1f       	adc	r23, r25
    21d4:	8a 1f       	adc	r24, r26
    21d6:	91 1d       	adc	r25, r1
    21d8:	a1 1d       	adc	r26, r1
    21da:	6a 0f       	add	r22, r26
    21dc:	71 1d       	adc	r23, r1
    21de:	81 1d       	adc	r24, r1
    21e0:	91 1d       	adc	r25, r1
    21e2:	a1 1d       	adc	r26, r1
    21e4:	20 d0       	rcall	.+64     	; 0x2226 <__stack+0x27>
    21e6:	09 f4       	brne	.+2      	; 0x21ea <__ultoa_invert+0x48>
    21e8:	68 94       	set
    21ea:	3f 91       	pop	r19
    21ec:	2a e0       	ldi	r18, 0x0A	; 10
    21ee:	26 9f       	mul	r18, r22
    21f0:	11 24       	eor	r1, r1
    21f2:	30 19       	sub	r19, r0
    21f4:	30 5d       	subi	r19, 0xD0	; 208
    21f6:	31 93       	st	Z+, r19
    21f8:	de f6       	brtc	.-74     	; 0x21b0 <__ultoa_invert+0xe>
    21fa:	cf 01       	movw	r24, r30
    21fc:	08 95       	ret
    21fe:	46 2f       	mov	r20, r22
    2200:	47 70       	andi	r20, 0x07	; 7
    2202:	40 5d       	subi	r20, 0xD0	; 208
    2204:	41 93       	st	Z+, r20
    2206:	b3 e0       	ldi	r27, 0x03	; 3
    2208:	0f d0       	rcall	.+30     	; 0x2228 <__stack+0x29>
    220a:	c9 f7       	brne	.-14     	; 0x21fe <__ultoa_invert+0x5c>
    220c:	f6 cf       	rjmp	.-20     	; 0x21fa <__ultoa_invert+0x58>
    220e:	46 2f       	mov	r20, r22
    2210:	4f 70       	andi	r20, 0x0F	; 15
    2212:	40 5d       	subi	r20, 0xD0	; 208
    2214:	4a 33       	cpi	r20, 0x3A	; 58
    2216:	18 f0       	brcs	.+6      	; 0x221e <__stack+0x1f>
    2218:	49 5d       	subi	r20, 0xD9	; 217
    221a:	31 fd       	sbrc	r19, 1
    221c:	40 52       	subi	r20, 0x20	; 32
    221e:	41 93       	st	Z+, r20
    2220:	02 d0       	rcall	.+4      	; 0x2226 <__stack+0x27>
    2222:	a9 f7       	brne	.-22     	; 0x220e <__stack+0xf>
    2224:	ea cf       	rjmp	.-44     	; 0x21fa <__ultoa_invert+0x58>
    2226:	b4 e0       	ldi	r27, 0x04	; 4
    2228:	a6 95       	lsr	r26
    222a:	97 95       	ror	r25
    222c:	87 95       	ror	r24
    222e:	77 95       	ror	r23
    2230:	67 95       	ror	r22
    2232:	ba 95       	dec	r27
    2234:	c9 f7       	brne	.-14     	; 0x2228 <__stack+0x29>
    2236:	00 97       	sbiw	r24, 0x00	; 0
    2238:	61 05       	cpc	r22, r1
    223a:	71 05       	cpc	r23, r1
    223c:	08 95       	ret
    223e:	9b 01       	movw	r18, r22
    2240:	ac 01       	movw	r20, r24
    2242:	0a 2e       	mov	r0, r26
    2244:	06 94       	lsr	r0
    2246:	57 95       	ror	r21
    2248:	47 95       	ror	r20
    224a:	37 95       	ror	r19
    224c:	27 95       	ror	r18
    224e:	ba 95       	dec	r27
    2250:	c9 f7       	brne	.-14     	; 0x2244 <__stack+0x45>
    2252:	62 0f       	add	r22, r18
    2254:	73 1f       	adc	r23, r19
    2256:	84 1f       	adc	r24, r20
    2258:	95 1f       	adc	r25, r21
    225a:	a0 1d       	adc	r26, r0
    225c:	08 95       	ret

0000225e <_exit>:
    225e:	f8 94       	cli

00002260 <__stop_program>:
    2260:	ff cf       	rjmp	.-2      	; 0x2260 <__stop_program>
