Archive member included because of file (symbol)

c:/program files (x86)/atmel/atmel toolchain/avr8 gcc/native/3.4.1061/avr8-gnu-toolchain/bin/../lib/gcc/avr/4.8.1/avr6\libgcc.a(_exit.o)
                              c:/program files (x86)/atmel/atmel toolchain/avr8 gcc/native/3.4.1061/avr8-gnu-toolchain/bin/../lib/gcc/avr/4.8.1/../../../../avr/lib/avr6/crtm2560.o (exit)
c:/program files (x86)/atmel/atmel toolchain/avr8 gcc/native/3.4.1061/avr8-gnu-toolchain/bin/../lib/gcc/avr/4.8.1/avr6\libgcc.a(_tablejump.o)
                              os.o (__tablejump2__)
c:/program files (x86)/atmel/atmel toolchain/avr8 gcc/native/3.4.1061/avr8-gnu-toolchain/bin/../lib/gcc/avr/4.8.1/avr6\libgcc.a(_copy_data.o)
                              cops_and_robbers.o (__do_copy_data)
c:/program files (x86)/atmel/atmel toolchain/avr8 gcc/native/3.4.1061/avr8-gnu-toolchain/bin/../lib/gcc/avr/4.8.1/avr6\libgcc.a(_clear_bss.o)
                              ir/ir.o (__do_clear_bss)
c:/program files (x86)/atmel/atmel toolchain/avr8 gcc/native/3.4.1061/avr8-gnu-toolchain/bin/../lib/gcc/avr/4.8.1/../../../../avr/lib/avr6\libc.a(sprintf.o)
                              trace/trace.o (sprintf)
c:/program files (x86)/atmel/atmel toolchain/avr8 gcc/native/3.4.1061/avr8-gnu-toolchain/bin/../lib/gcc/avr/4.8.1/../../../../avr/lib/avr6\libc.a(vfprintf_std.o)
                              c:/program files (x86)/atmel/atmel toolchain/avr8 gcc/native/3.4.1061/avr8-gnu-toolchain/bin/../lib/gcc/avr/4.8.1/../../../../avr/lib/avr6\libc.a(sprintf.o) (vfprintf)
c:/program files (x86)/atmel/atmel toolchain/avr8 gcc/native/3.4.1061/avr8-gnu-toolchain/bin/../lib/gcc/avr/4.8.1/../../../../avr/lib/avr6\libc.a(strnlen_P.o)
                              c:/program files (x86)/atmel/atmel toolchain/avr8 gcc/native/3.4.1061/avr8-gnu-toolchain/bin/../lib/gcc/avr/4.8.1/../../../../avr/lib/avr6\libc.a(vfprintf_std.o) (strnlen_P)
c:/program files (x86)/atmel/atmel toolchain/avr8 gcc/native/3.4.1061/avr8-gnu-toolchain/bin/../lib/gcc/avr/4.8.1/../../../../avr/lib/avr6\libc.a(strnlen.o)
                              c:/program files (x86)/atmel/atmel toolchain/avr8 gcc/native/3.4.1061/avr8-gnu-toolchain/bin/../lib/gcc/avr/4.8.1/../../../../avr/lib/avr6\libc.a(vfprintf_std.o) (strnlen)
c:/program files (x86)/atmel/atmel toolchain/avr8 gcc/native/3.4.1061/avr8-gnu-toolchain/bin/../lib/gcc/avr/4.8.1/../../../../avr/lib/avr6\libc.a(fputc.o)
                              c:/program files (x86)/atmel/atmel toolchain/avr8 gcc/native/3.4.1061/avr8-gnu-toolchain/bin/../lib/gcc/avr/4.8.1/../../../../avr/lib/avr6\libc.a(vfprintf_std.o) (fputc)
c:/program files (x86)/atmel/atmel toolchain/avr8 gcc/native/3.4.1061/avr8-gnu-toolchain/bin/../lib/gcc/avr/4.8.1/../../../../avr/lib/avr6\libc.a(ultoa_invert.o)
                              c:/program files (x86)/atmel/atmel toolchain/avr8 gcc/native/3.4.1061/avr8-gnu-toolchain/bin/../lib/gcc/avr/4.8.1/../../../../avr/lib/avr6\libc.a(vfprintf_std.o) (__ultoa_invert)

Allocating common symbols
Common symbol       size              file

trace_array         0x200             trace/trace.o
trace_buffer        0x20              trace/trace.o

Discarded input sections

 .data          0x00000000        0x0 c:/program files (x86)/atmel/atmel toolchain/avr8 gcc/native/3.4.1061/avr8-gnu-toolchain/bin/../lib/gcc/avr/4.8.1/../../../../avr/lib/avr6/crtm2560.o
 .bss           0x00000000        0x0 c:/program files (x86)/atmel/atmel toolchain/avr8 gcc/native/3.4.1061/avr8-gnu-toolchain/bin/../lib/gcc/avr/4.8.1/../../../../avr/lib/avr6/crtm2560.o
 .text          0x00000000        0x0 cops_and_robbers.o
 .data          0x00000000        0x0 cops_and_robbers.o
 .bss           0x00000000        0x0 cops_and_robbers.o
 .data.ROOMBA_FREQUENCIES
                0x00000000        0x4 cops_and_robbers.o
 .text          0x00000000        0x0 ir/ir.o
 .data          0x00000000        0x0 ir/ir.o
 .bss           0x00000000        0x0 ir/ir.o
 .bss.outputByte
                0x00000000        0x1 ir/ir.o
 .text          0x00000000        0x0 os.o
 .data          0x00000000        0x0 os.o
 .bss           0x00000000        0x0 os.o
 .text.Task_Create_System
                0x00000000       0x38 os.o
 .text._delay_25ms
Memory Configuration

Name             Origin             Length             Attributes
text             0x00000000         0x00100000         xr
data             0x00800200         0x0000fe00         rw !x
eeprom           0x00810000         0x00010000         rw !x
fuse             0x00820000         0x00000400         rw !x
lock             0x00830000         0x00000400         rw !x
signature        0x00840000         0x00000400         rw !x
user_signatures  0x00850000         0x00000400         rw !x
*default*        0x00000000         0xffffffff

Linker script and memory map

Address of section .data set to 0x800200
LOAD c:/program files (x86)/atmel/atmel toolchain/avr8 gcc/native/3.4.1061/avr8-gnu-toolchain/bin/../lib/gcc/avr/4.8.1/../../../../avr/lib/avr6/crtm2560.o
LOAD cops_and_robbers.o
LOAD ir/ir.o
LOAD os.o
LOAD radio/radio.o
LOAD radio/spi.o
LOAD RoombaVer3.o
LOAD roomba/roomba.o
LOAD timer.o
LOAD trace/trace.o
LOAD uart/uart.o
LOAD usart.o
START GROUP
LOAD c:/program files (x86)/atmel/atmel toolchain/avr8 gcc/native/3.4.1061/avr8-gnu-toolchain/bin/../lib/gcc/avr/4.8.1/../../../../avr/lib/avr6\libm.a
LOAD c:/program files (x86)/atmel/atmel toolchain/avr8 gcc/native/3.4.1061/avr8-gnu-toolchain/bin/../lib/gcc/avr/4.8.1/../../../../avr/lib/avr6\libprintf_flt.a
LOAD c:/program files (x86)/atmel/atmel toolchain/avr8 gcc/native/3.4.1061/avr8-gnu-toolchain/bin/../lib/gcc/avr/4.8.1/../../../../avr/lib/avr6\libprintf_min.a
LOAD c:/program files (x86)/atmel/atmel toolchain/avr8 gcc/native/3.4.1061/avr8-gnu-toolchain/bin/../lib/gcc/avr/4.8.1/../../../../avr/lib/avr6\libscanf_flt.a
LOAD c:/program files (x86)/atmel/atmel toolchain/avr8 gcc/native/3.4.1061/avr8-gnu-toolchain/bin/../lib/gcc/avr/4.8.1/../../../../avr/lib/avr6\libscanf_min.a
END GROUP
LOAD c:/program files (x86)/atmel/atmel toolchain/avr8 gcc/native/3.4.1061/avr8-gnu-toolchain/bin/../lib/gcc/avr/4.8.1/avr6\libgcc.a
LOAD c:/program files (x86)/atmel/atmel toolchain/avr8 gcc/native/3.4.1061/avr8-gnu-toolchain/bin/../lib/gcc/avr/4.8.1/../../../../avr/lib/avr6\libm.a
START GROUP
LOAD c:/program files (x86)/atmel/atmel toolchain/avr8 gcc/native/3.4.1061/avr8-gnu-toolchain/bin/../lib/gcc/avr/4.8.1/avr6\libgcc.a
LOAD c:/program files (x86)/atmel/atmel toolchain/avr8 gcc/native/3.4.1061/avr8-gnu-toolchain/bin/../lib/gcc/avr/4.8.1/../../../../avr/lib/avr6\libm.a
LOAD c:/program files (x86)/atmel/atmel toolchain/avr8 gcc/native/3.4.1061/avr8-gnu-toolchain/bin/../lib/gcc/avr/4.8.1/../../../../avr/lib/avr6\libc.a
END GROUP

.hash
 *(.hash)

.dynsym
 *(.dynsym)

.dynstr
 *(.dynstr)

.gnu.version
 *(.gnu.version)

.gnu.version_d
 *(.gnu.version_d)

.gnu.version_r
 *(.gnu.version_r)

.rel.init
 *(.rel.init)

.rela.init
 *(.rela.init)

.rel.text
 *(.rel.text)
 *(.rel.text.*)
 *(.rel.gnu.linkonce.t*)

.rela.text
 *(.rela.text)
 *(.rela.text.*)
 *(.rela.gnu.linkonce.t*)

.rel.fini
 *(.rel.fini)

.rela.fini
 *(.rela.fini)

.rel.rodata
 *(.rel.rodata)
 *(.rel.rodata.*)
 *(.rel.gnu.linkonce.r*)

.rela.rodata
 *(.rela.rodata)
 *(.rela.rodata.*)
 *(.rela.gnu.linkonce.r*)

.rel.data
 *(.rel.data)
 *(.rel.data.*)
 *(.rel.gnu.linkonce.d*)

.rela.data
 *(.rela.data)
 *(.rela.data.*)
 *(.rela.gnu.linkonce.d*)

.rel.ctors
 *(.rel.ctors)

.rela.ctors
 *(.rela.ctors)

.rel.dtors
 *(.rel.dtors)

.rela.dtors
 *(.rela.dtors)

.rel.got
 *(.rel.got)

.rela.got
 *(.rela.got)

.rel.bss
 *(.rel.bss)

.rela.bss
 *(.rela.bss)

.rel.plt
 *(.rel.plt)

.rela.plt
 *(.rela.plt)

.text           0x00000000     0x2262
 *(.vectors)
 .vectors       0x00000000       0xe4 c:/program files (x86)/atmel/atmel toolchain/avr8 gcc/native/3.4.1061/avr8-gnu-toolchain/bin/../lib/gcc/avr/4.8.1/../../../../avr/lib/avr6/crtm2560.o
                0x00000000                __vector_default
                0x00000000                __vectors
 *(.vectors)
 *(.progmem.gcc*)
 .progmem.gcc_sw_table._Z7OS_Initv
                0x000000e4       0x12 os.o
                0x000000f6                . = ALIGN (0x2)
                0x000000f6                __trampolines_start = .
 *(.trampolines)
 .trampolines   0x000000f6        0x0 linker stubs
 *(.trampolines*)
                0x000000f6                __trampolines_end = .
 *(.progmem*)
                0x000000f6                . = ALIGN (0x2)
 *(.jumptables)
 *(.jumptables*)
 *(.lowtext)
 *(.lowtext*)
                0x000000f6                __ctors_start = .
 *(.ctors)
                0x000000f6                __ctors_end = .
                0x000000f6                __dtors_start = .
 *(.dtors)
                0x000000f6                __dtors_end = .
 SORT(*)(.ctors)
 SORT(*)(.dtors)
 *(.init0)
 .init0         0x000000f6        0x0 c:/program files (x86)/atmel/atmel toolchain/avr8 gcc/native/3.4.1061/avr8-gnu-toolchain/bin/../lib/gcc/avr/4.8.1/../../../../avr/lib/avr6/crtm2560.o
                0x000000f6                __init
 *(.init0)
 *(.init1)
 *(.init1)
 *(.init2)
 .init2         0x000000f6       0x10 c:/program files (x86)/atmel/atmel toolchain/avr8 gcc/native/3.4.1061/avr8-gnu-toolchain/bin/../lib/gcc/avr/4.8.1/../../../../avr/lib/avr6/crtm2560.o
 *(.init2)
 *(.init3)
 *(.init3)
 *(.init4)
 .init4         0x00000106       0x1a c:/program files (x86)/atmel/atmel toolchain/avr8 gcc/native/3.4.1061/avr8-gnu-toolchain/bin/../lib/gcc/avr/4.8.1/avr6\libgcc.a(_copy_data.o)
                0x00000106                __do_copy_data
 .init4         0x00000120       0x10 c:/program files (x86)/atmel/atmel toolchain/avr8 gcc/native/3.4.1061/avr8-gnu-toolchain/bin/../lib/gcc/avr/4.8.1/avr6\libgcc.a(_clear_bss.o)
                0x00000120                __do_clear_bss
 *(.init4)
 *(.init5)
 *(.init5)
 *(.init6)
 *(.init6)
 *(.init7)
 *(.init7)
 *(.init8)
 *(.init8)
 *(.init9)
 .init9         0x00000130        0x6 c:/program files (x86)/atmel/atmel toolchain/avr8 gcc/native/3.4.1061/avr8-gnu-toolchain/bin/../lib/gcc/avr/4.8.1/../../../../avr/lib/avr6/crtm2560.o
 *(.init9)
 *(.text)
 .text          0x00000136        0x2 c:/program files (x86)/atmel/atmel toolchain/avr8 gcc/native/3.4.1061/avr8-gnu-toolchain/bin/../lib/gcc/avr/4.8.1/../../../../avr/lib/avr6/crtm2560.o
                0x00000136                __vector_38
                0x00000136                __vector_22
                0x00000136                __vector_28
                0x00000136                __vector_1
                0x00000136                __vector_34
                0x00000136                __vector_24
                0x00000136                __vector_12
                0x00000136                __vector_55
                0x00000136                __vector_46
                0x00000136                __bad_interrupt
                0x00000136                __vector_31
                0x00000136                __vector_35
                0x00000136                __vector_39
                0x00000136                __vector_3
                0x00000136                __vector_23
                0x00000136                __vector_30
                0x00000136                __vector_45
                0x00000136                __vector_25
                0x00000136                __vector_11
                0x00000136                __vector_54
                0x00000136                __vector_13
                0x00000136                __vector_19
                0x00000136                __vector_56
                0x00000136                __vector_7
                0x00000136                __vector_49
                0x00000136                __vector_41
                0x00000136                __vector_43
                0x00000136                __vector_27
                0x00000136                __vector_33
                0x00000136                __vector_47
                0x00000136                __vector_52
                0x00000136                __vector_37
                0x00000136                __vector_4
                0x00000136                __vector_44
                0x00000136                __vector_51
                0x00000136                __vector_9
                0x00000136                __vector_2
                0x00000136                __vector_21
                0x00000136                __vector_15
                0x00000136                __vector_29
                0x00000136                __vector_40
                0x00000136                __vector_8
                0x00000136                __vector_26
                0x00000136                __vector_48
                0x00000136                __vector_14
                0x00000136                __vector_53
                0x00000136                __vector_10
                0x00000136                __vector_50
                0x00000136                __vector_16
                0x00000136                __vector_18
                0x00000136                __vector_20
                0x00000136                __vector_42
                0x00000138                . = ALIGN (0x2)
 *(.text.*)
 .text._Z7IR_initv
                0x00000138       0x60 ir/ir.o
                0x00000138                _Z7IR_initv
 .text.__vector_6
                0x00000198       0x62 ir/ir.o
                0x00000198                __vector_6
 .text.__vector_32
                0x000001fa       0x96 ir/ir.o
                0x000001fa                __vector_32
 .text._Z15enable_interuptv
                0x00000290        0x6 ir/ir.o
                0x00000290                _Z15enable_interuptv
 .text._Z16disable_interuptv
                0x00000296       0x14 ir/ir.o
                0x00000296                _Z16disable_interuptv
 .text._Z4markv
                0x000002aa       0x14 ir/ir.o
                0x000002aa                _Z4markv
 .text._Z5spacev
                0x000002be       0x14 ir/ir.o
                0x000002be                _Z5spacev
 .text._Z11IR_transmith
                0x000002d2       0x48 ir/ir.o
                0x000002d2                _Z11IR_transmith
 .text._ZL4idlev
                0x0000031a        0x2 os.o
 .text._ZL11exit_kernelv
                0x0000031c       0xb2 os.o
 .text._ZL12enter_kernelv
                0x000003ce       0xb2 os.o
 .text._ZL7enqueueP7queue_tP9td_struct
                0x00000480       0x30 os.o
 .text._ZL7dequeueP7queue_t
                0x000004b0       0x20 os.o
 .text.Task_Terminate
                0x000004d0       0x14 os.o
                0x000004d0                Task_Terminate
 .text.__vector_17
                0x000004e4       0xd6 os.o
                0x000004e4                __vector_17
 .text.OS_Abort
                0x000005ba       0x5e os.o
                0x000005ba                OS_Abort
 .text._ZL18kernel_create_taskv
                0x00000618      0x308 os.o
 .text._Z7OS_Initv
                0x00000920      0x6ca os.o
                0x00000920                _Z7OS_Initv
 .text.Task_Create_RR
                0x00000fea       0x36 os.o
                0x00000fea                Task_Create_RR
 .text.Task_Create_Periodic
                0x00001020       0x54 os.o
                0x00001020                Task_Create_Periodic
 .text.Now      0x00001074       0x2e os.o
                0x00001074                Now
 .text.Service_Init
                0x000010a2       0x28 os.o
                0x000010a2                Service_Init
 .text.Service_Subscribe
                0x000010ca       0x24 os.o
                0x000010ca                Service_Subscribe
 .text.Service_Publish
                0x000010ee       0x28 os.o
                0x000010ee                Service_Publish
 .text.main     0x00001116       0x20 os.o
                0x00001116                main
 .text._ZL10get_statusv
                0x00001136       0x1e radio/radio.o
 .text._ZL12set_registerhPhh
                0x00001154       0x3e radio/radio.o
 .text._ZL19reset_pipe0_addressv
                0x00001192       0x14 radio/radio.o
 .text._ZL16send_instructionhPhS_h
                0x000011a6       0x4a radio/radio.o
 .text._ZL12get_registerhPhh
                0x000011f0       0x5a radio/radio.o
 .text._ZL11set_rx_modev
                0x0000124a       0x44 radio/radio.o
 .text._Z10Radio_Initv
                0x0000128e       0xfc radio/radio.o
                0x0000128e                _Z10Radio_Initv
 .text._Z18Radio_Configure_Rx11_radio_pipePh3_ed
                0x0000138a      0x114 radio/radio.o
                0x0000138a                _Z18Radio_Configure_Rx11_radio_pipePh3_ed
 .text._Z17Radio_Set_Tx_AddrPh
                0x0000149e       0x2a radio/radio.o
                0x0000149e                _Z17Radio_Set_Tx_AddrPh
 .text._Z15Radio_Configure9_radio_dr15_radio_tx_power
                0x000014c8       0x54 radio/radio.o
                0x000014c8                _Z15Radio_Configure9_radio_dr15_radio_tx_power
 .text._Z14Radio_TransmitP3_rp14_radio_tx_wait
                0x0000151c       0xaa radio/radio.o
                0x0000151c                _Z14Radio_TransmitP3_rp14_radio_tx_wait
 .text._Z13Radio_ReceiveP3_rp
                0x000015c6       0x6a radio/radio.o
                0x000015c6                _Z13Radio_ReceiveP3_rp
 .text.__vector_5
                0x00001630      0x108 radio/radio.o
                0x00001630                __vector_5
 .text._Z8SPI_Initv
                0x00001738       0x1a radio/spi.o
                0x00001738                _Z8SPI_Initv
 .text._Z19SPI_ReadWrite_BlockPhS_h
                0x00001752       0x26 radio/spi.o
                0x00001752                _Z19SPI_ReadWrite_BlockPhS_h
 .text._Z15SPI_Write_BlockPhh
                0x00001778       0x1e radio/spi.o
                0x00001778                _Z15SPI_Write_BlockPhh
 .text._Z14SPI_Write_Byteh
                0x00001796        0xc radio/spi.o
                0x00001796                _Z14SPI_Write_Byteh
 .text.per_roomba_timeout
                0x000017a2       0x30 RoombaVer3.o
                0x000017a2                per_roomba_timeout
 .text.roomba_Drive
                0x000017d2       0x2e RoombaVer3.o
                0x000017d2                roomba_Drive
 .text._Z15radio_rxhandlerh
                0x00001800       0x10 RoombaVer3.o
                0x00001800                _Z15radio_rxhandlerh
 .text.handleRoombaPacket
                0x00001810       0x80 RoombaVer3.o
                0x00001810                handleRoombaPacket
 .text.handleIRPacket
                0x00001890       0x2c RoombaVer3.o
                0x00001890                handleIRPacket
 .text.handleStatusPacket
                0x000018bc       0x30 RoombaVer3.o
                0x000018bc                handleStatusPacket
 .text.rr_roomba_controler
                0x000018ec       0x8c RoombaVer3.o
                0x000018ec                rr_roomba_controler
 .text.r_main   0x00001978       0xee RoombaVer3.o
                0x00001978                r_main
 .text._Z11Roomba_Initv
                0x00001a66       0x4e roomba/roomba.o
                0x00001a66                _Z11Roomba_Initv
 .text._Z13Roomba_Finishv
                0x00001ab4        0x6 roomba/roomba.o
                0x00001ab4                _Z13Roomba_Finishv
 .text._Z11timer_valuePV8os_timer
                0x00001aba       0x34 timer.o
                0x00001aba                _Z11timer_valuePV8os_timer
 .text._Z11timer_resetPV8os_timer
                0x00001aee       0x12 timer.o
                0x00001aee                _Z11timer_resetPV8os_timer
 .text._Z11timer_pausePV8os_timer
                0x00001b00       0x36 timer.o
                0x00001b00                _Z11timer_pausePV8os_timer
 .text._Z12timer_resumePV8os_timer
                0x00001b36       0x24 timer.o
                0x00001b36                _Z12timer_resumePV8os_timer
 .text._Z16Roomba_Send_Byteh
                0x00001b5a       0x10 uart/uart.o
                0x00001b5a                _Z16Roomba_Send_Byteh
 .text._Z16Roomba_UART_Init9_uart_bps
                0x00001b6a       0x80 uart/uart.o
                0x00001b6a                _Z16Roomba_UART_Init9_uart_bps
 .text.__vector_36
                0x00001bea       0x4c uart/uart.o
                0x00001bea                __vector_36
 .text._Z10USART_Initj
                0x00001c36       0x16 usart.o
                0x00001c36                _Z10USART_Initj
 .text._Z14USART_Sendbyteh
                0x00001c4c       0x10 usart.o
                0x00001c4c                _Z14USART_Sendbyteh
 .text._Z17USART_Send_stringPKc
                0x00001c5c       0x1c usart.o
                0x00001c5c                _Z17USART_Send_stringPKc
 .text._Z14USART_Send_intj
                0x00001c78       0x56 usart.o
                0x00001c78                _Z14USART_Send_intj
 .text.libgcc   0x00001cce        0xc c:/program files (x86)/atmel/atmel toolchain/avr8 gcc/native/3.4.1061/avr8-gnu-toolchain/bin/../lib/gcc/avr/4.8.1/avr6\libgcc.a(_tablejump.o)
                0x00001cce                __tablejump2__
                0x00001cd2                __tablejump__
 .text.avr-libc
                0x00001cda       0x5c c:/program files (x86)/atmel/atmel toolchain/avr8 gcc/native/3.4.1061/avr8-gnu-toolchain/bin/../lib/gcc/avr/4.8.1/../../../../avr/lib/avr6\libc.a(sprintf.o)
                0x00001cda                sprintf
 .text.avr-libc
                0x00001d36      0x3dc c:/program files (x86)/atmel/atmel toolchain/avr8 gcc/native/3.4.1061/avr8-gnu-toolchain/bin/../lib/gcc/avr/4.8.1/../../../../avr/lib/avr6\libc.a(vfprintf_std.o)
                0x00001d36                vfprintf
 .text.avr-libc
                0x00002112       0x16 c:/program files (x86)/atmel/atmel toolchain/avr8 gcc/native/3.4.1061/avr8-gnu-toolchain/bin/../lib/gcc/avr/4.8.1/../../../../avr/lib/avr6\libc.a(strnlen_P.o)
                0x00002112                strnlen_P
 .text.avr-libc
                0x00002128       0x16 c:/program files (x86)/atmel/atmel toolchain/avr8 gcc/native/3.4.1061/avr8-gnu-toolchain/bin/../lib/gcc/avr/4.8.1/../../../../avr/lib/avr6\libc.a(strnlen.o)
                0x00002128                strnlen
 .text.avr-libc
                0x0000213e       0x64 c:/program files (x86)/atmel/atmel toolchain/avr8 gcc/native/3.4.1061/avr8-gnu-toolchain/bin/../lib/gcc/avr/4.8.1/../../../../avr/lib/avr6\libc.a(fputc.o)
                0x0000213e                fputc
 .text.avr-libc
                0x000021a2       0xbc c:/program files (x86)/atmel/atmel toolchain/avr8 gcc/native/3.4.1061/avr8-gnu-toolchain/bin/../lib/gcc/avr/4.8.1/../../../../avr/lib/avr6\libc.a(ultoa_invert.o)
                0x000021a2                __ultoa_invert
                0x0000225e                . = ALIGN (0x2)
 *(.fini9)
 .fini9         0x0000225e        0x0 c:/program files (x86)/atmel/atmel toolchain/avr8 gcc/native/3.4.1061/avr8-gnu-toolchain/bin/../lib/gcc/avr/4.8.1/avr6\libgcc.a(_exit.o)
                0x0000225e                _exit
                0x0000225e                exit
 *(.fini9)
 *(.fini8)
 *(.fini8)
 *(.fini7)
 *(.fini7)
 *(.fini6)
 *(.fini6)
 *(.fini5)
 *(.fini5)
 *(.fini4)
 *(.fini4)
 *(.fini3)
 *(.fini3)
 *(.fini2)
 *(.fini2)
 *(.fini1)
 *(.fini1)
 *(.fini0)
 .fini0         0x0000225e        0x4 c:/program files (x86)/atmel/atmel toolchain/avr8 gcc/native/3.4.1061/avr8-gnu-toolchain/bin/../lib/gcc/avr/4.8.1/avr6\libgcc.a(_exit.o)
 *(.fini0)
                0x00002262                _etext = .

.data           0x00800200       0x46 load address 0x00002262
                0x00800200                PROVIDE (__data_start, .)
 *(.data)
 *(.data*)
 .data.ROOMBA_ADDRESSES
                0x00800200       0x14 cops_and_robbers.o
                0x00800200                ROOMBA_ADDRESSES
 .data._ZL9error_msg
                0x00800214        0x1 os.o
 .data._ZL14tx_last_status
                0x00800215        0x1 radio/radio.o
 .data._ZL10tx_history
                0x00800216        0x2 radio/radio.o
 .data._ZL16rx_pipe0_address
                0x00800218        0x5 radio/radio.o
 .data._ZL10tx_address
                0x0080021d        0x5 radio/radio.o
 .data._ZL14rx_pipe_widths
                0x00800222        0x6 radio/radio.o
 *(.rodata)
 *(.rodata*)
 .rodata.str1.1
                0x00800228       0x1a RoombaVer3.o
 .rodata.str1.1
                0x00800242        0x3 usart.o
 *(.gnu.linkonce.d*)
                0x00800246                . = ALIGN (0x2)
 *fill*         0x00800245        0x1 
                0x00800246                _edata = .
                0x00800246                PROVIDE (__data_end, .)

.bss            0x00800246     0x130a
                0x00800246                PROVIDE (__bss_start, .)
 *(.bss)
 *(.bss*)
 .bss.currentByte
                0x00800246        0x1 ir/ir.o
                0x00800246                currentByte
 .bss.currentBit
                0x00800247        0x1 ir/ir.o
                0x00800247                currentBit
 .bss.is_transmitting
                0x00800248        0x1 ir/ir.o
                0x00800248                is_transmitting
 .bss.is_receiving
                0x00800249        0x1 ir/ir.o
                0x00800249                is_receiving
 .bss._ZL16TICKS_SINCE_INIT
                0x0080024a        0x2 os.o
 .bss._ZL13periodic_task
                0x0080024c        0x2 os.o
 .bss._ZL18slot_task_finished
                0x0080024e        0x1 os.o
 .bss._ZL18total_period_delta
                0x0080024f        0x2 os.o
 .bss._ZL11terminating
                0x00800251        0x1 os.o
 .bss._ZL7waiting
                0x00800252        0x1 os.o
 .bss._ZL15ticks_remaining
                0x00800253        0x1 os.o
 .bss._ZL13service_queue
                0x00800254       0x20 os.o
 .bss._ZL14periodic_queue
                0x00800274        0x4 os.o
 .bss._ZL12system_queue
                0x00800278        0x4 os.o
 .bss._ZL8rr_queue
                0x0080027c        0x4 os.o
 .bss._ZL20num_services_created
                0x00800280        0x1 os.o
 .bss._ZL15dead_pool_queue
                0x00800281        0x4 os.o
 .bss._ZL24kernel_request_service_v
                0x00800285        0x2 os.o
 .bss._ZL26kernel_request_service_ptr
                0x00800287        0x2 os.o
 .bss._ZL21kernel_request_retval
                0x00800289        0x2 os.o
 .bss._ZL26kernel_request_create_args
                0x0080028b        0xb os.o
 .bss._ZL14kernel_request
                0x00800296        0x1 os.o
 .bss._ZL9task_desc
                0x00800297     0x1287 os.o
 .bss._ZL9kernel_sp
                0x0080151e        0x2 os.o
 .bss._ZL8cur_task
                0x00801520        0x2 os.o
 .bss._ZL13transmit_lock
                0x00801522        0x1 radio/radio.o
 .bss.current_roomba_status
                0x00801523        0x1 RoombaVer3.o
                0x00801523                current_roomba_status
 .bss.roomba_num
                0x00801524        0x1 RoombaVer3.o
                0x00801524                roomba_num
 .bss.is_roomba_timedout
                0x00801525        0x1 RoombaVer3.o
                0x00801525                is_roomba_timedout
 .bss.roomba_timeout_timer
                0x00801526        0x5 RoombaVer3.o
                0x00801526                roomba_timeout_timer
 .bss.ir_receive_service
                0x0080152b        0x2 RoombaVer3.o
                0x0080152b                ir_receive_service
 .bss.radio_receive_service
                0x0080152d        0x2 RoombaVer3.o
                0x0080152d                radio_receive_service
 .bss._ZL17uart_buffer_index
                0x0080152f        0x1 uart/uart.o
 .bss._ZL11uart_buffer
                0x00801530       0x20 uart/uart.o
 *(COMMON)
                0x00801550                PROVIDE (__bss_end, .)
                0x00002262                __data_load_start = LOADADDR (.data)
                0x000022a8                __data_load_end = (__data_load_start + SIZEOF (.data))

.noinit         0x00801550        0x0
                0x00801550                PROVIDE (__noinit_start, .)
 *(.noinit*)
                0x00801550                PROVIDE (__noinit_end, .)
                0x00801550                _end = .
                0x00801550                PROVIDE (__heap_start, .)

.eeprom         0x00810000        0x0
 *(.eeprom*)
                0x00810000                __eeprom_end = .

.fuse
 *(.fuse)
 *(.lfuse)
 *(.hfuse)
 *(.efuse)

.lock
 *(.lock*)

.signature
 *(.signature*)

.user_signatures
 *(.user_signatures*)

.stab
 *(.stab)

.stabstr
 *(.stabstr)

.stab.excl
 *(.stab.excl)

.stab.exclstr
 *(.stab.exclstr)

.stab.index
 *(.stab.index)

.stab.indexstr
 *(.stab.indexstr)

.comment        0x00000000       0x5c
 *(.comment)
 .comment       0x00000000       0x30 cops_and_robbers.o
                                 0x31 (size before relaxing)
 .comment       0x00000000       0x31 ir/ir.o
 .comment       0x00000000       0x31 os.o
 .comment       0x00000000       0x31 radio/radio.o
 .comment       0x00000000       0x31 radio/spi.o
 .comment       0x00000000       0x31 RoombaVer3.o
 .comment       0x00000000       0x31 roomba/roomba.o
 .comment       0x00000000       0x31 timer.o
 .comment       0x00000000       0x31 uart/uart.o
 .comment       0x00000000       0x31 usart.o
 .comment       0x00000000       0x31 c:/program files (x86)/atmel/atmel toolchain/avr8 gcc/native/3.4.1061/avr8-gnu-toolchain/bin/../lib/gcc/avr/4.8.1/../../../../avr/lib/avr6\libc.a(sprintf.o)
 .comment       0x00000030       0x2c c:/program files (x86)/atmel/atmel toolchain/avr8 gcc/native/3.4.1061/avr8-gnu-toolchain/bin/../lib/gcc/avr/4.8.1/../../../../avr/lib/avr6\libc.a(vfprintf_std.o)
                                 0x2d (size before relaxing)
 .comment       0x00000000       0x31 c:/program files (x86)/atmel/atmel toolchain/avr8 gcc/native/3.4.1061/avr8-gnu-toolchain/bin/../lib/gcc/avr/4.8.1/../../../../avr/lib/avr6\libc.a(fputc.o)

.note.gnu.build-id
 *(.note.gnu.build-id)

.debug
 *(.debug)

.line
 *(.line)

.debug_srcinfo
 *(.debug_srcinfo)

.debug_sfnames
 *(.debug_sfnames)

.debug_aranges  0x00000000      0x350
 *(.debug_aranges)
 .debug_aranges
                0x00000000       0x18 cops_and_robbers.o
 .debug_aranges
                0x00000018       0x58 ir/ir.o
 .debug_aranges
                0x00000070       0xc0 os.o
 .debug_aranges
                0x00000130       0x90 radio/radio.o
 .debug_aranges
                0x000001c0       0x38 radio/spi.o
 .debug_aranges
                0x000001f8       0x60 RoombaVer3.o
 .debug_aranges
                0x00000258       0x38 roomba/roomba.o
 .debug_aranges
                0x00000290       0x38 timer.o
 .debug_aranges
                0x000002c8       0x48 uart/uart.o
 .debug_aranges
                0x00000310       0x40 usart.o

.debug_pubnames
 *(.debug_pubnames)

.debug_info     0x00000000     0x48fb
 *(.debug_info .gnu.linkonce.wi.*)
 .debug_info    0x00000000       0xa7 cops_and_robbers.o
 .debug_info    0x000000a7      0x2cf ir/ir.o
 .debug_info    0x00000376     0x1066 os.o
 .debug_info    0x000013dc     0x13a8 radio/radio.o
 .debug_info    0x00002784      0x174 radio/spi.o
 .debug_info    0x000028f8     0x10f0 RoombaVer3.o
 .debug_info    0x000039e8      0x923 roomba/roomba.o
 .debug_info    0x0000430b      0x268 timer.o
 .debug_info    0x00004573      0x1d1 uart/uart.o
 .debug_info    0x00004744      0x1b7 usart.o

.debug_abbrev   0x00000000     0x12b6
 *(.debug_abbrev)
 .debug_abbrev  0x00000000       0x49 cops_and_robbers.o
 .debug_abbrev  0x00000049      0x16c ir/ir.o
 .debug_abbrev  0x000001b5      0x3cd os.o
 .debug_abbrev  0x00000582      0x3c1 radio/radio.o
 .debug_abbrev  0x00000943       0xd6 radio/spi.o
 .debug_abbrev  0x00000a19      0x32a RoombaVer3.o
 .debug_abbrev  0x00000d43      0x204 roomba/roomba.o
 .debug_abbrev  0x00000f47      0x12a timer.o
 .debug_abbrev  0x00001071      0x122 uart/uart.o
 .debug_abbrev  0x00001193      0x123 usart.o

.debug_line     0x00000000     0x2456
 *(.debug_line .debug_line.* .debug_line_end)
 .debug_line    0x00000000       0x37 cops_and_robbers.o
 .debug_line    0x00000037      0x2f2 ir/ir.o
 .debug_line    0x00000329      0xc03 os.o
 .debug_line    0x00000f2c      0x6e0 radio/radio.o
 .debug_line    0x0000160c      0x15f radio/spi.o
 .debug_line    0x0000176b      0x4f8 RoombaVer3.o
 .debug_line    0x00001c63      0x309 roomba/roomba.o
 .debug_line    0x00001f6c      0x1bd timer.o
 .debug_line    0x00002129      0x1c9 uart/uart.o
 .debug_line    0x000022f2      0x164 usart.o

.debug_frame    0x00000000      0x8e8
 *(.debug_frame)
 .debug_frame   0x00000000       0xf0 ir/ir.o
 .debug_frame   0x000000f0      0x204 os.o
 .debug_frame   0x000002f4      0x268 radio/radio.o
 .debug_frame   0x0000055c       0x54 radio/spi.o
 .debug_frame   0x000005b0      0x11c RoombaVer3.o
 .debug_frame   0x000006cc       0x78 roomba/roomba.o
 .debug_frame   0x00000744       0x84 timer.o
 .debug_frame   0x000007c8       0x94 uart/uart.o
 .debug_frame   0x0000085c       0x8c usart.o

.debug_str      0x00000000     0x18e0
 *(.debug_str)
 .debug_str     0x00000000      0x177 cops_and_robbers.o
                                0x1ab (size before relaxing)
 .debug_str     0x00000177      0x151 ir/ir.o
                                0x2ba (size before relaxing)
 .debug_str     0x000002c8      0x6e3 os.o
                                0x90f (size before relaxing)
 .debug_str     0x000009ab      0x7c1 radio/radio.o
                                0xaa4 (size before relaxing)
 .debug_str     0x0000116c       0x11 radio/spi.o
                                0x224 (size before relaxing)
 .debug_str     0x0000117d      0x3fa RoombaVer3.o
                                0xd06 (size before relaxing)
 .debug_str     0x00001577      0x275 roomba/roomba.o
                                0x627 (size before relaxing)
 .debug_str     0x000017ec       0x14 timer.o
                                0x271 (size before relaxing)
 .debug_str     0x00001800       0x49 uart/uart.o
                                0x2e6 (size before relaxing)
 .debug_str     0x00001849       0x97 usart.o
                                0x23e (size before relaxing)

.debug_loc      0x00000000     0x2291
 *(.debug_loc)
 .debug_loc     0x00000000      0x179 ir/ir.o
 .debug_loc     0x00000179      0xcd8 os.o
 .debug_loc     0x00000e51      0xa4c radio/radio.o
 .debug_loc     0x0000189d       0xfb radio/spi.o
 .debug_loc     0x00001998      0x331 RoombaVer3.o
 .debug_loc     0x00001cc9      0x133 roomba/roomba.o
 .debug_loc     0x00001dfc      0x253 timer.o
 .debug_loc     0x0000204f      0x131 uart/uart.o
 .debug_loc     0x00002180      0x111 usart.o

.debug_macinfo
 *(.debug_macinfo)

.debug_weaknames
 *(.debug_weaknames)

.debug_funcnames
 *(.debug_funcnames)

.debug_typenames
 *(.debug_typenames)

.debug_varnames
 *(.debug_varnames)

.debug_pubtypes
 *(.debug_pubtypes)

.debug_ranges   0x00000000      0x398
 *(.debug_ranges)
 .debug_ranges  0x00000000       0x48 ir/ir.o
 .debug_ranges  0x00000048      0x1a0 os.o
 .debug_ranges  0x000001e8       0x80 radio/radio.o
 .debug_ranges  0x00000268       0x28 radio/spi.o
 .debug_ranges  0x00000290       0x50 RoombaVer3.o
 .debug_ranges  0x000002e0       0x28 roomba/roomba.o
 .debug_ranges  0x00000308       0x28 timer.o
 .debug_ranges  0x00000330       0x38 uart/uart.o
 .debug_ranges  0x00000368       0x30 usart.o

.debug_macro
 *(.debug_macro)
OUTPUT(ApplicationLayer.elf elf32-avr)
LOAD linker stubs
