
os.elf:     file format elf32-avr

Sections:
Idx Name          Size      VMA       LMA       File off  Algn
  0 .data         0000001c  00800200  000011e6  0000127a  2**0
                  CONTENTS, ALLOC, LOAD, DATA
  1 .text         000011e6  00000000  00000000  00000094  2**1
                  CONTENTS, ALLOC, LOAD, READONLY, CODE
  2 .bss          0000130b  0080021c  0080021c  00001296  2**0
                  ALLOC
  3 .comment      0000005c  00000000  00000000  00001296  2**0
                  CONTENTS, READONLY
  4 .debug_aranges 00000180  00000000  00000000  000012f2  2**0
                  CONTENTS, READONLY, DEBUGGING
  5 .debug_info   0000173e  00000000  00000000  00001472  2**0
                  CONTENTS, READONLY, DEBUGGING
  6 .debug_abbrev 00000864  00000000  00000000  00002bb0  2**0
                  CONTENTS, READONLY, DEBUGGING
  7 .debug_line   00000efd  00000000  00000000  00003414  2**0
                  CONTENTS, READONLY, DEBUGGING
  8 .debug_frame  00000360  00000000  00000000  00004314  2**2
                  CONTENTS, READONLY, DEBUGGING
  9 .debug_str    00000a38  00000000  00000000  00004674  2**0
                  CONTENTS, READONLY, DEBUGGING
 10 .debug_loc    00000c66  00000000  00000000  000050ac  2**0
                  CONTENTS, READONLY, DEBUGGING
 11 .debug_ranges 000001a0  00000000  00000000  00005d12  2**0
                  CONTENTS, READONLY, DEBUGGING

Disassembly of section .text:

00000000 <__vectors>:
       0:	7a c0       	rjmp	.+244    	; 0xf6 <__ctors_end>
       2:	00 00       	nop
       4:	98 c0       	rjmp	.+304    	; 0x136 <__bad_interrupt>
       6:	00 00       	nop
       8:	96 c0       	rjmp	.+300    	; 0x136 <__bad_interrupt>
       a:	00 00       	nop
       c:	94 c0       	rjmp	.+296    	; 0x136 <__bad_interrupt>
       e:	00 00       	nop
      10:	92 c0       	rjmp	.+292    	; 0x136 <__bad_interrupt>
      12:	00 00       	nop
      14:	90 c0       	rjmp	.+288    	; 0x136 <__bad_interrupt>
      16:	00 00       	nop
      18:	8e c0       	rjmp	.+284    	; 0x136 <__bad_interrupt>
      1a:	00 00       	nop
      1c:	8c c0       	rjmp	.+280    	; 0x136 <__bad_interrupt>
      1e:	00 00       	nop
      20:	8a c0       	rjmp	.+276    	; 0x136 <__bad_interrupt>
      22:	00 00       	nop
      24:	88 c0       	rjmp	.+272    	; 0x136 <__bad_interrupt>
      26:	00 00       	nop
      28:	86 c0       	rjmp	.+268    	; 0x136 <__bad_interrupt>
      2a:	00 00       	nop
      2c:	84 c0       	rjmp	.+264    	; 0x136 <__bad_interrupt>
      2e:	00 00       	nop
      30:	82 c0       	rjmp	.+260    	; 0x136 <__bad_interrupt>
      32:	00 00       	nop
      34:	80 c0       	rjmp	.+256    	; 0x136 <__bad_interrupt>
      36:	00 00       	nop
      38:	7e c0       	rjmp	.+252    	; 0x136 <__bad_interrupt>
      3a:	00 00       	nop
      3c:	7c c0       	rjmp	.+248    	; 0x136 <__bad_interrupt>
      3e:	00 00       	nop
      40:	7a c0       	rjmp	.+244    	; 0x136 <__bad_interrupt>
      42:	00 00       	nop
      44:	b2 c1       	rjmp	.+868    	; 0x3aa <__vector_17>
      46:	00 00       	nop
      48:	76 c0       	rjmp	.+236    	; 0x136 <__bad_interrupt>
      4a:	00 00       	nop
      4c:	74 c0       	rjmp	.+232    	; 0x136 <__bad_interrupt>
      4e:	00 00       	nop
      50:	72 c0       	rjmp	.+228    	; 0x136 <__bad_interrupt>
      52:	00 00       	nop
      54:	70 c0       	rjmp	.+224    	; 0x136 <__bad_interrupt>
      56:	00 00       	nop
      58:	6e c0       	rjmp	.+220    	; 0x136 <__bad_interrupt>
      5a:	00 00       	nop
      5c:	6c c0       	rjmp	.+216    	; 0x136 <__bad_interrupt>
      5e:	00 00       	nop
      60:	6a c0       	rjmp	.+212    	; 0x136 <__bad_interrupt>
      62:	00 00       	nop
      64:	46 c5       	rjmp	.+2700   	; 0xaf2 <__vector_25>
      66:	00 00       	nop
      68:	66 c0       	rjmp	.+204    	; 0x136 <__bad_interrupt>
      6a:	00 00       	nop
      6c:	64 c0       	rjmp	.+200    	; 0x136 <__bad_interrupt>
      6e:	00 00       	nop
      70:	62 c0       	rjmp	.+196    	; 0x136 <__bad_interrupt>
      72:	00 00       	nop
      74:	60 c0       	rjmp	.+192    	; 0x136 <__bad_interrupt>
      76:	00 00       	nop
      78:	5e c0       	rjmp	.+188    	; 0x136 <__bad_interrupt>
      7a:	00 00       	nop
      7c:	5c c0       	rjmp	.+184    	; 0x136 <__bad_interrupt>
      7e:	00 00       	nop
      80:	5a c0       	rjmp	.+180    	; 0x136 <__bad_interrupt>
      82:	00 00       	nop
      84:	58 c0       	rjmp	.+176    	; 0x136 <__bad_interrupt>
      86:	00 00       	nop
      88:	56 c0       	rjmp	.+172    	; 0x136 <__bad_interrupt>
      8a:	00 00       	nop
      8c:	54 c0       	rjmp	.+168    	; 0x136 <__bad_interrupt>
      8e:	00 00       	nop
      90:	52 c0       	rjmp	.+164    	; 0x136 <__bad_interrupt>
      92:	00 00       	nop
      94:	50 c0       	rjmp	.+160    	; 0x136 <__bad_interrupt>
      96:	00 00       	nop
      98:	4e c0       	rjmp	.+156    	; 0x136 <__bad_interrupt>
      9a:	00 00       	nop
      9c:	4c c0       	rjmp	.+152    	; 0x136 <__bad_interrupt>
      9e:	00 00       	nop
      a0:	4a c0       	rjmp	.+148    	; 0x136 <__bad_interrupt>
      a2:	00 00       	nop
      a4:	48 c0       	rjmp	.+144    	; 0x136 <__bad_interrupt>
      a6:	00 00       	nop
      a8:	46 c0       	rjmp	.+140    	; 0x136 <__bad_interrupt>
      aa:	00 00       	nop
      ac:	44 c0       	rjmp	.+136    	; 0x136 <__bad_interrupt>
      ae:	00 00       	nop
      b0:	42 c0       	rjmp	.+132    	; 0x136 <__bad_interrupt>
      b2:	00 00       	nop
      b4:	40 c0       	rjmp	.+128    	; 0x136 <__bad_interrupt>
      b6:	00 00       	nop
      b8:	3e c0       	rjmp	.+124    	; 0x136 <__bad_interrupt>
      ba:	00 00       	nop
      bc:	3c c0       	rjmp	.+120    	; 0x136 <__bad_interrupt>
      be:	00 00       	nop
      c0:	3a c0       	rjmp	.+116    	; 0x136 <__bad_interrupt>
      c2:	00 00       	nop
      c4:	38 c0       	rjmp	.+112    	; 0x136 <__bad_interrupt>
      c6:	00 00       	nop
      c8:	36 c0       	rjmp	.+108    	; 0x136 <__bad_interrupt>
      ca:	00 00       	nop
      cc:	34 c0       	rjmp	.+104    	; 0x136 <__bad_interrupt>
      ce:	00 00       	nop
      d0:	32 c0       	rjmp	.+100    	; 0x136 <__bad_interrupt>
      d2:	00 00       	nop
      d4:	30 c0       	rjmp	.+96     	; 0x136 <__bad_interrupt>
      d6:	00 00       	nop
      d8:	2e c0       	rjmp	.+92     	; 0x136 <__bad_interrupt>
      da:	00 00       	nop
      dc:	2c c0       	rjmp	.+88     	; 0x136 <__bad_interrupt>
      de:	00 00       	nop
      e0:	2a c0       	rjmp	.+84     	; 0x136 <__bad_interrupt>
      e2:	00 00       	nop
      e4:	17 05       	cpc	r17, r7
      e6:	f4 03       	fmuls	r23, r20
      e8:	08 04       	cpc	r0, r8
      ea:	43 04       	cpc	r4, r3
      ec:	61 04       	cpc	r6, r1
      ee:	17 05       	cpc	r17, r7
      f0:	7e 04       	cpc	r7, r14
      f2:	92 04       	cpc	r9, r2
      f4:	c5 04       	cpc	r12, r5

000000f6 <__ctors_end>:
      f6:	11 24       	eor	r1, r1
      f8:	1f be       	out	0x3f, r1	; 63
      fa:	cf ef       	ldi	r28, 0xFF	; 255
      fc:	d1 e2       	ldi	r29, 0x21	; 33
      fe:	de bf       	out	0x3e, r29	; 62
     100:	cd bf       	out	0x3d, r28	; 61
     102:	00 e0       	ldi	r16, 0x00	; 0
     104:	0c bf       	out	0x3c, r16	; 60

00000106 <__do_copy_data>:
     106:	12 e0       	ldi	r17, 0x02	; 2
     108:	a0 e0       	ldi	r26, 0x00	; 0
     10a:	b2 e0       	ldi	r27, 0x02	; 2
     10c:	e6 ee       	ldi	r30, 0xE6	; 230
     10e:	f1 e1       	ldi	r31, 0x11	; 17
     110:	00 e0       	ldi	r16, 0x00	; 0
     112:	0b bf       	out	0x3b, r16	; 59
     114:	02 c0       	rjmp	.+4      	; 0x11a <__do_copy_data+0x14>
     116:	07 90       	elpm	r0, Z+
     118:	0d 92       	st	X+, r0
     11a:	ac 31       	cpi	r26, 0x1C	; 28
     11c:	b1 07       	cpc	r27, r17
     11e:	d9 f7       	brne	.-10     	; 0x116 <__do_copy_data+0x10>

00000120 <__do_clear_bss>:
     120:	25 e1       	ldi	r18, 0x15	; 21
     122:	ac e1       	ldi	r26, 0x1C	; 28
     124:	b2 e0       	ldi	r27, 0x02	; 2
     126:	01 c0       	rjmp	.+2      	; 0x12a <.do_clear_bss_start>

00000128 <.do_clear_bss_loop>:
     128:	1d 92       	st	X+, r1

0000012a <.do_clear_bss_start>:
     12a:	a7 32       	cpi	r26, 0x27	; 39
     12c:	b2 07       	cpc	r27, r18
     12e:	e1 f7       	brne	.-8      	; 0x128 <.do_clear_bss_loop>
     130:	df d4       	rcall	.+2494   	; 0xaf0 <main>
     132:	0c 94 f1 08 	jmp	0x11e2	; 0x11e2 <_exit>

00000136 <__bad_interrupt>:
     136:	64 cf       	rjmp	.-312    	; 0x0 <__vectors>

00000138 <_Z13run_subscribev>:
	}
	test_services();
}

void run_subscribe()
{
     138:	cf 93       	push	r28
     13a:	df 93       	push	r29
     13c:	1f 92       	push	r1
     13e:	1f 92       	push	r1
     140:	cd b7       	in	r28, 0x3d	; 61
     142:	de b7       	in	r29, 0x3e	; 62
	int16_t v;
	for(;;)
	{
		Service_Subscribe(service, &v);
     144:	be 01       	movw	r22, r28
     146:	6f 5f       	subi	r22, 0xFF	; 255
     148:	7f 4f       	sbci	r23, 0xFF	; 255
     14a:	80 91 1c 02 	lds	r24, 0x021C
     14e:	90 91 1d 02 	lds	r25, 0x021D
     152:	a8 d4       	rcall	.+2384   	; 0xaa4 <Service_Subscribe>
		USART_Send_int(v);
     154:	89 81       	ldd	r24, Y+1	; 0x01
     156:	9a 81       	ldd	r25, Y+2	; 0x02
     158:	2a d5       	rcall	.+2644   	; 0xbae <_Z14USART_Send_intj>
     15a:	f4 cf       	rjmp	.-24     	; 0x144 <_Z13run_subscribev+0xc>

0000015c <_Z11run_publishv>:
	}
}

void run_publish()
{
	Service_Publish(service, 5);
     15c:	65 e0       	ldi	r22, 0x05	; 5
     15e:	70 e0       	ldi	r23, 0x00	; 0
     160:	80 91 1c 02 	lds	r24, 0x021C
     164:	90 91 1d 02 	lds	r25, 0x021D
     168:	af c4       	rjmp	.+2398   	; 0xac8 <Service_Publish>
     16a:	08 95       	ret

0000016c <_Z13test_servicesv>:
}

void test_services()
{
	USART_Init(MYUBRR); // Initializes the serial communication
     16c:	87 e6       	ldi	r24, 0x67	; 103
     16e:	90 e0       	ldi	r25, 0x00	; 0
     170:	fd d4       	rcall	.+2554   	; 0xb6c <_Z10USART_Initj>
	
	service = Service_Init();
     172:	8a d4       	rcall	.+2324   	; 0xa88 <Service_Init>
     174:	90 93 1d 02 	sts	0x021D, r25
     178:	80 93 1c 02 	sts	0x021C, r24
	Task_Create_RR(run_subscribe, 0);
     17c:	60 e0       	ldi	r22, 0x00	; 0
     17e:	70 e0       	ldi	r23, 0x00	; 0
     180:	8c e9       	ldi	r24, 0x9C	; 156
     182:	90 e0       	ldi	r25, 0x00	; 0
     184:	66 d4       	rcall	.+2252   	; 0xa52 <Task_Create_RR>
	Task_Create_RR(run_subscribe, 1);
     186:	61 e0       	ldi	r22, 0x01	; 1
     188:	70 e0       	ldi	r23, 0x00	; 0
     18a:	8c e9       	ldi	r24, 0x9C	; 156
     18c:	90 e0       	ldi	r25, 0x00	; 0
     18e:	61 d4       	rcall	.+2242   	; 0xa52 <Task_Create_RR>
	Task_Create_RR(run_subscribe, 2);
     190:	62 e0       	ldi	r22, 0x02	; 2
     192:	70 e0       	ldi	r23, 0x00	; 0
     194:	8c e9       	ldi	r24, 0x9C	; 156
     196:	90 e0       	ldi	r25, 0x00	; 0
     198:	5c d4       	rcall	.+2232   	; 0xa52 <Task_Create_RR>
	Task_Create_RR(run_publish, 5);
     19a:	65 e0       	ldi	r22, 0x05	; 5
     19c:	70 e0       	ldi	r23, 0x00	; 0
     19e:	8e ea       	ldi	r24, 0xAE	; 174
     1a0:	90 e0       	ldi	r25, 0x00	; 0
     1a2:	57 c4       	rjmp	.+2222   	; 0xa52 <Task_Create_RR>
     1a4:	08 95       	ret

000001a6 <_Z6r_mainv>:
#include <util/delay.h>		// Including the avr delay lib

SERVICE* service;

int r_main()
{
     1a6:	cf 93       	push	r28
     1a8:	df 93       	push	r29
	// Set up the UART
	USART_Init(MYUBRR); // Initializes the serial communication
     1aa:	87 e6       	ldi	r24, 0x67	; 103
     1ac:	90 e0       	ldi	r25, 0x00	; 0
     1ae:	de d4       	rcall	.+2492   	; 0xb6c <_Z10USART_Initj>
	int i = 0;
     1b0:	c0 e0       	ldi	r28, 0x00	; 0
     1b2:	d0 e0       	ldi	r29, 0x00	; 0
	while(i < 10 )
	{
		USART_Send_string("ApplicationLayer Init\n");
     1b4:	81 e0       	ldi	r24, 0x01	; 1
     1b6:	92 e0       	ldi	r25, 0x02	; 2
     1b8:	ec d4       	rcall	.+2520   	; 0xb92 <_Z17USART_Send_stringPKc>
		USART_Send_int(i);
     1ba:	ce 01       	movw	r24, r28
     1bc:	f8 d4       	rcall	.+2544   	; 0xbae <_Z14USART_Send_intj>
	#else
		//round up by default
		__ticks_dc = (uint32_t)(ceil(fabs(__tmp)));
	#endif

	__builtin_avr_delay_cycles(__ticks_dc);
     1be:	2f e7       	ldi	r18, 0x7F	; 127
     1c0:	86 e9       	ldi	r24, 0x96	; 150
     1c2:	98 e9       	ldi	r25, 0x98	; 152
     1c4:	21 50       	subi	r18, 0x01	; 1
     1c6:	80 40       	sbci	r24, 0x00	; 0
     1c8:	90 40       	sbci	r25, 0x00	; 0
     1ca:	e1 f7       	brne	.-8      	; 0x1c4 <_Z6r_mainv+0x1e>
     1cc:	00 c0       	rjmp	.+0      	; 0x1ce <_Z6r_mainv+0x28>
     1ce:	00 00       	nop
		_delay_ms(50000);
		i++;
     1d0:	21 96       	adiw	r28, 0x01	; 1
int r_main()
{
	// Set up the UART
	USART_Init(MYUBRR); // Initializes the serial communication
	int i = 0;
	while(i < 10 )
     1d2:	ca 30       	cpi	r28, 0x0A	; 10
     1d4:	d1 05       	cpc	r29, r1
     1d6:	71 f7       	brne	.-36     	; 0x1b4 <_Z6r_mainv+0xe>
		USART_Send_string("ApplicationLayer Init\n");
		USART_Send_int(i);
		_delay_ms(50000);
		i++;
	}
	test_services();
     1d8:	c9 df       	rcall	.-110    	; 0x16c <_Z13test_servicesv>
}
     1da:	df 91       	pop	r29
     1dc:	cf 91       	pop	r28
     1de:	08 95       	ret

000001e0 <_ZL4idlev>:
    arg = cur_task->arg;

    SREG = sreg;

    return arg;
}
     1e0:	ff cf       	rjmp	.-2      	; 0x1e0 <_ZL4idlev>

000001e2 <_ZL11exit_kernelv>:
     1e2:	ff 93       	push	r31
     1e4:	fc b7       	in	r31, 0x3c	; 60
     1e6:	ff 93       	push	r31
     1e8:	ff b7       	in	r31, 0x3f	; 63
     1ea:	f8 94       	cli
     1ec:	ff 93       	push	r31
     1ee:	ef 93       	push	r30
     1f0:	df 93       	push	r29
     1f2:	cf 93       	push	r28
     1f4:	bf 93       	push	r27
     1f6:	af 93       	push	r26
     1f8:	9f 93       	push	r25
     1fa:	8f 93       	push	r24
     1fc:	7f 93       	push	r23
     1fe:	6f 93       	push	r22
     200:	5f 93       	push	r21
     202:	4f 93       	push	r20
     204:	3f 93       	push	r19
     206:	2f 93       	push	r18
     208:	1f 93       	push	r17
     20a:	0f 93       	push	r16
     20c:	ff 92       	push	r15
     20e:	ef 92       	push	r14
     210:	df 92       	push	r13
     212:	cf 92       	push	r12
     214:	bf 92       	push	r11
     216:	af 92       	push	r10
     218:	9f 92       	push	r9
     21a:	8f 92       	push	r8
     21c:	7f 92       	push	r7
     21e:	6f 92       	push	r6
     220:	5f 92       	push	r5
     222:	4f 92       	push	r4
     224:	3f 92       	push	r3
     226:	2f 92       	push	r2
     228:	1f 92       	push	r1
     22a:	0f 92       	push	r0
     22c:	8d b7       	in	r24, 0x3d	; 61
     22e:	9e b7       	in	r25, 0x3e	; 62
     230:	90 93 bd 14 	sts	0x14BD, r25
     234:	80 93 bc 14 	sts	0x14BC, r24
     238:	e0 91 be 14 	lds	r30, 0x14BE
     23c:	f0 91 bf 14 	lds	r31, 0x14BF
     240:	fe 5f       	subi	r31, 0xFE	; 254
     242:	80 81       	ld	r24, Z
     244:	91 81       	ldd	r25, Z+1	; 0x01
     246:	9e bf       	out	0x3e, r25	; 62
     248:	8d bf       	out	0x3d, r24	; 61
     24a:	0f 90       	pop	r0
     24c:	1f 90       	pop	r1
     24e:	2f 90       	pop	r2
     250:	3f 90       	pop	r3
     252:	4f 90       	pop	r4
     254:	5f 90       	pop	r5
     256:	6f 90       	pop	r6
     258:	7f 90       	pop	r7
     25a:	8f 90       	pop	r8
     25c:	9f 90       	pop	r9
     25e:	af 90       	pop	r10
     260:	bf 90       	pop	r11
     262:	cf 90       	pop	r12
     264:	df 90       	pop	r13
     266:	ef 90       	pop	r14
     268:	ff 90       	pop	r15
     26a:	0f 91       	pop	r16
     26c:	1f 91       	pop	r17
     26e:	2f 91       	pop	r18
     270:	3f 91       	pop	r19
     272:	4f 91       	pop	r20
     274:	5f 91       	pop	r21
     276:	6f 91       	pop	r22
     278:	7f 91       	pop	r23
     27a:	8f 91       	pop	r24
     27c:	9f 91       	pop	r25
     27e:	af 91       	pop	r26
     280:	bf 91       	pop	r27
     282:	cf 91       	pop	r28
     284:	df 91       	pop	r29
     286:	ef 91       	pop	r30
     288:	ff 91       	pop	r31
     28a:	ff bf       	out	0x3f, r31	; 63
     28c:	ff 91       	pop	r31
     28e:	fc bf       	out	0x3c, r31	; 60
     290:	ff 91       	pop	r31
     292:	08 95       	ret

00000294 <_ZL12enter_kernelv>:
     294:	ff 93       	push	r31
     296:	fc b7       	in	r31, 0x3c	; 60
     298:	ff 93       	push	r31
     29a:	ff b7       	in	r31, 0x3f	; 63
     29c:	f8 94       	cli
     29e:	ff 93       	push	r31
     2a0:	ef 93       	push	r30
     2a2:	df 93       	push	r29
     2a4:	cf 93       	push	r28
     2a6:	bf 93       	push	r27
     2a8:	af 93       	push	r26
     2aa:	9f 93       	push	r25
     2ac:	8f 93       	push	r24
     2ae:	7f 93       	push	r23
     2b0:	6f 93       	push	r22
     2b2:	5f 93       	push	r21
     2b4:	4f 93       	push	r20
     2b6:	3f 93       	push	r19
     2b8:	2f 93       	push	r18
     2ba:	1f 93       	push	r17
     2bc:	0f 93       	push	r16
     2be:	ff 92       	push	r15
     2c0:	ef 92       	push	r14
     2c2:	df 92       	push	r13
     2c4:	cf 92       	push	r12
     2c6:	bf 92       	push	r11
     2c8:	af 92       	push	r10
     2ca:	9f 92       	push	r9
     2cc:	8f 92       	push	r8
     2ce:	7f 92       	push	r7
     2d0:	6f 92       	push	r6
     2d2:	5f 92       	push	r5
     2d4:	4f 92       	push	r4
     2d6:	3f 92       	push	r3
     2d8:	2f 92       	push	r2
     2da:	1f 92       	push	r1
     2dc:	0f 92       	push	r0
     2de:	e0 91 be 14 	lds	r30, 0x14BE
     2e2:	f0 91 bf 14 	lds	r31, 0x14BF
     2e6:	8d b7       	in	r24, 0x3d	; 61
     2e8:	9e b7       	in	r25, 0x3e	; 62
     2ea:	fe 5f       	subi	r31, 0xFE	; 254
     2ec:	91 83       	std	Z+1, r25	; 0x01
     2ee:	80 83       	st	Z, r24
     2f0:	80 91 bc 14 	lds	r24, 0x14BC
     2f4:	90 91 bd 14 	lds	r25, 0x14BD
     2f8:	9e bf       	out	0x3e, r25	; 62
     2fa:	8d bf       	out	0x3d, r24	; 61
     2fc:	0f 90       	pop	r0
     2fe:	1f 90       	pop	r1
     300:	2f 90       	pop	r2
     302:	3f 90       	pop	r3
     304:	4f 90       	pop	r4
     306:	5f 90       	pop	r5
     308:	6f 90       	pop	r6
     30a:	7f 90       	pop	r7
     30c:	8f 90       	pop	r8
     30e:	9f 90       	pop	r9
     310:	af 90       	pop	r10
     312:	bf 90       	pop	r11
     314:	cf 90       	pop	r12
     316:	df 90       	pop	r13
     318:	ef 90       	pop	r14
     31a:	ff 90       	pop	r15
     31c:	0f 91       	pop	r16
     31e:	1f 91       	pop	r17
     320:	2f 91       	pop	r18
     322:	3f 91       	pop	r19
     324:	4f 91       	pop	r20
     326:	5f 91       	pop	r21
     328:	6f 91       	pop	r22
     32a:	7f 91       	pop	r23
     32c:	8f 91       	pop	r24
     32e:	9f 91       	pop	r25
     330:	af 91       	pop	r26
     332:	bf 91       	pop	r27
     334:	cf 91       	pop	r28
     336:	df 91       	pop	r29
     338:	ef 91       	pop	r30
     33a:	ff 91       	pop	r31
     33c:	ff bf       	out	0x3f, r31	; 63
     33e:	ff 91       	pop	r31
     340:	fc bf       	out	0x3c, r31	; 60
     342:	ff 91       	pop	r31
     344:	08 95       	ret

00000346 <_ZL7enqueueP7queue_tP9td_struct>:
     346:	fc 01       	movw	r30, r24
     348:	db 01       	movw	r26, r22
     34a:	a9 5f       	subi	r26, 0xF9	; 249
     34c:	bd 4f       	sbci	r27, 0xFD	; 253
     34e:	1d 92       	st	X+, r1
     350:	1c 92       	st	X, r1
     352:	80 81       	ld	r24, Z
     354:	91 81       	ldd	r25, Z+1	; 0x01
     356:	89 2b       	or	r24, r25
     358:	29 f4       	brne	.+10     	; 0x364 <_ZL7enqueueP7queue_tP9td_struct+0x1e>
     35a:	71 83       	std	Z+1, r23	; 0x01
     35c:	60 83       	st	Z, r22
     35e:	73 83       	std	Z+3, r23	; 0x03
     360:	62 83       	std	Z+2, r22	; 0x02
     362:	08 95       	ret
     364:	a2 81       	ldd	r26, Z+2	; 0x02
     366:	b3 81       	ldd	r27, Z+3	; 0x03
     368:	a9 5f       	subi	r26, 0xF9	; 249
     36a:	bd 4f       	sbci	r27, 0xFD	; 253
     36c:	6d 93       	st	X+, r22
     36e:	7c 93       	st	X, r23
     370:	73 83       	std	Z+3, r23	; 0x03
     372:	62 83       	std	Z+2, r22	; 0x02
     374:	08 95       	ret

00000376 <_ZL7dequeueP7queue_t>:
     376:	fc 01       	movw	r30, r24
     378:	80 81       	ld	r24, Z
     37a:	91 81       	ldd	r25, Z+1	; 0x01
     37c:	00 97       	sbiw	r24, 0x00	; 0
     37e:	51 f0       	breq	.+20     	; 0x394 <_ZL7dequeueP7queue_t+0x1e>
     380:	dc 01       	movw	r26, r24
     382:	a9 5f       	subi	r26, 0xF9	; 249
     384:	bd 4f       	sbci	r27, 0xFD	; 253
     386:	2d 91       	ld	r18, X+
     388:	3c 91       	ld	r19, X
     38a:	11 97       	sbiw	r26, 0x01	; 1
     38c:	31 83       	std	Z+1, r19	; 0x01
     38e:	20 83       	st	Z, r18
     390:	1d 92       	st	X+, r1
     392:	1c 92       	st	X, r1
     394:	08 95       	ret

00000396 <Task_Terminate>:
     396:	cf 93       	push	r28
     398:	cf b7       	in	r28, 0x3f	; 63
     39a:	f8 94       	cli
     39c:	83 e0       	ldi	r24, 0x03	; 3
     39e:	80 93 6a 02 	sts	0x026A, r24
     3a2:	78 df       	rcall	.-272    	; 0x294 <_ZL12enter_kernelv>
     3a4:	cf bf       	out	0x3f, r28	; 63
     3a6:	cf 91       	pop	r28
     3a8:	08 95       	ret

000003aa <__vector_17>:
     3aa:	ff 93       	push	r31
     3ac:	fc b7       	in	r31, 0x3c	; 60
     3ae:	ff 93       	push	r31
     3b0:	ff b7       	in	r31, 0x3f	; 63
     3b2:	f8 94       	cli
     3b4:	f0 68       	ori	r31, 0x80	; 128
     3b6:	ff 93       	push	r31
     3b8:	ef 93       	push	r30
     3ba:	df 93       	push	r29
     3bc:	cf 93       	push	r28
     3be:	bf 93       	push	r27
     3c0:	af 93       	push	r26
     3c2:	9f 93       	push	r25
     3c4:	8f 93       	push	r24
     3c6:	7f 93       	push	r23
     3c8:	6f 93       	push	r22
     3ca:	5f 93       	push	r21
     3cc:	4f 93       	push	r20
     3ce:	3f 93       	push	r19
     3d0:	2f 93       	push	r18
     3d2:	1f 93       	push	r17
     3d4:	0f 93       	push	r16
     3d6:	ff 92       	push	r15
     3d8:	ef 92       	push	r14
     3da:	df 92       	push	r13
     3dc:	cf 92       	push	r12
     3de:	bf 92       	push	r11
     3e0:	af 92       	push	r10
     3e2:	9f 92       	push	r9
     3e4:	8f 92       	push	r8
     3e6:	7f 92       	push	r7
     3e8:	6f 92       	push	r6
     3ea:	5f 92       	push	r5
     3ec:	4f 92       	push	r4
     3ee:	3f 92       	push	r3
     3f0:	2f 92       	push	r2
     3f2:	1f 92       	push	r1
     3f4:	0f 92       	push	r0
     3f6:	e0 91 be 14 	lds	r30, 0x14BE
     3fa:	f0 91 bf 14 	lds	r31, 0x14BF
     3fe:	8d b7       	in	r24, 0x3d	; 61
     400:	9e b7       	in	r25, 0x3e	; 62
     402:	fe 5f       	subi	r31, 0xFE	; 254
     404:	91 83       	std	Z+1, r25	; 0x01
     406:	80 83       	st	Z, r24
     408:	80 91 bc 14 	lds	r24, 0x14BC
     40c:	90 91 bd 14 	lds	r25, 0x14BD
     410:	9e bf       	out	0x3e, r25	; 62
     412:	8d bf       	out	0x3d, r24	; 61
     414:	81 e0       	ldi	r24, 0x01	; 1
     416:	80 93 6a 02 	sts	0x026A, r24
     41a:	e8 e8       	ldi	r30, 0x88	; 136
     41c:	f0 e0       	ldi	r31, 0x00	; 0
     41e:	80 81       	ld	r24, Z
     420:	91 81       	ldd	r25, Z+1	; 0x01
     422:	8f 58       	subi	r24, 0x8F	; 143
     424:	9d 4f       	sbci	r25, 0xFD	; 253
     426:	91 83       	std	Z+1, r25	; 0x01
     428:	80 83       	st	Z, r24
     42a:	80 91 bc 14 	lds	r24, 0x14BC
     42e:	90 91 bd 14 	lds	r25, 0x14BD
     432:	9e bf       	out	0x3e, r25	; 62
     434:	8d bf       	out	0x3d, r24	; 61
     436:	0f 90       	pop	r0
     438:	1f 90       	pop	r1
     43a:	2f 90       	pop	r2
     43c:	3f 90       	pop	r3
     43e:	4f 90       	pop	r4
     440:	5f 90       	pop	r5
     442:	6f 90       	pop	r6
     444:	7f 90       	pop	r7
     446:	8f 90       	pop	r8
     448:	9f 90       	pop	r9
     44a:	af 90       	pop	r10
     44c:	bf 90       	pop	r11
     44e:	cf 90       	pop	r12
     450:	df 90       	pop	r13
     452:	ef 90       	pop	r14
     454:	ff 90       	pop	r15
     456:	0f 91       	pop	r16
     458:	1f 91       	pop	r17
     45a:	2f 91       	pop	r18
     45c:	3f 91       	pop	r19
     45e:	4f 91       	pop	r20
     460:	5f 91       	pop	r21
     462:	6f 91       	pop	r22
     464:	7f 91       	pop	r23
     466:	8f 91       	pop	r24
     468:	9f 91       	pop	r25
     46a:	af 91       	pop	r26
     46c:	bf 91       	pop	r27
     46e:	cf 91       	pop	r28
     470:	df 91       	pop	r29
     472:	ef 91       	pop	r30
     474:	ff 91       	pop	r31
     476:	ff bf       	out	0x3f, r31	; 63
     478:	ff 91       	pop	r31
     47a:	fc bf       	out	0x3c, r31	; 60
     47c:	ff 91       	pop	r31
     47e:	08 95       	ret

00000480 <OS_Abort>:
     480:	f8 94       	cli
     482:	80 ef       	ldi	r24, 0xF0	; 240
     484:	8a b9       	out	0x0a, r24	; 10
     486:	80 91 00 02 	lds	r24, 0x0200
     48a:	86 30       	cpi	r24, 0x06	; 6
     48c:	28 f4       	brcc	.+10     	; 0x498 <OS_Abort+0x18>
     48e:	30 91 00 02 	lds	r19, 0x0200
     492:	3f 5f       	subi	r19, 0xFF	; 255
     494:	40 e6       	ldi	r20, 0x60	; 96
     496:	04 c0       	rjmp	.+8      	; 0x4a0 <OS_Abort+0x20>
     498:	30 91 00 02 	lds	r19, 0x0200
     49c:	35 50       	subi	r19, 0x05	; 5
     49e:	40 e9       	ldi	r20, 0x90	; 144
     4a0:	70 ef       	ldi	r23, 0xF0	; 240
     4a2:	64 e6       	ldi	r22, 0x64	; 100
     4a4:	2a e0       	ldi	r18, 0x0A	; 10
     4a6:	54 e1       	ldi	r21, 0x14	; 20
     4a8:	74 bb       	out	0x14, r23	; 20
     4aa:	86 2f       	mov	r24, r22
     4ac:	e9 e6       	ldi	r30, 0x69	; 105
     4ae:	f8 e1       	ldi	r31, 0x18	; 24
     4b0:	31 97       	sbiw	r30, 0x01	; 1
     4b2:	f1 f7       	brne	.-4      	; 0x4b0 <OS_Abort+0x30>
     4b4:	00 c0       	rjmp	.+0      	; 0x4b6 <OS_Abort+0x36>
     4b6:	00 00       	nop
     4b8:	81 50       	subi	r24, 0x01	; 1
     4ba:	c1 f7       	brne	.-16     	; 0x4ac <OS_Abort+0x2c>
     4bc:	14 ba       	out	0x14, r1	; 20
     4be:	88 e2       	ldi	r24, 0x28	; 40
     4c0:	e9 e6       	ldi	r30, 0x69	; 105
     4c2:	f8 e1       	ldi	r31, 0x18	; 24
     4c4:	31 97       	sbiw	r30, 0x01	; 1
     4c6:	f1 f7       	brne	.-4      	; 0x4c4 <OS_Abort+0x44>
     4c8:	00 c0       	rjmp	.+0      	; 0x4ca <OS_Abort+0x4a>
     4ca:	00 00       	nop
     4cc:	81 50       	subi	r24, 0x01	; 1
     4ce:	c1 f7       	brne	.-16     	; 0x4c0 <OS_Abort+0x40>
     4d0:	33 23       	and	r19, r19
     4d2:	11 f1       	breq	.+68     	; 0x518 <OS_Abort+0x98>
     4d4:	90 e0       	ldi	r25, 0x00	; 0
     4d6:	44 bb       	out	0x14, r20	; 20
     4d8:	82 2f       	mov	r24, r18
     4da:	e9 e6       	ldi	r30, 0x69	; 105
     4dc:	f8 e1       	ldi	r31, 0x18	; 24
     4de:	31 97       	sbiw	r30, 0x01	; 1
     4e0:	f1 f7       	brne	.-4      	; 0x4de <OS_Abort+0x5e>
     4e2:	00 c0       	rjmp	.+0      	; 0x4e4 <OS_Abort+0x64>
     4e4:	00 00       	nop
     4e6:	81 50       	subi	r24, 0x01	; 1
     4e8:	c1 f7       	brne	.-16     	; 0x4da <OS_Abort+0x5a>
     4ea:	14 ba       	out	0x14, r1	; 20
     4ec:	82 2f       	mov	r24, r18
     4ee:	e9 e6       	ldi	r30, 0x69	; 105
     4f0:	f8 e1       	ldi	r31, 0x18	; 24
     4f2:	31 97       	sbiw	r30, 0x01	; 1
     4f4:	f1 f7       	brne	.-4      	; 0x4f2 <OS_Abort+0x72>
     4f6:	00 c0       	rjmp	.+0      	; 0x4f8 <OS_Abort+0x78>
     4f8:	00 00       	nop
     4fa:	81 50       	subi	r24, 0x01	; 1
     4fc:	c1 f7       	brne	.-16     	; 0x4ee <OS_Abort+0x6e>
     4fe:	9f 5f       	subi	r25, 0xFF	; 255
     500:	93 13       	cpse	r25, r19
     502:	e9 cf       	rjmp	.-46     	; 0x4d6 <OS_Abort+0x56>
     504:	09 c0       	rjmp	.+18     	; 0x518 <OS_Abort+0x98>
     506:	e9 e6       	ldi	r30, 0x69	; 105
     508:	f8 e1       	ldi	r31, 0x18	; 24
     50a:	31 97       	sbiw	r30, 0x01	; 1
     50c:	f1 f7       	brne	.-4      	; 0x50a <OS_Abort+0x8a>
     50e:	00 c0       	rjmp	.+0      	; 0x510 <OS_Abort+0x90>
     510:	00 00       	nop
     512:	81 50       	subi	r24, 0x01	; 1
     514:	c1 f7       	brne	.-16     	; 0x506 <OS_Abort+0x86>
     516:	c8 cf       	rjmp	.-112    	; 0x4a8 <OS_Abort+0x28>
     518:	85 2f       	mov	r24, r21
     51a:	f5 cf       	rjmp	.-22     	; 0x506 <OS_Abort+0x86>

0000051c <_ZL18kernel_create_taskv>:
     51c:	80 91 5a 02 	lds	r24, 0x025A
     520:	90 91 5b 02 	lds	r25, 0x025B
     524:	89 2b       	or	r24, r25
     526:	09 f4       	brne	.+2      	; 0x52a <_ZL18kernel_create_taskv+0xe>
     528:	8e c0       	rjmp	.+284    	; 0x646 <_ZL18kernel_create_taskv+0x12a>
     52a:	80 91 68 02 	lds	r24, 0x0268
     52e:	82 30       	cpi	r24, 0x02	; 2
     530:	09 f0       	breq	.+2      	; 0x534 <_ZL18kernel_create_taskv+0x18>
     532:	93 c0       	rjmp	.+294    	; 0x65a <_ZL18kernel_create_taskv+0x13e>
     534:	80 91 69 02 	lds	r24, 0x0269
     538:	88 23       	and	r24, r24
     53a:	09 f4       	brne	.+2      	; 0x53e <_ZL18kernel_create_taskv+0x22>
     53c:	8a c0       	rjmp	.+276    	; 0x652 <_ZL18kernel_create_taskv+0x136>
     53e:	80 91 69 02 	lds	r24, 0x0269
     542:	89 30       	cpi	r24, 0x09	; 9
     544:	08 f0       	brcs	.+2      	; 0x548 <_ZL18kernel_create_taskv+0x2c>
     546:	85 c0       	rjmp	.+266    	; 0x652 <_ZL18kernel_create_taskv+0x136>
     548:	88 c0       	rjmp	.+272    	; 0x65a <_ZL18kernel_create_taskv+0x13e>
     54a:	80 91 69 02 	lds	r24, 0x0269
     54e:	84 e0       	ldi	r24, 0x04	; 4
     550:	80 93 00 02 	sts	0x0200, r24
     554:	95 df       	rcall	.-214    	; 0x480 <OS_Abort>
     556:	e0 91 69 02 	lds	r30, 0x0269
     55a:	f0 e0       	ldi	r31, 0x00	; 0
     55c:	ee 0f       	add	r30, r30
     55e:	ff 1f       	adc	r31, r31
     560:	e2 5e       	subi	r30, 0xE2	; 226
     562:	fd 4f       	sbci	r31, 0xFD	; 253
     564:	80 81       	ld	r24, Z
     566:	91 81       	ldd	r25, Z+1	; 0x01
     568:	89 2b       	or	r24, r25
     56a:	09 f0       	breq	.+2      	; 0x56e <_ZL18kernel_create_taskv+0x52>
     56c:	80 c0       	rjmp	.+256    	; 0x66e <_ZL18kernel_create_taskv+0x152>
     56e:	83 c0       	rjmp	.+262    	; 0x676 <_ZL18kernel_create_taskv+0x15a>
     570:	8a e5       	ldi	r24, 0x5A	; 90
     572:	92 e0       	ldi	r25, 0x02	; 2
     574:	00 df       	rcall	.-512    	; 0x376 <_ZL7dequeueP7queue_t>
     576:	bc 01       	movw	r22, r24
     578:	02 c0       	rjmp	.+4      	; 0x57e <_ZL18kernel_create_taskv+0x62>
     57a:	63 eb       	ldi	r22, 0xB3	; 179
     57c:	72 e1       	ldi	r23, 0x12	; 18
     57e:	cb 01       	movw	r24, r22
     580:	89 52       	subi	r24, 0x29	; 41
     582:	9e 4f       	sbci	r25, 0xFE	; 254
     584:	fc 01       	movw	r30, r24
     586:	20 e0       	ldi	r18, 0x00	; 0
     588:	21 93       	st	Z+, r18
     58a:	2f 5f       	subi	r18, 0xFF	; 255
     58c:	2f 31       	cpi	r18, 0x1F	; 31
     58e:	e1 f7       	brne	.-8      	; 0x588 <_ZL18kernel_create_taskv+0x6c>
     590:	25 e5       	ldi	r18, 0x55	; 85
     592:	fb 01       	movw	r30, r22
     594:	ea 50       	subi	r30, 0x0A	; 10
     596:	fe 4f       	sbci	r31, 0xFE	; 254
     598:	20 83       	st	Z, r18
     59a:	2e ee       	ldi	r18, 0xEE	; 238
     59c:	31 96       	adiw	r30, 0x01	; 1
     59e:	20 83       	st	Z, r18
     5a0:	7e 97       	sbiw	r30, 0x1e	; 30
     5a2:	10 82       	st	Z, r1
     5a4:	20 e8       	ldi	r18, 0x80	; 128
     5a6:	7f 96       	adiw	r30, 0x1f	; 31
     5a8:	20 83       	st	Z, r18
     5aa:	32 96       	adiw	r30, 0x02	; 2
     5ac:	10 82       	st	Z, r1
     5ae:	e4 e6       	ldi	r30, 0x64	; 100
     5b0:	f2 e0       	ldi	r31, 0x02	; 2
     5b2:	20 81       	ld	r18, Z
     5b4:	31 81       	ldd	r19, Z+1	; 0x01
     5b6:	db 01       	movw	r26, r22
     5b8:	a5 50       	subi	r26, 0x05	; 5
     5ba:	be 4f       	sbci	r27, 0xFE	; 254
     5bc:	3c 93       	st	X, r19
     5be:	20 81       	ld	r18, Z
     5c0:	31 81       	ldd	r19, Z+1	; 0x01
     5c2:	fb 01       	movw	r30, r22
     5c4:	e4 50       	subi	r30, 0x04	; 4
     5c6:	fe 4f       	sbci	r31, 0xFE	; 254
     5c8:	20 83       	st	Z, r18
     5ca:	31 96       	adiw	r30, 0x01	; 1
     5cc:	10 82       	st	Z, r1
     5ce:	2b ec       	ldi	r18, 0xCB	; 203
     5d0:	31 e0       	ldi	r19, 0x01	; 1
     5d2:	31 96       	adiw	r30, 0x01	; 1
     5d4:	30 83       	st	Z, r19
     5d6:	31 96       	adiw	r30, 0x01	; 1
     5d8:	20 83       	st	Z, r18
     5da:	31 96       	adiw	r30, 0x01	; 1
     5dc:	91 83       	std	Z+1, r25	; 0x01
     5de:	80 83       	st	Z, r24
     5e0:	82 e0       	ldi	r24, 0x02	; 2
     5e2:	33 96       	adiw	r30, 0x03	; 3
     5e4:	80 83       	st	Z, r24
     5e6:	80 91 66 02 	lds	r24, 0x0266
     5ea:	90 91 67 02 	lds	r25, 0x0267
     5ee:	31 96       	adiw	r30, 0x01	; 1
     5f0:	91 83       	std	Z+1, r25	; 0x01
     5f2:	80 83       	st	Z, r24
     5f4:	e8 e6       	ldi	r30, 0x68	; 104
     5f6:	f2 e0       	ldi	r31, 0x02	; 2
     5f8:	80 81       	ld	r24, Z
     5fa:	1b 96       	adiw	r26, 0x0b	; 11
     5fc:	8c 93       	st	X, r24
     5fe:	80 91 69 02 	lds	r24, 0x0269
     602:	14 97       	sbiw	r26, 0x04	; 4
     604:	8c 93       	st	X, r24
     606:	80 81       	ld	r24, Z
     608:	82 30       	cpi	r24, 0x02	; 2
     60a:	29 f0       	breq	.+10     	; 0x616 <_ZL18kernel_create_taskv+0xfa>
     60c:	83 30       	cpi	r24, 0x03	; 3
     60e:	79 f0       	breq	.+30     	; 0x62e <_ZL18kernel_create_taskv+0x112>
     610:	81 30       	cpi	r24, 0x01	; 1
     612:	e1 f4       	brne	.+56     	; 0x64c <_ZL18kernel_create_taskv+0x130>
     614:	12 c0       	rjmp	.+36     	; 0x63a <_ZL18kernel_create_taskv+0x11e>
     616:	e0 91 69 02 	lds	r30, 0x0269
     61a:	f0 e0       	ldi	r31, 0x00	; 0
     61c:	ee 0f       	add	r30, r30
     61e:	ff 1f       	adc	r31, r31
     620:	e2 5e       	subi	r30, 0xE2	; 226
     622:	fd 4f       	sbci	r31, 0xFD	; 253
     624:	71 83       	std	Z+1, r23	; 0x01
     626:	60 83       	st	Z, r22
     628:	81 e0       	ldi	r24, 0x01	; 1
     62a:	90 e0       	ldi	r25, 0x00	; 0
     62c:	08 95       	ret
     62e:	81 e5       	ldi	r24, 0x51	; 81
     630:	92 e0       	ldi	r25, 0x02	; 2
     632:	89 de       	rcall	.-750    	; 0x346 <_ZL7enqueueP7queue_tP9td_struct>
     634:	81 e0       	ldi	r24, 0x01	; 1
     636:	90 e0       	ldi	r25, 0x00	; 0
     638:	08 95       	ret
     63a:	85 e5       	ldi	r24, 0x55	; 85
     63c:	92 e0       	ldi	r25, 0x02	; 2
     63e:	83 de       	rcall	.-762    	; 0x346 <_ZL7enqueueP7queue_tP9td_struct>
     640:	81 e0       	ldi	r24, 0x01	; 1
     642:	90 e0       	ldi	r25, 0x00	; 0
     644:	08 95       	ret
     646:	80 e0       	ldi	r24, 0x00	; 0
     648:	90 e0       	ldi	r25, 0x00	; 0
     64a:	08 95       	ret
     64c:	81 e0       	ldi	r24, 0x01	; 1
     64e:	90 e0       	ldi	r25, 0x00	; 0
     650:	08 95       	ret
     652:	81 e0       	ldi	r24, 0x01	; 1
     654:	80 93 00 02 	sts	0x0200, r24
     658:	13 df       	rcall	.-474    	; 0x480 <OS_Abort>
     65a:	80 91 68 02 	lds	r24, 0x0268
     65e:	82 30       	cpi	r24, 0x02	; 2
     660:	09 f4       	brne	.+2      	; 0x664 <_ZL18kernel_create_taskv+0x148>
     662:	73 cf       	rjmp	.-282    	; 0x54a <_ZL18kernel_create_taskv+0x2e>
     664:	80 91 68 02 	lds	r24, 0x0268
     668:	82 30       	cpi	r24, 0x02	; 2
     66a:	29 f4       	brne	.+10     	; 0x676 <_ZL18kernel_create_taskv+0x15a>
     66c:	74 cf       	rjmp	.-280    	; 0x556 <_ZL18kernel_create_taskv+0x3a>
     66e:	83 e0       	ldi	r24, 0x03	; 3
     670:	80 93 00 02 	sts	0x0200, r24
     674:	05 df       	rcall	.-502    	; 0x480 <OS_Abort>
     676:	80 91 68 02 	lds	r24, 0x0268
     67a:	88 23       	and	r24, r24
     67c:	09 f4       	brne	.+2      	; 0x680 <_ZL18kernel_create_taskv+0x164>
     67e:	7d cf       	rjmp	.-262    	; 0x57a <_ZL18kernel_create_taskv+0x5e>
     680:	77 cf       	rjmp	.-274    	; 0x570 <_ZL18kernel_create_taskv+0x54>

00000682 <_Z7OS_Initv>:
     682:	e1 e8       	ldi	r30, 0x81	; 129
     684:	f0 e0       	ldi	r31, 0x00	; 0
     686:	80 81       	ld	r24, Z
     688:	82 60       	ori	r24, 0x02	; 2
     68a:	80 83       	st	Z, r24
     68c:	ee e6       	ldi	r30, 0x6E	; 110
     68e:	f4 e0       	ldi	r31, 0x04	; 4
     690:	ae e1       	ldi	r26, 0x1E	; 30
     692:	b2 e0       	ldi	r27, 0x02	; 2
     694:	2d ea       	ldi	r18, 0xAD	; 173
     696:	32 e1       	ldi	r19, 0x12	; 18
     698:	10 82       	st	Z, r1
     69a:	1d 92       	st	X+, r1
     69c:	1d 92       	st	X+, r1
     69e:	cf 01       	movw	r24, r30
     6a0:	06 96       	adiw	r24, 0x06	; 6
     6a2:	95 83       	std	Z+5, r25	; 0x05
     6a4:	84 83       	std	Z+4, r24	; 0x04
     6a6:	e7 5f       	subi	r30, 0xF7	; 247
     6a8:	fd 4f       	sbci	r31, 0xFD	; 253
     6aa:	e2 17       	cp	r30, r18
     6ac:	f3 07       	cpc	r31, r19
     6ae:	a1 f7       	brne	.-24     	; 0x698 <_Z7OS_Initv+0x16>
     6b0:	10 92 b2 12 	sts	0x12B2, r1
     6b4:	10 92 b1 12 	sts	0x12B1, r1
     6b8:	0f 2e       	mov	r0, r31
     6ba:	fb e6       	ldi	r31, 0x6B	; 107
     6bc:	ef 2e       	mov	r14, r31
     6be:	f2 e0       	ldi	r31, 0x02	; 2
     6c0:	ff 2e       	mov	r15, r31
     6c2:	f0 2d       	mov	r31, r0
     6c4:	f0 92 5b 02 	sts	0x025B, r15
     6c8:	e0 92 5a 02 	sts	0x025A, r14
     6cc:	8a ea       	ldi	r24, 0xAA	; 170
     6ce:	90 e1       	ldi	r25, 0x10	; 16
     6d0:	90 93 5d 02 	sts	0x025D, r25
     6d4:	80 93 5c 02 	sts	0x025C, r24
     6d8:	04 e6       	ldi	r16, 0x64	; 100
     6da:	12 e0       	ldi	r17, 0x02	; 2
     6dc:	80 ef       	ldi	r24, 0xF0	; 240
     6de:	90 e0       	ldi	r25, 0x00	; 0
     6e0:	f8 01       	movw	r30, r16
     6e2:	91 83       	std	Z+1, r25	; 0x01
     6e4:	80 83       	st	Z, r24
     6e6:	c8 e6       	ldi	r28, 0x68	; 104
     6e8:	d2 e0       	ldi	r29, 0x02	; 2
     6ea:	18 82       	st	Y, r1
     6ec:	17 df       	rcall	.-466    	; 0x51c <_ZL18kernel_create_taskv>
     6ee:	83 ed       	ldi	r24, 0xD3	; 211
     6f0:	90 e0       	ldi	r25, 0x00	; 0
     6f2:	f8 01       	movw	r30, r16
     6f4:	91 83       	std	Z+1, r25	; 0x01
     6f6:	80 83       	st	Z, r24
     6f8:	83 e0       	ldi	r24, 0x03	; 3
     6fa:	88 83       	st	Y, r24
     6fc:	0f df       	rcall	.-482    	; 0x51c <_ZL18kernel_create_taskv>
     6fe:	f0 92 bf 14 	sts	0x14BF, r15
     702:	e0 92 be 14 	sts	0x14BE, r14
     706:	81 e0       	ldi	r24, 0x01	; 1
     708:	80 93 6e 04 	sts	0x046E, r24
     70c:	81 e5       	ldi	r24, 0x51	; 81
     70e:	92 e0       	ldi	r25, 0x02	; 2
     710:	32 de       	rcall	.-924    	; 0x376 <_ZL7dequeueP7queue_t>
     712:	ef e6       	ldi	r30, 0x6F	; 111
     714:	f0 e0       	ldi	r31, 0x00	; 0
     716:	80 81       	ld	r24, Z
     718:	82 60       	ori	r24, 0x02	; 2
     71a:	80 83       	st	Z, r24
     71c:	80 91 84 00 	lds	r24, 0x0084
     720:	90 91 85 00 	lds	r25, 0x0085
     724:	8f 58       	subi	r24, 0x8F	; 143
     726:	9d 4f       	sbci	r25, 0xFD	; 253
     728:	90 93 89 00 	sts	0x0089, r25
     72c:	80 93 88 00 	sts	0x0088, r24
     730:	82 e0       	ldi	r24, 0x02	; 2
     732:	86 bb       	out	0x16, r24	; 22
     734:	0f 2e       	mov	r0, r31
     736:	f1 e5       	ldi	r31, 0x51	; 81
     738:	ef 2e       	mov	r14, r31
     73a:	f2 e0       	ldi	r31, 0x02	; 2
     73c:	ff 2e       	mov	r15, r31
     73e:	f0 2d       	mov	r31, r0
     740:	44 24       	eor	r4, r4
     742:	43 94       	inc	r4
     744:	0f 2e       	mov	r0, r31
     746:	f5 e5       	ldi	r31, 0x55	; 85
     748:	cf 2e       	mov	r12, r31
     74a:	f2 e0       	ldi	r31, 0x02	; 2
     74c:	df 2e       	mov	r13, r31
     74e:	f0 2d       	mov	r31, r0
     750:	0f 2e       	mov	r0, r31
     752:	f3 eb       	ldi	r31, 0xB3	; 179
     754:	6f 2e       	mov	r6, r31
     756:	f2 e1       	ldi	r31, 0x12	; 18
     758:	7f 2e       	mov	r7, r31
     75a:	f0 2d       	mov	r31, r0
     75c:	0f 2e       	mov	r0, r31
     75e:	f0 e6       	ldi	r31, 0x60	; 96
     760:	af 2e       	mov	r10, r31
     762:	f2 e0       	ldi	r31, 0x02	; 2
     764:	bf 2e       	mov	r11, r31
     766:	f0 2d       	mov	r31, r0
     768:	68 94       	set
     76a:	55 24       	eor	r5, r5
     76c:	51 f8       	bld	r5, 1
     76e:	4e 01       	movw	r8, r28
     770:	80 91 be 14 	lds	r24, 0x14BE
     774:	90 91 bf 14 	lds	r25, 0x14BF
     778:	fc 01       	movw	r30, r24
     77a:	ed 5f       	subi	r30, 0xFD	; 253
     77c:	fd 4f       	sbci	r31, 0xFD	; 253
     77e:	20 81       	ld	r18, Z
     780:	21 30       	cpi	r18, 0x01	; 1
     782:	19 f4       	brne	.+6      	; 0x78a <_Z7OS_Initv+0x108>
     784:	83 5b       	subi	r24, 0xB3	; 179
     786:	92 41       	sbci	r25, 0x12	; 18
     788:	19 f5       	brne	.+70     	; 0x7d0 <_Z7OS_Initv+0x14e>
     78a:	f7 01       	movw	r30, r14
     78c:	80 81       	ld	r24, Z
     78e:	91 81       	ldd	r25, Z+1	; 0x01
     790:	89 2b       	or	r24, r25
     792:	39 f0       	breq	.+14     	; 0x7a2 <_Z7OS_Initv+0x120>
     794:	c7 01       	movw	r24, r14
     796:	ef dd       	rcall	.-1058   	; 0x376 <_ZL7dequeueP7queue_t>
     798:	90 93 bf 14 	sts	0x14BF, r25
     79c:	80 93 be 14 	sts	0x14BE, r24
     7a0:	10 c0       	rjmp	.+32     	; 0x7c2 <_Z7OS_Initv+0x140>
     7a2:	f6 01       	movw	r30, r12
     7a4:	80 81       	ld	r24, Z
     7a6:	91 81       	ldd	r25, Z+1	; 0x01
     7a8:	89 2b       	or	r24, r25
     7aa:	39 f0       	breq	.+14     	; 0x7ba <_Z7OS_Initv+0x138>
     7ac:	c6 01       	movw	r24, r12
     7ae:	e3 dd       	rcall	.-1082   	; 0x376 <_ZL7dequeueP7queue_t>
     7b0:	90 93 bf 14 	sts	0x14BF, r25
     7b4:	80 93 be 14 	sts	0x14BE, r24
     7b8:	04 c0       	rjmp	.+8      	; 0x7c2 <_Z7OS_Initv+0x140>
     7ba:	70 92 bf 14 	sts	0x14BF, r7
     7be:	60 92 be 14 	sts	0x14BE, r6
     7c2:	e0 91 be 14 	lds	r30, 0x14BE
     7c6:	f0 91 bf 14 	lds	r31, 0x14BF
     7ca:	ed 5f       	subi	r30, 0xFD	; 253
     7cc:	fd 4f       	sbci	r31, 0xFD	; 253
     7ce:	40 82       	st	Z, r4
     7d0:	08 dd       	rcall	.-1520   	; 0x1e2 <_ZL11exit_kernelv>
     7d2:	80 91 6a 02 	lds	r24, 0x026A
     7d6:	90 e0       	ldi	r25, 0x00	; 0
     7d8:	89 30       	cpi	r24, 0x09	; 9
     7da:	91 05       	cpc	r25, r1
     7dc:	08 f0       	brcs	.+2      	; 0x7e0 <_Z7OS_Initv+0x15e>
     7de:	23 c1       	rjmp	.+582    	; 0xa26 <_Z7OS_Initv+0x3a4>
     7e0:	fc 01       	movw	r30, r24
     7e2:	ee 58       	subi	r30, 0x8E	; 142
     7e4:	ff 4f       	sbci	r31, 0xFF	; 255
     7e6:	21 c2       	rjmp	.+1090   	; 0xc2a <__tablejump2__>
     7e8:	60 91 be 14 	lds	r22, 0x14BE
     7ec:	70 91 bf 14 	lds	r23, 0x14BF
     7f0:	fb 01       	movw	r30, r22
     7f2:	ea 5f       	subi	r30, 0xFA	; 250
     7f4:	fd 4f       	sbci	r31, 0xFD	; 253
     7f6:	80 81       	ld	r24, Z
     7f8:	81 30       	cpi	r24, 0x01	; 1
     7fa:	09 f0       	breq	.+2      	; 0x7fe <_Z7OS_Initv+0x17c>
     7fc:	18 c1       	rjmp	.+560    	; 0xa2e <_Z7OS_Initv+0x3ac>
     7fe:	33 97       	sbiw	r30, 0x03	; 3
     800:	80 81       	ld	r24, Z
     802:	81 30       	cpi	r24, 0x01	; 1
     804:	09 f0       	breq	.+2      	; 0x808 <_Z7OS_Initv+0x186>
     806:	13 c1       	rjmp	.+550    	; 0xa2e <_Z7OS_Initv+0x3ac>
     808:	50 82       	st	Z, r5
     80a:	c6 01       	movw	r24, r12
     80c:	9c dd       	rcall	.-1224   	; 0x346 <_ZL7enqueueP7queue_tP9td_struct>
     80e:	0f c1       	rjmp	.+542    	; 0xa2e <_Z7OS_Initv+0x3ac>
     810:	85 de       	rcall	.-758    	; 0x51c <_ZL18kernel_create_taskv>
     812:	90 93 63 02 	sts	0x0263, r25
     816:	80 93 62 02 	sts	0x0262, r24
     81a:	80 91 62 02 	lds	r24, 0x0262
     81e:	90 91 63 02 	lds	r25, 0x0263
     822:	89 2b       	or	r24, r25
     824:	09 f4       	brne	.+2      	; 0x828 <_Z7OS_Initv+0x1a6>
     826:	03 c1       	rjmp	.+518    	; 0xa2e <_Z7OS_Initv+0x3ac>
     828:	f4 01       	movw	r30, r8
     82a:	80 81       	ld	r24, Z
     82c:	83 30       	cpi	r24, 0x03	; 3
     82e:	61 f4       	brne	.+24     	; 0x848 <_Z7OS_Initv+0x1c6>
     830:	80 91 be 14 	lds	r24, 0x14BE
     834:	90 91 bf 14 	lds	r25, 0x14BF
     838:	fc 01       	movw	r30, r24
     83a:	ea 5f       	subi	r30, 0xFA	; 250
     83c:	fd 4f       	sbci	r31, 0xFD	; 253
     83e:	20 81       	ld	r18, Z
     840:	23 30       	cpi	r18, 0x03	; 3
     842:	09 f0       	breq	.+2      	; 0x846 <_Z7OS_Initv+0x1c4>
     844:	f7 c0       	rjmp	.+494    	; 0xa34 <_Z7OS_Initv+0x3b2>
     846:	f3 c0       	rjmp	.+486    	; 0xa2e <_Z7OS_Initv+0x3ac>
     848:	60 91 be 14 	lds	r22, 0x14BE
     84c:	70 91 bf 14 	lds	r23, 0x14BF
     850:	fb 01       	movw	r30, r22
     852:	ea 5f       	subi	r30, 0xFA	; 250
     854:	fd 4f       	sbci	r31, 0xFD	; 253
     856:	80 81       	ld	r24, Z
     858:	81 30       	cpi	r24, 0x01	; 1
     85a:	09 f0       	breq	.+2      	; 0x85e <_Z7OS_Initv+0x1dc>
     85c:	e8 c0       	rjmp	.+464    	; 0xa2e <_Z7OS_Initv+0x3ac>
     85e:	f4 01       	movw	r30, r8
     860:	80 81       	ld	r24, Z
     862:	82 30       	cpi	r24, 0x02	; 2
     864:	31 f4       	brne	.+12     	; 0x872 <_Z7OS_Initv+0x1f0>
     866:	e9 e6       	ldi	r30, 0x69	; 105
     868:	f2 e0       	ldi	r31, 0x02	; 2
     86a:	80 81       	ld	r24, Z
     86c:	88 23       	and	r24, r24
     86e:	09 f4       	brne	.+2      	; 0x872 <_Z7OS_Initv+0x1f0>
     870:	e6 c0       	rjmp	.+460    	; 0xa3e <_Z7OS_Initv+0x3bc>
     872:	fb 01       	movw	r30, r22
     874:	ed 5f       	subi	r30, 0xFD	; 253
     876:	fd 4f       	sbci	r31, 0xFD	; 253
     878:	80 81       	ld	r24, Z
     87a:	82 30       	cpi	r24, 0x02	; 2
     87c:	09 f0       	breq	.+2      	; 0x880 <_Z7OS_Initv+0x1fe>
     87e:	d7 c0       	rjmp	.+430    	; 0xa2e <_Z7OS_Initv+0x3ac>
     880:	c6 01       	movw	r24, r12
     882:	61 dd       	rcall	.-1342   	; 0x346 <_ZL7enqueueP7queue_tP9td_struct>
     884:	d4 c0       	rjmp	.+424    	; 0xa2e <_Z7OS_Initv+0x3ac>
     886:	60 91 be 14 	lds	r22, 0x14BE
     88a:	70 91 bf 14 	lds	r23, 0x14BF
     88e:	f2 e1       	ldi	r31, 0x12	; 18
     890:	63 3b       	cpi	r22, 0xB3	; 179
     892:	7f 07       	cpc	r23, r31
     894:	09 f4       	brne	.+2      	; 0x898 <_Z7OS_Initv+0x216>
     896:	cb c0       	rjmp	.+406    	; 0xa2e <_Z7OS_Initv+0x3ac>
     898:	fb 01       	movw	r30, r22
     89a:	ed 5f       	subi	r30, 0xFD	; 253
     89c:	fd 4f       	sbci	r31, 0xFD	; 253
     89e:	10 82       	st	Z, r1
     8a0:	33 96       	adiw	r30, 0x03	; 3
     8a2:	80 81       	ld	r24, Z
     8a4:	82 30       	cpi	r24, 0x02	; 2
     8a6:	49 f4       	brne	.+18     	; 0x8ba <_Z7OS_Initv+0x238>
     8a8:	34 97       	sbiw	r30, 0x04	; 4
     8aa:	e0 81       	ld	r30, Z
     8ac:	f0 e0       	ldi	r31, 0x00	; 0
     8ae:	ee 0f       	add	r30, r30
     8b0:	ff 1f       	adc	r31, r31
     8b2:	e2 5e       	subi	r30, 0xE2	; 226
     8b4:	fd 4f       	sbci	r31, 0xFD	; 253
     8b6:	11 82       	std	Z+1, r1	; 0x01
     8b8:	10 82       	st	Z, r1
     8ba:	8a e5       	ldi	r24, 0x5A	; 90
     8bc:	92 e0       	ldi	r25, 0x02	; 2
     8be:	43 dd       	rcall	.-1402   	; 0x346 <_ZL7enqueueP7queue_tP9td_struct>
     8c0:	b6 c0       	rjmp	.+364    	; 0xa2e <_Z7OS_Initv+0x3ac>
     8c2:	c0 91 be 14 	lds	r28, 0x14BE
     8c6:	d0 91 bf 14 	lds	r29, 0x14BF
     8ca:	fe 01       	movw	r30, r28
     8cc:	ea 5f       	subi	r30, 0xFA	; 250
     8ce:	fd 4f       	sbci	r31, 0xFD	; 253
     8d0:	80 81       	ld	r24, Z
     8d2:	82 30       	cpi	r24, 0x02	; 2
     8d4:	49 f0       	breq	.+18     	; 0x8e8 <_Z7OS_Initv+0x266>
     8d6:	83 30       	cpi	r24, 0x03	; 3
     8d8:	19 f0       	breq	.+6      	; 0x8e0 <_Z7OS_Initv+0x25e>
     8da:	81 30       	cpi	r24, 0x01	; 1
     8dc:	59 f4       	brne	.+22     	; 0x8f4 <_Z7OS_Initv+0x272>
     8de:	07 c0       	rjmp	.+14     	; 0x8ee <_Z7OS_Initv+0x26c>
     8e0:	be 01       	movw	r22, r28
     8e2:	c7 01       	movw	r24, r14
     8e4:	30 dd       	rcall	.-1440   	; 0x346 <_ZL7enqueueP7queue_tP9td_struct>
     8e6:	06 c0       	rjmp	.+12     	; 0x8f4 <_Z7OS_Initv+0x272>
     8e8:	40 92 30 02 	sts	0x0230, r4
     8ec:	03 c0       	rjmp	.+6      	; 0x8f4 <_Z7OS_Initv+0x272>
     8ee:	be 01       	movw	r22, r28
     8f0:	c6 01       	movw	r24, r12
     8f2:	29 dd       	rcall	.-1454   	; 0x346 <_ZL7enqueueP7queue_tP9td_struct>
     8f4:	cd 5f       	subi	r28, 0xFD	; 253
     8f6:	dd 4f       	sbci	r29, 0xFD	; 253
     8f8:	58 82       	st	Y, r5
     8fa:	99 c0       	rjmp	.+306    	; 0xa2e <_Z7OS_Initv+0x3ac>
     8fc:	10 92 61 02 	sts	0x0261, r1
     900:	10 92 60 02 	sts	0x0260, r1
     904:	20 91 59 02 	lds	r18, 0x0259
     908:	28 30       	cpi	r18, 0x08	; 8
     90a:	08 f0       	brcs	.+2      	; 0x90e <_Z7OS_Initv+0x28c>
     90c:	90 c0       	rjmp	.+288    	; 0xa2e <_Z7OS_Initv+0x3ac>
     90e:	82 2f       	mov	r24, r18
     910:	90 e0       	ldi	r25, 0x00	; 0
     912:	01 96       	adiw	r24, 0x01	; 1
     914:	90 93 61 02 	sts	0x0261, r25
     918:	80 93 60 02 	sts	0x0260, r24
     91c:	2f 5f       	subi	r18, 0xFF	; 255
     91e:	20 93 59 02 	sts	0x0259, r18
     922:	85 c0       	rjmp	.+266    	; 0xa2e <_Z7OS_Initv+0x3ac>
     924:	60 91 be 14 	lds	r22, 0x14BE
     928:	70 91 bf 14 	lds	r23, 0x14BF
     92c:	22 e1       	ldi	r18, 0x12	; 18
     92e:	63 3b       	cpi	r22, 0xB3	; 179
     930:	72 07       	cpc	r23, r18
     932:	09 f4       	brne	.+2      	; 0x936 <_Z7OS_Initv+0x2b4>
     934:	7c c0       	rjmp	.+248    	; 0xa2e <_Z7OS_Initv+0x3ac>
     936:	20 91 5e 02 	lds	r18, 0x025E
     93a:	30 91 5f 02 	lds	r19, 0x025F
     93e:	f5 01       	movw	r30, r10
     940:	80 81       	ld	r24, Z
     942:	81 50       	subi	r24, 0x01	; 1
     944:	90 91 59 02 	lds	r25, 0x0259
     948:	89 17       	cp	r24, r25
     94a:	20 f0       	brcs	.+8      	; 0x954 <_Z7OS_Initv+0x2d2>
     94c:	8b e0       	ldi	r24, 0x0B	; 11
     94e:	80 93 00 02 	sts	0x0200, r24
     952:	96 dd       	rcall	.-1236   	; 0x480 <OS_Abort>
     954:	fb 01       	movw	r30, r22
     956:	ea 5f       	subi	r30, 0xFA	; 250
     958:	fd 4f       	sbci	r31, 0xFD	; 253
     95a:	90 81       	ld	r25, Z
     95c:	92 30       	cpi	r25, 0x02	; 2
     95e:	21 f4       	brne	.+8      	; 0x968 <_Z7OS_Initv+0x2e6>
     960:	8c e0       	ldi	r24, 0x0C	; 12
     962:	80 93 00 02 	sts	0x0200, r24
     966:	8c dd       	rcall	.-1256   	; 0x480 <OS_Abort>
     968:	fb 01       	movw	r30, r22
     96a:	ed 5f       	subi	r30, 0xFD	; 253
     96c:	fd 4f       	sbci	r31, 0xFD	; 253
     96e:	93 e0       	ldi	r25, 0x03	; 3
     970:	90 83       	st	Z, r25
     972:	31 96       	adiw	r30, 0x01	; 1
     974:	31 83       	std	Z+1, r19	; 0x01
     976:	20 83       	st	Z, r18
     978:	90 e0       	ldi	r25, 0x00	; 0
     97a:	88 0f       	add	r24, r24
     97c:	99 1f       	adc	r25, r25
     97e:	88 0f       	add	r24, r24
     980:	99 1f       	adc	r25, r25
     982:	8f 5c       	subi	r24, 0xCF	; 207
     984:	9d 4f       	sbci	r25, 0xFD	; 253
     986:	df dc       	rcall	.-1602   	; 0x346 <_ZL7enqueueP7queue_tP9td_struct>
     988:	52 c0       	rjmp	.+164    	; 0xa2e <_Z7OS_Initv+0x3ac>
     98a:	e0 91 5e 02 	lds	r30, 0x025E
     98e:	f0 91 5f 02 	lds	r31, 0x025F
     992:	00 81       	ld	r16, Z
     994:	11 81       	ldd	r17, Z+1	; 0x01
     996:	f5 01       	movw	r30, r10
     998:	c0 81       	ld	r28, Z
     99a:	c1 50       	subi	r28, 0x01	; 1
     99c:	80 91 59 02 	lds	r24, 0x0259
     9a0:	c8 17       	cp	r28, r24
     9a2:	50 f4       	brcc	.+20     	; 0x9b8 <_Z7OS_Initv+0x336>
     9a4:	d0 e0       	ldi	r29, 0x00	; 0
     9a6:	cc 0f       	add	r28, r28
     9a8:	dd 1f       	adc	r29, r29
     9aa:	cc 0f       	add	r28, r28
     9ac:	dd 1f       	adc	r29, r29
     9ae:	cf 5c       	subi	r28, 0xCF	; 207
     9b0:	dd 4f       	sbci	r29, 0xFD	; 253
     9b2:	2c 2e       	mov	r2, r28
     9b4:	3d 2e       	mov	r3, r29
     9b6:	20 c0       	rjmp	.+64     	; 0x9f8 <_Z7OS_Initv+0x376>
     9b8:	8e e0       	ldi	r24, 0x0E	; 14
     9ba:	80 93 00 02 	sts	0x0200, r24
     9be:	60 dd       	rcall	.-1344   	; 0x480 <OS_Abort>
     9c0:	82 2d       	mov	r24, r2
     9c2:	93 2d       	mov	r25, r3
     9c4:	d8 dc       	rcall	.-1616   	; 0x376 <_ZL7dequeueP7queue_t>
     9c6:	fc 01       	movw	r30, r24
     9c8:	ed 5f       	subi	r30, 0xFD	; 253
     9ca:	fd 4f       	sbci	r31, 0xFD	; 253
     9cc:	50 82       	st	Z, r5
     9ce:	31 96       	adiw	r30, 0x01	; 1
     9d0:	01 90       	ld	r0, Z+
     9d2:	f0 81       	ld	r31, Z
     9d4:	e0 2d       	mov	r30, r0
     9d6:	11 83       	std	Z+1, r17	; 0x01
     9d8:	00 83       	st	Z, r16
     9da:	fc 01       	movw	r30, r24
     9dc:	ea 5f       	subi	r30, 0xFA	; 250
     9de:	fd 4f       	sbci	r31, 0xFD	; 253
     9e0:	20 81       	ld	r18, Z
     9e2:	21 30       	cpi	r18, 0x01	; 1
     9e4:	31 f0       	breq	.+12     	; 0x9f2 <_Z7OS_Initv+0x370>
     9e6:	23 30       	cpi	r18, 0x03	; 3
     9e8:	39 f4       	brne	.+14     	; 0x9f8 <_Z7OS_Initv+0x376>
     9ea:	bc 01       	movw	r22, r24
     9ec:	c7 01       	movw	r24, r14
     9ee:	ab dc       	rcall	.-1706   	; 0x346 <_ZL7enqueueP7queue_tP9td_struct>
     9f0:	03 c0       	rjmp	.+6      	; 0x9f8 <_Z7OS_Initv+0x376>
     9f2:	bc 01       	movw	r22, r24
     9f4:	c6 01       	movw	r24, r12
     9f6:	a7 dc       	rcall	.-1714   	; 0x346 <_ZL7enqueueP7queue_tP9td_struct>
     9f8:	88 81       	ld	r24, Y
     9fa:	99 81       	ldd	r25, Y+1	; 0x01
     9fc:	89 2b       	or	r24, r25
     9fe:	01 f7       	brne	.-64     	; 0x9c0 <_Z7OS_Initv+0x33e>
     a00:	60 91 be 14 	lds	r22, 0x14BE
     a04:	70 91 bf 14 	lds	r23, 0x14BF
     a08:	f2 e1       	ldi	r31, 0x12	; 18
     a0a:	63 3b       	cpi	r22, 0xB3	; 179
     a0c:	7f 07       	cpc	r23, r31
     a0e:	79 f0       	breq	.+30     	; 0xa2e <_Z7OS_Initv+0x3ac>
     a10:	fb 01       	movw	r30, r22
     a12:	ed 5f       	subi	r30, 0xFD	; 253
     a14:	fd 4f       	sbci	r31, 0xFD	; 253
     a16:	50 82       	st	Z, r5
     a18:	33 96       	adiw	r30, 0x03	; 3
     a1a:	80 81       	ld	r24, Z
     a1c:	81 30       	cpi	r24, 0x01	; 1
     a1e:	39 f4       	brne	.+14     	; 0xa2e <_Z7OS_Initv+0x3ac>
     a20:	c6 01       	movw	r24, r12
     a22:	91 dc       	rcall	.-1758   	; 0x346 <_ZL7enqueueP7queue_tP9td_struct>
     a24:	04 c0       	rjmp	.+8      	; 0xa2e <_Z7OS_Initv+0x3ac>
     a26:	8d e0       	ldi	r24, 0x0D	; 13
     a28:	80 93 00 02 	sts	0x0200, r24
     a2c:	29 dd       	rcall	.-1454   	; 0x480 <OS_Abort>
     a2e:	10 92 6a 02 	sts	0x026A, r1
     a32:	9e ce       	rjmp	.-708    	; 0x770 <_Z7OS_Initv+0xee>
     a34:	fc 01       	movw	r30, r24
     a36:	ed 5f       	subi	r30, 0xFD	; 253
     a38:	fd 4f       	sbci	r31, 0xFD	; 253
     a3a:	50 82       	st	Z, r5
     a3c:	05 cf       	rjmp	.-502    	; 0x848 <_Z7OS_Initv+0x1c6>
     a3e:	fb 01       	movw	r30, r22
     a40:	ed 5f       	subi	r30, 0xFD	; 253
     a42:	fd 4f       	sbci	r31, 0xFD	; 253
     a44:	50 82       	st	Z, r5
     a46:	33 96       	adiw	r30, 0x03	; 3
     a48:	80 81       	ld	r24, Z
     a4a:	81 30       	cpi	r24, 0x01	; 1
     a4c:	09 f4       	brne	.+2      	; 0xa50 <_Z7OS_Initv+0x3ce>
     a4e:	11 cf       	rjmp	.-478    	; 0x872 <_Z7OS_Initv+0x1f0>
     a50:	ee cf       	rjmp	.-36     	; 0xa2e <_Z7OS_Initv+0x3ac>

00000a52 <Task_Create_RR>:
     a52:	cf 93       	push	r28
     a54:	cf b7       	in	r28, 0x3f	; 63
     a56:	f8 94       	cli
     a58:	90 93 65 02 	sts	0x0265, r25
     a5c:	80 93 64 02 	sts	0x0264, r24
     a60:	e0 91 66 02 	lds	r30, 0x0266
     a64:	f0 91 67 02 	lds	r31, 0x0267
     a68:	71 83       	std	Z+1, r23	; 0x01
     a6a:	60 83       	st	Z, r22
     a6c:	81 e0       	ldi	r24, 0x01	; 1
     a6e:	80 93 68 02 	sts	0x0268, r24
     a72:	82 e0       	ldi	r24, 0x02	; 2
     a74:	80 93 6a 02 	sts	0x026A, r24
     a78:	0d dc       	rcall	.-2022   	; 0x294 <_ZL12enter_kernelv>
     a7a:	80 91 62 02 	lds	r24, 0x0262
     a7e:	90 91 63 02 	lds	r25, 0x0263
     a82:	cf bf       	out	0x3f, r28	; 63
     a84:	cf 91       	pop	r28
     a86:	08 95       	ret

00000a88 <Service_Init>:
     a88:	cf 93       	push	r28
     a8a:	cf b7       	in	r28, 0x3f	; 63
     a8c:	f8 94       	cli
     a8e:	86 e0       	ldi	r24, 0x06	; 6
     a90:	80 93 6a 02 	sts	0x026A, r24
     a94:	ff db       	rcall	.-2050   	; 0x294 <_ZL12enter_kernelv>
     a96:	80 91 60 02 	lds	r24, 0x0260
     a9a:	90 91 61 02 	lds	r25, 0x0261
     a9e:	cf bf       	out	0x3f, r28	; 63
     aa0:	cf 91       	pop	r28
     aa2:	08 95       	ret

00000aa4 <Service_Subscribe>:
     aa4:	cf 93       	push	r28
     aa6:	cf b7       	in	r28, 0x3f	; 63
     aa8:	f8 94       	cli
     aaa:	27 e0       	ldi	r18, 0x07	; 7
     aac:	20 93 6a 02 	sts	0x026A, r18
     ab0:	90 93 61 02 	sts	0x0261, r25
     ab4:	80 93 60 02 	sts	0x0260, r24
     ab8:	70 93 5f 02 	sts	0x025F, r23
     abc:	60 93 5e 02 	sts	0x025E, r22
     ac0:	e9 db       	rcall	.-2094   	; 0x294 <_ZL12enter_kernelv>
     ac2:	cf bf       	out	0x3f, r28	; 63
     ac4:	cf 91       	pop	r28
     ac6:	08 95       	ret

00000ac8 <Service_Publish>:
     ac8:	cf 93       	push	r28
     aca:	cf b7       	in	r28, 0x3f	; 63
     acc:	f8 94       	cli
     ace:	28 e0       	ldi	r18, 0x08	; 8
     ad0:	20 93 6a 02 	sts	0x026A, r18
     ad4:	90 93 61 02 	sts	0x0261, r25
     ad8:	80 93 60 02 	sts	0x0260, r24
     adc:	e0 91 5e 02 	lds	r30, 0x025E
     ae0:	f0 91 5f 02 	lds	r31, 0x025F
     ae4:	71 83       	std	Z+1, r23	; 0x01
     ae6:	60 83       	st	Z, r22
     ae8:	d5 db       	rcall	.-2134   	; 0x294 <_ZL12enter_kernelv>
     aea:	cf bf       	out	0x3f, r28	; 63
     aec:	cf 91       	pop	r28
     aee:	08 95       	ret

00000af0 <main>:
/**
 * Runtime entry point into the program; just start the RTOS.  The application layer must define r_main() for its entry point.
 */
int main()
{
	OS_Init();
     af0:	c8 dd       	rcall	.-1136   	; 0x682 <_Z7OS_Initv>

00000af2 <__vector_25>:
/*
 Interrupt Service Routine (ISR):
*/

ISR(USART0_RX_vect)
{
     af2:	1f 92       	push	r1
     af4:	0f 92       	push	r0
     af6:	0f b6       	in	r0, 0x3f	; 63
     af8:	0f 92       	push	r0
     afa:	11 24       	eor	r1, r1
     afc:	0b b6       	in	r0, 0x3b	; 59
     afe:	0f 92       	push	r0
     b00:	5f 93       	push	r21
     b02:	6f 93       	push	r22
     b04:	7f 93       	push	r23
     b06:	8f 93       	push	r24
     b08:	9f 93       	push	r25
     b0a:	af 93       	push	r26
     b0c:	bf 93       	push	r27
     b0e:	ef 93       	push	r30
     b10:	ff 93       	push	r31
	while ( !(UCSR0A & (1<<RXC0)) );
     b12:	e0 ec       	ldi	r30, 0xC0	; 192
     b14:	f0 e0       	ldi	r31, 0x00	; 0
     b16:	80 81       	ld	r24, Z
     b18:	88 23       	and	r24, r24
     b1a:	ec f7       	brge	.-6      	; 0xb16 <__vector_25+0x24>

	//PORTB = ~_BV(PINB1);

	rx[rxn] = UDR0;
     b1c:	e0 91 24 15 	lds	r30, 0x1524
     b20:	f0 91 25 15 	lds	r31, 0x1525
     b24:	80 91 c6 00 	lds	r24, 0x00C6
     b28:	e0 54       	subi	r30, 0x40	; 64
     b2a:	fb 4e       	sbci	r31, 0xEB	; 235
     b2c:	80 83       	st	Z, r24
	rxn = (rxn + 1) % UART_BUFFER_SIZE;
     b2e:	80 91 24 15 	lds	r24, 0x1524
     b32:	90 91 25 15 	lds	r25, 0x1525
     b36:	01 96       	adiw	r24, 0x01	; 1
     b38:	64 e6       	ldi	r22, 0x64	; 100
     b3a:	70 e0       	ldi	r23, 0x00	; 0
     b3c:	63 d0       	rcall	.+198    	; 0xc04 <__divmodhi4>
     b3e:	90 93 25 15 	sts	0x1525, r25
     b42:	80 93 24 15 	sts	0x1524, r24
	uart_rx = 1; // notify main of receipt of data.
     b46:	81 e0       	ldi	r24, 0x01	; 1
     b48:	80 93 26 15 	sts	0x1526, r24
	//PORTB = PORTB | _BV(PINB1);
}
     b4c:	ff 91       	pop	r31
     b4e:	ef 91       	pop	r30
     b50:	bf 91       	pop	r27
     b52:	af 91       	pop	r26
     b54:	9f 91       	pop	r25
     b56:	8f 91       	pop	r24
     b58:	7f 91       	pop	r23
     b5a:	6f 91       	pop	r22
     b5c:	5f 91       	pop	r21
     b5e:	0f 90       	pop	r0
     b60:	0b be       	out	0x3b, r0	; 59
     b62:	0f 90       	pop	r0
     b64:	0f be       	out	0x3f, r0	; 63
     b66:	0f 90       	pop	r0
     b68:	1f 90       	pop	r1
     b6a:	18 95       	reti

00000b6c <_Z10USART_Initj>:
#include <stdio.h>			// Conversions

void USART_Init( unsigned int ubrr)
{
/*Set baud rate */
UBRR0H = (unsigned char)(ubrr>>8);
     b6c:	90 93 c5 00 	sts	0x00C5, r25
UBRR0L = (unsigned char)ubrr;
     b70:	80 93 c4 00 	sts	0x00C4, r24
//Enable receiver and transmitter */
UCSR0B = (1<<RXEN0)|(1<<TXEN0);
     b74:	88 e1       	ldi	r24, 0x18	; 24
     b76:	80 93 c1 00 	sts	0x00C1, r24
/* Set frame format: 8data, 2stop bit */
UCSR0C = (1<<USBS0)|(3<<UCSZ00);
     b7a:	8e e0       	ldi	r24, 0x0E	; 14
     b7c:	80 93 c2 00 	sts	0x00C2, r24
     b80:	08 95       	ret

00000b82 <_Z14USART_Sendbyteh>:


void USART_Sendbyte( unsigned char data )
{
/* Wait for empty transmit buffer */
while ( !( UCSR0A & (1<<UDRE0)) )
     b82:	e0 ec       	ldi	r30, 0xC0	; 192
     b84:	f0 e0       	ldi	r31, 0x00	; 0
     b86:	90 81       	ld	r25, Z
     b88:	95 ff       	sbrs	r25, 5
     b8a:	fd cf       	rjmp	.-6      	; 0xb86 <_Z14USART_Sendbyteh+0x4>
;
/* Put data into buffer, sends the data */
UDR0 = char(data);
     b8c:	80 93 c6 00 	sts	0x00C6, r24
     b90:	08 95       	ret

00000b92 <_Z17USART_Send_stringPKc>:
}

void USART_Send_string(const char *str)
{
     b92:	cf 93       	push	r28
     b94:	df 93       	push	r29
     b96:	ec 01       	movw	r28, r24

	  while (*str) 
     b98:	88 81       	ld	r24, Y
     b9a:	88 23       	and	r24, r24
     b9c:	29 f0       	breq	.+10     	; 0xba8 <_Z17USART_Send_stringPKc+0x16>
     b9e:	21 96       	adiw	r28, 0x01	; 1
      USART_Sendbyte(*str++);
     ba0:	f0 df       	rcall	.-32     	; 0xb82 <_Z14USART_Sendbyteh>
}

void USART_Send_string(const char *str)
{

	  while (*str) 
     ba2:	89 91       	ld	r24, Y+
     ba4:	81 11       	cpse	r24, r1
     ba6:	fc cf       	rjmp	.-8      	; 0xba0 <_Z17USART_Send_stringPKc+0xe>
      USART_Sendbyte(*str++);
	
}
     ba8:	df 91       	pop	r29
     baa:	cf 91       	pop	r28
     bac:	08 95       	ret

00000bae <_Z14USART_Send_intj>:

void USART_Send_int(unsigned int d )
{
     bae:	0f 93       	push	r16
     bb0:	1f 93       	push	r17
     bb2:	cf 93       	push	r28
     bb4:	df 93       	push	r29
     bb6:	cd b7       	in	r28, 0x3d	; 61
     bb8:	de b7       	in	r29, 0x3e	; 62
     bba:	2a 97       	sbiw	r28, 0x0a	; 10
     bbc:	0f b6       	in	r0, 0x3f	; 63
     bbe:	f8 94       	cli
     bc0:	de bf       	out	0x3e, r29	; 62
     bc2:	0f be       	out	0x3f, r0	; 63
     bc4:	cd bf       	out	0x3d, r28	; 61
	char str[10];
	sprintf(str,"%u",d);
     bc6:	9f 93       	push	r25
     bc8:	8f 93       	push	r24
     bca:	88 e1       	ldi	r24, 0x18	; 24
     bcc:	92 e0       	ldi	r25, 0x02	; 2
     bce:	9f 93       	push	r25
     bd0:	8f 93       	push	r24
     bd2:	8e 01       	movw	r16, r28
     bd4:	0f 5f       	subi	r16, 0xFF	; 255
     bd6:	1f 4f       	sbci	r17, 0xFF	; 255
     bd8:	1f 93       	push	r17
     bda:	0f 93       	push	r16
     bdc:	40 d0       	rcall	.+128    	; 0xc5e <sprintf>
	USART_Send_string(str);
     bde:	c8 01       	movw	r24, r16
     be0:	d8 df       	rcall	.-80     	; 0xb92 <_Z17USART_Send_stringPKc>
     be2:	0f 90       	pop	r0
     be4:	0f 90       	pop	r0
     be6:	0f 90       	pop	r0
     be8:	0f 90       	pop	r0
     bea:	0f 90       	pop	r0
     bec:	0f 90       	pop	r0
	
}
     bee:	2a 96       	adiw	r28, 0x0a	; 10
     bf0:	0f b6       	in	r0, 0x3f	; 63
     bf2:	f8 94       	cli
     bf4:	de bf       	out	0x3e, r29	; 62
     bf6:	0f be       	out	0x3f, r0	; 63
     bf8:	cd bf       	out	0x3d, r28	; 61
     bfa:	df 91       	pop	r29
     bfc:	cf 91       	pop	r28
     bfe:	1f 91       	pop	r17
     c00:	0f 91       	pop	r16
     c02:	08 95       	ret

00000c04 <__divmodhi4>:
     c04:	97 fb       	bst	r25, 7
     c06:	07 2e       	mov	r0, r23
     c08:	16 f4       	brtc	.+4      	; 0xc0e <__divmodhi4+0xa>
     c0a:	00 94       	com	r0
     c0c:	06 d0       	rcall	.+12     	; 0xc1a <__divmodhi4_neg1>
     c0e:	77 fd       	sbrc	r23, 7
     c10:	08 d0       	rcall	.+16     	; 0xc22 <__divmodhi4_neg2>
     c12:	11 d0       	rcall	.+34     	; 0xc36 <__udivmodhi4>
     c14:	07 fc       	sbrc	r0, 7
     c16:	05 d0       	rcall	.+10     	; 0xc22 <__divmodhi4_neg2>
     c18:	3e f4       	brtc	.+14     	; 0xc28 <__divmodhi4_exit>

00000c1a <__divmodhi4_neg1>:
     c1a:	90 95       	com	r25
     c1c:	81 95       	neg	r24
     c1e:	9f 4f       	sbci	r25, 0xFF	; 255
     c20:	08 95       	ret

00000c22 <__divmodhi4_neg2>:
     c22:	70 95       	com	r23
     c24:	61 95       	neg	r22
     c26:	7f 4f       	sbci	r23, 0xFF	; 255

00000c28 <__divmodhi4_exit>:
     c28:	08 95       	ret

00000c2a <__tablejump2__>:
     c2a:	ee 0f       	add	r30, r30
     c2c:	ff 1f       	adc	r31, r31

00000c2e <__tablejump__>:
     c2e:	05 90       	lpm	r0, Z+
     c30:	f4 91       	lpm	r31, Z
     c32:	e0 2d       	mov	r30, r0
     c34:	19 94       	eijmp

00000c36 <__udivmodhi4>:
     c36:	aa 1b       	sub	r26, r26
     c38:	bb 1b       	sub	r27, r27
     c3a:	51 e1       	ldi	r21, 0x11	; 17
     c3c:	07 c0       	rjmp	.+14     	; 0xc4c <__udivmodhi4_ep>

00000c3e <__udivmodhi4_loop>:
     c3e:	aa 1f       	adc	r26, r26
     c40:	bb 1f       	adc	r27, r27
     c42:	a6 17       	cp	r26, r22
     c44:	b7 07       	cpc	r27, r23
     c46:	10 f0       	brcs	.+4      	; 0xc4c <__udivmodhi4_ep>
     c48:	a6 1b       	sub	r26, r22
     c4a:	b7 0b       	sbc	r27, r23

00000c4c <__udivmodhi4_ep>:
     c4c:	88 1f       	adc	r24, r24
     c4e:	99 1f       	adc	r25, r25
     c50:	5a 95       	dec	r21
     c52:	a9 f7       	brne	.-22     	; 0xc3e <__udivmodhi4_loop>
     c54:	80 95       	com	r24
     c56:	90 95       	com	r25
     c58:	bc 01       	movw	r22, r24
     c5a:	cd 01       	movw	r24, r26
     c5c:	08 95       	ret

00000c5e <sprintf>:
     c5e:	0f 93       	push	r16
     c60:	1f 93       	push	r17
     c62:	cf 93       	push	r28
     c64:	df 93       	push	r29
     c66:	cd b7       	in	r28, 0x3d	; 61
     c68:	de b7       	in	r29, 0x3e	; 62
     c6a:	2e 97       	sbiw	r28, 0x0e	; 14
     c6c:	0f b6       	in	r0, 0x3f	; 63
     c6e:	f8 94       	cli
     c70:	de bf       	out	0x3e, r29	; 62
     c72:	0f be       	out	0x3f, r0	; 63
     c74:	cd bf       	out	0x3d, r28	; 61
     c76:	0e 89       	ldd	r16, Y+22	; 0x16
     c78:	1f 89       	ldd	r17, Y+23	; 0x17
     c7a:	86 e0       	ldi	r24, 0x06	; 6
     c7c:	8c 83       	std	Y+4, r24	; 0x04
     c7e:	1a 83       	std	Y+2, r17	; 0x02
     c80:	09 83       	std	Y+1, r16	; 0x01
     c82:	8f ef       	ldi	r24, 0xFF	; 255
     c84:	9f e7       	ldi	r25, 0x7F	; 127
     c86:	9e 83       	std	Y+6, r25	; 0x06
     c88:	8d 83       	std	Y+5, r24	; 0x05
     c8a:	ae 01       	movw	r20, r28
     c8c:	46 5e       	subi	r20, 0xE6	; 230
     c8e:	5f 4f       	sbci	r21, 0xFF	; 255
     c90:	68 8d       	ldd	r22, Y+24	; 0x18
     c92:	79 8d       	ldd	r23, Y+25	; 0x19
     c94:	ce 01       	movw	r24, r28
     c96:	01 96       	adiw	r24, 0x01	; 1
     c98:	10 d0       	rcall	.+32     	; 0xcba <vfprintf>
     c9a:	ef 81       	ldd	r30, Y+7	; 0x07
     c9c:	f8 85       	ldd	r31, Y+8	; 0x08
     c9e:	e0 0f       	add	r30, r16
     ca0:	f1 1f       	adc	r31, r17
     ca2:	10 82       	st	Z, r1
     ca4:	2e 96       	adiw	r28, 0x0e	; 14
     ca6:	0f b6       	in	r0, 0x3f	; 63
     ca8:	f8 94       	cli
     caa:	de bf       	out	0x3e, r29	; 62
     cac:	0f be       	out	0x3f, r0	; 63
     cae:	cd bf       	out	0x3d, r28	; 61
     cb0:	df 91       	pop	r29
     cb2:	cf 91       	pop	r28
     cb4:	1f 91       	pop	r17
     cb6:	0f 91       	pop	r16
     cb8:	08 95       	ret

00000cba <vfprintf>:
     cba:	2f 92       	push	r2
     cbc:	3f 92       	push	r3
     cbe:	4f 92       	push	r4
     cc0:	5f 92       	push	r5
     cc2:	6f 92       	push	r6
     cc4:	7f 92       	push	r7
     cc6:	8f 92       	push	r8
     cc8:	9f 92       	push	r9
     cca:	af 92       	push	r10
     ccc:	bf 92       	push	r11
     cce:	cf 92       	push	r12
     cd0:	df 92       	push	r13
     cd2:	ef 92       	push	r14
     cd4:	ff 92       	push	r15
     cd6:	0f 93       	push	r16
     cd8:	1f 93       	push	r17
     cda:	cf 93       	push	r28
     cdc:	df 93       	push	r29
     cde:	cd b7       	in	r28, 0x3d	; 61
     ce0:	de b7       	in	r29, 0x3e	; 62
     ce2:	2c 97       	sbiw	r28, 0x0c	; 12
     ce4:	0f b6       	in	r0, 0x3f	; 63
     ce6:	f8 94       	cli
     ce8:	de bf       	out	0x3e, r29	; 62
     cea:	0f be       	out	0x3f, r0	; 63
     cec:	cd bf       	out	0x3d, r28	; 61
     cee:	7c 01       	movw	r14, r24
     cf0:	6b 01       	movw	r12, r22
     cf2:	8a 01       	movw	r16, r20
     cf4:	fc 01       	movw	r30, r24
     cf6:	17 82       	std	Z+7, r1	; 0x07
     cf8:	16 82       	std	Z+6, r1	; 0x06
     cfa:	83 81       	ldd	r24, Z+3	; 0x03
     cfc:	81 ff       	sbrs	r24, 1
     cfe:	b0 c1       	rjmp	.+864    	; 0x1060 <vfprintf+0x3a6>
     d00:	ce 01       	movw	r24, r28
     d02:	01 96       	adiw	r24, 0x01	; 1
     d04:	4c 01       	movw	r8, r24
     d06:	f7 01       	movw	r30, r14
     d08:	93 81       	ldd	r25, Z+3	; 0x03
     d0a:	f6 01       	movw	r30, r12
     d0c:	93 fd       	sbrc	r25, 3
     d0e:	85 91       	lpm	r24, Z+
     d10:	93 ff       	sbrs	r25, 3
     d12:	81 91       	ld	r24, Z+
     d14:	6f 01       	movw	r12, r30
     d16:	88 23       	and	r24, r24
     d18:	09 f4       	brne	.+2      	; 0xd1c <vfprintf+0x62>
     d1a:	9e c1       	rjmp	.+828    	; 0x1058 <vfprintf+0x39e>
     d1c:	85 32       	cpi	r24, 0x25	; 37
     d1e:	39 f4       	brne	.+14     	; 0xd2e <vfprintf+0x74>
     d20:	93 fd       	sbrc	r25, 3
     d22:	85 91       	lpm	r24, Z+
     d24:	93 ff       	sbrs	r25, 3
     d26:	81 91       	ld	r24, Z+
     d28:	6f 01       	movw	r12, r30
     d2a:	85 32       	cpi	r24, 0x25	; 37
     d2c:	21 f4       	brne	.+8      	; 0xd36 <vfprintf+0x7c>
     d2e:	b7 01       	movw	r22, r14
     d30:	90 e0       	ldi	r25, 0x00	; 0
     d32:	c7 d1       	rcall	.+910    	; 0x10c2 <fputc>
     d34:	e8 cf       	rjmp	.-48     	; 0xd06 <vfprintf+0x4c>
     d36:	51 2c       	mov	r5, r1
     d38:	31 2c       	mov	r3, r1
     d3a:	20 e0       	ldi	r18, 0x00	; 0
     d3c:	20 32       	cpi	r18, 0x20	; 32
     d3e:	a0 f4       	brcc	.+40     	; 0xd68 <vfprintf+0xae>
     d40:	8b 32       	cpi	r24, 0x2B	; 43
     d42:	69 f0       	breq	.+26     	; 0xd5e <vfprintf+0xa4>
     d44:	30 f4       	brcc	.+12     	; 0xd52 <vfprintf+0x98>
     d46:	80 32       	cpi	r24, 0x20	; 32
     d48:	59 f0       	breq	.+22     	; 0xd60 <vfprintf+0xa6>
     d4a:	83 32       	cpi	r24, 0x23	; 35
     d4c:	69 f4       	brne	.+26     	; 0xd68 <vfprintf+0xae>
     d4e:	20 61       	ori	r18, 0x10	; 16
     d50:	2c c0       	rjmp	.+88     	; 0xdaa <vfprintf+0xf0>
     d52:	8d 32       	cpi	r24, 0x2D	; 45
     d54:	39 f0       	breq	.+14     	; 0xd64 <vfprintf+0xaa>
     d56:	80 33       	cpi	r24, 0x30	; 48
     d58:	39 f4       	brne	.+14     	; 0xd68 <vfprintf+0xae>
     d5a:	21 60       	ori	r18, 0x01	; 1
     d5c:	26 c0       	rjmp	.+76     	; 0xdaa <vfprintf+0xf0>
     d5e:	22 60       	ori	r18, 0x02	; 2
     d60:	24 60       	ori	r18, 0x04	; 4
     d62:	23 c0       	rjmp	.+70     	; 0xdaa <vfprintf+0xf0>
     d64:	28 60       	ori	r18, 0x08	; 8
     d66:	21 c0       	rjmp	.+66     	; 0xdaa <vfprintf+0xf0>
     d68:	27 fd       	sbrc	r18, 7
     d6a:	27 c0       	rjmp	.+78     	; 0xdba <vfprintf+0x100>
     d6c:	30 ed       	ldi	r19, 0xD0	; 208
     d6e:	38 0f       	add	r19, r24
     d70:	3a 30       	cpi	r19, 0x0A	; 10
     d72:	78 f4       	brcc	.+30     	; 0xd92 <vfprintf+0xd8>
     d74:	26 ff       	sbrs	r18, 6
     d76:	06 c0       	rjmp	.+12     	; 0xd84 <vfprintf+0xca>
     d78:	fa e0       	ldi	r31, 0x0A	; 10
     d7a:	5f 9e       	mul	r5, r31
     d7c:	30 0d       	add	r19, r0
     d7e:	11 24       	eor	r1, r1
     d80:	53 2e       	mov	r5, r19
     d82:	13 c0       	rjmp	.+38     	; 0xdaa <vfprintf+0xf0>
     d84:	8a e0       	ldi	r24, 0x0A	; 10
     d86:	38 9e       	mul	r3, r24
     d88:	30 0d       	add	r19, r0
     d8a:	11 24       	eor	r1, r1
     d8c:	33 2e       	mov	r3, r19
     d8e:	20 62       	ori	r18, 0x20	; 32
     d90:	0c c0       	rjmp	.+24     	; 0xdaa <vfprintf+0xf0>
     d92:	8e 32       	cpi	r24, 0x2E	; 46
     d94:	21 f4       	brne	.+8      	; 0xd9e <vfprintf+0xe4>
     d96:	26 fd       	sbrc	r18, 6
     d98:	5f c1       	rjmp	.+702    	; 0x1058 <vfprintf+0x39e>
     d9a:	20 64       	ori	r18, 0x40	; 64
     d9c:	06 c0       	rjmp	.+12     	; 0xdaa <vfprintf+0xf0>
     d9e:	8c 36       	cpi	r24, 0x6C	; 108
     da0:	11 f4       	brne	.+4      	; 0xda6 <vfprintf+0xec>
     da2:	20 68       	ori	r18, 0x80	; 128
     da4:	02 c0       	rjmp	.+4      	; 0xdaa <vfprintf+0xf0>
     da6:	88 36       	cpi	r24, 0x68	; 104
     da8:	41 f4       	brne	.+16     	; 0xdba <vfprintf+0x100>
     daa:	f6 01       	movw	r30, r12
     dac:	93 fd       	sbrc	r25, 3
     dae:	85 91       	lpm	r24, Z+
     db0:	93 ff       	sbrs	r25, 3
     db2:	81 91       	ld	r24, Z+
     db4:	6f 01       	movw	r12, r30
     db6:	81 11       	cpse	r24, r1
     db8:	c1 cf       	rjmp	.-126    	; 0xd3c <vfprintf+0x82>
     dba:	98 2f       	mov	r25, r24
     dbc:	9f 7d       	andi	r25, 0xDF	; 223
     dbe:	95 54       	subi	r25, 0x45	; 69
     dc0:	93 30       	cpi	r25, 0x03	; 3
     dc2:	28 f4       	brcc	.+10     	; 0xdce <vfprintf+0x114>
     dc4:	0c 5f       	subi	r16, 0xFC	; 252
     dc6:	1f 4f       	sbci	r17, 0xFF	; 255
     dc8:	ff e3       	ldi	r31, 0x3F	; 63
     dca:	f9 83       	std	Y+1, r31	; 0x01
     dcc:	0d c0       	rjmp	.+26     	; 0xde8 <vfprintf+0x12e>
     dce:	83 36       	cpi	r24, 0x63	; 99
     dd0:	31 f0       	breq	.+12     	; 0xdde <vfprintf+0x124>
     dd2:	83 37       	cpi	r24, 0x73	; 115
     dd4:	71 f0       	breq	.+28     	; 0xdf2 <vfprintf+0x138>
     dd6:	83 35       	cpi	r24, 0x53	; 83
     dd8:	09 f0       	breq	.+2      	; 0xddc <vfprintf+0x122>
     dda:	57 c0       	rjmp	.+174    	; 0xe8a <vfprintf+0x1d0>
     ddc:	21 c0       	rjmp	.+66     	; 0xe20 <vfprintf+0x166>
     dde:	f8 01       	movw	r30, r16
     de0:	80 81       	ld	r24, Z
     de2:	89 83       	std	Y+1, r24	; 0x01
     de4:	0e 5f       	subi	r16, 0xFE	; 254
     de6:	1f 4f       	sbci	r17, 0xFF	; 255
     de8:	44 24       	eor	r4, r4
     dea:	43 94       	inc	r4
     dec:	51 2c       	mov	r5, r1
     dee:	54 01       	movw	r10, r8
     df0:	14 c0       	rjmp	.+40     	; 0xe1a <vfprintf+0x160>
     df2:	38 01       	movw	r6, r16
     df4:	f2 e0       	ldi	r31, 0x02	; 2
     df6:	6f 0e       	add	r6, r31
     df8:	71 1c       	adc	r7, r1
     dfa:	f8 01       	movw	r30, r16
     dfc:	a0 80       	ld	r10, Z
     dfe:	b1 80       	ldd	r11, Z+1	; 0x01
     e00:	26 ff       	sbrs	r18, 6
     e02:	03 c0       	rjmp	.+6      	; 0xe0a <vfprintf+0x150>
     e04:	65 2d       	mov	r22, r5
     e06:	70 e0       	ldi	r23, 0x00	; 0
     e08:	02 c0       	rjmp	.+4      	; 0xe0e <vfprintf+0x154>
     e0a:	6f ef       	ldi	r22, 0xFF	; 255
     e0c:	7f ef       	ldi	r23, 0xFF	; 255
     e0e:	c5 01       	movw	r24, r10
     e10:	2c 87       	std	Y+12, r18	; 0x0c
     e12:	4c d1       	rcall	.+664    	; 0x10ac <strnlen>
     e14:	2c 01       	movw	r4, r24
     e16:	83 01       	movw	r16, r6
     e18:	2c 85       	ldd	r18, Y+12	; 0x0c
     e1a:	2f 77       	andi	r18, 0x7F	; 127
     e1c:	22 2e       	mov	r2, r18
     e1e:	16 c0       	rjmp	.+44     	; 0xe4c <vfprintf+0x192>
     e20:	38 01       	movw	r6, r16
     e22:	f2 e0       	ldi	r31, 0x02	; 2
     e24:	6f 0e       	add	r6, r31
     e26:	71 1c       	adc	r7, r1
     e28:	f8 01       	movw	r30, r16
     e2a:	a0 80       	ld	r10, Z
     e2c:	b1 80       	ldd	r11, Z+1	; 0x01
     e2e:	26 ff       	sbrs	r18, 6
     e30:	03 c0       	rjmp	.+6      	; 0xe38 <vfprintf+0x17e>
     e32:	65 2d       	mov	r22, r5
     e34:	70 e0       	ldi	r23, 0x00	; 0
     e36:	02 c0       	rjmp	.+4      	; 0xe3c <vfprintf+0x182>
     e38:	6f ef       	ldi	r22, 0xFF	; 255
     e3a:	7f ef       	ldi	r23, 0xFF	; 255
     e3c:	c5 01       	movw	r24, r10
     e3e:	2c 87       	std	Y+12, r18	; 0x0c
     e40:	2a d1       	rcall	.+596    	; 0x1096 <strnlen_P>
     e42:	2c 01       	movw	r4, r24
     e44:	2c 85       	ldd	r18, Y+12	; 0x0c
     e46:	20 68       	ori	r18, 0x80	; 128
     e48:	22 2e       	mov	r2, r18
     e4a:	83 01       	movw	r16, r6
     e4c:	23 fc       	sbrc	r2, 3
     e4e:	19 c0       	rjmp	.+50     	; 0xe82 <vfprintf+0x1c8>
     e50:	83 2d       	mov	r24, r3
     e52:	90 e0       	ldi	r25, 0x00	; 0
     e54:	48 16       	cp	r4, r24
     e56:	59 06       	cpc	r5, r25
     e58:	a0 f4       	brcc	.+40     	; 0xe82 <vfprintf+0x1c8>
     e5a:	b7 01       	movw	r22, r14
     e5c:	80 e2       	ldi	r24, 0x20	; 32
     e5e:	90 e0       	ldi	r25, 0x00	; 0
     e60:	30 d1       	rcall	.+608    	; 0x10c2 <fputc>
     e62:	3a 94       	dec	r3
     e64:	f5 cf       	rjmp	.-22     	; 0xe50 <vfprintf+0x196>
     e66:	f5 01       	movw	r30, r10
     e68:	27 fc       	sbrc	r2, 7
     e6a:	85 91       	lpm	r24, Z+
     e6c:	27 fe       	sbrs	r2, 7
     e6e:	81 91       	ld	r24, Z+
     e70:	5f 01       	movw	r10, r30
     e72:	b7 01       	movw	r22, r14
     e74:	90 e0       	ldi	r25, 0x00	; 0
     e76:	25 d1       	rcall	.+586    	; 0x10c2 <fputc>
     e78:	31 10       	cpse	r3, r1
     e7a:	3a 94       	dec	r3
     e7c:	f1 e0       	ldi	r31, 0x01	; 1
     e7e:	4f 1a       	sub	r4, r31
     e80:	51 08       	sbc	r5, r1
     e82:	41 14       	cp	r4, r1
     e84:	51 04       	cpc	r5, r1
     e86:	79 f7       	brne	.-34     	; 0xe66 <vfprintf+0x1ac>
     e88:	de c0       	rjmp	.+444    	; 0x1046 <vfprintf+0x38c>
     e8a:	84 36       	cpi	r24, 0x64	; 100
     e8c:	11 f0       	breq	.+4      	; 0xe92 <vfprintf+0x1d8>
     e8e:	89 36       	cpi	r24, 0x69	; 105
     e90:	31 f5       	brne	.+76     	; 0xede <vfprintf+0x224>
     e92:	f8 01       	movw	r30, r16
     e94:	27 ff       	sbrs	r18, 7
     e96:	07 c0       	rjmp	.+14     	; 0xea6 <vfprintf+0x1ec>
     e98:	60 81       	ld	r22, Z
     e9a:	71 81       	ldd	r23, Z+1	; 0x01
     e9c:	82 81       	ldd	r24, Z+2	; 0x02
     e9e:	93 81       	ldd	r25, Z+3	; 0x03
     ea0:	0c 5f       	subi	r16, 0xFC	; 252
     ea2:	1f 4f       	sbci	r17, 0xFF	; 255
     ea4:	08 c0       	rjmp	.+16     	; 0xeb6 <vfprintf+0x1fc>
     ea6:	60 81       	ld	r22, Z
     ea8:	71 81       	ldd	r23, Z+1	; 0x01
     eaa:	88 27       	eor	r24, r24
     eac:	77 fd       	sbrc	r23, 7
     eae:	80 95       	com	r24
     eb0:	98 2f       	mov	r25, r24
     eb2:	0e 5f       	subi	r16, 0xFE	; 254
     eb4:	1f 4f       	sbci	r17, 0xFF	; 255
     eb6:	2f 76       	andi	r18, 0x6F	; 111
     eb8:	b2 2e       	mov	r11, r18
     eba:	97 ff       	sbrs	r25, 7
     ebc:	09 c0       	rjmp	.+18     	; 0xed0 <vfprintf+0x216>
     ebe:	90 95       	com	r25
     ec0:	80 95       	com	r24
     ec2:	70 95       	com	r23
     ec4:	61 95       	neg	r22
     ec6:	7f 4f       	sbci	r23, 0xFF	; 255
     ec8:	8f 4f       	sbci	r24, 0xFF	; 255
     eca:	9f 4f       	sbci	r25, 0xFF	; 255
     ecc:	20 68       	ori	r18, 0x80	; 128
     ece:	b2 2e       	mov	r11, r18
     ed0:	2a e0       	ldi	r18, 0x0A	; 10
     ed2:	30 e0       	ldi	r19, 0x00	; 0
     ed4:	a4 01       	movw	r20, r8
     ed6:	27 d1       	rcall	.+590    	; 0x1126 <__ultoa_invert>
     ed8:	a8 2e       	mov	r10, r24
     eda:	a8 18       	sub	r10, r8
     edc:	43 c0       	rjmp	.+134    	; 0xf64 <vfprintf+0x2aa>
     ede:	85 37       	cpi	r24, 0x75	; 117
     ee0:	29 f4       	brne	.+10     	; 0xeec <vfprintf+0x232>
     ee2:	2f 7e       	andi	r18, 0xEF	; 239
     ee4:	b2 2e       	mov	r11, r18
     ee6:	2a e0       	ldi	r18, 0x0A	; 10
     ee8:	30 e0       	ldi	r19, 0x00	; 0
     eea:	25 c0       	rjmp	.+74     	; 0xf36 <vfprintf+0x27c>
     eec:	f2 2f       	mov	r31, r18
     eee:	f9 7f       	andi	r31, 0xF9	; 249
     ef0:	bf 2e       	mov	r11, r31
     ef2:	8f 36       	cpi	r24, 0x6F	; 111
     ef4:	c1 f0       	breq	.+48     	; 0xf26 <vfprintf+0x26c>
     ef6:	18 f4       	brcc	.+6      	; 0xefe <vfprintf+0x244>
     ef8:	88 35       	cpi	r24, 0x58	; 88
     efa:	79 f0       	breq	.+30     	; 0xf1a <vfprintf+0x260>
     efc:	ad c0       	rjmp	.+346    	; 0x1058 <vfprintf+0x39e>
     efe:	80 37       	cpi	r24, 0x70	; 112
     f00:	19 f0       	breq	.+6      	; 0xf08 <vfprintf+0x24e>
     f02:	88 37       	cpi	r24, 0x78	; 120
     f04:	21 f0       	breq	.+8      	; 0xf0e <vfprintf+0x254>
     f06:	a8 c0       	rjmp	.+336    	; 0x1058 <vfprintf+0x39e>
     f08:	2f 2f       	mov	r18, r31
     f0a:	20 61       	ori	r18, 0x10	; 16
     f0c:	b2 2e       	mov	r11, r18
     f0e:	b4 fe       	sbrs	r11, 4
     f10:	0d c0       	rjmp	.+26     	; 0xf2c <vfprintf+0x272>
     f12:	8b 2d       	mov	r24, r11
     f14:	84 60       	ori	r24, 0x04	; 4
     f16:	b8 2e       	mov	r11, r24
     f18:	09 c0       	rjmp	.+18     	; 0xf2c <vfprintf+0x272>
     f1a:	24 ff       	sbrs	r18, 4
     f1c:	0a c0       	rjmp	.+20     	; 0xf32 <vfprintf+0x278>
     f1e:	9f 2f       	mov	r25, r31
     f20:	96 60       	ori	r25, 0x06	; 6
     f22:	b9 2e       	mov	r11, r25
     f24:	06 c0       	rjmp	.+12     	; 0xf32 <vfprintf+0x278>
     f26:	28 e0       	ldi	r18, 0x08	; 8
     f28:	30 e0       	ldi	r19, 0x00	; 0
     f2a:	05 c0       	rjmp	.+10     	; 0xf36 <vfprintf+0x27c>
     f2c:	20 e1       	ldi	r18, 0x10	; 16
     f2e:	30 e0       	ldi	r19, 0x00	; 0
     f30:	02 c0       	rjmp	.+4      	; 0xf36 <vfprintf+0x27c>
     f32:	20 e1       	ldi	r18, 0x10	; 16
     f34:	32 e0       	ldi	r19, 0x02	; 2
     f36:	f8 01       	movw	r30, r16
     f38:	b7 fe       	sbrs	r11, 7
     f3a:	07 c0       	rjmp	.+14     	; 0xf4a <vfprintf+0x290>
     f3c:	60 81       	ld	r22, Z
     f3e:	71 81       	ldd	r23, Z+1	; 0x01
     f40:	82 81       	ldd	r24, Z+2	; 0x02
     f42:	93 81       	ldd	r25, Z+3	; 0x03
     f44:	0c 5f       	subi	r16, 0xFC	; 252
     f46:	1f 4f       	sbci	r17, 0xFF	; 255
     f48:	06 c0       	rjmp	.+12     	; 0xf56 <vfprintf+0x29c>
     f4a:	60 81       	ld	r22, Z
     f4c:	71 81       	ldd	r23, Z+1	; 0x01
     f4e:	80 e0       	ldi	r24, 0x00	; 0
     f50:	90 e0       	ldi	r25, 0x00	; 0
     f52:	0e 5f       	subi	r16, 0xFE	; 254
     f54:	1f 4f       	sbci	r17, 0xFF	; 255
     f56:	a4 01       	movw	r20, r8
     f58:	e6 d0       	rcall	.+460    	; 0x1126 <__ultoa_invert>
     f5a:	a8 2e       	mov	r10, r24
     f5c:	a8 18       	sub	r10, r8
     f5e:	fb 2d       	mov	r31, r11
     f60:	ff 77       	andi	r31, 0x7F	; 127
     f62:	bf 2e       	mov	r11, r31
     f64:	b6 fe       	sbrs	r11, 6
     f66:	0b c0       	rjmp	.+22     	; 0xf7e <vfprintf+0x2c4>
     f68:	2b 2d       	mov	r18, r11
     f6a:	2e 7f       	andi	r18, 0xFE	; 254
     f6c:	a5 14       	cp	r10, r5
     f6e:	50 f4       	brcc	.+20     	; 0xf84 <vfprintf+0x2ca>
     f70:	b4 fe       	sbrs	r11, 4
     f72:	0a c0       	rjmp	.+20     	; 0xf88 <vfprintf+0x2ce>
     f74:	b2 fc       	sbrc	r11, 2
     f76:	08 c0       	rjmp	.+16     	; 0xf88 <vfprintf+0x2ce>
     f78:	2b 2d       	mov	r18, r11
     f7a:	2e 7e       	andi	r18, 0xEE	; 238
     f7c:	05 c0       	rjmp	.+10     	; 0xf88 <vfprintf+0x2ce>
     f7e:	7a 2c       	mov	r7, r10
     f80:	2b 2d       	mov	r18, r11
     f82:	03 c0       	rjmp	.+6      	; 0xf8a <vfprintf+0x2d0>
     f84:	7a 2c       	mov	r7, r10
     f86:	01 c0       	rjmp	.+2      	; 0xf8a <vfprintf+0x2d0>
     f88:	75 2c       	mov	r7, r5
     f8a:	24 ff       	sbrs	r18, 4
     f8c:	0d c0       	rjmp	.+26     	; 0xfa8 <vfprintf+0x2ee>
     f8e:	fe 01       	movw	r30, r28
     f90:	ea 0d       	add	r30, r10
     f92:	f1 1d       	adc	r31, r1
     f94:	80 81       	ld	r24, Z
     f96:	80 33       	cpi	r24, 0x30	; 48
     f98:	11 f4       	brne	.+4      	; 0xf9e <vfprintf+0x2e4>
     f9a:	29 7e       	andi	r18, 0xE9	; 233
     f9c:	09 c0       	rjmp	.+18     	; 0xfb0 <vfprintf+0x2f6>
     f9e:	22 ff       	sbrs	r18, 2
     fa0:	06 c0       	rjmp	.+12     	; 0xfae <vfprintf+0x2f4>
     fa2:	73 94       	inc	r7
     fa4:	73 94       	inc	r7
     fa6:	04 c0       	rjmp	.+8      	; 0xfb0 <vfprintf+0x2f6>
     fa8:	82 2f       	mov	r24, r18
     faa:	86 78       	andi	r24, 0x86	; 134
     fac:	09 f0       	breq	.+2      	; 0xfb0 <vfprintf+0x2f6>
     fae:	73 94       	inc	r7
     fb0:	23 fd       	sbrc	r18, 3
     fb2:	12 c0       	rjmp	.+36     	; 0xfd8 <vfprintf+0x31e>
     fb4:	20 ff       	sbrs	r18, 0
     fb6:	06 c0       	rjmp	.+12     	; 0xfc4 <vfprintf+0x30a>
     fb8:	5a 2c       	mov	r5, r10
     fba:	73 14       	cp	r7, r3
     fbc:	18 f4       	brcc	.+6      	; 0xfc4 <vfprintf+0x30a>
     fbe:	53 0c       	add	r5, r3
     fc0:	57 18       	sub	r5, r7
     fc2:	73 2c       	mov	r7, r3
     fc4:	73 14       	cp	r7, r3
     fc6:	60 f4       	brcc	.+24     	; 0xfe0 <vfprintf+0x326>
     fc8:	b7 01       	movw	r22, r14
     fca:	80 e2       	ldi	r24, 0x20	; 32
     fcc:	90 e0       	ldi	r25, 0x00	; 0
     fce:	2c 87       	std	Y+12, r18	; 0x0c
     fd0:	78 d0       	rcall	.+240    	; 0x10c2 <fputc>
     fd2:	73 94       	inc	r7
     fd4:	2c 85       	ldd	r18, Y+12	; 0x0c
     fd6:	f6 cf       	rjmp	.-20     	; 0xfc4 <vfprintf+0x30a>
     fd8:	73 14       	cp	r7, r3
     fda:	10 f4       	brcc	.+4      	; 0xfe0 <vfprintf+0x326>
     fdc:	37 18       	sub	r3, r7
     fde:	01 c0       	rjmp	.+2      	; 0xfe2 <vfprintf+0x328>
     fe0:	31 2c       	mov	r3, r1
     fe2:	24 ff       	sbrs	r18, 4
     fe4:	11 c0       	rjmp	.+34     	; 0x1008 <vfprintf+0x34e>
     fe6:	b7 01       	movw	r22, r14
     fe8:	80 e3       	ldi	r24, 0x30	; 48
     fea:	90 e0       	ldi	r25, 0x00	; 0
     fec:	2c 87       	std	Y+12, r18	; 0x0c
     fee:	69 d0       	rcall	.+210    	; 0x10c2 <fputc>
     ff0:	2c 85       	ldd	r18, Y+12	; 0x0c
     ff2:	22 ff       	sbrs	r18, 2
     ff4:	16 c0       	rjmp	.+44     	; 0x1022 <vfprintf+0x368>
     ff6:	21 ff       	sbrs	r18, 1
     ff8:	03 c0       	rjmp	.+6      	; 0x1000 <vfprintf+0x346>
     ffa:	88 e5       	ldi	r24, 0x58	; 88
     ffc:	90 e0       	ldi	r25, 0x00	; 0
     ffe:	02 c0       	rjmp	.+4      	; 0x1004 <vfprintf+0x34a>
    1000:	88 e7       	ldi	r24, 0x78	; 120
    1002:	90 e0       	ldi	r25, 0x00	; 0
    1004:	b7 01       	movw	r22, r14
    1006:	0c c0       	rjmp	.+24     	; 0x1020 <vfprintf+0x366>
    1008:	82 2f       	mov	r24, r18
    100a:	86 78       	andi	r24, 0x86	; 134
    100c:	51 f0       	breq	.+20     	; 0x1022 <vfprintf+0x368>
    100e:	21 fd       	sbrc	r18, 1
    1010:	02 c0       	rjmp	.+4      	; 0x1016 <vfprintf+0x35c>
    1012:	80 e2       	ldi	r24, 0x20	; 32
    1014:	01 c0       	rjmp	.+2      	; 0x1018 <vfprintf+0x35e>
    1016:	8b e2       	ldi	r24, 0x2B	; 43
    1018:	27 fd       	sbrc	r18, 7
    101a:	8d e2       	ldi	r24, 0x2D	; 45
    101c:	b7 01       	movw	r22, r14
    101e:	90 e0       	ldi	r25, 0x00	; 0
    1020:	50 d0       	rcall	.+160    	; 0x10c2 <fputc>
    1022:	a5 14       	cp	r10, r5
    1024:	30 f4       	brcc	.+12     	; 0x1032 <vfprintf+0x378>
    1026:	b7 01       	movw	r22, r14
    1028:	80 e3       	ldi	r24, 0x30	; 48
    102a:	90 e0       	ldi	r25, 0x00	; 0
    102c:	4a d0       	rcall	.+148    	; 0x10c2 <fputc>
    102e:	5a 94       	dec	r5
    1030:	f8 cf       	rjmp	.-16     	; 0x1022 <vfprintf+0x368>
    1032:	aa 94       	dec	r10
    1034:	f4 01       	movw	r30, r8
    1036:	ea 0d       	add	r30, r10
    1038:	f1 1d       	adc	r31, r1
    103a:	80 81       	ld	r24, Z
    103c:	b7 01       	movw	r22, r14
    103e:	90 e0       	ldi	r25, 0x00	; 0
    1040:	40 d0       	rcall	.+128    	; 0x10c2 <fputc>
    1042:	a1 10       	cpse	r10, r1
    1044:	f6 cf       	rjmp	.-20     	; 0x1032 <vfprintf+0x378>
    1046:	33 20       	and	r3, r3
    1048:	09 f4       	brne	.+2      	; 0x104c <vfprintf+0x392>
    104a:	5d ce       	rjmp	.-838    	; 0xd06 <vfprintf+0x4c>
    104c:	b7 01       	movw	r22, r14
    104e:	80 e2       	ldi	r24, 0x20	; 32
    1050:	90 e0       	ldi	r25, 0x00	; 0
    1052:	37 d0       	rcall	.+110    	; 0x10c2 <fputc>
    1054:	3a 94       	dec	r3
    1056:	f7 cf       	rjmp	.-18     	; 0x1046 <vfprintf+0x38c>
    1058:	f7 01       	movw	r30, r14
    105a:	86 81       	ldd	r24, Z+6	; 0x06
    105c:	97 81       	ldd	r25, Z+7	; 0x07
    105e:	02 c0       	rjmp	.+4      	; 0x1064 <vfprintf+0x3aa>
    1060:	8f ef       	ldi	r24, 0xFF	; 255
    1062:	9f ef       	ldi	r25, 0xFF	; 255
    1064:	2c 96       	adiw	r28, 0x0c	; 12
    1066:	0f b6       	in	r0, 0x3f	; 63
    1068:	f8 94       	cli
    106a:	de bf       	out	0x3e, r29	; 62
    106c:	0f be       	out	0x3f, r0	; 63
    106e:	cd bf       	out	0x3d, r28	; 61
    1070:	df 91       	pop	r29
    1072:	cf 91       	pop	r28
    1074:	1f 91       	pop	r17
    1076:	0f 91       	pop	r16
    1078:	ff 90       	pop	r15
    107a:	ef 90       	pop	r14
    107c:	df 90       	pop	r13
    107e:	cf 90       	pop	r12
    1080:	bf 90       	pop	r11
    1082:	af 90       	pop	r10
    1084:	9f 90       	pop	r9
    1086:	8f 90       	pop	r8
    1088:	7f 90       	pop	r7
    108a:	6f 90       	pop	r6
    108c:	5f 90       	pop	r5
    108e:	4f 90       	pop	r4
    1090:	3f 90       	pop	r3
    1092:	2f 90       	pop	r2
    1094:	08 95       	ret

00001096 <strnlen_P>:
    1096:	fc 01       	movw	r30, r24
    1098:	05 90       	lpm	r0, Z+
    109a:	61 50       	subi	r22, 0x01	; 1
    109c:	70 40       	sbci	r23, 0x00	; 0
    109e:	01 10       	cpse	r0, r1
    10a0:	d8 f7       	brcc	.-10     	; 0x1098 <strnlen_P+0x2>
    10a2:	80 95       	com	r24
    10a4:	90 95       	com	r25
    10a6:	8e 0f       	add	r24, r30
    10a8:	9f 1f       	adc	r25, r31
    10aa:	08 95       	ret

000010ac <strnlen>:
    10ac:	fc 01       	movw	r30, r24
    10ae:	61 50       	subi	r22, 0x01	; 1
    10b0:	70 40       	sbci	r23, 0x00	; 0
    10b2:	01 90       	ld	r0, Z+
    10b4:	01 10       	cpse	r0, r1
    10b6:	d8 f7       	brcc	.-10     	; 0x10ae <strnlen+0x2>
    10b8:	80 95       	com	r24
    10ba:	90 95       	com	r25
    10bc:	8e 0f       	add	r24, r30
    10be:	9f 1f       	adc	r25, r31
    10c0:	08 95       	ret

000010c2 <fputc>:
    10c2:	0f 93       	push	r16
    10c4:	1f 93       	push	r17
    10c6:	cf 93       	push	r28
    10c8:	df 93       	push	r29
    10ca:	18 2f       	mov	r17, r24
    10cc:	09 2f       	mov	r16, r25
    10ce:	eb 01       	movw	r28, r22
    10d0:	8b 81       	ldd	r24, Y+3	; 0x03
    10d2:	81 fd       	sbrc	r24, 1
    10d4:	03 c0       	rjmp	.+6      	; 0x10dc <fputc+0x1a>
    10d6:	8f ef       	ldi	r24, 0xFF	; 255
    10d8:	9f ef       	ldi	r25, 0xFF	; 255
    10da:	20 c0       	rjmp	.+64     	; 0x111c <fputc+0x5a>
    10dc:	82 ff       	sbrs	r24, 2
    10de:	10 c0       	rjmp	.+32     	; 0x1100 <fputc+0x3e>
    10e0:	4e 81       	ldd	r20, Y+6	; 0x06
    10e2:	5f 81       	ldd	r21, Y+7	; 0x07
    10e4:	2c 81       	ldd	r18, Y+4	; 0x04
    10e6:	3d 81       	ldd	r19, Y+5	; 0x05
    10e8:	42 17       	cp	r20, r18
    10ea:	53 07       	cpc	r21, r19
    10ec:	7c f4       	brge	.+30     	; 0x110c <fputc+0x4a>
    10ee:	e8 81       	ld	r30, Y
    10f0:	f9 81       	ldd	r31, Y+1	; 0x01
    10f2:	9f 01       	movw	r18, r30
    10f4:	2f 5f       	subi	r18, 0xFF	; 255
    10f6:	3f 4f       	sbci	r19, 0xFF	; 255
    10f8:	39 83       	std	Y+1, r19	; 0x01
    10fa:	28 83       	st	Y, r18
    10fc:	10 83       	st	Z, r17
    10fe:	06 c0       	rjmp	.+12     	; 0x110c <fputc+0x4a>
    1100:	e8 85       	ldd	r30, Y+8	; 0x08
    1102:	f9 85       	ldd	r31, Y+9	; 0x09
    1104:	81 2f       	mov	r24, r17
    1106:	19 95       	eicall
    1108:	89 2b       	or	r24, r25
    110a:	29 f7       	brne	.-54     	; 0x10d6 <fputc+0x14>
    110c:	2e 81       	ldd	r18, Y+6	; 0x06
    110e:	3f 81       	ldd	r19, Y+7	; 0x07
    1110:	2f 5f       	subi	r18, 0xFF	; 255
    1112:	3f 4f       	sbci	r19, 0xFF	; 255
    1114:	3f 83       	std	Y+7, r19	; 0x07
    1116:	2e 83       	std	Y+6, r18	; 0x06
    1118:	81 2f       	mov	r24, r17
    111a:	90 2f       	mov	r25, r16
    111c:	df 91       	pop	r29
    111e:	cf 91       	pop	r28
    1120:	1f 91       	pop	r17
    1122:	0f 91       	pop	r16
    1124:	08 95       	ret

00001126 <__ultoa_invert>:
    1126:	fa 01       	movw	r30, r20
    1128:	aa 27       	eor	r26, r26
    112a:	28 30       	cpi	r18, 0x08	; 8
    112c:	51 f1       	breq	.+84     	; 0x1182 <__ultoa_invert+0x5c>
    112e:	20 31       	cpi	r18, 0x10	; 16
    1130:	81 f1       	breq	.+96     	; 0x1192 <__ultoa_invert+0x6c>
    1132:	e8 94       	clt
    1134:	6f 93       	push	r22
    1136:	6e 7f       	andi	r22, 0xFE	; 254
    1138:	6e 5f       	subi	r22, 0xFE	; 254
    113a:	7f 4f       	sbci	r23, 0xFF	; 255
    113c:	8f 4f       	sbci	r24, 0xFF	; 255
    113e:	9f 4f       	sbci	r25, 0xFF	; 255
    1140:	af 4f       	sbci	r26, 0xFF	; 255
    1142:	b1 e0       	ldi	r27, 0x01	; 1
    1144:	3e d0       	rcall	.+124    	; 0x11c2 <__ultoa_invert+0x9c>
    1146:	b4 e0       	ldi	r27, 0x04	; 4
    1148:	3c d0       	rcall	.+120    	; 0x11c2 <__ultoa_invert+0x9c>
    114a:	67 0f       	add	r22, r23
    114c:	78 1f       	adc	r23, r24
    114e:	89 1f       	adc	r24, r25
    1150:	9a 1f       	adc	r25, r26
    1152:	a1 1d       	adc	r26, r1
    1154:	68 0f       	add	r22, r24
    1156:	79 1f       	adc	r23, r25
    1158:	8a 1f       	adc	r24, r26
    115a:	91 1d       	adc	r25, r1
    115c:	a1 1d       	adc	r26, r1
    115e:	6a 0f       	add	r22, r26
    1160:	71 1d       	adc	r23, r1
    1162:	81 1d       	adc	r24, r1
    1164:	91 1d       	adc	r25, r1
    1166:	a1 1d       	adc	r26, r1
    1168:	20 d0       	rcall	.+64     	; 0x11aa <__ultoa_invert+0x84>
    116a:	09 f4       	brne	.+2      	; 0x116e <__ultoa_invert+0x48>
    116c:	68 94       	set
    116e:	3f 91       	pop	r19
    1170:	2a e0       	ldi	r18, 0x0A	; 10
    1172:	26 9f       	mul	r18, r22
    1174:	11 24       	eor	r1, r1
    1176:	30 19       	sub	r19, r0
    1178:	30 5d       	subi	r19, 0xD0	; 208
    117a:	31 93       	st	Z+, r19
    117c:	de f6       	brtc	.-74     	; 0x1134 <__ultoa_invert+0xe>
    117e:	cf 01       	movw	r24, r30
    1180:	08 95       	ret
    1182:	46 2f       	mov	r20, r22
    1184:	47 70       	andi	r20, 0x07	; 7
    1186:	40 5d       	subi	r20, 0xD0	; 208
    1188:	41 93       	st	Z+, r20
    118a:	b3 e0       	ldi	r27, 0x03	; 3
    118c:	0f d0       	rcall	.+30     	; 0x11ac <__ultoa_invert+0x86>
    118e:	c9 f7       	brne	.-14     	; 0x1182 <__ultoa_invert+0x5c>
    1190:	f6 cf       	rjmp	.-20     	; 0x117e <__ultoa_invert+0x58>
    1192:	46 2f       	mov	r20, r22
    1194:	4f 70       	andi	r20, 0x0F	; 15
    1196:	40 5d       	subi	r20, 0xD0	; 208
    1198:	4a 33       	cpi	r20, 0x3A	; 58
    119a:	18 f0       	brcs	.+6      	; 0x11a2 <__ultoa_invert+0x7c>
    119c:	49 5d       	subi	r20, 0xD9	; 217
    119e:	31 fd       	sbrc	r19, 1
    11a0:	40 52       	subi	r20, 0x20	; 32
    11a2:	41 93       	st	Z+, r20
    11a4:	02 d0       	rcall	.+4      	; 0x11aa <__ultoa_invert+0x84>
    11a6:	a9 f7       	brne	.-22     	; 0x1192 <__ultoa_invert+0x6c>
    11a8:	ea cf       	rjmp	.-44     	; 0x117e <__ultoa_invert+0x58>
    11aa:	b4 e0       	ldi	r27, 0x04	; 4
    11ac:	a6 95       	lsr	r26
    11ae:	97 95       	ror	r25
    11b0:	87 95       	ror	r24
    11b2:	77 95       	ror	r23
    11b4:	67 95       	ror	r22
    11b6:	ba 95       	dec	r27
    11b8:	c9 f7       	brne	.-14     	; 0x11ac <__ultoa_invert+0x86>
    11ba:	00 97       	sbiw	r24, 0x00	; 0
    11bc:	61 05       	cpc	r22, r1
    11be:	71 05       	cpc	r23, r1
    11c0:	08 95       	ret
    11c2:	9b 01       	movw	r18, r22
    11c4:	ac 01       	movw	r20, r24
    11c6:	0a 2e       	mov	r0, r26
    11c8:	06 94       	lsr	r0
    11ca:	57 95       	ror	r21
    11cc:	47 95       	ror	r20
    11ce:	37 95       	ror	r19
    11d0:	27 95       	ror	r18
    11d2:	ba 95       	dec	r27
    11d4:	c9 f7       	brne	.-14     	; 0x11c8 <__ultoa_invert+0xa2>
    11d6:	62 0f       	add	r22, r18
    11d8:	73 1f       	adc	r23, r19
    11da:	84 1f       	adc	r24, r20
    11dc:	95 1f       	adc	r25, r21
    11de:	a0 1d       	adc	r26, r0
    11e0:	08 95       	ret

000011e2 <_exit>:
    11e2:	f8 94       	cli

000011e4 <__stop_program>:
    11e4:	ff cf       	rjmp	.-2      	; 0x11e4 <__stop_program>
