S00A00006F732E7372656338
S11300007AC0000098C0000096C0000094C00000B0
S113001092C0000090C000008EC000008CC00000A0
S11300208AC0000088C0000086C0000084C00000B0
S113003082C0000080C000007EC000007CC00000C0
S11300407AC00000B2C1000076C0000074C0000095
S113005072C0000070C000006EC000006CC00000E0
S11300606AC0000046C5000066C0000064C000000D
S113007062C0000060C000005EC000005CC0000000
S11300805AC0000058C0000056C0000054C0000010
S113009052C0000050C000004EC000004CC0000020
S11300A04AC0000048C0000046C0000044C0000030
S11300B042C0000040C000003EC000003CC0000040
S11300C03AC0000038C0000036C0000034C0000050
S11300D032C0000030C000002EC000002CC0000060
S11300E02AC000001705F40308044304610417053B
S11300F07E049204C50411241FBECFEFD1E2DEBFFB
S1130100CDBF00E00CBF12E0A0E0B2E0E6EEF1E10A
S113011000E00BBF02C007900D92AC31B107D9F7D4
S113012025E1ACE1B2E001C01D92A732B207E1F7CC
S1130130DFD40C94F10864CFCF93DF931F921F9206
S1130140CDB7DEB7BE016F5F7F4F80911C029091E7
S11301501D02A8D489819A812AD5F4CF65E070E084
S113016080911C0290911D02AFC4089587E690E02F
S1130170FDD48AD490931D0280931C0260E070E049
S11301808CE990E066D461E070E08CE990E061D4A1
S113019062E070E08CE990E05CD465E070E08EEAA7
S11301A090E057C40895CF93DF9387E690E0DED4C0
S11301B0C0E0D0E081E092E0ECD4CE01F8D42FE7A7
S11301C086E998E9215080409040E1F700C00000A2
S11301D02196CA30D10571F7C9DFDF91CF91089517
S11301E0FFCFFF93FCB7FF93FFB7F894FF93EF9310
S11301F0DF93CF93BF93AF939F938F937F936F932B
S11302005F934F933F932F931F930F93FF92EF921C
S1130210DF92CF92BF92AF929F928F927F926F9212
S11302205F924F923F922F921F920F928DB79EB77B
S11302309093BD148093BC14E091BE14F091BF144C
S1130240FE5F808191819EBF8DBF0F901F902F9084
S11302503F904F905F906F907F908F909F90AF9062
S1130260BF90CF90DF90EF90FF900F911F912F914F
S11302703F914F915F916F917F918F919F91AF913A
S1130280BF91CF91DF91EF91FF91FFBFFF91FCBF31
S1130290FF910895FF93FCB7FF93FFB7F894FF9382
S11302A0EF93DF93CF93BF93AF939F938F937F93FA
S11302B06F935F934F933F932F931F930F93FF92EB
S11302C0EF92DF92CF92BF92AF929F928F927F92E2
S11302D06F925F924F923F922F921F920F92E091F2
S11302E0BE14F091BF148DB79EB7FE5F91838083D7
S11302F08091BC149091BD149EBF8DBF0F901F9030
S11303002F903F904F905F906F907F908F909F9031
S1130310AF90BF90CF90DF90EF90FF900F911F911F
S11303202F913F914F915F916F917F918F919F9109
S1130330AF91BF91CF91DF91EF91FF91FFBFFF91FB
S1130340FCBFFF910895FC01DB01A95FBD4F1D9225
S11303501C9280819181892B29F47183608373833A
S113036062830895A281B381A95FBD4F6D937C938D
S1130370738362830895FC0180819181009751F019
S1130380DC01A95FBD4F2D913C91119731832083EE
S11303901D921C920895CF93CFB7F89483E0809375
S11303A06A0278DFCFBFCF910895FF93FCB7FF9324
S11303B0FFB7F894F068FF93EF93DF93CF93BF9365
S11303C0AF939F938F937F936F935F934F933F93D9
S11303D02F931F930F93FF92EF92DF92CF92BF92CE
S11303E0AF929F928F927F926F925F924F923F92C1
S11303F02F921F920F92E091BE14F091BF148DB70B
S11304009EB7FE5F918380838091BC149091BD144C
S11304109EBF8DBF81E080936A02E8E8F0E08081AE
S113042091818F589D4F918380838091BC149091CA
S1130430BD149EBF8DBF0F901F902F903F904F9083
S11304405F906F907F908F909F90AF90BF90CF9070
S1130450DF90EF90FF900F911F912F913F914F915B
S11304605F916F917F918F919F91AF91BF91CF9148
S1130470DF91EF91FF91FFBFFF91FCBFFF910895C2
S1130480F89480EF8AB980910002863028F4309184
S113049000023F5F40E604C030910002355040E95D
S11304A070EF64E62AE054E174BB862FE9E6F8E1D4
S11304B03197F1F700C000008150C1F714BA88E207
S11304C0E9E6F8E13197F1F700C000008150C1F787
S11304D0332311F190E044BB822FE9E6F8E1319730
S11304E0F1F700C000008150C1F714BA822FE9E689
S11304F0F8E13197F1F700C000008150C1F79F5F28
S11305009313E9CF09C0E9E6F8E13197F1F700C0A8
S113051000008150C1F7C8CF852FF5CF80915A02D2
S113052090915B02892B09F48EC08091680282301D
S113053009F093C080916902882309F48AC08091EC
S11305406902893008F085C088C08091690284E01E
S11305508093000295DFE0916902F0E0EE0FFF1F47
S1130560E25EFD4F80819181892B09F080C083C0B8
S11305708AE592E000DFBC0102C063EB72E1CB01CB
S113058089529E4FFC0120E021932F5F2F31E1F728
S113059025E5FB01EA50FE4F20832EEE31962083A1
S11305A07E97108220E87F96208332961082E4E6BC
S11305B0F2E020813181DB01A550BE4F3C932081C4
S11305C03181FB01E450FE4F2083319610822BECE5
S11305D031E0319630833196208331969183808344
S11305E082E033968083809166029091670231960F
S11305F091838083E8E6F2E080811B968C9380915E
S1130600690214978C938081823029F0833079F0C9
S11306108130E1F412C0E0916902F0E0EE0FFF1FB7
S1130620E25EFD4F7183608381E090E0089581E58F
S113063092E089DE81E090E0089585E592E083DE32
S113064081E090E0089580E090E0089581E090E0FA
S1130650089581E08093000213DF80916802823064
S113066009F473CF80916802823029F474CF83E057
S11306708093000205DF80916802882309F47DCF0E
S113068077CFE1E8F0E0808182608083EEE6F4E0F9
S1130690AEE1B2E02DEA32E110821D921D92CF014B
S11306A0069695838483E75FFD4FE217F307A1F76E
S11306B01092B2121092B1120F2EFBE6EF2EF2E05E
S11306C0FF2EF02DF0925B02E0925A028AEA90E14A
S11306D090935D0280935C0204E612E080EF90E068
S11306E0F80191838083C8E6D2E0188217DF83ED96
S11306F090E0F8019183808383E088830FDFF09298
S1130700BF14E092BE1481E080936E0481E592E010
S113071032DEEFE6F0E080818260808380918400A5
S1130720909185008F589D4F909389008093880005
S113073082E086BB0F2EF1E5EF2EF2E0FF2EF02DC6
S1130740442443940F2EF5E5CF2EF2E0DF2EF02D56
S11307500F2EF3EB6F2EF2E17F2EF02D0F2EF0E62D
S1130760AF2EF2E0BF2EF02D6894552451F84E01BF
S11307708091BE149091BF14FC01ED5FFD4F208168
S1130780213019F4835B924119F5F701808191813D
S1130790892B39F0C701EFDD9093BF148093BE1409
S11307A010C0F60180819181892B39F0C601E3DD07
S11307B09093BF148093BE1404C07092BF146092CF
S11307C0BE14E091BE14F091BF14ED5FFD4F408262
S11307D008DD80916A0290E08930910508F023C118
S11307E0FC01EE58FF4F21C26091BE147091BF14FA
S11307F0FB01EA5FFD4F8081813009F018C1339716
S11308008081813009F013C15082C6019CDD0FC183
S113081085DE9093630280936202809162029091DC
S11308206302892B09F403C1F4018081833061F4EC
S11308308091BE149091BF14FC01EA5FFD4F2081AA
S1130840233009F0F7C0F3C06091BE147091BF1457
S1130850FB01EA5FFD4F8081813009F0E8C0F401BB
S11308608081823031F4E9E6F2E08081882309F462
S1130870E6C0FB01ED5FFD4F8081823009F0D7C0F7
S1130880C60161DDD4C06091BE147091BF14F2E161
S1130890633B7F0709F4CBC0FB01ED5FFD4F108282
S11308A033968081823049F43497E081F0E0EE0F92
S11308B0FF1FE25EFD4F118210828AE592E043DD64
S11308C0B6C0C091BE14D091BF14FE01EA5FFD4FC3
S11308D08081823049F0833019F0813059F407C0A7
S11308E0BE01C70130DD06C04092300203C0BE0124
S11308F0C60129DDCD5FDD4F588299C01092610297
S11309001092600220915902283008F090C0822F82
S113091090E0019690936102809360022F5F209390
S1130920590285C06091BE147091BF1422E1633BEB
S1130930720709F47CC020915E0230915F02F501D8
S11309408081815090915902891720F08BE0809327
S1130950000296DDFB01EA5FFD4F9081923021F4A5
S11309608CE0809300028CDDFB01ED5FFD4F93E092
S1130970908331963183208390E0880F991F880FEC
S1130980991F8F5C9D4FDFDC52C0E0915E02F091B5
S11309905F0200811181F501C081C150809159022B
S11309A0C81750F4D0E0CC0FDD1FCC0FDD1FCF5C97
S11309B0DD4F2C2E3D2E20C08EE08093000260DDA2
S11309C0822D932DD8DCFC01ED5FFD4F50823196D2
S11309D00190F081E02D11830083FC01EA5FFD4F5B
S11309E02081213031F0233039F4BC01C701ABDC64
S11309F003C0BC01C601A7DC88819981892B01F75A
S1130A006091BE147091BF14F2E1633B7F0779F0EB
S1130A10FB01ED5FFD4F508233968081813039F4C4
S1130A20C60191DC04C08DE08093000229DD1092A0
S1130A306A029ECEFC01ED5FFD4F508205CFFB01A3
S1130A40ED5FFD4F508233968081813009F411CFE0
S1130A50EECFCF93CFB7F89490936502809364025E
S1130A60E0916602F09167027183608381E0809374
S1130A70680282E080936A020DDC809162029091A8
S1130A806302CFBFCF910895CF93CFB7F89486E098
S1130A9080936A02FFDB8091600290916102CFBF74
S1130AA0CF910895CF93CFB7F89427E020936A02AB
S1130AB0909361028093600270935F0260935E0280
S1130AC0E9DBCFBFCF910895CF93CFB7F89428E057
S1130AD020936A029093610280936002E0915E0227
S1130AE0F0915F0271836083D5DBCFBFCF9108950E
S1130AF0C8DD1F920F920FB60F9211240BB60F92FE
S1130B005F936F937F938F939F93AF93BF93EF9371
S1130B10FF93E0ECF0E080818823ECF7E09124156A
S1130B20F09125158091C600E054FB4E808380919E
S1130B30241590912515019664E670E063D0909396
S1130B4025158093241581E080932615FF91EF915C
S1130B50BF91AF919F918F917F916F915F910F9012
S1130B600BBE0F900FBE0F901F9018959093C50069
S1130B708093C40088E18093C1008EE08093C2001A
S1130B800895E0ECF0E0908195FFFDCF8093C600DE
S1130B900895CF93DF93EC018881882329F021966F
S1130BA0F0DF89918111FCCFDF91CF9108950F93EC
S1130BB01F93CF93DF93CDB7DEB72A970FB6F89480
S1130BC0DEBF0FBECDBF9F938F9388E192E09F93CA
S1130BD08F938E010F5F1F4F1F930F9340D0C80157
S1130BE0D8DF0F900F900F900F900F900F902A96D0
S1130BF00FB6F894DEBF0FBECDBFDF91CF911F912A
S1130C000F91089597FB072E16F4009406D077FDF4
S1130C1008D011D007FC05D03EF4909581959F4FE4
S1130C200895709561957F4F0895EE0FFF1F05900D
S1130C30F491E02D1994AA1BBB1B51E107C0AA1F14
S1130C40BB1FA617B70710F0A61BB70B881F991F69
S1130C505A95A9F780959095BC01CD0108950F93FD
S1130C601F93CF93DF93CDB7DEB72E970FB6F894CB
S1130C70DEBF0FBECDBF0E891F8986E08C831A8329
S1130C8009838FEF9FE79E838D83AE01465E5F4F9E
S1130C90688D798DCE01019610D0EF81F885E00F33
S1130CA0F11F10822E960FB6F894DEBF0FBECDBF93
S1130CB0DF91CF911F910F9108952F923F924F9200
S1130CC05F926F927F928F929F92AF92BF92CF92D8
S1130CD0DF92EF92FF920F931F93CF93DF93CDB7E1
S1130CE0DEB72C970FB6F894DEBF0FBECDBF7C01E4
S1130CF06B018A01FC0117821682838181FFB0C1D6
S1130D00CE0101964C01F7019381F60193FD859183
S1130D1093FF81916F01882309F49EC1853239F4D0
S1130D2093FD859193FF81916F01853221F4B70181
S1130D3090E0C7D1E8CF512C312C20E02032A0F430
S1130D408B3269F030F4803259F0833269F42061D7
S1130D502CC08D3239F0803339F4216026C02260F2
S1130D60246023C0286021C027FD27C030ED380F40
S1130D703A3078F426FF06C0FAE05F9E300D112465
S1130D80532E13C08AE0389E300D1124332E206276
S1130D900CC08E3221F426FD5FC1206406C08C365F
S1130DA011F4206802C0883641F4F60193FD859160
S1130DB093FF81916F018111C1CF982F9F7D95542D
S1130DC0933028F40C5F1F4FFFE3F9830DC0833683
S1130DD031F0833771F0833509F057C021C0F80131
S1130DE0808189830E5F1F4F44244394512C540106
S1130DF014C03801F2E06F0E711CF801A080B180BC
S1130E0026FF03C0652D70E002C06FEF7FEFC501C0
S1130E102C874CD12C0183012C852F77222E16C0D0
S1130E203801F2E06F0E711CF801A080B18026FF3A
S1130E3003C0652D70E002C06FEF7FEFC5012C8702
S1130E402AD12C012C852068222E830123FC19C071
S1130E50832D90E048165906A0F4B70180E290E093
S1130E6030D13A94F5CFF50127FC859127FE819185
S1130E705F01B70190E025D131103A94F1E04F1AA7
S1130E8051084114510479F7DEC0843611F08936D3
S1130E9031F5F80127FF07C0608171818281938158
S1130EA00C5F1F4F08C060817181882777FD809592
S1130EB0982F0E5F1F4F2F76B22E97FF09C0909583
S1130EC08095709561957F4F8F4F9F4F2068B22E0C
S1130ED02AE030E0A40127D1A82EA81843C0853702
S1130EE029F42F7EB22E2AE030E025C0F22FF97FBC
S1130EF0BF2E8F36C1F018F4883579F0ADC0803735
S1130F0019F0883721F0A8C02F2F2061B22EB4FE2B
S1130F100DC08B2D8460B82E09C024FF0AC09F2FFA
S1130F209660B92E06C028E030E005C020E130E02C
S1130F3002C020E132E0F801B7FE07C06081718190
S1130F40828193810C5F1F4F06C06081718180E0B4
S1130F5090E00E5F1F4FA401E6D0A82EA818FB2D29
S1130F60FF77BF2EB6FE0BC02B2D2E7FA51450F499
S1130F70B4FE0AC0B2FC08C02B2D2E7E05C07A2C0C
S1130F802B2D03C07A2C01C0752C24FF0DC0FE014B
S1130F90EA0DF11D8081803311F4297E09C022FFFE
S1130FA006C07394739404C0822F867809F07394F6
S1130FB023FD12C020FF06C05A2C731418F4530CDE
S1130FC05718732C731460F4B70180E290E02C87F7
S1130FD078D073942C85F6CF731410F4371801C0AD
S1130FE0312C24FF11C0B70180E390E02C8769D035
S1130FF02C8522FF16C021FF03C088E590E002C0C3
S113100088E790E0B7010CC0822F867851F021FD6B
S113101002C080E201C08BE227FD8DE2B70190E0BF
S113102050D0A51430F4B70180E390E04AD05A942C
S1131030F8CFAA94F401EA0DF11D8081B70190E084
S113104040D0A110F6CF332009F45DCEB70180E281
S113105090E037D03A94F7CFF7018681978102C0A8
S11310608FEF9FEF2C960FB6F894DEBF0FBECDBF67
S1131070DF91CF911F910F91FF90EF90DF90CF9070
S1131080BF90AF909F908F907F906F905F904F90A4
S11310903F902F900895FC0105906150704001101D
S11310A0D8F7809590958E0F9F1F0895FC0161508D
S11310B0704001900110D8F7809590958E0F9F1F76
S11310C008950F931F93CF93DF93182F092FEB01EC
S11310D08B8181FD03C08FEF9FEF20C082FF10C082
S11310E04E815F812C813D81421753077CF4E88156
S11310F0F9819F012F5F3F4F39832883108306C0F6
S1131100E885F985812F1995892B29F72E813F814F
S11311102F5F3F4F3F832E83812F902FDF91CF91FD
S11311201F910F910895FA01AA27283051F1203117
S113113081F1E8946F936E7F6E5F7F4F8F4F9F4F67
S1131140AF4FB1E03ED0B4E03CD0670F781F891FA9
S11311509A1FA11D680F791F8A1F911DA11D6A0F77
S1131160711D811D911DA11D20D009F468943F912A
S11311702AE0269F11243019305D3193DEF6CF0129
S11311800895462F4770405D4193B3E00FD0C9F7EF
S1131190F6CF462F4F70405D4A3318F0495D31FD5C
S11311A04052419302D0A9F7EACFB4E0A6959795AF
S11311B0879577956795BA95C9F700976105710585
S11311C008959B01AC010A2E0694579547953795CF
S11311D02795BA95C9F7620F731F841F951FA01D29
S10911E00895F894FFCF0E
S11311E6064170706C69636174696F6E4C617965F0
S10F11F67220496E69740A00257500001F
S9030000FC
