
RoombaVer3.elf:     file format elf32-avr

Sections:
Idx Name          Size      VMA       LMA       File off  Algn
  0 .data         000000ba  00800200  00002258  000022ec  2**0
                  CONTENTS, ALLOC, LOAD, DATA
  1 .text         00002258  00000000  00000000  00000094  2**1
                  CONTENTS, ALLOC, LOAD, READONLY, CODE
  2 .bss          00001309  008002ba  008002ba  000023a6  2**0
                  ALLOC
  3 .comment      0000005c  00000000  00000000  000023a6  2**0
                  CONTENTS, READONLY
  4 .debug_aranges 00000378  00000000  00000000  00002402  2**0
                  CONTENTS, READONLY, DEBUGGING
  5 .debug_info   00004b78  00000000  00000000  0000277a  2**0
                  CONTENTS, READONLY, DEBUGGING
  6 .debug_abbrev 00001368  00000000  00000000  000072f2  2**0
                  CONTENTS, READONLY, DEBUGGING
  7 .debug_line   0000248f  00000000  00000000  0000865a  2**0
                  CONTENTS, READONLY, DEBUGGING
  8 .debug_frame  00000964  00000000  00000000  0000aaec  2**2
                  CONTENTS, READONLY, DEBUGGING
  9 .debug_str    00001918  00000000  00000000  0000b450  2**0
                  CONTENTS, READONLY, DEBUGGING
 10 .debug_loc    000023ac  00000000  00000000  0000cd68  2**0
                  CONTENTS, READONLY, DEBUGGING
 11 .debug_ranges 000003d8  00000000  00000000  0000f114  2**0
                  CONTENTS, READONLY, DEBUGGING

Disassembly of section .text:

00000000 <__vectors>:
       0:	7a c0       	rjmp	.+244    	; 0xf6 <__ctors_end>
       2:	00 00       	nop
       4:	98 c0       	rjmp	.+304    	; 0x136 <__bad_interrupt>
       6:	00 00       	nop
       8:	96 c0       	rjmp	.+300    	; 0x136 <__bad_interrupt>
       a:	00 00       	nop
       c:	94 c0       	rjmp	.+296    	; 0x136 <__bad_interrupt>
       e:	00 00       	nop
      10:	92 c0       	rjmp	.+292    	; 0x136 <__bad_interrupt>
      12:	00 00       	nop
      14:	0c 94 07 0b 	jmp	0x160e	; 0x160e <__vector_5>
      18:	c8 c0       	rjmp	.+400    	; 0x1aa <__vector_6>
      1a:	00 00       	nop
      1c:	8c c0       	rjmp	.+280    	; 0x136 <__bad_interrupt>
      1e:	00 00       	nop
      20:	8a c0       	rjmp	.+276    	; 0x136 <__bad_interrupt>
      22:	00 00       	nop
      24:	88 c0       	rjmp	.+272    	; 0x136 <__bad_interrupt>
      26:	00 00       	nop
      28:	86 c0       	rjmp	.+268    	; 0x136 <__bad_interrupt>
      2a:	00 00       	nop
      2c:	84 c0       	rjmp	.+264    	; 0x136 <__bad_interrupt>
      2e:	00 00       	nop
      30:	82 c0       	rjmp	.+260    	; 0x136 <__bad_interrupt>
      32:	00 00       	nop
      34:	80 c0       	rjmp	.+256    	; 0x136 <__bad_interrupt>
      36:	00 00       	nop
      38:	7e c0       	rjmp	.+252    	; 0x136 <__bad_interrupt>
      3a:	00 00       	nop
      3c:	7c c0       	rjmp	.+248    	; 0x136 <__bad_interrupt>
      3e:	00 00       	nop
      40:	7a c0       	rjmp	.+244    	; 0x136 <__bad_interrupt>
      42:	00 00       	nop
      44:	62 c2       	rjmp	.+1220   	; 0x50a <__vector_17>
      46:	00 00       	nop
      48:	76 c0       	rjmp	.+236    	; 0x136 <__bad_interrupt>
      4a:	00 00       	nop
      4c:	74 c0       	rjmp	.+232    	; 0x136 <__bad_interrupt>
      4e:	00 00       	nop
      50:	72 c0       	rjmp	.+228    	; 0x136 <__bad_interrupt>
      52:	00 00       	nop
      54:	70 c0       	rjmp	.+224    	; 0x136 <__bad_interrupt>
      56:	00 00       	nop
      58:	6e c0       	rjmp	.+220    	; 0x136 <__bad_interrupt>
      5a:	00 00       	nop
      5c:	6c c0       	rjmp	.+216    	; 0x136 <__bad_interrupt>
      5e:	00 00       	nop
      60:	6a c0       	rjmp	.+212    	; 0x136 <__bad_interrupt>
      62:	00 00       	nop
      64:	68 c0       	rjmp	.+208    	; 0x136 <__bad_interrupt>
      66:	00 00       	nop
      68:	66 c0       	rjmp	.+204    	; 0x136 <__bad_interrupt>
      6a:	00 00       	nop
      6c:	64 c0       	rjmp	.+200    	; 0x136 <__bad_interrupt>
      6e:	00 00       	nop
      70:	62 c0       	rjmp	.+196    	; 0x136 <__bad_interrupt>
      72:	00 00       	nop
      74:	60 c0       	rjmp	.+192    	; 0x136 <__bad_interrupt>
      76:	00 00       	nop
      78:	5e c0       	rjmp	.+188    	; 0x136 <__bad_interrupt>
      7a:	00 00       	nop
      7c:	5c c0       	rjmp	.+184    	; 0x136 <__bad_interrupt>
      7e:	00 00       	nop
      80:	c5 c0       	rjmp	.+394    	; 0x20c <__vector_32>
      82:	00 00       	nop
      84:	58 c0       	rjmp	.+176    	; 0x136 <__bad_interrupt>
      86:	00 00       	nop
      88:	56 c0       	rjmp	.+172    	; 0x136 <__bad_interrupt>
      8a:	00 00       	nop
      8c:	54 c0       	rjmp	.+168    	; 0x136 <__bad_interrupt>
      8e:	00 00       	nop
      90:	0c 94 f0 0d 	jmp	0x1be0	; 0x1be0 <__vector_36>
      94:	50 c0       	rjmp	.+160    	; 0x136 <__bad_interrupt>
      96:	00 00       	nop
      98:	4e c0       	rjmp	.+156    	; 0x136 <__bad_interrupt>
      9a:	00 00       	nop
      9c:	4c c0       	rjmp	.+152    	; 0x136 <__bad_interrupt>
      9e:	00 00       	nop
      a0:	4a c0       	rjmp	.+148    	; 0x136 <__bad_interrupt>
      a2:	00 00       	nop
      a4:	48 c0       	rjmp	.+144    	; 0x136 <__bad_interrupt>
      a6:	00 00       	nop
      a8:	46 c0       	rjmp	.+140    	; 0x136 <__bad_interrupt>
      aa:	00 00       	nop
      ac:	44 c0       	rjmp	.+136    	; 0x136 <__bad_interrupt>
      ae:	00 00       	nop
      b0:	42 c0       	rjmp	.+132    	; 0x136 <__bad_interrupt>
      b2:	00 00       	nop
      b4:	40 c0       	rjmp	.+128    	; 0x136 <__bad_interrupt>
      b6:	00 00       	nop
      b8:	3e c0       	rjmp	.+124    	; 0x136 <__bad_interrupt>
      ba:	00 00       	nop
      bc:	3c c0       	rjmp	.+120    	; 0x136 <__bad_interrupt>
      be:	00 00       	nop
      c0:	3a c0       	rjmp	.+116    	; 0x136 <__bad_interrupt>
      c2:	00 00       	nop
      c4:	38 c0       	rjmp	.+112    	; 0x136 <__bad_interrupt>
      c6:	00 00       	nop
      c8:	36 c0       	rjmp	.+108    	; 0x136 <__bad_interrupt>
      ca:	00 00       	nop
      cc:	34 c0       	rjmp	.+104    	; 0x136 <__bad_interrupt>
      ce:	00 00       	nop
      d0:	32 c0       	rjmp	.+100    	; 0x136 <__bad_interrupt>
      d2:	00 00       	nop
      d4:	30 c0       	rjmp	.+96     	; 0x136 <__bad_interrupt>
      d6:	00 00       	nop
      d8:	2e c0       	rjmp	.+92     	; 0x136 <__bad_interrupt>
      da:	00 00       	nop
      dc:	2c c0       	rjmp	.+88     	; 0x136 <__bad_interrupt>
      de:	00 00       	nop
      e0:	2a c0       	rjmp	.+84     	; 0x136 <__bad_interrupt>
      e2:	00 00       	nop
      e4:	8b 07       	cpc	r24, r27
      e6:	64 05       	cpc	r22, r4
      e8:	7f 06       	cpc	r7, r31
      ea:	b7 06       	cpc	r11, r23
      ec:	d1 06       	cpc	r13, r17
      ee:	8b 07       	cpc	r24, r27
      f0:	f0 06       	cpc	r15, r16
      f2:	04 07       	cpc	r16, r20
      f4:	37 07       	cpc	r19, r23

000000f6 <__ctors_end>:
      f6:	11 24       	eor	r1, r1
      f8:	1f be       	out	0x3f, r1	; 63
      fa:	cf ef       	ldi	r28, 0xFF	; 255
      fc:	d1 e2       	ldi	r29, 0x21	; 33
      fe:	de bf       	out	0x3e, r29	; 62
     100:	cd bf       	out	0x3d, r28	; 61
     102:	00 e0       	ldi	r16, 0x00	; 0
     104:	0c bf       	out	0x3c, r16	; 60

00000106 <__do_copy_data>:
     106:	12 e0       	ldi	r17, 0x02	; 2
     108:	a0 e0       	ldi	r26, 0x00	; 0
     10a:	b2 e0       	ldi	r27, 0x02	; 2
     10c:	e8 e5       	ldi	r30, 0x58	; 88
     10e:	f2 e2       	ldi	r31, 0x22	; 34
     110:	00 e0       	ldi	r16, 0x00	; 0
     112:	0b bf       	out	0x3b, r16	; 59
     114:	02 c0       	rjmp	.+4      	; 0x11a <__do_copy_data+0x14>
     116:	07 90       	elpm	r0, Z+
     118:	0d 92       	st	X+, r0
     11a:	aa 3b       	cpi	r26, 0xBA	; 186
     11c:	b1 07       	cpc	r27, r17
     11e:	d9 f7       	brne	.-10     	; 0x116 <__do_copy_data+0x10>

00000120 <__do_clear_bss>:
     120:	25 e1       	ldi	r18, 0x15	; 21
     122:	aa eb       	ldi	r26, 0xBA	; 186
     124:	b2 e0       	ldi	r27, 0x02	; 2
     126:	01 c0       	rjmp	.+2      	; 0x12a <.do_clear_bss_start>

00000128 <.do_clear_bss_loop>:
     128:	1d 92       	st	X+, r1

0000012a <.do_clear_bss_start>:
     12a:	a3 3c       	cpi	r26, 0xC3	; 195
     12c:	b2 07       	cpc	r27, r18
     12e:	e1 f7       	brne	.-8      	; 0x128 <.do_clear_bss_loop>
     130:	eb d7       	rcall	.+4054   	; 0x1108 <main>
     132:	0c 94 2a 11 	jmp	0x2254	; 0x2254 <_exit>

00000136 <__bad_interrupt>:
     136:	64 cf       	rjmp	.-312    	; 0x0 <__vectors>

00000138 <_Z7IR_initv>:

void disable_interrupt() {
	EIMSK &= ~(1<<INT5);
	TIMSK3 &= ~(1<<OCIE3A);
	TIFR3 |= (1<<OCF3A);
	is_receiving = 0;
     138:	ea e0       	ldi	r30, 0x0A	; 10
     13a:	f1 e0       	ldi	r31, 0x01	; 1
     13c:	80 81       	ld	r24, Z
     13e:	88 62       	ori	r24, 0x28	; 40
     140:	80 83       	st	Z, r24
     142:	a0 e2       	ldi	r26, 0x20	; 32
     144:	b1 e0       	ldi	r27, 0x01	; 1
     146:	1c 92       	st	X, r1
     148:	e1 e2       	ldi	r30, 0x21	; 33
     14a:	f1 e0       	ldi	r31, 0x01	; 1
     14c:	10 82       	st	Z, r1
     14e:	8c 91       	ld	r24, X
     150:	83 60       	ori	r24, 0x03	; 3
     152:	8c 93       	st	X, r24
     154:	80 81       	ld	r24, Z
     156:	88 61       	ori	r24, 0x18	; 24
     158:	80 83       	st	Z, r24
     15a:	8c 91       	ld	r24, X
     15c:	87 7f       	andi	r24, 0xF7	; 247
     15e:	8c 93       	st	X, r24
     160:	80 81       	ld	r24, Z
     162:	81 60       	ori	r24, 0x01	; 1
     164:	80 83       	st	Z, r24
     166:	85 ea       	ldi	r24, 0xA5	; 165
     168:	91 e0       	ldi	r25, 0x01	; 1
     16a:	90 93 29 01 	sts	0x0129, r25
     16e:	80 93 28 01 	sts	0x0128, r24
     172:	82 ed       	ldi	r24, 0xD2	; 210
     174:	90 e0       	ldi	r25, 0x00	; 0
     176:	90 93 2d 01 	sts	0x012D, r25
     17a:	80 93 2c 01 	sts	0x012C, r24
     17e:	10 92 90 00 	sts	0x0090, r1
     182:	e1 e9       	ldi	r30, 0x91	; 145
     184:	f0 e0       	ldi	r31, 0x00	; 0
     186:	10 82       	st	Z, r1
     188:	80 81       	ld	r24, Z
     18a:	81 60       	ori	r24, 0x01	; 1
     18c:	80 83       	st	Z, r24
     18e:	e1 e7       	ldi	r30, 0x71	; 113
     190:	f0 e0       	ldi	r31, 0x00	; 0
     192:	80 81       	ld	r24, Z
     194:	8d 7f       	andi	r24, 0xFD	; 253
     196:	80 83       	st	Z, r24
     198:	6d 98       	cbi	0x0d, 5	; 13
     19a:	ea e6       	ldi	r30, 0x6A	; 106
     19c:	f0 e0       	ldi	r31, 0x00	; 0
     19e:	80 81       	ld	r24, Z
     1a0:	8c 60       	ori	r24, 0x0C	; 12
     1a2:	80 83       	st	Z, r24
     1a4:	ed 9a       	sbi	0x1d, 5	; 29
     1a6:	e5 9a       	sbi	0x1c, 5	; 28
     1a8:	08 95       	ret

000001aa <__vector_6>:
     1aa:	1f 92       	push	r1
     1ac:	0f 92       	push	r0
     1ae:	0f b6       	in	r0, 0x3f	; 63
     1b0:	0f 92       	push	r0
     1b2:	11 24       	eor	r1, r1
     1b4:	0b b6       	in	r0, 0x3b	; 59
     1b6:	0f 92       	push	r0
     1b8:	8f 93       	push	r24
     1ba:	9f 93       	push	r25
     1bc:	ef 93       	push	r30
     1be:	ff 93       	push	r31
     1c0:	80 91 be 02 	lds	r24, 0x02BE
     1c4:	81 11       	cpse	r24, r1
     1c6:	17 c0       	rjmp	.+46     	; 0x1f6 <__vector_6+0x4c>
     1c8:	81 e0       	ldi	r24, 0x01	; 1
     1ca:	80 93 be 02 	sts	0x02BE, r24
     1ce:	10 92 bc 02 	sts	0x02BC, r1
     1d2:	10 92 bb 02 	sts	0x02BB, r1
     1d6:	c1 9a       	sbi	0x18, 1	; 24
     1d8:	80 91 94 00 	lds	r24, 0x0094
     1dc:	90 91 95 00 	lds	r25, 0x0095
     1e0:	80 52       	subi	r24, 0x20	; 32
     1e2:	91 4d       	sbci	r25, 0xD1	; 209
     1e4:	90 93 99 00 	sts	0x0099, r25
     1e8:	80 93 98 00 	sts	0x0098, r24
     1ec:	e1 e7       	ldi	r30, 0x71	; 113
     1ee:	f0 e0       	ldi	r31, 0x00	; 0
     1f0:	80 81       	ld	r24, Z
     1f2:	82 60       	ori	r24, 0x02	; 2
     1f4:	80 83       	st	Z, r24
     1f6:	ff 91       	pop	r31
     1f8:	ef 91       	pop	r30
     1fa:	9f 91       	pop	r25
     1fc:	8f 91       	pop	r24
     1fe:	0f 90       	pop	r0
     200:	0b be       	out	0x3b, r0	; 59
     202:	0f 90       	pop	r0
     204:	0f be       	out	0x3f, r0	; 63
     206:	0f 90       	pop	r0
     208:	1f 90       	pop	r1
     20a:	18 95       	reti

0000020c <__vector_32>:
     20c:	1f 92       	push	r1
     20e:	0f 92       	push	r0
     210:	0f b6       	in	r0, 0x3f	; 63
     212:	0f 92       	push	r0
     214:	11 24       	eor	r1, r1
     216:	0b b6       	in	r0, 0x3b	; 59
     218:	0f 92       	push	r0
     21a:	2f 93       	push	r18
     21c:	3f 93       	push	r19
     21e:	4f 93       	push	r20
     220:	5f 93       	push	r21
     222:	6f 93       	push	r22
     224:	7f 93       	push	r23
     226:	8f 93       	push	r24
     228:	9f 93       	push	r25
     22a:	af 93       	push	r26
     22c:	bf 93       	push	r27
     22e:	ef 93       	push	r30
     230:	ff 93       	push	r31
     232:	80 91 be 02 	lds	r24, 0x02BE
     236:	88 23       	and	r24, r24
     238:	89 f1       	breq	.+98     	; 0x29c <__vector_32+0x90>
     23a:	65 99       	sbic	0x0c, 5	; 12
     23c:	0e c0       	rjmp	.+28     	; 0x25a <__vector_32+0x4e>
     23e:	30 91 bc 02 	lds	r19, 0x02BC
     242:	20 91 bb 02 	lds	r18, 0x02BB
     246:	81 e0       	ldi	r24, 0x01	; 1
     248:	90 e0       	ldi	r25, 0x00	; 0
     24a:	02 c0       	rjmp	.+4      	; 0x250 <__vector_32+0x44>
     24c:	88 0f       	add	r24, r24
     24e:	99 1f       	adc	r25, r25
     250:	3a 95       	dec	r19
     252:	e2 f7       	brpl	.-8      	; 0x24c <__vector_32+0x40>
     254:	82 2b       	or	r24, r18
     256:	80 93 bb 02 	sts	0x02BB, r24
     25a:	80 91 bc 02 	lds	r24, 0x02BC
     25e:	8f 5f       	subi	r24, 0xFF	; 255
     260:	80 93 bc 02 	sts	0x02BC, r24
     264:	e8 e9       	ldi	r30, 0x98	; 152
     266:	f0 e0       	ldi	r31, 0x00	; 0
     268:	80 81       	ld	r24, Z
     26a:	91 81       	ldd	r25, Z+1	; 0x01
     26c:	80 5c       	subi	r24, 0xC0	; 192
     26e:	90 4e       	sbci	r25, 0xE0	; 224
     270:	91 83       	std	Z+1, r25	; 0x01
     272:	80 83       	st	Z, r24
     274:	80 91 bc 02 	lds	r24, 0x02BC
     278:	88 30       	cpi	r24, 0x08	; 8
     27a:	90 f0       	brcs	.+36     	; 0x2a0 <__vector_32+0x94>
     27c:	10 92 be 02 	sts	0x02BE, r1
     280:	e1 e7       	ldi	r30, 0x71	; 113
     282:	f0 e0       	ldi	r31, 0x00	; 0
     284:	80 81       	ld	r24, Z
     286:	8d 7f       	andi	r24, 0xFD	; 253
     288:	80 83       	st	Z, r24
     28a:	c1 9a       	sbi	0x18, 1	; 24
     28c:	e5 9a       	sbi	0x1c, 5	; 28
     28e:	80 91 bb 02 	lds	r24, 0x02BB
     292:	80 93 ba 02 	sts	0x02BA, r24
     296:	0e 94 24 0c 	call	0x1848	; 0x1848 <ir_rxhandler>
     29a:	02 c0       	rjmp	.+4      	; 0x2a0 <__vector_32+0x94>
     29c:	80 91 bd 02 	lds	r24, 0x02BD
     2a0:	ff 91       	pop	r31
     2a2:	ef 91       	pop	r30
     2a4:	bf 91       	pop	r27
     2a6:	af 91       	pop	r26
     2a8:	9f 91       	pop	r25
     2aa:	8f 91       	pop	r24
     2ac:	7f 91       	pop	r23
     2ae:	6f 91       	pop	r22
     2b0:	5f 91       	pop	r21
     2b2:	4f 91       	pop	r20
     2b4:	3f 91       	pop	r19
     2b6:	2f 91       	pop	r18
     2b8:	0f 90       	pop	r0
     2ba:	0b be       	out	0x3b, r0	; 59
     2bc:	0f 90       	pop	r0
     2be:	0f be       	out	0x3f, r0	; 63
     2c0:	0f 90       	pop	r0
     2c2:	1f 90       	pop	r1
     2c4:	18 95       	reti

000002c6 <_Z4markv>:
}

void mark() {
	TCCR5A |= (1<<COM5C1);
     2c6:	e0 e2       	ldi	r30, 0x20	; 32
     2c8:	f1 e0       	ldi	r31, 0x01	; 1
     2ca:	80 81       	ld	r24, Z
     2cc:	88 60       	ori	r24, 0x08	; 8
     2ce:	80 83       	st	Z, r24
	PORTC |= (1 << PC2);
     2d0:	42 9a       	sbi	0x08, 2	; 8
	#else
		//round up by default
		__ticks_dc = (uint32_t)(ceil(fabs(__tmp)));
	#endif

	__builtin_avr_delay_cycles(__ticks_dc);
     2d2:	8f ec       	ldi	r24, 0xCF	; 207
     2d4:	97 e0       	ldi	r25, 0x07	; 7
     2d6:	01 97       	sbiw	r24, 0x01	; 1
     2d8:	f1 f7       	brne	.-4      	; 0x2d6 <_Z4markv+0x10>
     2da:	00 c0       	rjmp	.+0      	; 0x2dc <_Z4markv+0x16>
     2dc:	00 00       	nop
     2de:	08 95       	ret

000002e0 <_Z5spacev>:
	_delay_us(500);
}
void space() {
	TCCR5A &= ~(1 << COM5C1);
     2e0:	e0 e2       	ldi	r30, 0x20	; 32
     2e2:	f1 e0       	ldi	r31, 0x01	; 1
     2e4:	80 81       	ld	r24, Z
     2e6:	87 7f       	andi	r24, 0xF7	; 247
     2e8:	80 83       	st	Z, r24
	PORTC &= ~(1 << PC2);
     2ea:	42 98       	cbi	0x08, 2	; 8
     2ec:	8f ec       	ldi	r24, 0xCF	; 207
     2ee:	97 e0       	ldi	r25, 0x07	; 7
     2f0:	01 97       	sbiw	r24, 0x01	; 1
     2f2:	f1 f7       	brne	.-4      	; 0x2f0 <_Z5spacev+0x10>
     2f4:	00 c0       	rjmp	.+0      	; 0x2f6 <_Z5spacev+0x16>
     2f6:	00 00       	nop
     2f8:	08 95       	ret

000002fa <_Z11IR_transmith>:
	_delay_us(500);
}

void IR_transmit(uint8_t data) {
     2fa:	0f 93       	push	r16
     2fc:	1f 93       	push	r17
     2fe:	cf 93       	push	r28
     300:	df 93       	push	r29
     302:	08 2f       	mov	r16, r24
	/*uint8_t sreg = SREG;
	cli();

	disable_interrupt();*/

	mark();
     304:	e0 df       	rcall	.-64     	; 0x2c6 <_Z4markv>
	space();
     306:	ec df       	rcall	.-40     	; 0x2e0 <_Z5spacev>
    int i;
	for(i = 0; i < 8; i++) {
     308:	c0 e0       	ldi	r28, 0x00	; 0
     30a:	d0 e0       	ldi	r29, 0x00	; 0
		if(((data >> i) & 0x1)) {
     30c:	10 e0       	ldi	r17, 0x00	; 0
     30e:	98 01       	movw	r18, r16
     310:	0c 2e       	mov	r0, r28
     312:	02 c0       	rjmp	.+4      	; 0x318 <_Z11IR_transmith+0x1e>
     314:	35 95       	asr	r19
     316:	27 95       	ror	r18
     318:	0a 94       	dec	r0
     31a:	e2 f7       	brpl	.-8      	; 0x314 <_Z11IR_transmith+0x1a>
     31c:	20 ff       	sbrs	r18, 0
     31e:	02 c0       	rjmp	.+4      	; 0x324 <_Z11IR_transmith+0x2a>
			mark();
     320:	d2 df       	rcall	.-92     	; 0x2c6 <_Z4markv>
     322:	01 c0       	rjmp	.+2      	; 0x326 <_Z11IR_transmith+0x2c>
			} else {
			space();
     324:	dd df       	rcall	.-70     	; 0x2e0 <_Z5spacev>
	disable_interrupt();*/

	mark();
	space();
    int i;
	for(i = 0; i < 8; i++) {
     326:	21 96       	adiw	r28, 0x01	; 1
     328:	c8 30       	cpi	r28, 0x08	; 8
     32a:	d1 05       	cpc	r29, r1
     32c:	81 f7       	brne	.-32     	; 0x30e <_Z11IR_transmith+0x14>
			mark();
			} else {
			space();
		}
	}
	space();
     32e:	d8 df       	rcall	.-80     	; 0x2e0 <_Z5spacev>

	/*enable_interrupt();

	SREG = sreg; // sei();*/
}
     330:	df 91       	pop	r29
     332:	cf 91       	pop	r28
     334:	1f 91       	pop	r17
     336:	0f 91       	pop	r16
     338:	08 95       	ret

0000033a <_Z10IR_getLastv>:

uint8_t IR_getLast(){
	return outputByte;
     33a:	80 91 ba 02 	lds	r24, 0x02BA
     33e:	08 95       	ret

00000340 <_ZL4idlev>:
    arg = cur_task->arg;

    SREG = sreg;

    return arg;
}
     340:	ff cf       	rjmp	.-2      	; 0x340 <_ZL4idlev>

00000342 <_ZL11exit_kernelv>:
     342:	ff 93       	push	r31
     344:	fc b7       	in	r31, 0x3c	; 60
     346:	ff 93       	push	r31
     348:	ff b7       	in	r31, 0x3f	; 63
     34a:	f8 94       	cli
     34c:	ff 93       	push	r31
     34e:	ef 93       	push	r30
     350:	df 93       	push	r29
     352:	cf 93       	push	r28
     354:	bf 93       	push	r27
     356:	af 93       	push	r26
     358:	9f 93       	push	r25
     35a:	8f 93       	push	r24
     35c:	7f 93       	push	r23
     35e:	6f 93       	push	r22
     360:	5f 93       	push	r21
     362:	4f 93       	push	r20
     364:	3f 93       	push	r19
     366:	2f 93       	push	r18
     368:	1f 93       	push	r17
     36a:	0f 93       	push	r16
     36c:	ff 92       	push	r15
     36e:	ef 92       	push	r14
     370:	df 92       	push	r13
     372:	cf 92       	push	r12
     374:	bf 92       	push	r11
     376:	af 92       	push	r10
     378:	9f 92       	push	r9
     37a:	8f 92       	push	r8
     37c:	7f 92       	push	r7
     37e:	6f 92       	push	r6
     380:	5f 92       	push	r5
     382:	4f 92       	push	r4
     384:	3f 92       	push	r3
     386:	2f 92       	push	r2
     388:	1f 92       	push	r1
     38a:	0f 92       	push	r0
     38c:	8d b7       	in	r24, 0x3d	; 61
     38e:	9e b7       	in	r25, 0x3e	; 62
     390:	90 93 94 15 	sts	0x1594, r25
     394:	80 93 93 15 	sts	0x1593, r24
     398:	e0 91 95 15 	lds	r30, 0x1595
     39c:	f0 91 96 15 	lds	r31, 0x1596
     3a0:	fe 5f       	subi	r31, 0xFE	; 254
     3a2:	80 81       	ld	r24, Z
     3a4:	91 81       	ldd	r25, Z+1	; 0x01
     3a6:	9e bf       	out	0x3e, r25	; 62
     3a8:	8d bf       	out	0x3d, r24	; 61
     3aa:	0f 90       	pop	r0
     3ac:	1f 90       	pop	r1
     3ae:	2f 90       	pop	r2
     3b0:	3f 90       	pop	r3
     3b2:	4f 90       	pop	r4
     3b4:	5f 90       	pop	r5
     3b6:	6f 90       	pop	r6
     3b8:	7f 90       	pop	r7
     3ba:	8f 90       	pop	r8
     3bc:	9f 90       	pop	r9
     3be:	af 90       	pop	r10
     3c0:	bf 90       	pop	r11
     3c2:	cf 90       	pop	r12
     3c4:	df 90       	pop	r13
     3c6:	ef 90       	pop	r14
     3c8:	ff 90       	pop	r15
     3ca:	0f 91       	pop	r16
     3cc:	1f 91       	pop	r17
     3ce:	2f 91       	pop	r18
     3d0:	3f 91       	pop	r19
     3d2:	4f 91       	pop	r20
     3d4:	5f 91       	pop	r21
     3d6:	6f 91       	pop	r22
     3d8:	7f 91       	pop	r23
     3da:	8f 91       	pop	r24
     3dc:	9f 91       	pop	r25
     3de:	af 91       	pop	r26
     3e0:	bf 91       	pop	r27
     3e2:	cf 91       	pop	r28
     3e4:	df 91       	pop	r29
     3e6:	ef 91       	pop	r30
     3e8:	ff 91       	pop	r31
     3ea:	ff bf       	out	0x3f, r31	; 63
     3ec:	ff 91       	pop	r31
     3ee:	fc bf       	out	0x3c, r31	; 60
     3f0:	ff 91       	pop	r31
     3f2:	08 95       	ret

000003f4 <_ZL12enter_kernelv>:
     3f4:	ff 93       	push	r31
     3f6:	fc b7       	in	r31, 0x3c	; 60
     3f8:	ff 93       	push	r31
     3fa:	ff b7       	in	r31, 0x3f	; 63
     3fc:	f8 94       	cli
     3fe:	ff 93       	push	r31
     400:	ef 93       	push	r30
     402:	df 93       	push	r29
     404:	cf 93       	push	r28
     406:	bf 93       	push	r27
     408:	af 93       	push	r26
     40a:	9f 93       	push	r25
     40c:	8f 93       	push	r24
     40e:	7f 93       	push	r23
     410:	6f 93       	push	r22
     412:	5f 93       	push	r21
     414:	4f 93       	push	r20
     416:	3f 93       	push	r19
     418:	2f 93       	push	r18
     41a:	1f 93       	push	r17
     41c:	0f 93       	push	r16
     41e:	ff 92       	push	r15
     420:	ef 92       	push	r14
     422:	df 92       	push	r13
     424:	cf 92       	push	r12
     426:	bf 92       	push	r11
     428:	af 92       	push	r10
     42a:	9f 92       	push	r9
     42c:	8f 92       	push	r8
     42e:	7f 92       	push	r7
     430:	6f 92       	push	r6
     432:	5f 92       	push	r5
     434:	4f 92       	push	r4
     436:	3f 92       	push	r3
     438:	2f 92       	push	r2
     43a:	1f 92       	push	r1
     43c:	0f 92       	push	r0
     43e:	e0 91 95 15 	lds	r30, 0x1595
     442:	f0 91 96 15 	lds	r31, 0x1596
     446:	8d b7       	in	r24, 0x3d	; 61
     448:	9e b7       	in	r25, 0x3e	; 62
     44a:	fe 5f       	subi	r31, 0xFE	; 254
     44c:	91 83       	std	Z+1, r25	; 0x01
     44e:	80 83       	st	Z, r24
     450:	80 91 93 15 	lds	r24, 0x1593
     454:	90 91 94 15 	lds	r25, 0x1594
     458:	9e bf       	out	0x3e, r25	; 62
     45a:	8d bf       	out	0x3d, r24	; 61
     45c:	0f 90       	pop	r0
     45e:	1f 90       	pop	r1
     460:	2f 90       	pop	r2
     462:	3f 90       	pop	r3
     464:	4f 90       	pop	r4
     466:	5f 90       	pop	r5
     468:	6f 90       	pop	r6
     46a:	7f 90       	pop	r7
     46c:	8f 90       	pop	r8
     46e:	9f 90       	pop	r9
     470:	af 90       	pop	r10
     472:	bf 90       	pop	r11
     474:	cf 90       	pop	r12
     476:	df 90       	pop	r13
     478:	ef 90       	pop	r14
     47a:	ff 90       	pop	r15
     47c:	0f 91       	pop	r16
     47e:	1f 91       	pop	r17
     480:	2f 91       	pop	r18
     482:	3f 91       	pop	r19
     484:	4f 91       	pop	r20
     486:	5f 91       	pop	r21
     488:	6f 91       	pop	r22
     48a:	7f 91       	pop	r23
     48c:	8f 91       	pop	r24
     48e:	9f 91       	pop	r25
     490:	af 91       	pop	r26
     492:	bf 91       	pop	r27
     494:	cf 91       	pop	r28
     496:	df 91       	pop	r29
     498:	ef 91       	pop	r30
     49a:	ff 91       	pop	r31
     49c:	ff bf       	out	0x3f, r31	; 63
     49e:	ff 91       	pop	r31
     4a0:	fc bf       	out	0x3c, r31	; 60
     4a2:	ff 91       	pop	r31
     4a4:	08 95       	ret

000004a6 <_ZL7enqueueP7queue_tP9td_struct>:
     4a6:	fc 01       	movw	r30, r24
     4a8:	db 01       	movw	r26, r22
     4aa:	a9 5f       	subi	r26, 0xF9	; 249
     4ac:	bd 4f       	sbci	r27, 0xFD	; 253
     4ae:	1d 92       	st	X+, r1
     4b0:	1c 92       	st	X, r1
     4b2:	80 81       	ld	r24, Z
     4b4:	91 81       	ldd	r25, Z+1	; 0x01
     4b6:	89 2b       	or	r24, r25
     4b8:	29 f4       	brne	.+10     	; 0x4c4 <_ZL7enqueueP7queue_tP9td_struct+0x1e>
     4ba:	71 83       	std	Z+1, r23	; 0x01
     4bc:	60 83       	st	Z, r22
     4be:	73 83       	std	Z+3, r23	; 0x03
     4c0:	62 83       	std	Z+2, r22	; 0x02
     4c2:	08 95       	ret
     4c4:	a2 81       	ldd	r26, Z+2	; 0x02
     4c6:	b3 81       	ldd	r27, Z+3	; 0x03
     4c8:	a9 5f       	subi	r26, 0xF9	; 249
     4ca:	bd 4f       	sbci	r27, 0xFD	; 253
     4cc:	6d 93       	st	X+, r22
     4ce:	7c 93       	st	X, r23
     4d0:	73 83       	std	Z+3, r23	; 0x03
     4d2:	62 83       	std	Z+2, r22	; 0x02
     4d4:	08 95       	ret

000004d6 <_ZL7dequeueP7queue_t>:
     4d6:	fc 01       	movw	r30, r24
     4d8:	80 81       	ld	r24, Z
     4da:	91 81       	ldd	r25, Z+1	; 0x01
     4dc:	00 97       	sbiw	r24, 0x00	; 0
     4de:	51 f0       	breq	.+20     	; 0x4f4 <_ZL7dequeueP7queue_t+0x1e>
     4e0:	dc 01       	movw	r26, r24
     4e2:	a9 5f       	subi	r26, 0xF9	; 249
     4e4:	bd 4f       	sbci	r27, 0xFD	; 253
     4e6:	2d 91       	ld	r18, X+
     4e8:	3c 91       	ld	r19, X
     4ea:	11 97       	sbiw	r26, 0x01	; 1
     4ec:	31 83       	std	Z+1, r19	; 0x01
     4ee:	20 83       	st	Z, r18
     4f0:	1d 92       	st	X+, r1
     4f2:	1c 92       	st	X, r1
     4f4:	08 95       	ret

000004f6 <Task_Terminate>:
     4f6:	cf 93       	push	r28
     4f8:	cf b7       	in	r28, 0x3f	; 63
     4fa:	f8 94       	cli
     4fc:	83 e0       	ldi	r24, 0x03	; 3
     4fe:	80 93 0b 03 	sts	0x030B, r24
     502:	78 df       	rcall	.-272    	; 0x3f4 <_ZL12enter_kernelv>
     504:	cf bf       	out	0x3f, r28	; 63
     506:	cf 91       	pop	r28
     508:	08 95       	ret

0000050a <__vector_17>:
     50a:	ff 93       	push	r31
     50c:	fc b7       	in	r31, 0x3c	; 60
     50e:	ff 93       	push	r31
     510:	ff b7       	in	r31, 0x3f	; 63
     512:	f8 94       	cli
     514:	f0 68       	ori	r31, 0x80	; 128
     516:	ff 93       	push	r31
     518:	ef 93       	push	r30
     51a:	df 93       	push	r29
     51c:	cf 93       	push	r28
     51e:	bf 93       	push	r27
     520:	af 93       	push	r26
     522:	9f 93       	push	r25
     524:	8f 93       	push	r24
     526:	7f 93       	push	r23
     528:	6f 93       	push	r22
     52a:	5f 93       	push	r21
     52c:	4f 93       	push	r20
     52e:	3f 93       	push	r19
     530:	2f 93       	push	r18
     532:	1f 93       	push	r17
     534:	0f 93       	push	r16
     536:	ff 92       	push	r15
     538:	ef 92       	push	r14
     53a:	df 92       	push	r13
     53c:	cf 92       	push	r12
     53e:	bf 92       	push	r11
     540:	af 92       	push	r10
     542:	9f 92       	push	r9
     544:	8f 92       	push	r8
     546:	7f 92       	push	r7
     548:	6f 92       	push	r6
     54a:	5f 92       	push	r5
     54c:	4f 92       	push	r4
     54e:	3f 92       	push	r3
     550:	2f 92       	push	r2
     552:	1f 92       	push	r1
     554:	0f 92       	push	r0
     556:	e0 91 95 15 	lds	r30, 0x1595
     55a:	f0 91 96 15 	lds	r31, 0x1596
     55e:	8d b7       	in	r24, 0x3d	; 61
     560:	9e b7       	in	r25, 0x3e	; 62
     562:	fe 5f       	subi	r31, 0xFE	; 254
     564:	91 83       	std	Z+1, r25	; 0x01
     566:	80 83       	st	Z, r24
     568:	80 91 93 15 	lds	r24, 0x1593
     56c:	90 91 94 15 	lds	r25, 0x1594
     570:	9e bf       	out	0x3e, r25	; 62
     572:	8d bf       	out	0x3d, r24	; 61
     574:	81 e0       	ldi	r24, 0x01	; 1
     576:	80 93 0b 03 	sts	0x030B, r24
     57a:	e8 e8       	ldi	r30, 0x88	; 136
     57c:	f0 e0       	ldi	r31, 0x00	; 0
     57e:	80 81       	ld	r24, Z
     580:	91 81       	ldd	r25, Z+1	; 0x01
     582:	80 5f       	subi	r24, 0xF0	; 240
     584:	98 4d       	sbci	r25, 0xD8	; 216
     586:	91 83       	std	Z+1, r25	; 0x01
     588:	80 83       	st	Z, r24
     58a:	80 91 93 15 	lds	r24, 0x1593
     58e:	90 91 94 15 	lds	r25, 0x1594
     592:	9e bf       	out	0x3e, r25	; 62
     594:	8d bf       	out	0x3d, r24	; 61
     596:	0f 90       	pop	r0
     598:	1f 90       	pop	r1
     59a:	2f 90       	pop	r2
     59c:	3f 90       	pop	r3
     59e:	4f 90       	pop	r4
     5a0:	5f 90       	pop	r5
     5a2:	6f 90       	pop	r6
     5a4:	7f 90       	pop	r7
     5a6:	8f 90       	pop	r8
     5a8:	9f 90       	pop	r9
     5aa:	af 90       	pop	r10
     5ac:	bf 90       	pop	r11
     5ae:	cf 90       	pop	r12
     5b0:	df 90       	pop	r13
     5b2:	ef 90       	pop	r14
     5b4:	ff 90       	pop	r15
     5b6:	0f 91       	pop	r16
     5b8:	1f 91       	pop	r17
     5ba:	2f 91       	pop	r18
     5bc:	3f 91       	pop	r19
     5be:	4f 91       	pop	r20
     5c0:	5f 91       	pop	r21
     5c2:	6f 91       	pop	r22
     5c4:	7f 91       	pop	r23
     5c6:	8f 91       	pop	r24
     5c8:	9f 91       	pop	r25
     5ca:	af 91       	pop	r26
     5cc:	bf 91       	pop	r27
     5ce:	cf 91       	pop	r28
     5d0:	df 91       	pop	r29
     5d2:	ef 91       	pop	r30
     5d4:	ff 91       	pop	r31
     5d6:	ff bf       	out	0x3f, r31	; 63
     5d8:	ff 91       	pop	r31
     5da:	fc bf       	out	0x3c, r31	; 60
     5dc:	ff 91       	pop	r31
     5de:	08 95       	ret

000005e0 <OS_Abort>:
     5e0:	f8 94       	cli
     5e2:	80 e8       	ldi	r24, 0x80	; 128
     5e4:	84 b9       	out	0x04, r24	; 4
     5e6:	15 b8       	out	0x05, r1	; 5
     5e8:	20 91 19 02 	lds	r18, 0x0219
     5ec:	2f 5f       	subi	r18, 0xFF	; 255
     5ee:	90 e0       	ldi	r25, 0x00	; 0
     5f0:	38 ec       	ldi	r19, 0xC8	; 200
     5f2:	40 e0       	ldi	r20, 0x00	; 0
     5f4:	18 c0       	rjmp	.+48     	; 0x626 <OS_Abort+0x46>
     5f6:	84 b1       	in	r24, 0x04	; 4
     5f8:	85 b9       	out	0x05, r24	; 5
     5fa:	80 e5       	ldi	r24, 0x50	; 80
     5fc:	e9 e6       	ldi	r30, 0x69	; 105
     5fe:	f8 e1       	ldi	r31, 0x18	; 24
     600:	31 97       	sbiw	r30, 0x01	; 1
     602:	f1 f7       	brne	.-4      	; 0x600 <OS_Abort+0x20>
     604:	00 c0       	rjmp	.+0      	; 0x606 <OS_Abort+0x26>
     606:	00 00       	nop
     608:	81 50       	subi	r24, 0x01	; 1
     60a:	c1 f7       	brne	.-16     	; 0x5fc <OS_Abort+0x1c>
     60c:	15 b8       	out	0x05, r1	; 5
     60e:	80 e5       	ldi	r24, 0x50	; 80
     610:	e9 e6       	ldi	r30, 0x69	; 105
     612:	f8 e1       	ldi	r31, 0x18	; 24
     614:	31 97       	sbiw	r30, 0x01	; 1
     616:	f1 f7       	brne	.-4      	; 0x614 <OS_Abort+0x34>
     618:	00 c0       	rjmp	.+0      	; 0x61a <OS_Abort+0x3a>
     61a:	00 00       	nop
     61c:	81 50       	subi	r24, 0x01	; 1
     61e:	c1 f7       	brne	.-16     	; 0x610 <OS_Abort+0x30>
     620:	9f 5f       	subi	r25, 0xFF	; 255
     622:	01 c0       	rjmp	.+2      	; 0x626 <OS_Abort+0x46>
     624:	94 2f       	mov	r25, r20
     626:	92 17       	cp	r25, r18
     628:	30 f3       	brcs	.-52     	; 0x5f6 <OS_Abort+0x16>
     62a:	83 2f       	mov	r24, r19
     62c:	e9 e6       	ldi	r30, 0x69	; 105
     62e:	f8 e1       	ldi	r31, 0x18	; 24
     630:	31 97       	sbiw	r30, 0x01	; 1
     632:	f1 f7       	brne	.-4      	; 0x630 <OS_Abort+0x50>
     634:	00 c0       	rjmp	.+0      	; 0x636 <OS_Abort+0x56>
     636:	00 00       	nop
     638:	81 50       	subi	r24, 0x01	; 1
     63a:	c1 f7       	brne	.-16     	; 0x62c <OS_Abort+0x4c>
     63c:	f3 cf       	rjmp	.-26     	; 0x624 <OS_Abort+0x44>

0000063e <_ZL18kernel_create_taskv>:
     63e:	af 92       	push	r10
     640:	bf 92       	push	r11
     642:	cf 92       	push	r12
     644:	df 92       	push	r13
     646:	ef 92       	push	r14
     648:	ff 92       	push	r15
     64a:	0f 93       	push	r16
     64c:	1f 93       	push	r17
     64e:	cf 93       	push	r28
     650:	df 93       	push	r29
     652:	80 91 f6 02 	lds	r24, 0x02F6
     656:	90 91 f7 02 	lds	r25, 0x02F7
     65a:	89 2b       	or	r24, r25
     65c:	09 f4       	brne	.+2      	; 0x660 <_ZL18kernel_create_taskv+0x22>
     65e:	47 c1       	rjmp	.+654    	; 0x8ee <_ZL18kernel_create_taskv+0x2b0>
     660:	80 91 04 03 	lds	r24, 0x0304
     664:	82 30       	cpi	r24, 0x02	; 2
     666:	09 f0       	breq	.+2      	; 0x66a <_ZL18kernel_create_taskv+0x2c>
     668:	4f c1       	rjmp	.+670    	; 0x908 <_ZL18kernel_create_taskv+0x2ca>
     66a:	80 91 05 03 	lds	r24, 0x0305
     66e:	90 91 06 03 	lds	r25, 0x0306
     672:	89 2b       	or	r24, r25
     674:	09 f4       	brne	.+2      	; 0x678 <_ZL18kernel_create_taskv+0x3a>
     676:	44 c1       	rjmp	.+648    	; 0x900 <_ZL18kernel_create_taskv+0x2c2>
     678:	80 91 07 03 	lds	r24, 0x0307
     67c:	90 91 08 03 	lds	r25, 0x0308
     680:	89 2b       	or	r24, r25
     682:	09 f4       	brne	.+2      	; 0x686 <_ZL18kernel_create_taskv+0x48>
     684:	3d c1       	rjmp	.+634    	; 0x900 <_ZL18kernel_create_taskv+0x2c2>
     686:	40 c1       	rjmp	.+640    	; 0x908 <_ZL18kernel_create_taskv+0x2ca>
     688:	86 ef       	ldi	r24, 0xF6	; 246
     68a:	92 e0       	ldi	r25, 0x02	; 2
     68c:	24 df       	rcall	.-440    	; 0x4d6 <_ZL7dequeueP7queue_t>
     68e:	bc 01       	movw	r22, r24
     690:	02 c0       	rjmp	.+4      	; 0x696 <_ZL18kernel_create_taskv+0x58>
     692:	64 e8       	ldi	r22, 0x84	; 132
     694:	73 e1       	ldi	r23, 0x13	; 19
     696:	cb 01       	movw	r24, r22
     698:	89 52       	subi	r24, 0x29	; 41
     69a:	9e 4f       	sbci	r25, 0xFE	; 254
     69c:	fc 01       	movw	r30, r24
     69e:	20 e0       	ldi	r18, 0x00	; 0
     6a0:	21 93       	st	Z+, r18
     6a2:	2f 5f       	subi	r18, 0xFF	; 255
     6a4:	2f 31       	cpi	r18, 0x1F	; 31
     6a6:	e1 f7       	brne	.-8      	; 0x6a0 <_ZL18kernel_create_taskv+0x62>
     6a8:	25 e5       	ldi	r18, 0x55	; 85
     6aa:	fb 01       	movw	r30, r22
     6ac:	ea 50       	subi	r30, 0x0A	; 10
     6ae:	fe 4f       	sbci	r31, 0xFE	; 254
     6b0:	20 83       	st	Z, r18
     6b2:	2e ee       	ldi	r18, 0xEE	; 238
     6b4:	31 96       	adiw	r30, 0x01	; 1
     6b6:	20 83       	st	Z, r18
     6b8:	7e 97       	sbiw	r30, 0x1e	; 30
     6ba:	10 82       	st	Z, r1
     6bc:	20 e8       	ldi	r18, 0x80	; 128
     6be:	7f 96       	adiw	r30, 0x1f	; 31
     6c0:	20 83       	st	Z, r18
     6c2:	32 96       	adiw	r30, 0x02	; 2
     6c4:	10 82       	st	Z, r1
     6c6:	e0 e0       	ldi	r30, 0x00	; 0
     6c8:	f3 e0       	ldi	r31, 0x03	; 3
     6ca:	20 81       	ld	r18, Z
     6cc:	31 81       	ldd	r19, Z+1	; 0x01
     6ce:	db 01       	movw	r26, r22
     6d0:	a5 50       	subi	r26, 0x05	; 5
     6d2:	be 4f       	sbci	r27, 0xFE	; 254
     6d4:	3c 93       	st	X, r19
     6d6:	20 81       	ld	r18, Z
     6d8:	31 81       	ldd	r19, Z+1	; 0x01
     6da:	fb 01       	movw	r30, r22
     6dc:	e4 50       	subi	r30, 0x04	; 4
     6de:	fe 4f       	sbci	r31, 0xFE	; 254
     6e0:	20 83       	st	Z, r18
     6e2:	31 96       	adiw	r30, 0x01	; 1
     6e4:	10 82       	st	Z, r1
     6e6:	2b e7       	ldi	r18, 0x7B	; 123
     6e8:	32 e0       	ldi	r19, 0x02	; 2
     6ea:	31 96       	adiw	r30, 0x01	; 1
     6ec:	30 83       	st	Z, r19
     6ee:	31 96       	adiw	r30, 0x01	; 1
     6f0:	20 83       	st	Z, r18
     6f2:	31 96       	adiw	r30, 0x01	; 1
     6f4:	91 83       	std	Z+1, r25	; 0x01
     6f6:	80 83       	st	Z, r24
     6f8:	82 e0       	ldi	r24, 0x02	; 2
     6fa:	33 96       	adiw	r30, 0x03	; 3
     6fc:	80 83       	st	Z, r24
     6fe:	80 91 02 03 	lds	r24, 0x0302
     702:	90 91 03 03 	lds	r25, 0x0303
     706:	31 96       	adiw	r30, 0x01	; 1
     708:	91 83       	std	Z+1, r25	; 0x01
     70a:	80 83       	st	Z, r24
     70c:	e4 e0       	ldi	r30, 0x04	; 4
     70e:	f3 e0       	ldi	r31, 0x03	; 3
     710:	80 81       	ld	r24, Z
     712:	1b 96       	adiw	r26, 0x0b	; 11
     714:	8c 93       	st	X, r24
     716:	80 81       	ld	r24, Z
     718:	82 30       	cpi	r24, 0x02	; 2
     71a:	39 f0       	breq	.+14     	; 0x72a <_ZL18kernel_create_taskv+0xec>
     71c:	83 30       	cpi	r24, 0x03	; 3
     71e:	09 f4       	brne	.+2      	; 0x722 <_ZL18kernel_create_taskv+0xe4>
     720:	da c0       	rjmp	.+436    	; 0x8d6 <_ZL18kernel_create_taskv+0x298>
     722:	81 30       	cpi	r24, 0x01	; 1
     724:	09 f0       	breq	.+2      	; 0x728 <_ZL18kernel_create_taskv+0xea>
     726:	e6 c0       	rjmp	.+460    	; 0x8f4 <_ZL18kernel_create_taskv+0x2b6>
     728:	dc c0       	rjmp	.+440    	; 0x8e2 <_ZL18kernel_create_taskv+0x2a4>
     72a:	80 91 09 03 	lds	r24, 0x0309
     72e:	90 91 0a 03 	lds	r25, 0x030A
     732:	fb 01       	movw	r30, r22
     734:	e3 5f       	subi	r30, 0xF3	; 243
     736:	fd 4f       	sbci	r31, 0xFD	; 253
     738:	91 83       	std	Z+1, r25	; 0x01
     73a:	80 83       	st	Z, r24
     73c:	80 91 07 03 	lds	r24, 0x0307
     740:	90 91 08 03 	lds	r25, 0x0308
     744:	32 97       	sbiw	r30, 0x02	; 2
     746:	91 83       	std	Z+1, r25	; 0x01
     748:	80 83       	st	Z, r24
     74a:	80 91 05 03 	lds	r24, 0x0305
     74e:	90 91 06 03 	lds	r25, 0x0306
     752:	32 97       	sbiw	r30, 0x02	; 2
     754:	91 83       	std	Z+1, r25	; 0x01
     756:	80 83       	st	Z, r24
     758:	32 97       	sbiw	r30, 0x02	; 2
     75a:	11 82       	std	Z+1, r1	; 0x01
     75c:	10 82       	st	Z, r1
     75e:	e0 90 e9 02 	lds	r14, 0x02E9
     762:	f0 90 ea 02 	lds	r15, 0x02EA
     766:	e1 14       	cp	r14, r1
     768:	f1 04       	cpc	r15, r1
     76a:	99 f4       	brne	.+38     	; 0x792 <_ZL18kernel_create_taskv+0x154>
     76c:	70 93 ea 02 	sts	0x02EA, r23
     770:	60 93 e9 02 	sts	0x02E9, r22
     774:	70 93 ec 02 	sts	0x02EC, r23
     778:	60 93 eb 02 	sts	0x02EB, r22
     77c:	32 96       	adiw	r30, 0x02	; 2
     77e:	80 81       	ld	r24, Z
     780:	80 93 c8 02 	sts	0x02C8, r24
     784:	70 93 c2 02 	sts	0x02C2, r23
     788:	60 93 c1 02 	sts	0x02C1, r22
     78c:	81 e0       	ldi	r24, 0x01	; 1
     78e:	90 e0       	ldi	r25, 0x00	; 0
     790:	cf c0       	rjmp	.+414    	; 0x930 <_ZL18kernel_create_taskv+0x2f2>
     792:	fb 01       	movw	r30, r22
     794:	e3 5f       	subi	r30, 0xF3	; 243
     796:	fd 4f       	sbci	r31, 0xFD	; 253
     798:	20 81       	ld	r18, Z
     79a:	31 81       	ldd	r19, Z+1	; 0x01
     79c:	f7 01       	movw	r30, r14
     79e:	e3 5f       	subi	r30, 0xF3	; 243
     7a0:	fd 4f       	sbci	r31, 0xFD	; 253
     7a2:	80 81       	ld	r24, Z
     7a4:	91 81       	ldd	r25, Z+1	; 0x01
     7a6:	28 17       	cp	r18, r24
     7a8:	39 07       	cpc	r19, r25
     7aa:	08 f0       	brcs	.+2      	; 0x7ae <_ZL18kernel_create_taskv+0x170>
     7ac:	b6 c0       	rjmp	.+364    	; 0x91a <_ZL18kernel_create_taskv+0x2dc>
     7ae:	fb 01       	movw	r30, r22
     7b0:	e7 5f       	subi	r30, 0xF7	; 247
     7b2:	fd 4f       	sbci	r31, 0xFD	; 253
     7b4:	40 81       	ld	r20, Z
     7b6:	51 81       	ldd	r21, Z+1	; 0x01
     7b8:	24 0f       	add	r18, r20
     7ba:	35 1f       	adc	r19, r21
     7bc:	82 17       	cp	r24, r18
     7be:	93 07       	cpc	r25, r19
     7c0:	08 f4       	brcc	.+2      	; 0x7c4 <_ZL18kernel_create_taskv+0x186>
     7c2:	ab c0       	rjmp	.+342    	; 0x91a <_ZL18kernel_create_taskv+0x2dc>
     7c4:	32 97       	sbiw	r30, 0x02	; 2
     7c6:	f1 82       	std	Z+1, r15	; 0x01
     7c8:	e0 82       	st	Z, r14
     7ca:	70 93 ea 02 	sts	0x02EA, r23
     7ce:	60 93 e9 02 	sts	0x02E9, r22
     7d2:	f7 01       	movw	r30, r14
     7d4:	e9 5f       	subi	r30, 0xF9	; 249
     7d6:	fd 4f       	sbci	r31, 0xFD	; 253
     7d8:	80 81       	ld	r24, Z
     7da:	91 81       	ldd	r25, Z+1	; 0x01
     7dc:	89 2b       	or	r24, r25
     7de:	09 f0       	breq	.+2      	; 0x7e2 <_ZL18kernel_create_taskv+0x1a4>
     7e0:	99 c0       	rjmp	.+306    	; 0x914 <_ZL18kernel_create_taskv+0x2d6>
     7e2:	c7 01       	movw	r24, r14
     7e4:	41 e0       	ldi	r20, 0x01	; 1
     7e6:	4e c0       	rjmp	.+156    	; 0x884 <_ZL18kernel_create_taskv+0x246>
     7e8:	db 01       	movw	r26, r22
     7ea:	a3 5f       	subi	r26, 0xF3	; 243
     7ec:	bd 4f       	sbci	r27, 0xFD	; 253
     7ee:	eb 01       	movw	r28, r22
     7f0:	c7 5f       	subi	r28, 0xF7	; 247
     7f2:	dd 4f       	sbci	r29, 0xFD	; 253
     7f4:	8b 01       	movw	r16, r22
     7f6:	09 5f       	subi	r16, 0xF9	; 249
     7f8:	1d 4f       	sbci	r17, 0xFD	; 253
     7fa:	aa 24       	eor	r10, r10
     7fc:	a3 94       	inc	r10
     7fe:	b1 2c       	mov	r11, r1
     800:	2d 91       	ld	r18, X+
     802:	3c 91       	ld	r19, X
     804:	11 97       	sbiw	r26, 0x01	; 1
     806:	fc 01       	movw	r30, r24
     808:	e3 5f       	subi	r30, 0xF3	; 243
     80a:	fd 4f       	sbci	r31, 0xFD	; 253
     80c:	40 81       	ld	r20, Z
     80e:	51 81       	ldd	r21, Z+1	; 0x01
     810:	24 17       	cp	r18, r20
     812:	35 07       	cpc	r19, r21
     814:	00 f5       	brcc	.+64     	; 0x856 <_ZL18kernel_create_taskv+0x218>
     816:	e8 81       	ld	r30, Y
     818:	f9 81       	ldd	r31, Y+1	; 0x01
     81a:	e2 0f       	add	r30, r18
     81c:	f3 1f       	adc	r31, r19
     81e:	4e 17       	cp	r20, r30
     820:	5f 07       	cpc	r21, r31
     822:	c8 f0       	brcs	.+50     	; 0x856 <_ZL18kernel_create_taskv+0x218>
     824:	f7 01       	movw	r30, r14
     826:	e7 5f       	subi	r30, 0xF7	; 247
     828:	fd 4f       	sbci	r31, 0xFD	; 253
     82a:	c0 80       	ld	r12, Z
     82c:	d1 80       	ldd	r13, Z+1	; 0x01
     82e:	34 96       	adiw	r30, 0x04	; 4
     830:	01 90       	ld	r0, Z+
     832:	f0 81       	ld	r31, Z
     834:	e0 2d       	mov	r30, r0
     836:	ec 0d       	add	r30, r12
     838:	fd 1d       	adc	r31, r13
     83a:	2e 17       	cp	r18, r30
     83c:	3f 07       	cpc	r19, r31
     83e:	58 f0       	brcs	.+22     	; 0x856 <_ZL18kernel_create_taskv+0x218>
     840:	f8 01       	movw	r30, r16
     842:	91 83       	std	Z+1, r25	; 0x01
     844:	80 83       	st	Z, r24
     846:	f7 01       	movw	r30, r14
     848:	e9 5f       	subi	r30, 0xF9	; 249
     84a:	fd 4f       	sbci	r31, 0xFD	; 253
     84c:	71 83       	std	Z+1, r23	; 0x01
     84e:	60 83       	st	Z, r22
     850:	c7 01       	movw	r24, r14
     852:	4a 2d       	mov	r20, r10
     854:	08 c0       	rjmp	.+16     	; 0x866 <_ZL18kernel_create_taskv+0x228>
     856:	42 17       	cp	r20, r18
     858:	53 07       	cpc	r21, r19
     85a:	20 f0       	brcs	.+8      	; 0x864 <_ZL18kernel_create_taskv+0x226>
     85c:	83 e0       	ldi	r24, 0x03	; 3
     85e:	80 93 19 02 	sts	0x0219, r24
     862:	be de       	rcall	.-644    	; 0x5e0 <OS_Abort>
     864:	4b 2d       	mov	r20, r11
     866:	00 97       	sbiw	r24, 0x00	; 0
     868:	69 f0       	breq	.+26     	; 0x884 <_ZL18kernel_create_taskv+0x246>
     86a:	fc 01       	movw	r30, r24
     86c:	e9 5f       	subi	r30, 0xF9	; 249
     86e:	fd 4f       	sbci	r31, 0xFD	; 253
     870:	20 81       	ld	r18, Z
     872:	31 81       	ldd	r19, Z+1	; 0x01
     874:	21 15       	cp	r18, r1
     876:	31 05       	cpc	r19, r1
     878:	29 f0       	breq	.+10     	; 0x884 <_ZL18kernel_create_taskv+0x246>
     87a:	41 11       	cpse	r20, r1
     87c:	4b c0       	rjmp	.+150    	; 0x914 <_ZL18kernel_create_taskv+0x2d6>
     87e:	7c 01       	movw	r14, r24
     880:	c9 01       	movw	r24, r18
     882:	be cf       	rjmp	.-132    	; 0x800 <_ZL18kernel_create_taskv+0x1c2>
     884:	41 11       	cpse	r20, r1
     886:	39 c0       	rjmp	.+114    	; 0x8fa <_ZL18kernel_create_taskv+0x2bc>
     888:	fc 01       	movw	r30, r24
     88a:	e7 5f       	subi	r30, 0xF7	; 247
     88c:	fd 4f       	sbci	r31, 0xFD	; 253
     88e:	dc 01       	movw	r26, r24
     890:	a3 5f       	subi	r26, 0xF3	; 243
     892:	bd 4f       	sbci	r27, 0xFD	; 253
     894:	20 81       	ld	r18, Z
     896:	31 81       	ldd	r19, Z+1	; 0x01
     898:	8d 91       	ld	r24, X+
     89a:	9c 91       	ld	r25, X
     89c:	28 0f       	add	r18, r24
     89e:	39 1f       	adc	r19, r25
     8a0:	fb 01       	movw	r30, r22
     8a2:	e3 5f       	subi	r30, 0xF3	; 243
     8a4:	fd 4f       	sbci	r31, 0xFD	; 253
     8a6:	80 81       	ld	r24, Z
     8a8:	91 81       	ldd	r25, Z+1	; 0x01
     8aa:	82 17       	cp	r24, r18
     8ac:	93 07       	cpc	r25, r19
     8ae:	78 f0       	brcs	.+30     	; 0x8ce <_ZL18kernel_create_taskv+0x290>
     8b0:	e0 91 eb 02 	lds	r30, 0x02EB
     8b4:	f0 91 ec 02 	lds	r31, 0x02EC
     8b8:	e9 5f       	subi	r30, 0xF9	; 249
     8ba:	fd 4f       	sbci	r31, 0xFD	; 253
     8bc:	71 83       	std	Z+1, r23	; 0x01
     8be:	60 83       	st	Z, r22
     8c0:	70 93 ec 02 	sts	0x02EC, r23
     8c4:	60 93 eb 02 	sts	0x02EB, r22
     8c8:	81 e0       	ldi	r24, 0x01	; 1
     8ca:	90 e0       	ldi	r25, 0x00	; 0
     8cc:	31 c0       	rjmp	.+98     	; 0x930 <_ZL18kernel_create_taskv+0x2f2>
     8ce:	83 e0       	ldi	r24, 0x03	; 3
     8d0:	80 93 19 02 	sts	0x0219, r24
     8d4:	85 de       	rcall	.-758    	; 0x5e0 <OS_Abort>
     8d6:	8d ee       	ldi	r24, 0xED	; 237
     8d8:	92 e0       	ldi	r25, 0x02	; 2
     8da:	e5 dd       	rcall	.-1078   	; 0x4a6 <_ZL7enqueueP7queue_tP9td_struct>
     8dc:	81 e0       	ldi	r24, 0x01	; 1
     8de:	90 e0       	ldi	r25, 0x00	; 0
     8e0:	27 c0       	rjmp	.+78     	; 0x930 <_ZL18kernel_create_taskv+0x2f2>
     8e2:	81 ef       	ldi	r24, 0xF1	; 241
     8e4:	92 e0       	ldi	r25, 0x02	; 2
     8e6:	df dd       	rcall	.-1090   	; 0x4a6 <_ZL7enqueueP7queue_tP9td_struct>
     8e8:	81 e0       	ldi	r24, 0x01	; 1
     8ea:	90 e0       	ldi	r25, 0x00	; 0
     8ec:	21 c0       	rjmp	.+66     	; 0x930 <_ZL18kernel_create_taskv+0x2f2>
     8ee:	80 e0       	ldi	r24, 0x00	; 0
     8f0:	90 e0       	ldi	r25, 0x00	; 0
     8f2:	1e c0       	rjmp	.+60     	; 0x930 <_ZL18kernel_create_taskv+0x2f2>
     8f4:	81 e0       	ldi	r24, 0x01	; 1
     8f6:	90 e0       	ldi	r25, 0x00	; 0
     8f8:	1b c0       	rjmp	.+54     	; 0x930 <_ZL18kernel_create_taskv+0x2f2>
     8fa:	81 e0       	ldi	r24, 0x01	; 1
     8fc:	90 e0       	ldi	r25, 0x00	; 0
     8fe:	18 c0       	rjmp	.+48     	; 0x930 <_ZL18kernel_create_taskv+0x2f2>
     900:	81 e0       	ldi	r24, 0x01	; 1
     902:	80 93 19 02 	sts	0x0219, r24
     906:	6c de       	rcall	.-808    	; 0x5e0 <OS_Abort>
     908:	80 91 04 03 	lds	r24, 0x0304
     90c:	88 23       	and	r24, r24
     90e:	09 f4       	brne	.+2      	; 0x912 <_ZL18kernel_create_taskv+0x2d4>
     910:	c0 ce       	rjmp	.-640    	; 0x692 <_ZL18kernel_create_taskv+0x54>
     912:	ba ce       	rjmp	.-652    	; 0x688 <_ZL18kernel_create_taskv+0x4a>
     914:	81 e0       	ldi	r24, 0x01	; 1
     916:	90 e0       	ldi	r25, 0x00	; 0
     918:	0b c0       	rjmp	.+22     	; 0x930 <_ZL18kernel_create_taskv+0x2f2>
     91a:	f7 01       	movw	r30, r14
     91c:	e9 5f       	subi	r30, 0xF9	; 249
     91e:	fd 4f       	sbci	r31, 0xFD	; 253
     920:	80 81       	ld	r24, Z
     922:	91 81       	ldd	r25, Z+1	; 0x01
     924:	00 97       	sbiw	r24, 0x00	; 0
     926:	09 f0       	breq	.+2      	; 0x92a <_ZL18kernel_create_taskv+0x2ec>
     928:	5f cf       	rjmp	.-322    	; 0x7e8 <_ZL18kernel_create_taskv+0x1aa>
     92a:	c7 01       	movw	r24, r14
     92c:	40 e0       	ldi	r20, 0x00	; 0
     92e:	aa cf       	rjmp	.-172    	; 0x884 <_ZL18kernel_create_taskv+0x246>
     930:	df 91       	pop	r29
     932:	cf 91       	pop	r28
     934:	1f 91       	pop	r17
     936:	0f 91       	pop	r16
     938:	ff 90       	pop	r15
     93a:	ef 90       	pop	r14
     93c:	df 90       	pop	r13
     93e:	cf 90       	pop	r12
     940:	bf 90       	pop	r11
     942:	af 90       	pop	r10
     944:	08 95       	ret

00000946 <_Z7OS_Initv>:
     946:	cf 93       	push	r28
     948:	df 93       	push	r29
     94a:	1f 92       	push	r1
     94c:	1f 92       	push	r1
     94e:	cd b7       	in	r28, 0x3d	; 61
     950:	de b7       	in	r29, 0x3e	; 62
     952:	e1 e8       	ldi	r30, 0x81	; 129
     954:	f0 e0       	ldi	r31, 0x00	; 0
     956:	80 81       	ld	r24, Z
     958:	82 60       	ori	r24, 0x02	; 2
     95a:	80 83       	st	Z, r24
     95c:	ef e0       	ldi	r30, 0x0F	; 15
     95e:	f5 e0       	ldi	r31, 0x05	; 5
     960:	28 e7       	ldi	r18, 0x78	; 120
     962:	33 e1       	ldi	r19, 0x13	; 19
     964:	10 82       	st	Z, r1
     966:	cf 01       	movw	r24, r30
     968:	0c 96       	adiw	r24, 0x0c	; 12
     96a:	95 83       	std	Z+5, r25	; 0x05
     96c:	84 83       	std	Z+4, r24	; 0x04
     96e:	e1 5f       	subi	r30, 0xF1	; 241
     970:	fd 4f       	sbci	r31, 0xFD	; 253
     972:	e2 17       	cp	r30, r18
     974:	f3 07       	cpc	r31, r19
     976:	b1 f7       	brne	.-20     	; 0x964 <_Z7OS_Initv+0x1e>
     978:	10 92 7d 13 	sts	0x137D, r1
     97c:	10 92 7c 13 	sts	0x137C, r1
     980:	0f 2e       	mov	r0, r31
     982:	fc e0       	ldi	r31, 0x0C	; 12
     984:	ef 2e       	mov	r14, r31
     986:	f3 e0       	ldi	r31, 0x03	; 3
     988:	ff 2e       	mov	r15, r31
     98a:	f0 2d       	mov	r31, r0
     98c:	f0 92 f7 02 	sts	0x02F7, r15
     990:	e0 92 f6 02 	sts	0x02F6, r14
     994:	85 e7       	ldi	r24, 0x75	; 117
     996:	91 e1       	ldi	r25, 0x11	; 17
     998:	90 93 f9 02 	sts	0x02F9, r25
     99c:	80 93 f8 02 	sts	0x02F8, r24
     9a0:	00 e0       	ldi	r16, 0x00	; 0
     9a2:	13 e0       	ldi	r17, 0x03	; 3
     9a4:	80 ea       	ldi	r24, 0xA0	; 160
     9a6:	91 e0       	ldi	r25, 0x01	; 1
     9a8:	d8 01       	movw	r26, r16
     9aa:	11 96       	adiw	r26, 0x01	; 1
     9ac:	9c 93       	st	X, r25
     9ae:	8e 93       	st	-X, r24
     9b0:	0f 2e       	mov	r0, r31
     9b2:	f4 e0       	ldi	r31, 0x04	; 4
     9b4:	cf 2e       	mov	r12, r31
     9b6:	f3 e0       	ldi	r31, 0x03	; 3
     9b8:	df 2e       	mov	r13, r31
     9ba:	f0 2d       	mov	r31, r0
     9bc:	f6 01       	movw	r30, r12
     9be:	10 82       	st	Z, r1
     9c0:	3e de       	rcall	.-900    	; 0x63e <_ZL18kernel_create_taskv>
     9c2:	86 e1       	ldi	r24, 0x16	; 22
     9c4:	9d e0       	ldi	r25, 0x0D	; 13
     9c6:	d8 01       	movw	r26, r16
     9c8:	11 96       	adiw	r26, 0x01	; 1
     9ca:	9c 93       	st	X, r25
     9cc:	8e 93       	st	-X, r24
     9ce:	83 e0       	ldi	r24, 0x03	; 3
     9d0:	f6 01       	movw	r30, r12
     9d2:	80 83       	st	Z, r24
     9d4:	34 de       	rcall	.-920    	; 0x63e <_ZL18kernel_create_taskv>
     9d6:	f0 92 96 15 	sts	0x1596, r15
     9da:	e0 92 95 15 	sts	0x1595, r14
     9de:	81 e0       	ldi	r24, 0x01	; 1
     9e0:	80 93 0f 05 	sts	0x050F, r24
     9e4:	8d ee       	ldi	r24, 0xED	; 237
     9e6:	92 e0       	ldi	r25, 0x02	; 2
     9e8:	76 dd       	rcall	.-1300   	; 0x4d6 <_ZL7dequeueP7queue_t>
     9ea:	ef e6       	ldi	r30, 0x6F	; 111
     9ec:	f0 e0       	ldi	r31, 0x00	; 0
     9ee:	80 81       	ld	r24, Z
     9f0:	82 60       	ori	r24, 0x02	; 2
     9f2:	80 83       	st	Z, r24
     9f4:	80 91 84 00 	lds	r24, 0x0084
     9f8:	90 91 85 00 	lds	r25, 0x0085
     9fc:	80 5f       	subi	r24, 0xF0	; 240
     9fe:	98 4d       	sbci	r25, 0xD8	; 216
     a00:	90 93 89 00 	sts	0x0089, r25
     a04:	80 93 88 00 	sts	0x0088, r24
     a08:	82 e0       	ldi	r24, 0x02	; 2
     a0a:	86 bb       	out	0x16, r24	; 22
     a0c:	ee 24       	eor	r14, r14
     a0e:	e3 94       	inc	r14
     a10:	0f 2e       	mov	r0, r31
     a12:	f9 ee       	ldi	r31, 0xE9	; 233
     a14:	6f 2e       	mov	r6, r31
     a16:	f2 e0       	ldi	r31, 0x02	; 2
     a18:	7f 2e       	mov	r7, r31
     a1a:	f0 2d       	mov	r31, r0
     a1c:	0f 2e       	mov	r0, r31
     a1e:	f1 ef       	ldi	r31, 0xF1	; 241
     a20:	af 2e       	mov	r10, r31
     a22:	f2 e0       	ldi	r31, 0x02	; 2
     a24:	bf 2e       	mov	r11, r31
     a26:	f0 2d       	mov	r31, r0
     a28:	0f 2e       	mov	r0, r31
     a2a:	fc ef       	ldi	r31, 0xFC	; 252
     a2c:	4f 2e       	mov	r4, r31
     a2e:	f2 e0       	ldi	r31, 0x02	; 2
     a30:	5f 2e       	mov	r5, r31
     a32:	f0 2d       	mov	r31, r0
     a34:	68 94       	set
     a36:	ff 24       	eor	r15, r15
     a38:	f1 f8       	bld	r15, 1
     a3a:	91 2c       	mov	r9, r1
     a3c:	81 2c       	mov	r8, r1
     a3e:	99 82       	std	Y+1, r9	; 0x01
     a40:	8a 82       	std	Y+2, r8	; 0x02
     a42:	80 91 95 15 	lds	r24, 0x1595
     a46:	90 91 96 15 	lds	r25, 0x1596
     a4a:	fc 01       	movw	r30, r24
     a4c:	ed 5f       	subi	r30, 0xFD	; 253
     a4e:	fd 4f       	sbci	r31, 0xFD	; 253
     a50:	20 81       	ld	r18, Z
     a52:	21 30       	cpi	r18, 0x01	; 1
     a54:	19 f4       	brne	.+6      	; 0xa5c <_Z7OS_Initv+0x116>
     a56:	84 58       	subi	r24, 0x84	; 132
     a58:	93 41       	sbci	r25, 0x13	; 19
     a5a:	49 f5       	brne	.+82     	; 0xaae <_Z7OS_Initv+0x168>
     a5c:	ad ee       	ldi	r26, 0xED	; 237
     a5e:	b2 e0       	ldi	r27, 0x02	; 2
     a60:	8d 91       	ld	r24, X+
     a62:	9c 91       	ld	r25, X
     a64:	11 97       	sbiw	r26, 0x01	; 1
     a66:	89 2b       	or	r24, r25
     a68:	39 f0       	breq	.+14     	; 0xa78 <_Z7OS_Initv+0x132>
     a6a:	cd 01       	movw	r24, r26
     a6c:	34 dd       	rcall	.-1432   	; 0x4d6 <_ZL7dequeueP7queue_t>
     a6e:	90 93 96 15 	sts	0x1596, r25
     a72:	80 93 95 15 	sts	0x1595, r24
     a76:	14 c0       	rjmp	.+40     	; 0xaa0 <_Z7OS_Initv+0x15a>
     a78:	f3 01       	movw	r30, r6
     a7a:	80 81       	ld	r24, Z
     a7c:	91 81       	ldd	r25, Z+1	; 0x01
     a7e:	89 2b       	or	r24, r25
     a80:	09 f4       	brne	.+2      	; 0xa84 <_Z7OS_Initv+0x13e>
     a82:	79 c2       	rjmp	.+1266   	; 0xf76 <_Z7OS_Initv+0x630>
     a84:	80 91 c3 02 	lds	r24, 0x02C3
     a88:	81 11       	cpse	r24, r1
     a8a:	6e c2       	rjmp	.+1244   	; 0xf68 <_Z7OS_Initv+0x622>
     a8c:	80 91 c7 02 	lds	r24, 0x02C7
     a90:	81 11       	cpse	r24, r1
     a92:	6a c2       	rjmp	.+1236   	; 0xf68 <_Z7OS_Initv+0x622>
     a94:	43 c2       	rjmp	.+1158   	; 0xf1c <_Z7OS_Initv+0x5d6>
     a96:	80 91 c7 02 	lds	r24, 0x02C7
     a9a:	81 11       	cpse	r24, r1
     a9c:	48 c2       	rjmp	.+1168   	; 0xf2e <_Z7OS_Initv+0x5e8>
     a9e:	4e c2       	rjmp	.+1180   	; 0xf3c <_Z7OS_Initv+0x5f6>
     aa0:	e0 91 95 15 	lds	r30, 0x1595
     aa4:	f0 91 96 15 	lds	r31, 0x1596
     aa8:	ed 5f       	subi	r30, 0xFD	; 253
     aaa:	fd 4f       	sbci	r31, 0xFD	; 253
     aac:	e0 82       	st	Z, r14
     aae:	49 dc       	rcall	.-1902   	; 0x342 <_ZL11exit_kernelv>
     ab0:	80 91 0b 03 	lds	r24, 0x030B
     ab4:	90 e0       	ldi	r25, 0x00	; 0
     ab6:	89 30       	cpi	r24, 0x09	; 9
     ab8:	91 05       	cpc	r25, r1
     aba:	08 f0       	brcs	.+2      	; 0xabe <_Z7OS_Initv+0x178>
     abc:	28 c2       	rjmp	.+1104   	; 0xf0e <_Z7OS_Initv+0x5c8>
     abe:	fc 01       	movw	r30, r24
     ac0:	ee 58       	subi	r30, 0x8E	; 142
     ac2:	ff 4f       	sbci	r31, 0xFF	; 255
     ac4:	0c 94 62 0e 	jmp	0x1cc4	; 0x1cc4 <__tablejump2__>
     ac8:	d3 01       	movw	r26, r6
     aca:	6d 91       	ld	r22, X+
     acc:	7c 91       	ld	r23, X
     ace:	61 15       	cp	r22, r1
     ad0:	71 05       	cpc	r23, r1
     ad2:	09 f4       	brne	.+2      	; 0xad6 <_Z7OS_Initv+0x190>
     ad4:	ef c0       	rjmp	.+478    	; 0xcb4 <_Z7OS_Initv+0x36e>
     ad6:	80 91 c8 02 	lds	r24, 0x02C8
     ada:	81 50       	subi	r24, 0x01	; 1
     adc:	80 93 c8 02 	sts	0x02C8, r24
     ae0:	80 91 c7 02 	lds	r24, 0x02C7
     ae4:	88 23       	and	r24, r24
     ae6:	01 f1       	breq	.+64     	; 0xb28 <_Z7OS_Initv+0x1e2>
     ae8:	80 91 c1 02 	lds	r24, 0x02C1
     aec:	90 91 c2 02 	lds	r25, 0x02C2
     af0:	fc 01       	movw	r30, r24
     af2:	e3 5f       	subi	r30, 0xF3	; 243
     af4:	fd 4f       	sbci	r31, 0xFD	; 253
     af6:	20 91 bf 02 	lds	r18, 0x02BF
     afa:	30 91 c0 02 	lds	r19, 0x02C0
     afe:	40 91 c4 02 	lds	r20, 0x02C4
     b02:	50 91 c5 02 	lds	r21, 0x02C5
     b06:	24 1b       	sub	r18, r20
     b08:	35 0b       	sbc	r19, r21
     b0a:	40 81       	ld	r20, Z
     b0c:	51 81       	ldd	r21, Z+1	; 0x01
     b0e:	24 17       	cp	r18, r20
     b10:	35 07       	cpc	r19, r21
     b12:	08 f4       	brcc	.+2      	; 0xb16 <_Z7OS_Initv+0x1d0>
     b14:	d7 c0       	rjmp	.+430    	; 0xcc4 <_Z7OS_Initv+0x37e>
     b16:	34 97       	sbiw	r30, 0x04	; 4
     b18:	80 81       	ld	r24, Z
     b1a:	80 93 c8 02 	sts	0x02C8, r24
     b1e:	10 92 c3 02 	sts	0x02C3, r1
     b22:	10 92 c7 02 	sts	0x02C7, r1
     b26:	ce c0       	rjmp	.+412    	; 0xcc4 <_Z7OS_Initv+0x37e>
     b28:	80 91 c6 02 	lds	r24, 0x02C6
     b2c:	88 23       	and	r24, r24
     b2e:	09 f4       	brne	.+2      	; 0xb32 <_Z7OS_Initv+0x1ec>
     b30:	6d c0       	rjmp	.+218    	; 0xc0c <_Z7OS_Initv+0x2c6>
     b32:	c0 90 c1 02 	lds	r12, 0x02C1
     b36:	d0 90 c2 02 	lds	r13, 0x02C2
     b3a:	6c 15       	cp	r22, r12
     b3c:	7d 05       	cpc	r23, r13
     b3e:	71 f0       	breq	.+28     	; 0xb5c <_Z7OS_Initv+0x216>
     b40:	eb ee       	ldi	r30, 0xEB	; 235
     b42:	f2 e0       	ldi	r31, 0x02	; 2
     b44:	00 81       	ld	r16, Z
     b46:	11 81       	ldd	r17, Z+1	; 0x01
     b48:	29 2c       	mov	r2, r9
     b4a:	38 2c       	mov	r3, r8
     b4c:	f6 01       	movw	r30, r12
     b4e:	e3 5f       	subi	r30, 0xF3	; 243
     b50:	fd 4f       	sbci	r31, 0xFD	; 253
     b52:	29 ef       	ldi	r18, 0xF9	; 249
     b54:	c2 1a       	sub	r12, r18
     b56:	2d ef       	ldi	r18, 0xFD	; 253
     b58:	d2 0a       	sbc	r13, r18
     b5a:	33 c0       	rjmp	.+102    	; 0xbc2 <_Z7OS_Initv+0x27c>
     b5c:	fb 01       	movw	r30, r22
     b5e:	e9 5f       	subi	r30, 0xF9	; 249
     b60:	fd 4f       	sbci	r31, 0xFD	; 253
     b62:	80 81       	ld	r24, Z
     b64:	91 81       	ldd	r25, Z+1	; 0x01
     b66:	d3 01       	movw	r26, r6
     b68:	8d 93       	st	X+, r24
     b6a:	9c 93       	st	X, r25
     b6c:	86 ef       	ldi	r24, 0xF6	; 246
     b6e:	92 e0       	ldi	r25, 0x02	; 2
     b70:	9a dc       	rcall	.-1740   	; 0x4a6 <_ZL7enqueueP7queue_tP9td_struct>
     b72:	f3 01       	movw	r30, r6
     b74:	20 80       	ld	r2, Z
     b76:	31 80       	ldd	r3, Z+1	; 0x01
     b78:	2f c0       	rjmp	.+94     	; 0xbd8 <_Z7OS_Initv+0x292>
     b7a:	dc 01       	movw	r26, r24
     b7c:	a3 5f       	subi	r26, 0xF3	; 243
     b7e:	bd 4f       	sbci	r27, 0xFD	; 253
     b80:	4d 91       	ld	r20, X+
     b82:	5c 91       	ld	r21, X
     b84:	20 81       	ld	r18, Z
     b86:	31 81       	ldd	r19, Z+1	; 0x01
     b88:	42 17       	cp	r20, r18
     b8a:	53 07       	cpc	r21, r19
     b8c:	11 f0       	breq	.+4      	; 0xb92 <_Z7OS_Initv+0x24c>
     b8e:	bc 01       	movw	r22, r24
     b90:	18 c0       	rjmp	.+48     	; 0xbc2 <_Z7OS_Initv+0x27c>
     b92:	d6 01       	movw	r26, r12
     b94:	2d 90       	ld	r2, X+
     b96:	3c 90       	ld	r3, X
     b98:	db 01       	movw	r26, r22
     b9a:	a9 5f       	subi	r26, 0xF9	; 249
     b9c:	bd 4f       	sbci	r27, 0xFD	; 253
     b9e:	2d 92       	st	X+, r2
     ba0:	3c 92       	st	X, r3
     ba2:	d6 01       	movw	r26, r12
     ba4:	1d 92       	st	X+, r1
     ba6:	1c 92       	st	X, r1
     ba8:	20 81       	ld	r18, Z
     baa:	31 81       	ldd	r19, Z+1	; 0x01
     bac:	d8 01       	movw	r26, r16
     bae:	a3 5f       	subi	r26, 0xF3	; 243
     bb0:	bd 4f       	sbci	r27, 0xFD	; 253
     bb2:	8d 91       	ld	r24, X+
     bb4:	9c 91       	ld	r25, X
     bb6:	28 17       	cp	r18, r24
     bb8:	39 07       	cpc	r19, r25
     bba:	19 f4       	brne	.+6      	; 0xbc2 <_Z7OS_Initv+0x27c>
     bbc:	8b 01       	movw	r16, r22
     bbe:	29 80       	ldd	r2, Y+1	; 0x01
     bc0:	3a 80       	ldd	r3, Y+2	; 0x02
     bc2:	db 01       	movw	r26, r22
     bc4:	a9 5f       	subi	r26, 0xF9	; 249
     bc6:	bd 4f       	sbci	r27, 0xFD	; 253
     bc8:	8d 91       	ld	r24, X+
     bca:	9c 91       	ld	r25, X
     bcc:	00 97       	sbiw	r24, 0x00	; 0
     bce:	a9 f6       	brne	.-86     	; 0xb7a <_Z7OS_Initv+0x234>
     bd0:	eb ee       	ldi	r30, 0xEB	; 235
     bd2:	f2 e0       	ldi	r31, 0x02	; 2
     bd4:	11 83       	std	Z+1, r17	; 0x01
     bd6:	00 83       	st	Z, r16
     bd8:	30 92 c2 02 	sts	0x02C2, r3
     bdc:	20 92 c1 02 	sts	0x02C1, r2
     be0:	23 28       	or	r2, r3
     be2:	79 f4       	brne	.+30     	; 0xc02 <_Z7OS_Initv+0x2bc>
     be4:	80 91 bf 02 	lds	r24, 0x02BF
     be8:	90 91 c0 02 	lds	r25, 0x02C0
     bec:	90 93 c5 02 	sts	0x02C5, r25
     bf0:	80 93 c4 02 	sts	0x02C4, r24
     bf4:	d3 01       	movw	r26, r6
     bf6:	8d 91       	ld	r24, X+
     bf8:	9c 91       	ld	r25, X
     bfa:	90 93 c2 02 	sts	0x02C2, r25
     bfe:	80 93 c1 02 	sts	0x02C1, r24
     c02:	10 92 c6 02 	sts	0x02C6, r1
     c06:	e0 92 c7 02 	sts	0x02C7, r14
     c0a:	5c c0       	rjmp	.+184    	; 0xcc4 <_Z7OS_Initv+0x37e>
     c0c:	80 91 c8 02 	lds	r24, 0x02C8
     c10:	81 11       	cpse	r24, r1
     c12:	58 c0       	rjmp	.+176    	; 0xcc4 <_Z7OS_Initv+0x37e>
     c14:	80 91 95 15 	lds	r24, 0x1595
     c18:	90 91 96 15 	lds	r25, 0x1596
     c1c:	00 97       	sbiw	r24, 0x00	; 0
     c1e:	71 f0       	breq	.+28     	; 0xc3c <_Z7OS_Initv+0x2f6>
     c20:	fc 01       	movw	r30, r24
     c22:	ea 5f       	subi	r30, 0xFA	; 250
     c24:	fd 4f       	sbci	r31, 0xFD	; 253
     c26:	80 81       	ld	r24, Z
     c28:	82 30       	cpi	r24, 0x02	; 2
     c2a:	41 f4       	brne	.+16     	; 0xc3c <_Z7OS_Initv+0x2f6>
     c2c:	80 91 c3 02 	lds	r24, 0x02C3
     c30:	81 11       	cpse	r24, r1
     c32:	04 c0       	rjmp	.+8      	; 0xc3c <_Z7OS_Initv+0x2f6>
     c34:	86 e0       	ldi	r24, 0x06	; 6
     c36:	80 93 19 02 	sts	0x0219, r24
     c3a:	d2 dc       	rcall	.-1628   	; 0x5e0 <OS_Abort>
     c3c:	e0 91 c1 02 	lds	r30, 0x02C1
     c40:	f0 91 c2 02 	lds	r31, 0x02C2
     c44:	e9 5f       	subi	r30, 0xF9	; 249
     c46:	fd 4f       	sbci	r31, 0xFD	; 253
     c48:	80 81       	ld	r24, Z
     c4a:	91 81       	ldd	r25, Z+1	; 0x01
     c4c:	90 93 c2 02 	sts	0x02C2, r25
     c50:	80 93 c1 02 	sts	0x02C1, r24
     c54:	89 2b       	or	r24, r25
     c56:	61 f4       	brne	.+24     	; 0xc70 <_Z7OS_Initv+0x32a>
     c58:	80 91 bf 02 	lds	r24, 0x02BF
     c5c:	90 91 c0 02 	lds	r25, 0x02C0
     c60:	90 93 c5 02 	sts	0x02C5, r25
     c64:	80 93 c4 02 	sts	0x02C4, r24
     c68:	70 93 c2 02 	sts	0x02C2, r23
     c6c:	60 93 c1 02 	sts	0x02C1, r22
     c70:	80 91 c1 02 	lds	r24, 0x02C1
     c74:	90 91 c2 02 	lds	r25, 0x02C2
     c78:	fc 01       	movw	r30, r24
     c7a:	e3 5f       	subi	r30, 0xF3	; 243
     c7c:	fd 4f       	sbci	r31, 0xFD	; 253
     c7e:	20 91 bf 02 	lds	r18, 0x02BF
     c82:	30 91 c0 02 	lds	r19, 0x02C0
     c86:	40 91 c4 02 	lds	r20, 0x02C4
     c8a:	50 91 c5 02 	lds	r21, 0x02C5
     c8e:	24 1b       	sub	r18, r20
     c90:	35 0b       	sbc	r19, r21
     c92:	40 81       	ld	r20, Z
     c94:	51 81       	ldd	r21, Z+1	; 0x01
     c96:	24 17       	cp	r18, r20
     c98:	35 07       	cpc	r19, r21
     c9a:	18 f4       	brcc	.+6      	; 0xca2 <_Z7OS_Initv+0x35c>
     c9c:	e0 92 c7 02 	sts	0x02C7, r14
     ca0:	11 c0       	rjmp	.+34     	; 0xcc4 <_Z7OS_Initv+0x37e>
     ca2:	fc 01       	movw	r30, r24
     ca4:	e7 5f       	subi	r30, 0xF7	; 247
     ca6:	fd 4f       	sbci	r31, 0xFD	; 253
     ca8:	80 81       	ld	r24, Z
     caa:	80 93 c8 02 	sts	0x02C8, r24
     cae:	10 92 c3 02 	sts	0x02C3, r1
     cb2:	08 c0       	rjmp	.+16     	; 0xcc4 <_Z7OS_Initv+0x37e>
     cb4:	80 91 bf 02 	lds	r24, 0x02BF
     cb8:	90 91 c0 02 	lds	r25, 0x02C0
     cbc:	90 93 c5 02 	sts	0x02C5, r25
     cc0:	80 93 c4 02 	sts	0x02C4, r24
     cc4:	80 91 bf 02 	lds	r24, 0x02BF
     cc8:	90 91 c0 02 	lds	r25, 0x02C0
     ccc:	01 96       	adiw	r24, 0x01	; 1
     cce:	90 93 c0 02 	sts	0x02C0, r25
     cd2:	80 93 bf 02 	sts	0x02BF, r24
     cd6:	60 91 95 15 	lds	r22, 0x1595
     cda:	70 91 96 15 	lds	r23, 0x1596
     cde:	fb 01       	movw	r30, r22
     ce0:	ea 5f       	subi	r30, 0xFA	; 250
     ce2:	fd 4f       	sbci	r31, 0xFD	; 253
     ce4:	80 81       	ld	r24, Z
     ce6:	81 30       	cpi	r24, 0x01	; 1
     ce8:	09 f0       	breq	.+2      	; 0xcec <_Z7OS_Initv+0x3a6>
     cea:	15 c1       	rjmp	.+554    	; 0xf16 <_Z7OS_Initv+0x5d0>
     cec:	33 97       	sbiw	r30, 0x03	; 3
     cee:	80 81       	ld	r24, Z
     cf0:	81 30       	cpi	r24, 0x01	; 1
     cf2:	09 f0       	breq	.+2      	; 0xcf6 <_Z7OS_Initv+0x3b0>
     cf4:	10 c1       	rjmp	.+544    	; 0xf16 <_Z7OS_Initv+0x5d0>
     cf6:	f0 82       	st	Z, r15
     cf8:	c5 01       	movw	r24, r10
     cfa:	d5 db       	rcall	.-2134   	; 0x4a6 <_ZL7enqueueP7queue_tP9td_struct>
     cfc:	0c c1       	rjmp	.+536    	; 0xf16 <_Z7OS_Initv+0x5d0>
     cfe:	9f dc       	rcall	.-1730   	; 0x63e <_ZL18kernel_create_taskv>
     d00:	90 93 ff 02 	sts	0x02FF, r25
     d04:	80 93 fe 02 	sts	0x02FE, r24
     d08:	80 91 fe 02 	lds	r24, 0x02FE
     d0c:	90 91 ff 02 	lds	r25, 0x02FF
     d10:	89 2b       	or	r24, r25
     d12:	09 f4       	brne	.+2      	; 0xd16 <_Z7OS_Initv+0x3d0>
     d14:	00 c1       	rjmp	.+512    	; 0xf16 <_Z7OS_Initv+0x5d0>
     d16:	e4 e0       	ldi	r30, 0x04	; 4
     d18:	f3 e0       	ldi	r31, 0x03	; 3
     d1a:	80 81       	ld	r24, Z
     d1c:	83 30       	cpi	r24, 0x03	; 3
     d1e:	61 f4       	brne	.+24     	; 0xd38 <_Z7OS_Initv+0x3f2>
     d20:	80 91 95 15 	lds	r24, 0x1595
     d24:	90 91 96 15 	lds	r25, 0x1596
     d28:	fc 01       	movw	r30, r24
     d2a:	ea 5f       	subi	r30, 0xFA	; 250
     d2c:	fd 4f       	sbci	r31, 0xFD	; 253
     d2e:	20 81       	ld	r18, Z
     d30:	23 30       	cpi	r18, 0x03	; 3
     d32:	09 f0       	breq	.+2      	; 0xd36 <_Z7OS_Initv+0x3f0>
     d34:	0a c1       	rjmp	.+532    	; 0xf4a <_Z7OS_Initv+0x604>
     d36:	ef c0       	rjmp	.+478    	; 0xf16 <_Z7OS_Initv+0x5d0>
     d38:	60 91 95 15 	lds	r22, 0x1595
     d3c:	70 91 96 15 	lds	r23, 0x1596
     d40:	fb 01       	movw	r30, r22
     d42:	ea 5f       	subi	r30, 0xFA	; 250
     d44:	fd 4f       	sbci	r31, 0xFD	; 253
     d46:	80 81       	ld	r24, Z
     d48:	81 30       	cpi	r24, 0x01	; 1
     d4a:	09 f0       	breq	.+2      	; 0xd4e <_Z7OS_Initv+0x408>
     d4c:	e4 c0       	rjmp	.+456    	; 0xf16 <_Z7OS_Initv+0x5d0>
     d4e:	a4 e0       	ldi	r26, 0x04	; 4
     d50:	b3 e0       	ldi	r27, 0x03	; 3
     d52:	8c 91       	ld	r24, X
     d54:	82 30       	cpi	r24, 0x02	; 2
     d56:	09 f4       	brne	.+2      	; 0xd5a <_Z7OS_Initv+0x414>
     d58:	fd c0       	rjmp	.+506    	; 0xf54 <_Z7OS_Initv+0x60e>
     d5a:	fb 01       	movw	r30, r22
     d5c:	ed 5f       	subi	r30, 0xFD	; 253
     d5e:	fd 4f       	sbci	r31, 0xFD	; 253
     d60:	80 81       	ld	r24, Z
     d62:	82 30       	cpi	r24, 0x02	; 2
     d64:	09 f0       	breq	.+2      	; 0xd68 <_Z7OS_Initv+0x422>
     d66:	d7 c0       	rjmp	.+430    	; 0xf16 <_Z7OS_Initv+0x5d0>
     d68:	c5 01       	movw	r24, r10
     d6a:	9d db       	rcall	.-2246   	; 0x4a6 <_ZL7enqueueP7queue_tP9td_struct>
     d6c:	d4 c0       	rjmp	.+424    	; 0xf16 <_Z7OS_Initv+0x5d0>
     d6e:	60 91 95 15 	lds	r22, 0x1595
     d72:	70 91 96 15 	lds	r23, 0x1596
     d76:	b3 e1       	ldi	r27, 0x13	; 19
     d78:	64 38       	cpi	r22, 0x84	; 132
     d7a:	7b 07       	cpc	r23, r27
     d7c:	09 f4       	brne	.+2      	; 0xd80 <_Z7OS_Initv+0x43a>
     d7e:	cb c0       	rjmp	.+406    	; 0xf16 <_Z7OS_Initv+0x5d0>
     d80:	fb 01       	movw	r30, r22
     d82:	ed 5f       	subi	r30, 0xFD	; 253
     d84:	fd 4f       	sbci	r31, 0xFD	; 253
     d86:	10 82       	st	Z, r1
     d88:	33 96       	adiw	r30, 0x03	; 3
     d8a:	80 81       	ld	r24, Z
     d8c:	82 30       	cpi	r24, 0x02	; 2
     d8e:	29 f4       	brne	.+10     	; 0xd9a <_Z7OS_Initv+0x454>
     d90:	e0 92 c6 02 	sts	0x02C6, r14
     d94:	e0 92 c3 02 	sts	0x02C3, r14
     d98:	be c0       	rjmp	.+380    	; 0xf16 <_Z7OS_Initv+0x5d0>
     d9a:	86 ef       	ldi	r24, 0xF6	; 246
     d9c:	92 e0       	ldi	r25, 0x02	; 2
     d9e:	83 db       	rcall	.-2298   	; 0x4a6 <_ZL7enqueueP7queue_tP9td_struct>
     da0:	ba c0       	rjmp	.+372    	; 0xf16 <_Z7OS_Initv+0x5d0>
     da2:	00 91 95 15 	lds	r16, 0x1595
     da6:	10 91 96 15 	lds	r17, 0x1596
     daa:	f8 01       	movw	r30, r16
     dac:	ea 5f       	subi	r30, 0xFA	; 250
     dae:	fd 4f       	sbci	r31, 0xFD	; 253
     db0:	80 81       	ld	r24, Z
     db2:	82 30       	cpi	r24, 0x02	; 2
     db4:	51 f0       	breq	.+20     	; 0xdca <_Z7OS_Initv+0x484>
     db6:	83 30       	cpi	r24, 0x03	; 3
     db8:	19 f0       	breq	.+6      	; 0xdc0 <_Z7OS_Initv+0x47a>
     dba:	81 30       	cpi	r24, 0x01	; 1
     dbc:	61 f4       	brne	.+24     	; 0xdd6 <_Z7OS_Initv+0x490>
     dbe:	08 c0       	rjmp	.+16     	; 0xdd0 <_Z7OS_Initv+0x48a>
     dc0:	b8 01       	movw	r22, r16
     dc2:	8d ee       	ldi	r24, 0xED	; 237
     dc4:	92 e0       	ldi	r25, 0x02	; 2
     dc6:	6f db       	rcall	.-2338   	; 0x4a6 <_ZL7enqueueP7queue_tP9td_struct>
     dc8:	06 c0       	rjmp	.+12     	; 0xdd6 <_Z7OS_Initv+0x490>
     dca:	e0 92 c3 02 	sts	0x02C3, r14
     dce:	03 c0       	rjmp	.+6      	; 0xdd6 <_Z7OS_Initv+0x490>
     dd0:	b8 01       	movw	r22, r16
     dd2:	c5 01       	movw	r24, r10
     dd4:	68 db       	rcall	.-2352   	; 0x4a6 <_ZL7enqueueP7queue_tP9td_struct>
     dd6:	f8 01       	movw	r30, r16
     dd8:	ed 5f       	subi	r30, 0xFD	; 253
     dda:	fd 4f       	sbci	r31, 0xFD	; 253
     ddc:	f0 82       	st	Z, r15
     dde:	9b c0       	rjmp	.+310    	; 0xf16 <_Z7OS_Initv+0x5d0>
     de0:	90 92 fc 02 	sts	0x02FC, r9
     de4:	80 92 fd 02 	sts	0x02FD, r8
     de8:	20 91 f5 02 	lds	r18, 0x02F5
     dec:	28 30       	cpi	r18, 0x08	; 8
     dee:	08 f0       	brcs	.+2      	; 0xdf2 <_Z7OS_Initv+0x4ac>
     df0:	92 c0       	rjmp	.+292    	; 0xf16 <_Z7OS_Initv+0x5d0>
     df2:	82 2f       	mov	r24, r18
     df4:	90 e0       	ldi	r25, 0x00	; 0
     df6:	01 96       	adiw	r24, 0x01	; 1
     df8:	90 93 fd 02 	sts	0x02FD, r25
     dfc:	80 93 fc 02 	sts	0x02FC, r24
     e00:	2f 5f       	subi	r18, 0xFF	; 255
     e02:	20 93 f5 02 	sts	0x02F5, r18
     e06:	87 c0       	rjmp	.+270    	; 0xf16 <_Z7OS_Initv+0x5d0>
     e08:	60 91 95 15 	lds	r22, 0x1595
     e0c:	70 91 96 15 	lds	r23, 0x1596
     e10:	e3 e1       	ldi	r30, 0x13	; 19
     e12:	64 38       	cpi	r22, 0x84	; 132
     e14:	7e 07       	cpc	r23, r30
     e16:	09 f4       	brne	.+2      	; 0xe1a <_Z7OS_Initv+0x4d4>
     e18:	7e c0       	rjmp	.+252    	; 0xf16 <_Z7OS_Initv+0x5d0>
     e1a:	20 91 fa 02 	lds	r18, 0x02FA
     e1e:	30 91 fb 02 	lds	r19, 0x02FB
     e22:	fb 01       	movw	r30, r22
     e24:	ea 5f       	subi	r30, 0xFA	; 250
     e26:	fd 4f       	sbci	r31, 0xFD	; 253
     e28:	90 81       	ld	r25, Z
     e2a:	d2 01       	movw	r26, r4
     e2c:	8c 91       	ld	r24, X
     e2e:	81 50       	subi	r24, 0x01	; 1
     e30:	40 91 f5 02 	lds	r20, 0x02F5
     e34:	84 17       	cp	r24, r20
     e36:	20 f0       	brcs	.+8      	; 0xe40 <_Z7OS_Initv+0x4fa>
     e38:	89 e0       	ldi	r24, 0x09	; 9
     e3a:	80 93 19 02 	sts	0x0219, r24
     e3e:	d0 db       	rcall	.-2144   	; 0x5e0 <OS_Abort>
     e40:	92 30       	cpi	r25, 0x02	; 2
     e42:	21 f4       	brne	.+8      	; 0xe4c <_Z7OS_Initv+0x506>
     e44:	8a e0       	ldi	r24, 0x0A	; 10
     e46:	80 93 19 02 	sts	0x0219, r24
     e4a:	ca db       	rcall	.-2156   	; 0x5e0 <OS_Abort>
     e4c:	fb 01       	movw	r30, r22
     e4e:	ed 5f       	subi	r30, 0xFD	; 253
     e50:	fd 4f       	sbci	r31, 0xFD	; 253
     e52:	93 e0       	ldi	r25, 0x03	; 3
     e54:	90 83       	st	Z, r25
     e56:	31 96       	adiw	r30, 0x01	; 1
     e58:	31 83       	std	Z+1, r19	; 0x01
     e5a:	20 83       	st	Z, r18
     e5c:	90 e0       	ldi	r25, 0x00	; 0
     e5e:	88 0f       	add	r24, r24
     e60:	99 1f       	adc	r25, r25
     e62:	88 0f       	add	r24, r24
     e64:	99 1f       	adc	r25, r25
     e66:	87 53       	subi	r24, 0x37	; 55
     e68:	9d 4f       	sbci	r25, 0xFD	; 253
     e6a:	1d db       	rcall	.-2502   	; 0x4a6 <_ZL7enqueueP7queue_tP9td_struct>
     e6c:	54 c0       	rjmp	.+168    	; 0xf16 <_Z7OS_Initv+0x5d0>
     e6e:	e0 91 fa 02 	lds	r30, 0x02FA
     e72:	f0 91 fb 02 	lds	r31, 0x02FB
     e76:	c0 80       	ld	r12, Z
     e78:	d1 80       	ldd	r13, Z+1	; 0x01
     e7a:	f2 01       	movw	r30, r4
     e7c:	00 81       	ld	r16, Z
     e7e:	01 50       	subi	r16, 0x01	; 1
     e80:	80 91 f5 02 	lds	r24, 0x02F5
     e84:	08 17       	cp	r16, r24
     e86:	50 f4       	brcc	.+20     	; 0xe9c <_Z7OS_Initv+0x556>
     e88:	10 e0       	ldi	r17, 0x00	; 0
     e8a:	00 0f       	add	r16, r16
     e8c:	11 1f       	adc	r17, r17
     e8e:	00 0f       	add	r16, r16
     e90:	11 1f       	adc	r17, r17
     e92:	07 53       	subi	r16, 0x37	; 55
     e94:	1d 4f       	sbci	r17, 0xFD	; 253
     e96:	20 2e       	mov	r2, r16
     e98:	31 2e       	mov	r3, r17
     e9a:	21 c0       	rjmp	.+66     	; 0xede <_Z7OS_Initv+0x598>
     e9c:	8c e0       	ldi	r24, 0x0C	; 12
     e9e:	80 93 19 02 	sts	0x0219, r24
     ea2:	9e db       	rcall	.-2244   	; 0x5e0 <OS_Abort>
     ea4:	82 2d       	mov	r24, r2
     ea6:	93 2d       	mov	r25, r3
     ea8:	16 db       	rcall	.-2516   	; 0x4d6 <_ZL7dequeueP7queue_t>
     eaa:	fc 01       	movw	r30, r24
     eac:	ed 5f       	subi	r30, 0xFD	; 253
     eae:	fd 4f       	sbci	r31, 0xFD	; 253
     eb0:	f0 82       	st	Z, r15
     eb2:	31 96       	adiw	r30, 0x01	; 1
     eb4:	01 90       	ld	r0, Z+
     eb6:	f0 81       	ld	r31, Z
     eb8:	e0 2d       	mov	r30, r0
     eba:	d1 82       	std	Z+1, r13	; 0x01
     ebc:	c0 82       	st	Z, r12
     ebe:	fc 01       	movw	r30, r24
     ec0:	ea 5f       	subi	r30, 0xFA	; 250
     ec2:	fd 4f       	sbci	r31, 0xFD	; 253
     ec4:	20 81       	ld	r18, Z
     ec6:	21 30       	cpi	r18, 0x01	; 1
     ec8:	39 f0       	breq	.+14     	; 0xed8 <_Z7OS_Initv+0x592>
     eca:	23 30       	cpi	r18, 0x03	; 3
     ecc:	41 f4       	brne	.+16     	; 0xede <_Z7OS_Initv+0x598>
     ece:	bc 01       	movw	r22, r24
     ed0:	8d ee       	ldi	r24, 0xED	; 237
     ed2:	92 e0       	ldi	r25, 0x02	; 2
     ed4:	e8 da       	rcall	.-2608   	; 0x4a6 <_ZL7enqueueP7queue_tP9td_struct>
     ed6:	03 c0       	rjmp	.+6      	; 0xede <_Z7OS_Initv+0x598>
     ed8:	bc 01       	movw	r22, r24
     eda:	c5 01       	movw	r24, r10
     edc:	e4 da       	rcall	.-2616   	; 0x4a6 <_ZL7enqueueP7queue_tP9td_struct>
     ede:	d8 01       	movw	r26, r16
     ee0:	2d 91       	ld	r18, X+
     ee2:	3c 91       	ld	r19, X
     ee4:	23 2b       	or	r18, r19
     ee6:	f1 f6       	brne	.-68     	; 0xea4 <_Z7OS_Initv+0x55e>
     ee8:	60 91 95 15 	lds	r22, 0x1595
     eec:	70 91 96 15 	lds	r23, 0x1596
     ef0:	b3 e1       	ldi	r27, 0x13	; 19
     ef2:	64 38       	cpi	r22, 0x84	; 132
     ef4:	7b 07       	cpc	r23, r27
     ef6:	79 f0       	breq	.+30     	; 0xf16 <_Z7OS_Initv+0x5d0>
     ef8:	fb 01       	movw	r30, r22
     efa:	ed 5f       	subi	r30, 0xFD	; 253
     efc:	fd 4f       	sbci	r31, 0xFD	; 253
     efe:	f0 82       	st	Z, r15
     f00:	33 96       	adiw	r30, 0x03	; 3
     f02:	80 81       	ld	r24, Z
     f04:	81 30       	cpi	r24, 0x01	; 1
     f06:	39 f4       	brne	.+14     	; 0xf16 <_Z7OS_Initv+0x5d0>
     f08:	c5 01       	movw	r24, r10
     f0a:	cd da       	rcall	.-2662   	; 0x4a6 <_ZL7enqueueP7queue_tP9td_struct>
     f0c:	04 c0       	rjmp	.+8      	; 0xf16 <_Z7OS_Initv+0x5d0>
     f0e:	8b e0       	ldi	r24, 0x0B	; 11
     f10:	80 93 19 02 	sts	0x0219, r24
     f14:	65 db       	rcall	.-2358   	; 0x5e0 <OS_Abort>
     f16:	10 92 0b 03 	sts	0x030B, r1
     f1a:	93 cd       	rjmp	.-1242   	; 0xa42 <_Z7OS_Initv+0xfc>
     f1c:	80 91 c1 02 	lds	r24, 0x02C1
     f20:	90 91 c2 02 	lds	r25, 0x02C2
     f24:	90 93 96 15 	sts	0x1596, r25
     f28:	80 93 95 15 	sts	0x1595, r24
     f2c:	b9 cd       	rjmp	.-1166   	; 0xaa0 <_Z7OS_Initv+0x15a>
     f2e:	c5 01       	movw	r24, r10
     f30:	d2 da       	rcall	.-2652   	; 0x4d6 <_ZL7dequeueP7queue_t>
     f32:	90 93 96 15 	sts	0x1596, r25
     f36:	80 93 95 15 	sts	0x1595, r24
     f3a:	b2 cd       	rjmp	.-1180   	; 0xaa0 <_Z7OS_Initv+0x15a>
     f3c:	e4 e8       	ldi	r30, 0x84	; 132
     f3e:	f3 e1       	ldi	r31, 0x13	; 19
     f40:	f0 93 96 15 	sts	0x1596, r31
     f44:	e0 93 95 15 	sts	0x1595, r30
     f48:	ab cd       	rjmp	.-1194   	; 0xaa0 <_Z7OS_Initv+0x15a>
     f4a:	fc 01       	movw	r30, r24
     f4c:	ed 5f       	subi	r30, 0xFD	; 253
     f4e:	fd 4f       	sbci	r31, 0xFD	; 253
     f50:	f0 82       	st	Z, r15
     f52:	f2 ce       	rjmp	.-540    	; 0xd38 <_Z7OS_Initv+0x3f2>
     f54:	fb 01       	movw	r30, r22
     f56:	ed 5f       	subi	r30, 0xFD	; 253
     f58:	fd 4f       	sbci	r31, 0xFD	; 253
     f5a:	f0 82       	st	Z, r15
     f5c:	33 96       	adiw	r30, 0x03	; 3
     f5e:	80 81       	ld	r24, Z
     f60:	81 30       	cpi	r24, 0x01	; 1
     f62:	09 f4       	brne	.+2      	; 0xf66 <_Z7OS_Initv+0x620>
     f64:	fa ce       	rjmp	.-524    	; 0xd5a <_Z7OS_Initv+0x414>
     f66:	d7 cf       	rjmp	.-82     	; 0xf16 <_Z7OS_Initv+0x5d0>
     f68:	d5 01       	movw	r26, r10
     f6a:	8d 91       	ld	r24, X+
     f6c:	9c 91       	ld	r25, X
     f6e:	89 2b       	or	r24, r25
     f70:	09 f0       	breq	.+2      	; 0xf74 <_Z7OS_Initv+0x62e>
     f72:	91 cd       	rjmp	.-1246   	; 0xa96 <_Z7OS_Initv+0x150>
     f74:	e3 cf       	rjmp	.-58     	; 0xf3c <_Z7OS_Initv+0x5f6>
     f76:	f5 01       	movw	r30, r10
     f78:	80 81       	ld	r24, Z
     f7a:	91 81       	ldd	r25, Z+1	; 0x01
     f7c:	89 2b       	or	r24, r25
     f7e:	b9 f6       	brne	.-82     	; 0xf2e <_Z7OS_Initv+0x5e8>
     f80:	dd cf       	rjmp	.-70     	; 0xf3c <_Z7OS_Initv+0x5f6>

00000f82 <Task_Create_System>:
     f82:	cf 93       	push	r28
     f84:	cf b7       	in	r28, 0x3f	; 63
     f86:	f8 94       	cli
     f88:	90 93 01 03 	sts	0x0301, r25
     f8c:	80 93 00 03 	sts	0x0300, r24
     f90:	e0 91 02 03 	lds	r30, 0x0302
     f94:	f0 91 03 03 	lds	r31, 0x0303
     f98:	71 83       	std	Z+1, r23	; 0x01
     f9a:	60 83       	st	Z, r22
     f9c:	83 e0       	ldi	r24, 0x03	; 3
     f9e:	80 93 04 03 	sts	0x0304, r24
     fa2:	82 e0       	ldi	r24, 0x02	; 2
     fa4:	80 93 0b 03 	sts	0x030B, r24
     fa8:	25 da       	rcall	.-2998   	; 0x3f4 <_ZL12enter_kernelv>
     faa:	80 91 fe 02 	lds	r24, 0x02FE
     fae:	90 91 ff 02 	lds	r25, 0x02FF
     fb2:	cf bf       	out	0x3f, r28	; 63
     fb4:	cf 91       	pop	r28
     fb6:	08 95       	ret

00000fb8 <Task_Create_RR>:
     fb8:	cf 93       	push	r28
     fba:	cf b7       	in	r28, 0x3f	; 63
     fbc:	f8 94       	cli
     fbe:	90 93 01 03 	sts	0x0301, r25
     fc2:	80 93 00 03 	sts	0x0300, r24
     fc6:	e0 91 02 03 	lds	r30, 0x0302
     fca:	f0 91 03 03 	lds	r31, 0x0303
     fce:	71 83       	std	Z+1, r23	; 0x01
     fd0:	60 83       	st	Z, r22
     fd2:	81 e0       	ldi	r24, 0x01	; 1
     fd4:	80 93 04 03 	sts	0x0304, r24
     fd8:	82 e0       	ldi	r24, 0x02	; 2
     fda:	80 93 0b 03 	sts	0x030B, r24
     fde:	0a da       	rcall	.-3052   	; 0x3f4 <_ZL12enter_kernelv>
     fe0:	80 91 fe 02 	lds	r24, 0x02FE
     fe4:	90 91 ff 02 	lds	r25, 0x02FF
     fe8:	cf bf       	out	0x3f, r28	; 63
     fea:	cf 91       	pop	r28
     fec:	08 95       	ret

00000fee <Task_Create_Periodic>:
     fee:	0f 93       	push	r16
     ff0:	1f 93       	push	r17
     ff2:	cf 93       	push	r28
     ff4:	cf b7       	in	r28, 0x3f	; 63
     ff6:	f8 94       	cli
     ff8:	90 93 01 03 	sts	0x0301, r25
     ffc:	80 93 00 03 	sts	0x0300, r24
    1000:	e0 91 02 03 	lds	r30, 0x0302
    1004:	f0 91 03 03 	lds	r31, 0x0303
    1008:	71 83       	std	Z+1, r23	; 0x01
    100a:	60 83       	st	Z, r22
    100c:	82 e0       	ldi	r24, 0x02	; 2
    100e:	80 93 04 03 	sts	0x0304, r24
    1012:	50 93 06 03 	sts	0x0306, r21
    1016:	40 93 05 03 	sts	0x0305, r20
    101a:	30 93 08 03 	sts	0x0308, r19
    101e:	20 93 07 03 	sts	0x0307, r18
    1022:	10 93 0a 03 	sts	0x030A, r17
    1026:	00 93 09 03 	sts	0x0309, r16
    102a:	80 93 0b 03 	sts	0x030B, r24
    102e:	e2 d9       	rcall	.-3132   	; 0x3f4 <_ZL12enter_kernelv>
    1030:	80 91 fe 02 	lds	r24, 0x02FE
    1034:	90 91 ff 02 	lds	r25, 0x02FF
    1038:	cf bf       	out	0x3f, r28	; 63
    103a:	cf 91       	pop	r28
    103c:	1f 91       	pop	r17
    103e:	0f 91       	pop	r16
    1040:	08 95       	ret

00001042 <Now>:
    1042:	80 91 bf 02 	lds	r24, 0x02BF
    1046:	90 91 c0 02 	lds	r25, 0x02C0
    104a:	84 33       	cpi	r24, 0x34	; 52
    104c:	93 43       	sbci	r25, 0x33	; 51
    104e:	20 f0       	brcs	.+8      	; 0x1058 <Now+0x16>
    1050:	10 92 c0 02 	sts	0x02C0, r1
    1054:	10 92 bf 02 	sts	0x02BF, r1
    1058:	80 91 bf 02 	lds	r24, 0x02BF
    105c:	90 91 c0 02 	lds	r25, 0x02C0
    1060:	9c 01       	movw	r18, r24
    1062:	22 0f       	add	r18, r18
    1064:	33 1f       	adc	r19, r19
    1066:	22 0f       	add	r18, r18
    1068:	33 1f       	adc	r19, r19
    106a:	82 0f       	add	r24, r18
    106c:	93 1f       	adc	r25, r19
    106e:	08 95       	ret

00001070 <Service_Init>:
    1070:	cf 93       	push	r28
    1072:	cf b7       	in	r28, 0x3f	; 63
    1074:	f8 94       	cli
    1076:	86 e0       	ldi	r24, 0x06	; 6
    1078:	80 93 0b 03 	sts	0x030B, r24
    107c:	bb d9       	rcall	.-3210   	; 0x3f4 <_ZL12enter_kernelv>
    107e:	80 91 fc 02 	lds	r24, 0x02FC
    1082:	90 91 fd 02 	lds	r25, 0x02FD
    1086:	00 97       	sbiw	r24, 0x00	; 0
    1088:	21 f4       	brne	.+8      	; 0x1092 <Service_Init+0x22>
    108a:	8d e0       	ldi	r24, 0x0D	; 13
    108c:	80 93 19 02 	sts	0x0219, r24
    1090:	a7 da       	rcall	.-2738   	; 0x5e0 <OS_Abort>
    1092:	cf bf       	out	0x3f, r28	; 63
    1094:	cf 91       	pop	r28
    1096:	08 95       	ret

00001098 <Service_Subscribe>:
    1098:	cf 93       	push	r28
    109a:	cf b7       	in	r28, 0x3f	; 63
    109c:	f8 94       	cli
    109e:	27 e0       	ldi	r18, 0x07	; 7
    10a0:	20 93 0b 03 	sts	0x030B, r18
    10a4:	90 93 fd 02 	sts	0x02FD, r25
    10a8:	80 93 fc 02 	sts	0x02FC, r24
    10ac:	70 93 fb 02 	sts	0x02FB, r23
    10b0:	60 93 fa 02 	sts	0x02FA, r22
    10b4:	9f d9       	rcall	.-3266   	; 0x3f4 <_ZL12enter_kernelv>
    10b6:	cf bf       	out	0x3f, r28	; 63
    10b8:	cf 91       	pop	r28
    10ba:	08 95       	ret

000010bc <Service_Publish>:
    10bc:	cf 93       	push	r28
    10be:	cf b7       	in	r28, 0x3f	; 63
    10c0:	f8 94       	cli
    10c2:	28 e0       	ldi	r18, 0x08	; 8
    10c4:	20 93 0b 03 	sts	0x030B, r18
    10c8:	90 93 fd 02 	sts	0x02FD, r25
    10cc:	80 93 fc 02 	sts	0x02FC, r24
    10d0:	e0 91 fa 02 	lds	r30, 0x02FA
    10d4:	f0 91 fb 02 	lds	r31, 0x02FB
    10d8:	71 83       	std	Z+1, r23	; 0x01
    10da:	60 83       	st	Z, r22
    10dc:	8b d9       	rcall	.-3306   	; 0x3f4 <_ZL12enter_kernelv>
    10de:	cf bf       	out	0x3f, r28	; 63
    10e0:	cf 91       	pop	r28
    10e2:	08 95       	ret

000010e4 <Task_Next>:
    10e4:	cf 93       	push	r28
    10e6:	df 93       	push	r29
    10e8:	1f 92       	push	r1
    10ea:	cd b7       	in	r28, 0x3d	; 61
    10ec:	de b7       	in	r29, 0x3e	; 62
    10ee:	8f b7       	in	r24, 0x3f	; 63
    10f0:	89 83       	std	Y+1, r24	; 0x01
    10f2:	f8 94       	cli
    10f4:	84 e0       	ldi	r24, 0x04	; 4
    10f6:	80 93 0b 03 	sts	0x030B, r24
    10fa:	7c d9       	rcall	.-3336   	; 0x3f4 <_ZL12enter_kernelv>
    10fc:	89 81       	ldd	r24, Y+1	; 0x01
    10fe:	8f bf       	out	0x3f, r24	; 63
    1100:	0f 90       	pop	r0
    1102:	df 91       	pop	r29
    1104:	cf 91       	pop	r28
    1106:	08 95       	ret

00001108 <main>:
	// PORTG = 0;
	// PORTC = 0;
	// PORTE = 0;
	
	/* Set up the clocks */
	CLOCK16MHZ();
    1108:	e1 e6       	ldi	r30, 0x61	; 97
    110a:	f0 e0       	ldi	r31, 0x00	; 0
    110c:	80 e8       	ldi	r24, 0x80	; 128
    110e:	80 83       	st	Z, r24
    1110:	10 82       	st	Z, r1
	
	OS_Init();
    1112:	19 dc       	rcall	.-1998   	; 0x946 <_Z7OS_Initv>

00001114 <_ZL10get_statusv>:
}

void Radio_Flush()
{
	send_instruction(FLUSH_TX, NULL, NULL, 0);
	send_instruction(FLUSH_RX, NULL, NULL, 0);
    1114:	cf 93       	push	r28
    1116:	df 93       	push	r29
    1118:	c2 e0       	ldi	r28, 0x02	; 2
    111a:	d1 e0       	ldi	r29, 0x01	; 1
    111c:	88 81       	ld	r24, Y
    111e:	8f 7b       	andi	r24, 0xBF	; 191
    1120:	88 83       	st	Y, r24
    1122:	8f ef       	ldi	r24, 0xFF	; 255
    1124:	27 d3       	rcall	.+1614   	; 0x1774 <_Z14SPI_Write_Byteh>
    1126:	98 81       	ld	r25, Y
    1128:	90 64       	ori	r25, 0x40	; 64
    112a:	98 83       	st	Y, r25
    112c:	df 91       	pop	r29
    112e:	cf 91       	pop	r28
    1130:	08 95       	ret

00001132 <_ZL12set_registerhPhh>:
    1132:	ef 92       	push	r14
    1134:	ff 92       	push	r15
    1136:	0f 93       	push	r16
    1138:	1f 93       	push	r17
    113a:	cf 93       	push	r28
    113c:	df 93       	push	r29
    113e:	8b 01       	movw	r16, r22
    1140:	e4 2e       	mov	r14, r20
    1142:	c2 e0       	ldi	r28, 0x02	; 2
    1144:	d1 e0       	ldi	r29, 0x01	; 1
    1146:	98 81       	ld	r25, Y
    1148:	9f 7b       	andi	r25, 0xBF	; 191
    114a:	98 83       	st	Y, r25
    114c:	8f 71       	andi	r24, 0x1F	; 31
    114e:	80 62       	ori	r24, 0x20	; 32
    1150:	11 d3       	rcall	.+1570   	; 0x1774 <_Z14SPI_Write_Byteh>
    1152:	f8 2e       	mov	r15, r24
    1154:	6e 2d       	mov	r22, r14
    1156:	c8 01       	movw	r24, r16
    1158:	fe d2       	rcall	.+1532   	; 0x1756 <_Z15SPI_Write_BlockPhh>
    115a:	88 81       	ld	r24, Y
    115c:	80 64       	ori	r24, 0x40	; 64
    115e:	88 83       	st	Y, r24
    1160:	8f 2d       	mov	r24, r15
    1162:	df 91       	pop	r29
    1164:	cf 91       	pop	r28
    1166:	1f 91       	pop	r17
    1168:	0f 91       	pop	r16
    116a:	ff 90       	pop	r15
    116c:	ef 90       	pop	r14
    116e:	08 95       	ret

00001170 <_ZL19reset_pipe0_addressv>:
    1170:	80 91 27 02 	lds	r24, 0x0227
    1174:	88 23       	and	r24, r24
    1176:	29 f0       	breq	.+10     	; 0x1182 <_ZL19reset_pipe0_addressv+0x12>
    1178:	45 e0       	ldi	r20, 0x05	; 5
    117a:	6d e1       	ldi	r22, 0x1D	; 29
    117c:	72 e0       	ldi	r23, 0x02	; 2
    117e:	8a e0       	ldi	r24, 0x0A	; 10
    1180:	d8 cf       	rjmp	.-80     	; 0x1132 <_ZL12set_registerhPhh>
    1182:	08 95       	ret

00001184 <_ZL16send_instructionhPhS_h>:
    1184:	ff 92       	push	r15
    1186:	0f 93       	push	r16
    1188:	1f 93       	push	r17
    118a:	cf 93       	push	r28
    118c:	df 93       	push	r29
    118e:	8b 01       	movw	r16, r22
    1190:	ea 01       	movw	r28, r20
    1192:	f2 2e       	mov	r15, r18
    1194:	e2 e0       	ldi	r30, 0x02	; 2
    1196:	f1 e0       	ldi	r31, 0x01	; 1
    1198:	90 81       	ld	r25, Z
    119a:	9f 7b       	andi	r25, 0xBF	; 191
    119c:	90 83       	st	Z, r25
    119e:	ea d2       	rcall	.+1492   	; 0x1774 <_Z14SPI_Write_Byteh>
    11a0:	ff 20       	and	r15, r15
    11a2:	51 f0       	breq	.+20     	; 0x11b8 <_ZL16send_instructionhPhS_h+0x34>
    11a4:	20 97       	sbiw	r28, 0x00	; 0
    11a6:	21 f4       	brne	.+8      	; 0x11b0 <_ZL16send_instructionhPhS_h+0x2c>
    11a8:	6f 2d       	mov	r22, r15
    11aa:	c8 01       	movw	r24, r16
    11ac:	d4 d2       	rcall	.+1448   	; 0x1756 <_Z15SPI_Write_BlockPhh>
    11ae:	04 c0       	rjmp	.+8      	; 0x11b8 <_ZL16send_instructionhPhS_h+0x34>
    11b0:	4f 2d       	mov	r20, r15
    11b2:	be 01       	movw	r22, r28
    11b4:	c8 01       	movw	r24, r16
    11b6:	bc d2       	rcall	.+1400   	; 0x1730 <_Z19SPI_ReadWrite_BlockPhS_h>
    11b8:	e2 e0       	ldi	r30, 0x02	; 2
    11ba:	f1 e0       	ldi	r31, 0x01	; 1
    11bc:	80 81       	ld	r24, Z
    11be:	80 64       	ori	r24, 0x40	; 64
    11c0:	80 83       	st	Z, r24
    11c2:	df 91       	pop	r29
    11c4:	cf 91       	pop	r28
    11c6:	1f 91       	pop	r17
    11c8:	0f 91       	pop	r16
    11ca:	ff 90       	pop	r15
    11cc:	08 95       	ret

000011ce <_ZL12get_registerhPhh>:
    11ce:	ef 92       	push	r14
    11d0:	ff 92       	push	r15
    11d2:	0f 93       	push	r16
    11d4:	1f 93       	push	r17
    11d6:	cf 93       	push	r28
    11d8:	df 93       	push	r29
    11da:	06 2f       	mov	r16, r22
    11dc:	f7 2e       	mov	r15, r23
    11de:	14 2f       	mov	r17, r20
    11e0:	44 23       	and	r20, r20
    11e2:	49 f0       	breq	.+18     	; 0x11f6 <_ZL12get_registerhPhh+0x28>
    11e4:	36 2f       	mov	r19, r22
    11e6:	e6 2f       	mov	r30, r22
    11e8:	f7 2f       	mov	r31, r23
    11ea:	2f ef       	ldi	r18, 0xFF	; 255
    11ec:	21 93       	st	Z+, r18
    11ee:	9e 2f       	mov	r25, r30
    11f0:	93 1b       	sub	r25, r19
    11f2:	91 17       	cp	r25, r17
    11f4:	d8 f3       	brcs	.-10     	; 0x11ec <_ZL12get_registerhPhh+0x1e>
    11f6:	c2 e0       	ldi	r28, 0x02	; 2
    11f8:	d1 e0       	ldi	r29, 0x01	; 1
    11fa:	98 81       	ld	r25, Y
    11fc:	9f 7b       	andi	r25, 0xBF	; 191
    11fe:	98 83       	st	Y, r25
    1200:	8f 71       	andi	r24, 0x1F	; 31
    1202:	b8 d2       	rcall	.+1392   	; 0x1774 <_Z14SPI_Write_Byteh>
    1204:	e8 2e       	mov	r14, r24
    1206:	41 2f       	mov	r20, r17
    1208:	60 2f       	mov	r22, r16
    120a:	7f 2d       	mov	r23, r15
    120c:	80 e0       	ldi	r24, 0x00	; 0
    120e:	90 e0       	ldi	r25, 0x00	; 0
    1210:	8f d2       	rcall	.+1310   	; 0x1730 <_Z19SPI_ReadWrite_BlockPhS_h>
    1212:	88 81       	ld	r24, Y
    1214:	80 64       	ori	r24, 0x40	; 64
    1216:	88 83       	st	Y, r24
    1218:	8e 2d       	mov	r24, r14
    121a:	df 91       	pop	r29
    121c:	cf 91       	pop	r28
    121e:	1f 91       	pop	r17
    1220:	0f 91       	pop	r16
    1222:	ff 90       	pop	r15
    1224:	ef 90       	pop	r14
    1226:	08 95       	ret

00001228 <_ZL11set_rx_modev>:
    1228:	cf 93       	push	r28
    122a:	df 93       	push	r29
    122c:	1f 92       	push	r1
    122e:	cd b7       	in	r28, 0x3d	; 61
    1230:	de b7       	in	r29, 0x3e	; 62
    1232:	41 e0       	ldi	r20, 0x01	; 1
    1234:	be 01       	movw	r22, r28
    1236:	6f 5f       	subi	r22, 0xFF	; 255
    1238:	7f 4f       	sbci	r23, 0xFF	; 255
    123a:	80 e0       	ldi	r24, 0x00	; 0
    123c:	c8 df       	rcall	.-112    	; 0x11ce <_ZL12get_registerhPhh>
    123e:	89 81       	ldd	r24, Y+1	; 0x01
    1240:	80 fd       	sbrc	r24, 0
    1242:	10 c0       	rjmp	.+32     	; 0x1264 <_ZL11set_rx_modev+0x3c>
    1244:	81 60       	ori	r24, 0x01	; 1
    1246:	89 83       	std	Y+1, r24	; 0x01
    1248:	41 e0       	ldi	r20, 0x01	; 1
    124a:	be 01       	movw	r22, r28
    124c:	6f 5f       	subi	r22, 0xFF	; 255
    124e:	7f 4f       	sbci	r23, 0xFF	; 255
    1250:	80 e0       	ldi	r24, 0x00	; 0
    1252:	6f df       	rcall	.-290    	; 0x1132 <_ZL12set_registerhPhh>
    1254:	85 e1       	ldi	r24, 0x15	; 21
    1256:	8a 95       	dec	r24
    1258:	f1 f7       	brne	.-4      	; 0x1256 <_ZL11set_rx_modev+0x2e>
    125a:	00 c0       	rjmp	.+0      	; 0x125c <_ZL11set_rx_modev+0x34>
    125c:	85 e1       	ldi	r24, 0x15	; 21
    125e:	8a 95       	dec	r24
    1260:	f1 f7       	brne	.-4      	; 0x125e <_ZL11set_rx_modev+0x36>
    1262:	00 c0       	rjmp	.+0      	; 0x1264 <_ZL11set_rx_modev+0x3c>
    1264:	0f 90       	pop	r0
    1266:	df 91       	pop	r29
    1268:	cf 91       	pop	r28
    126a:	08 95       	ret

0000126c <_Z10Radio_Initv>:
    126c:	cf 93       	push	r28
    126e:	df 93       	push	r29
    1270:	1f 92       	push	r1
    1272:	cd b7       	in	r28, 0x3d	; 61
    1274:	de b7       	in	r29, 0x3e	; 62
    1276:	10 92 97 15 	sts	0x1597, r1
    127a:	e1 e0       	ldi	r30, 0x01	; 1
    127c:	f1 e0       	ldi	r31, 0x01	; 1
    127e:	80 81       	ld	r24, Z
    1280:	88 61       	ori	r24, 0x18	; 24
    1282:	80 83       	st	Z, r24
    1284:	a2 e0       	ldi	r26, 0x02	; 2
    1286:	b1 e0       	ldi	r27, 0x01	; 1
    1288:	8c 91       	ld	r24, X
    128a:	8f 7e       	andi	r24, 0xEF	; 239
    128c:	8c 93       	st	X, r24
    128e:	8c 91       	ld	r24, X
    1290:	87 7f       	andi	r24, 0xF7	; 247
    1292:	8c 93       	st	X, r24
    1294:	8c 91       	ld	r24, X
    1296:	8f 7d       	andi	r24, 0xDF	; 223
    1298:	8c 93       	st	X, r24
    129a:	80 81       	ld	r24, Z
    129c:	80 62       	ori	r24, 0x20	; 32
    129e:	80 83       	st	Z, r24
    12a0:	80 81       	ld	r24, Z
    12a2:	80 64       	ori	r24, 0x40	; 64
    12a4:	80 83       	st	Z, r24
    12a6:	6c 98       	cbi	0x0d, 4	; 13
    12a8:	ea e6       	ldi	r30, 0x6A	; 106
    12aa:	f0 e0       	ldi	r31, 0x00	; 0
    12ac:	80 81       	ld	r24, Z
    12ae:	82 60       	ori	r24, 0x02	; 2
    12b0:	80 83       	st	Z, r24
    12b2:	80 81       	ld	r24, Z
    12b4:	8e 7f       	andi	r24, 0xFE	; 254
    12b6:	80 83       	st	Z, r24
    12b8:	ec 9a       	sbi	0x1d, 4	; 29
    12ba:	e4 9a       	sbi	0x1c, 4	; 28
    12bc:	8d eb       	ldi	r24, 0xBD	; 189
    12be:	9a e0       	ldi	r25, 0x0A	; 10
    12c0:	01 97       	sbiw	r24, 0x01	; 1
    12c2:	f1 f7       	brne	.-4      	; 0x12c0 <_Z10Radio_Initv+0x54>
    12c4:	00 c0       	rjmp	.+0      	; 0x12c6 <_Z10Radio_Initv+0x5a>
    12c6:	00 00       	nop
    12c8:	26 d2       	rcall	.+1100   	; 0x1716 <_Z8SPI_Initv>
    12ca:	83 e0       	ldi	r24, 0x03	; 3
    12cc:	89 83       	std	Y+1, r24	; 0x01
    12ce:	41 e0       	ldi	r20, 0x01	; 1
    12d0:	be 01       	movw	r22, r28
    12d2:	6f 5f       	subi	r22, 0xFF	; 255
    12d4:	7f 4f       	sbci	r23, 0xFF	; 255
    12d6:	2d df       	rcall	.-422    	; 0x1132 <_ZL12set_registerhPhh>
    12d8:	85 e1       	ldi	r24, 0x15	; 21
    12da:	89 83       	std	Y+1, r24	; 0x01
    12dc:	41 e0       	ldi	r20, 0x01	; 1
    12de:	be 01       	movw	r22, r28
    12e0:	6f 5f       	subi	r22, 0xFF	; 255
    12e2:	7f 4f       	sbci	r23, 0xFF	; 255
    12e4:	84 e0       	ldi	r24, 0x04	; 4
    12e6:	25 df       	rcall	.-438    	; 0x1132 <_ZL12set_registerhPhh>
    12e8:	88 e6       	ldi	r24, 0x68	; 104
    12ea:	89 83       	std	Y+1, r24	; 0x01
    12ec:	41 e0       	ldi	r20, 0x01	; 1
    12ee:	be 01       	movw	r22, r28
    12f0:	6f 5f       	subi	r22, 0xFF	; 255
    12f2:	7f 4f       	sbci	r23, 0xFF	; 255
    12f4:	85 e0       	ldi	r24, 0x05	; 5
    12f6:	1d df       	rcall	.-454    	; 0x1132 <_ZL12set_registerhPhh>
    12f8:	89 e0       	ldi	r24, 0x09	; 9
    12fa:	89 83       	std	Y+1, r24	; 0x01
    12fc:	41 e0       	ldi	r20, 0x01	; 1
    12fe:	be 01       	movw	r22, r28
    1300:	6f 5f       	subi	r22, 0xFF	; 255
    1302:	7f 4f       	sbci	r23, 0xFF	; 255
    1304:	86 e0       	ldi	r24, 0x06	; 6
    1306:	15 df       	rcall	.-470    	; 0x1132 <_ZL12set_registerhPhh>
    1308:	8f e0       	ldi	r24, 0x0F	; 15
    130a:	89 83       	std	Y+1, r24	; 0x01
    130c:	41 e0       	ldi	r20, 0x01	; 1
    130e:	be 01       	movw	r22, r28
    1310:	6f 5f       	subi	r22, 0xFF	; 255
    1312:	7f 4f       	sbci	r23, 0xFF	; 255
    1314:	80 e0       	ldi	r24, 0x00	; 0
    1316:	0d df       	rcall	.-486    	; 0x1132 <_ZL12set_registerhPhh>
    1318:	80 e7       	ldi	r24, 0x70	; 112
    131a:	89 83       	std	Y+1, r24	; 0x01
    131c:	41 e0       	ldi	r20, 0x01	; 1
    131e:	be 01       	movw	r22, r28
    1320:	6f 5f       	subi	r22, 0xFF	; 255
    1322:	7f 4f       	sbci	r23, 0xFF	; 255
    1324:	87 e0       	ldi	r24, 0x07	; 7
    1326:	05 df       	rcall	.-502    	; 0x1132 <_ZL12set_registerhPhh>
    1328:	20 e0       	ldi	r18, 0x00	; 0
    132a:	40 e0       	ldi	r20, 0x00	; 0
    132c:	50 e0       	ldi	r21, 0x00	; 0
    132e:	60 e0       	ldi	r22, 0x00	; 0
    1330:	70 e0       	ldi	r23, 0x00	; 0
    1332:	81 ee       	ldi	r24, 0xE1	; 225
    1334:	27 df       	rcall	.-434    	; 0x1184 <_ZL16send_instructionhPhS_h>
    1336:	20 e0       	ldi	r18, 0x00	; 0
    1338:	40 e0       	ldi	r20, 0x00	; 0
    133a:	50 e0       	ldi	r21, 0x00	; 0
    133c:	60 e0       	ldi	r22, 0x00	; 0
    133e:	70 e0       	ldi	r23, 0x00	; 0
    1340:	82 ee       	ldi	r24, 0xE2	; 226
    1342:	20 df       	rcall	.-448    	; 0x1184 <_ZL16send_instructionhPhS_h>
    1344:	83 ef       	ldi	r24, 0xF3	; 243
    1346:	91 e0       	ldi	r25, 0x01	; 1
    1348:	01 97       	sbiw	r24, 0x01	; 1
    134a:	f1 f7       	brne	.-4      	; 0x1348 <_Z10Radio_Initv+0xdc>
    134c:	00 c0       	rjmp	.+0      	; 0x134e <_Z10Radio_Initv+0xe2>
    134e:	00 00       	nop
    1350:	e2 e0       	ldi	r30, 0x02	; 2
    1352:	f1 e0       	ldi	r31, 0x01	; 1
    1354:	80 81       	ld	r24, Z
    1356:	80 62       	ori	r24, 0x20	; 32
    1358:	80 83       	st	Z, r24
    135a:	80 81       	ld	r24, Z
    135c:	80 61       	ori	r24, 0x10	; 16
    135e:	80 83       	st	Z, r24
    1360:	0f 90       	pop	r0
    1362:	df 91       	pop	r29
    1364:	cf 91       	pop	r28
    1366:	08 95       	ret

00001368 <_Z18Radio_Configure_Rx11_radio_pipePh3_ed>:
    1368:	cf 92       	push	r12
    136a:	df 92       	push	r13
    136c:	ef 92       	push	r14
    136e:	ff 92       	push	r15
    1370:	0f 93       	push	r16
    1372:	1f 93       	push	r17
    1374:	cf 93       	push	r28
    1376:	df 93       	push	r29
    1378:	1f 92       	push	r1
    137a:	cd b7       	in	r28, 0x3d	; 61
    137c:	de b7       	in	r29, 0x3e	; 62
    137e:	d8 2e       	mov	r13, r24
    1380:	c4 2e       	mov	r12, r20
    1382:	85 e0       	ldi	r24, 0x05	; 5
    1384:	8d 15       	cp	r24, r13
    1386:	08 f4       	brcc	.+2      	; 0x138a <_Z18Radio_Configure_Rx11_radio_pipePh3_ed+0x22>
    1388:	6f c0       	rjmp	.+222    	; 0x1468 <_Z18Radio_Configure_Rx11_radio_pipePh3_ed+0x100>
    138a:	d1 10       	cpse	r13, r1
    138c:	11 c0       	rjmp	.+34     	; 0x13b0 <_Z18Radio_Configure_Rx11_radio_pipePh3_ed+0x48>
    138e:	fb 01       	movw	r30, r22
    1390:	80 81       	ld	r24, Z
    1392:	80 93 1d 02 	sts	0x021D, r24
    1396:	81 81       	ldd	r24, Z+1	; 0x01
    1398:	80 93 1e 02 	sts	0x021E, r24
    139c:	82 81       	ldd	r24, Z+2	; 0x02
    139e:	80 93 1f 02 	sts	0x021F, r24
    13a2:	83 81       	ldd	r24, Z+3	; 0x03
    13a4:	80 93 20 02 	sts	0x0220, r24
    13a8:	84 81       	ldd	r24, Z+4	; 0x04
    13aa:	80 93 21 02 	sts	0x0221, r24
    13ae:	03 c0       	rjmp	.+6      	; 0x13b6 <_Z18Radio_Configure_Rx11_radio_pipePh3_ed+0x4e>
    13b0:	f1 e0       	ldi	r31, 0x01	; 1
    13b2:	fd 15       	cp	r31, r13
    13b4:	10 f0       	brcs	.+4      	; 0x13ba <_Z18Radio_Configure_Rx11_radio_pipePh3_ed+0x52>
    13b6:	45 e0       	ldi	r20, 0x05	; 5
    13b8:	01 c0       	rjmp	.+2      	; 0x13bc <_Z18Radio_Configure_Rx11_radio_pipePh3_ed+0x54>
    13ba:	41 e0       	ldi	r20, 0x01	; 1
    13bc:	8a e0       	ldi	r24, 0x0A	; 10
    13be:	8d 0d       	add	r24, r13
    13c0:	b8 de       	rcall	.-656    	; 0x1132 <_ZL12set_registerhPhh>
    13c2:	41 e0       	ldi	r20, 0x01	; 1
    13c4:	be 01       	movw	r22, r28
    13c6:	6f 5f       	subi	r22, 0xFF	; 255
    13c8:	7f 4f       	sbci	r23, 0xFF	; 255
    13ca:	81 e0       	ldi	r24, 0x01	; 1
    13cc:	00 df       	rcall	.-512    	; 0x11ce <_ZL12get_registerhPhh>
    13ce:	ed 2c       	mov	r14, r13
    13d0:	f1 2c       	mov	r15, r1
    13d2:	01 e0       	ldi	r16, 0x01	; 1
    13d4:	10 e0       	ldi	r17, 0x00	; 0
    13d6:	0d 2c       	mov	r0, r13
    13d8:	02 c0       	rjmp	.+4      	; 0x13de <_Z18Radio_Configure_Rx11_radio_pipePh3_ed+0x76>
    13da:	00 0f       	add	r16, r16
    13dc:	11 1f       	adc	r17, r17
    13de:	0a 94       	dec	r0
    13e0:	e2 f7       	brpl	.-8      	; 0x13da <_Z18Radio_Configure_Rx11_radio_pipePh3_ed+0x72>
    13e2:	89 81       	ldd	r24, Y+1	; 0x01
    13e4:	80 2b       	or	r24, r16
    13e6:	89 83       	std	Y+1, r24	; 0x01
    13e8:	41 e0       	ldi	r20, 0x01	; 1
    13ea:	be 01       	movw	r22, r28
    13ec:	6f 5f       	subi	r22, 0xFF	; 255
    13ee:	7f 4f       	sbci	r23, 0xFF	; 255
    13f0:	81 e0       	ldi	r24, 0x01	; 1
    13f2:	9f de       	rcall	.-706    	; 0x1132 <_ZL12set_registerhPhh>
    13f4:	c1 10       	cpse	r12, r1
    13f6:	08 c0       	rjmp	.+16     	; 0x1408 <_Z18Radio_Configure_Rx11_radio_pipePh3_ed+0xa0>
    13f8:	1f c0       	rjmp	.+62     	; 0x1438 <_Z18Radio_Configure_Rx11_radio_pipePh3_ed+0xd0>
    13fa:	41 e0       	ldi	r20, 0x01	; 1
    13fc:	be 01       	movw	r22, r28
    13fe:	6f 5f       	subi	r22, 0xFF	; 255
    1400:	7f 4f       	sbci	r23, 0xFF	; 255
    1402:	82 e0       	ldi	r24, 0x02	; 2
    1404:	96 de       	rcall	.-724    	; 0x1132 <_ZL12set_registerhPhh>
    1406:	30 c0       	rjmp	.+96     	; 0x1468 <_Z18Radio_Configure_Rx11_radio_pipePh3_ed+0x100>
    1408:	80 e2       	ldi	r24, 0x20	; 32
    140a:	89 83       	std	Y+1, r24	; 0x01
    140c:	41 e0       	ldi	r20, 0x01	; 1
    140e:	be 01       	movw	r22, r28
    1410:	6f 5f       	subi	r22, 0xFF	; 255
    1412:	7f 4f       	sbci	r23, 0xFF	; 255
    1414:	81 e1       	ldi	r24, 0x11	; 17
    1416:	8d 0d       	add	r24, r13
    1418:	8c de       	rcall	.-744    	; 0x1132 <_ZL12set_registerhPhh>
    141a:	89 81       	ldd	r24, Y+1	; 0x01
    141c:	f7 01       	movw	r30, r14
    141e:	e9 5d       	subi	r30, 0xD9	; 217
    1420:	fd 4f       	sbci	r31, 0xFD	; 253
    1422:	80 83       	st	Z, r24
    1424:	41 e0       	ldi	r20, 0x01	; 1
    1426:	be 01       	movw	r22, r28
    1428:	6f 5f       	subi	r22, 0xFF	; 255
    142a:	7f 4f       	sbci	r23, 0xFF	; 255
    142c:	82 e0       	ldi	r24, 0x02	; 2
    142e:	cf de       	rcall	.-610    	; 0x11ce <_ZL12get_registerhPhh>
    1430:	89 81       	ldd	r24, Y+1	; 0x01
    1432:	08 2b       	or	r16, r24
    1434:	09 83       	std	Y+1, r16	; 0x01
    1436:	e1 cf       	rjmp	.-62     	; 0x13fa <_Z18Radio_Configure_Rx11_radio_pipePh3_ed+0x92>
    1438:	19 82       	std	Y+1, r1	; 0x01
    143a:	41 e0       	ldi	r20, 0x01	; 1
    143c:	be 01       	movw	r22, r28
    143e:	6f 5f       	subi	r22, 0xFF	; 255
    1440:	7f 4f       	sbci	r23, 0xFF	; 255
    1442:	81 e1       	ldi	r24, 0x11	; 17
    1444:	8d 0d       	add	r24, r13
    1446:	75 de       	rcall	.-790    	; 0x1132 <_ZL12set_registerhPhh>
    1448:	89 81       	ldd	r24, Y+1	; 0x01
    144a:	f7 01       	movw	r30, r14
    144c:	e9 5d       	subi	r30, 0xD9	; 217
    144e:	fd 4f       	sbci	r31, 0xFD	; 253
    1450:	80 83       	st	Z, r24
    1452:	41 e0       	ldi	r20, 0x01	; 1
    1454:	be 01       	movw	r22, r28
    1456:	6f 5f       	subi	r22, 0xFF	; 255
    1458:	7f 4f       	sbci	r23, 0xFF	; 255
    145a:	82 e0       	ldi	r24, 0x02	; 2
    145c:	b8 de       	rcall	.-656    	; 0x11ce <_ZL12get_registerhPhh>
    145e:	00 95       	com	r16
    1460:	89 81       	ldd	r24, Y+1	; 0x01
    1462:	08 23       	and	r16, r24
    1464:	09 83       	std	Y+1, r16	; 0x01
    1466:	c9 cf       	rjmp	.-110    	; 0x13fa <_Z18Radio_Configure_Rx11_radio_pipePh3_ed+0x92>
    1468:	0f 90       	pop	r0
    146a:	df 91       	pop	r29
    146c:	cf 91       	pop	r28
    146e:	1f 91       	pop	r17
    1470:	0f 91       	pop	r16
    1472:	ff 90       	pop	r15
    1474:	ef 90       	pop	r14
    1476:	df 90       	pop	r13
    1478:	cf 90       	pop	r12
    147a:	08 95       	ret

0000147c <_Z17Radio_Set_Tx_AddrPh>:
    147c:	fc 01       	movw	r30, r24
    147e:	80 81       	ld	r24, Z
    1480:	80 93 22 02 	sts	0x0222, r24
    1484:	81 81       	ldd	r24, Z+1	; 0x01
    1486:	80 93 23 02 	sts	0x0223, r24
    148a:	82 81       	ldd	r24, Z+2	; 0x02
    148c:	80 93 24 02 	sts	0x0224, r24
    1490:	83 81       	ldd	r24, Z+3	; 0x03
    1492:	80 93 25 02 	sts	0x0225, r24
    1496:	84 81       	ldd	r24, Z+4	; 0x04
    1498:	80 93 26 02 	sts	0x0226, r24
    149c:	45 e0       	ldi	r20, 0x05	; 5
    149e:	bf 01       	movw	r22, r30
    14a0:	80 e1       	ldi	r24, 0x10	; 16
    14a2:	47 ce       	rjmp	.-882    	; 0x1132 <_ZL12set_registerhPhh>
    14a4:	08 95       	ret

000014a6 <_Z15Radio_Configure9_radio_dr15_radio_tx_power>:
    14a6:	0f 93       	push	r16
    14a8:	1f 93       	push	r17
    14aa:	cf 93       	push	r28
    14ac:	df 93       	push	r29
    14ae:	1f 92       	push	r1
    14b0:	cd b7       	in	r28, 0x3d	; 61
    14b2:	de b7       	in	r29, 0x3e	; 62
    14b4:	08 2f       	mov	r16, r24
    14b6:	16 2f       	mov	r17, r22
    14b8:	64 30       	cpi	r22, 0x04	; 4
    14ba:	c8 f4       	brcc	.+50     	; 0x14ee <_Z15Radio_Configure9_radio_dr15_radio_tx_power+0x48>
    14bc:	82 30       	cpi	r24, 0x02	; 2
    14be:	b8 f4       	brcc	.+46     	; 0x14ee <_Z15Radio_Configure9_radio_dr15_radio_tx_power+0x48>
    14c0:	41 e0       	ldi	r20, 0x01	; 1
    14c2:	be 01       	movw	r22, r28
    14c4:	6f 5f       	subi	r22, 0xFF	; 255
    14c6:	7f 4f       	sbci	r23, 0xFF	; 255
    14c8:	86 e0       	ldi	r24, 0x06	; 6
    14ca:	81 de       	rcall	.-766    	; 0x11ce <_ZL12get_registerhPhh>
    14cc:	11 0f       	add	r17, r17
    14ce:	89 81       	ldd	r24, Y+1	; 0x01
    14d0:	86 60       	ori	r24, 0x06	; 6
    14d2:	18 23       	and	r17, r24
    14d4:	00 23       	and	r16, r16
    14d6:	19 f0       	breq	.+6      	; 0x14de <_Z15Radio_Configure9_radio_dr15_radio_tx_power+0x38>
    14d8:	18 60       	ori	r17, 0x08	; 8
    14da:	19 83       	std	Y+1, r17	; 0x01
    14dc:	02 c0       	rjmp	.+4      	; 0x14e2 <_Z15Radio_Configure9_radio_dr15_radio_tx_power+0x3c>
    14de:	17 7f       	andi	r17, 0xF7	; 247
    14e0:	19 83       	std	Y+1, r17	; 0x01
    14e2:	41 e0       	ldi	r20, 0x01	; 1
    14e4:	be 01       	movw	r22, r28
    14e6:	6f 5f       	subi	r22, 0xFF	; 255
    14e8:	7f 4f       	sbci	r23, 0xFF	; 255
    14ea:	86 e0       	ldi	r24, 0x06	; 6
    14ec:	22 de       	rcall	.-956    	; 0x1132 <_ZL12set_registerhPhh>
    14ee:	0f 90       	pop	r0
    14f0:	df 91       	pop	r29
    14f2:	cf 91       	pop	r28
    14f4:	1f 91       	pop	r17
    14f6:	0f 91       	pop	r16
    14f8:	08 95       	ret

000014fa <_Z14Radio_TransmitP3_rp14_radio_tx_wait>:
    14fa:	df 92       	push	r13
    14fc:	ef 92       	push	r14
    14fe:	ff 92       	push	r15
    1500:	0f 93       	push	r16
    1502:	1f 93       	push	r17
    1504:	cf 93       	push	r28
    1506:	df 93       	push	r29
    1508:	1f 92       	push	r1
    150a:	cd b7       	in	r28, 0x3d	; 61
    150c:	de b7       	in	r29, 0x3e	; 62
    150e:	7c 01       	movw	r14, r24
    1510:	d6 2e       	mov	r13, r22
    1512:	81 e0       	ldi	r24, 0x01	; 1
    1514:	80 93 97 15 	sts	0x1597, r24
    1518:	e2 e0       	ldi	r30, 0x02	; 2
    151a:	f1 e0       	ldi	r31, 0x01	; 1
    151c:	80 81       	ld	r24, Z
    151e:	8f 7d       	andi	r24, 0xDF	; 223
    1520:	80 83       	st	Z, r24
    1522:	41 e0       	ldi	r20, 0x01	; 1
    1524:	be 01       	movw	r22, r28
    1526:	6f 5f       	subi	r22, 0xFF	; 255
    1528:	7f 4f       	sbci	r23, 0xFF	; 255
    152a:	80 e0       	ldi	r24, 0x00	; 0
    152c:	50 de       	rcall	.-864    	; 0x11ce <_ZL12get_registerhPhh>
    152e:	89 81       	ldd	r24, Y+1	; 0x01
    1530:	80 ff       	sbrs	r24, 0
    1532:	10 c0       	rjmp	.+32     	; 0x1554 <_Z14Radio_TransmitP3_rp14_radio_tx_wait+0x5a>
    1534:	8e 7f       	andi	r24, 0xFE	; 254
    1536:	89 83       	std	Y+1, r24	; 0x01
    1538:	41 e0       	ldi	r20, 0x01	; 1
    153a:	be 01       	movw	r22, r28
    153c:	6f 5f       	subi	r22, 0xFF	; 255
    153e:	7f 4f       	sbci	r23, 0xFF	; 255
    1540:	80 e0       	ldi	r24, 0x00	; 0
    1542:	f7 dd       	rcall	.-1042   	; 0x1132 <_ZL12set_registerhPhh>
    1544:	85 e1       	ldi	r24, 0x15	; 21
    1546:	8a 95       	dec	r24
    1548:	f1 f7       	brne	.-4      	; 0x1546 <_Z14Radio_TransmitP3_rp14_radio_tx_wait+0x4c>
    154a:	00 c0       	rjmp	.+0      	; 0x154c <_Z14Radio_TransmitP3_rp14_radio_tx_wait+0x52>
    154c:	e5 e1       	ldi	r30, 0x15	; 21
    154e:	ea 95       	dec	r30
    1550:	f1 f7       	brne	.-4      	; 0x154e <_Z14Radio_TransmitP3_rp14_radio_tx_wait+0x54>
    1552:	00 c0       	rjmp	.+0      	; 0x1554 <_Z14Radio_TransmitP3_rp14_radio_tx_wait+0x5a>
    1554:	45 e0       	ldi	r20, 0x05	; 5
    1556:	62 e2       	ldi	r22, 0x22	; 34
    1558:	72 e0       	ldi	r23, 0x02	; 2
    155a:	8a e0       	ldi	r24, 0x0A	; 10
    155c:	ea dd       	rcall	.-1068   	; 0x1132 <_ZL12set_registerhPhh>
    155e:	02 e0       	ldi	r16, 0x02	; 2
    1560:	11 e0       	ldi	r17, 0x01	; 1
    1562:	f8 01       	movw	r30, r16
    1564:	80 81       	ld	r24, Z
    1566:	88 60       	ori	r24, 0x08	; 8
    1568:	80 83       	st	Z, r24
    156a:	20 e2       	ldi	r18, 0x20	; 32
    156c:	40 e0       	ldi	r20, 0x00	; 0
    156e:	50 e0       	ldi	r21, 0x00	; 0
    1570:	b7 01       	movw	r22, r14
    1572:	80 ea       	ldi	r24, 0xA0	; 160
    1574:	07 de       	rcall	.-1010   	; 0x1184 <_ZL16send_instructionhPhS_h>
    1576:	f8 01       	movw	r30, r16
    1578:	80 81       	ld	r24, Z
    157a:	80 62       	ori	r24, 0x20	; 32
    157c:	80 83       	st	Z, r24
    157e:	d1 10       	cpse	r13, r1
    1580:	07 c0       	rjmp	.+14     	; 0x1590 <_Z14Radio_TransmitP3_rp14_radio_tx_wait+0x96>
    1582:	80 91 97 15 	lds	r24, 0x1597
    1586:	81 11       	cpse	r24, r1
    1588:	fc cf       	rjmp	.-8      	; 0x1582 <_Z14Radio_TransmitP3_rp14_radio_tx_wait+0x88>
    158a:	80 91 1a 02 	lds	r24, 0x021A
    158e:	01 c0       	rjmp	.+2      	; 0x1592 <_Z14Radio_TransmitP3_rp14_radio_tx_wait+0x98>
    1590:	81 e0       	ldi	r24, 0x01	; 1
    1592:	0f 90       	pop	r0
    1594:	df 91       	pop	r29
    1596:	cf 91       	pop	r28
    1598:	1f 91       	pop	r17
    159a:	0f 91       	pop	r16
    159c:	ff 90       	pop	r15
    159e:	ef 90       	pop	r14
    15a0:	df 90       	pop	r13
    15a2:	08 95       	ret

000015a4 <_Z13Radio_ReceiveP3_rp>:
    15a4:	cf 93       	push	r28
    15a6:	df 93       	push	r29
    15a8:	ec 01       	movw	r28, r24
    15aa:	10 92 97 15 	sts	0x1597, r1
    15ae:	e2 e0       	ldi	r30, 0x02	; 2
    15b0:	f1 e0       	ldi	r31, 0x01	; 1
    15b2:	80 81       	ld	r24, Z
    15b4:	8f 7d       	andi	r24, 0xDF	; 223
    15b6:	80 83       	st	Z, r24
    15b8:	ad dd       	rcall	.-1190   	; 0x1114 <_ZL10get_statusv>
    15ba:	8e 70       	andi	r24, 0x0E	; 14
    15bc:	28 2f       	mov	r18, r24
    15be:	30 e0       	ldi	r19, 0x00	; 0
    15c0:	35 95       	asr	r19
    15c2:	27 95       	ror	r18
    15c4:	f9 01       	movw	r30, r18
    15c6:	ff 27       	eor	r31, r31
    15c8:	df 01       	movw	r26, r30
    15ca:	a9 5d       	subi	r26, 0xD9	; 217
    15cc:	bd 4f       	sbci	r27, 0xFD	; 253
    15ce:	8c 91       	ld	r24, X
    15d0:	81 32       	cpi	r24, 0x21	; 33
    15d2:	70 f4       	brcc	.+28     	; 0x15f0 <_Z13Radio_ReceiveP3_rp+0x4c>
    15d4:	27 30       	cpi	r18, 0x07	; 7
    15d6:	71 f0       	breq	.+28     	; 0x15f4 <_Z13Radio_ReceiveP3_rp+0x50>
    15d8:	fd 01       	movw	r30, r26
    15da:	20 81       	ld	r18, Z
    15dc:	ae 01       	movw	r20, r28
    15de:	be 01       	movw	r22, r28
    15e0:	81 e6       	ldi	r24, 0x61	; 97
    15e2:	d0 dd       	rcall	.-1120   	; 0x1184 <_ZL16send_instructionhPhS_h>
    15e4:	97 dd       	rcall	.-1234   	; 0x1114 <_ZL10get_statusv>
    15e6:	8e 70       	andi	r24, 0x0E	; 14
    15e8:	8e 30       	cpi	r24, 0x0E	; 14
    15ea:	31 f0       	breq	.+12     	; 0x15f8 <_Z13Radio_ReceiveP3_rp+0x54>
    15ec:	83 e0       	ldi	r24, 0x03	; 3
    15ee:	05 c0       	rjmp	.+10     	; 0x15fa <_Z13Radio_ReceiveP3_rp+0x56>
    15f0:	80 e0       	ldi	r24, 0x00	; 0
    15f2:	03 c0       	rjmp	.+6      	; 0x15fa <_Z13Radio_ReceiveP3_rp+0x56>
    15f4:	82 e0       	ldi	r24, 0x02	; 2
    15f6:	01 c0       	rjmp	.+2      	; 0x15fa <_Z13Radio_ReceiveP3_rp+0x56>
    15f8:	84 e0       	ldi	r24, 0x04	; 4
    15fa:	e2 e0       	ldi	r30, 0x02	; 2
    15fc:	f1 e0       	ldi	r31, 0x01	; 1
    15fe:	90 81       	ld	r25, Z
    1600:	90 62       	ori	r25, 0x20	; 32
    1602:	90 83       	st	Z, r25
    1604:	10 92 97 15 	sts	0x1597, r1
    1608:	df 91       	pop	r29
    160a:	cf 91       	pop	r28
    160c:	08 95       	ret

0000160e <__vector_5>:
}


// Interrupt handler
ISR(INT4_vect)
{
    160e:	1f 92       	push	r1
    1610:	0f 92       	push	r0
    1612:	0f b6       	in	r0, 0x3f	; 63
    1614:	0f 92       	push	r0
    1616:	11 24       	eor	r1, r1
    1618:	0b b6       	in	r0, 0x3b	; 59
    161a:	0f 92       	push	r0
    161c:	2f 93       	push	r18
    161e:	3f 93       	push	r19
    1620:	4f 93       	push	r20
    1622:	5f 93       	push	r21
    1624:	6f 93       	push	r22
    1626:	7f 93       	push	r23
    1628:	8f 93       	push	r24
    162a:	9f 93       	push	r25
    162c:	af 93       	push	r26
    162e:	bf 93       	push	r27
    1630:	ef 93       	push	r30
    1632:	ff 93       	push	r31
    1634:	cf 93       	push	r28
    1636:	df 93       	push	r29
    1638:	1f 92       	push	r1
    163a:	cd b7       	in	r28, 0x3d	; 61
    163c:	de b7       	in	r29, 0x3e	; 62
    uint8_t status;
    uint8_t pipe_number;

	DEBUG_2_LOW;
    163e:	e2 e0       	ldi	r30, 0x02	; 2
    1640:	f1 e0       	ldi	r31, 0x01	; 1
    1642:	80 81       	ld	r24, Z
    1644:	8f 7e       	andi	r24, 0xEF	; 239
    1646:	80 83       	st	Z, r24
    CE_LOW();
    1648:	80 81       	ld	r24, Z
    164a:	8f 7d       	andi	r24, 0xDF	; 223
    164c:	80 83       	st	Z, r24

    status = get_status();
    164e:	62 dd       	rcall	.-1340   	; 0x1114 <_ZL10get_statusv>
    1650:	89 83       	std	Y+1, r24	; 0x01

    if (status & _BV(RX_DR))
    1652:	86 ff       	sbrs	r24, 6
    1654:	03 c0       	rjmp	.+6      	; 0x165c <__vector_5+0x4e>
    {
    	pipe_number =  (status & 0xE) >> 1;
    1656:	8e 70       	andi	r24, 0x0E	; 14
    	radio_rxhandler(pipe_number);
    1658:	86 95       	lsr	r24
    165a:	ee d0       	rcall	.+476    	; 0x1838 <_Z15radio_rxhandlerh>
    }
    // We can get the TX_DS or the MAX_RT interrupt, but not both.
    if (status & _BV(TX_DS))
    165c:	89 81       	ldd	r24, Y+1	; 0x01
    165e:	85 ff       	sbrs	r24, 5
    1660:	1b c0       	rjmp	.+54     	; 0x1698 <__vector_5+0x8a>
    {
        // if there's nothing left to transmit, switch back to receive mode.
        transmit_lock = 0;
    1662:	10 92 97 15 	sts	0x1597, r1
        reset_pipe0_address();
    1666:	84 dd       	rcall	.-1272   	; 0x1170 <_ZL19reset_pipe0_addressv>
        set_rx_mode();
    1668:	df dd       	rcall	.-1090   	; 0x1228 <_ZL11set_rx_modev>

    	// indicate in the history that a packet was transmitted successfully by appending a 1.
    	tx_history <<= 1;
    166a:	80 91 1b 02 	lds	r24, 0x021B
    166e:	90 91 1c 02 	lds	r25, 0x021C
    1672:	88 0f       	add	r24, r24
    1674:	99 1f       	adc	r25, r25
    1676:	90 93 1c 02 	sts	0x021C, r25
    167a:	80 93 1b 02 	sts	0x021B, r24
    	tx_history |= 1;
    167e:	80 91 1b 02 	lds	r24, 0x021B
    1682:	90 91 1c 02 	lds	r25, 0x021C
    1686:	81 60       	ori	r24, 0x01	; 1
    1688:	90 93 1c 02 	sts	0x021C, r25
    168c:	80 93 1b 02 	sts	0x021B, r24

    	tx_last_status = RADIO_TX_SUCCESS;
    1690:	81 e0       	ldi	r24, 0x01	; 1
    1692:	80 93 1a 02 	sts	0x021A, r24
    1696:	19 c0       	rjmp	.+50     	; 0x16ca <__vector_5+0xbc>
    }
    else if (status & _BV(MAX_RT))
    1698:	84 ff       	sbrs	r24, 4
    169a:	17 c0       	rjmp	.+46     	; 0x16ca <__vector_5+0xbc>
    {
        send_instruction(FLUSH_TX, NULL, NULL, 0);
    169c:	20 e0       	ldi	r18, 0x00	; 0
    169e:	40 e0       	ldi	r20, 0x00	; 0
    16a0:	50 e0       	ldi	r21, 0x00	; 0
    16a2:	60 e0       	ldi	r22, 0x00	; 0
    16a4:	70 e0       	ldi	r23, 0x00	; 0
    16a6:	81 ee       	ldi	r24, 0xE1	; 225
    16a8:	6d dd       	rcall	.-1318   	; 0x1184 <_ZL16send_instructionhPhS_h>

    	transmit_lock = 0;
    16aa:	10 92 97 15 	sts	0x1597, r1
    	reset_pipe0_address();
    16ae:	60 dd       	rcall	.-1344   	; 0x1170 <_ZL19reset_pipe0_addressv>
		set_rx_mode();
    16b0:	bb dd       	rcall	.-1162   	; 0x1228 <_ZL11set_rx_modev>
    	// indicate in the history that a packet was dropped by appending a 0.
    	tx_history <<= 1;
    16b2:	80 91 1b 02 	lds	r24, 0x021B
    16b6:	90 91 1c 02 	lds	r25, 0x021C
    16ba:	88 0f       	add	r24, r24
    16bc:	99 1f       	adc	r25, r25
    16be:	90 93 1c 02 	sts	0x021C, r25
    16c2:	80 93 1b 02 	sts	0x021B, r24

    	tx_last_status = RADIO_TX_MAX_RT;
    16c6:	10 92 1a 02 	sts	0x021A, r1
    }
	
    // clear the interrupt flags.
	status = _BV(RX_DR) | _BV(TX_DS) | _BV(MAX_RT);
    16ca:	80 e7       	ldi	r24, 0x70	; 112
    16cc:	89 83       	std	Y+1, r24	; 0x01
	set_register(STATUS, &status, 1);
    16ce:	41 e0       	ldi	r20, 0x01	; 1
    16d0:	be 01       	movw	r22, r28
    16d2:	6f 5f       	subi	r22, 0xFF	; 255
    16d4:	7f 4f       	sbci	r23, 0xFF	; 255
    16d6:	87 e0       	ldi	r24, 0x07	; 7
    16d8:	2c dd       	rcall	.-1448   	; 0x1132 <_ZL12set_registerhPhh>
	DEBUG_2_HIGH;
    16da:	e2 e0       	ldi	r30, 0x02	; 2
    16dc:	f1 e0       	ldi	r31, 0x01	; 1
    16de:	80 81       	ld	r24, Z
    16e0:	80 61       	ori	r24, 0x10	; 16
    16e2:	80 83       	st	Z, r24
	
    CE_HIGH();
    16e4:	80 81       	ld	r24, Z
    16e6:	80 62       	ori	r24, 0x20	; 32
    16e8:	80 83       	st	Z, r24
}
    16ea:	0f 90       	pop	r0
    16ec:	df 91       	pop	r29
    16ee:	cf 91       	pop	r28
    16f0:	ff 91       	pop	r31
    16f2:	ef 91       	pop	r30
    16f4:	bf 91       	pop	r27
    16f6:	af 91       	pop	r26
    16f8:	9f 91       	pop	r25
    16fa:	8f 91       	pop	r24
    16fc:	7f 91       	pop	r23
    16fe:	6f 91       	pop	r22
    1700:	5f 91       	pop	r21
    1702:	4f 91       	pop	r20
    1704:	3f 91       	pop	r19
    1706:	2f 91       	pop	r18
    1708:	0f 90       	pop	r0
    170a:	0b be       	out	0x3b, r0	; 59
    170c:	0f 90       	pop	r0
    170e:	0f be       	out	0x3f, r0	; 63
    1710:	0f 90       	pop	r0
    1712:	1f 90       	pop	r1
    1714:	18 95       	reti

00001716 <_Z8SPI_Initv>:
	// The DDR operations are pretty fragile and doing this less awkwardly breaks SPI.  I don't care enough
	// to figure out why right now.  Note that SPI_SS is the actual SPI port's SS pin, which is not necessarily
	// the SS pin that's used for a given slave.  Anything that uses this driver must handle its own slave selection.
	// It must set its SS pin direction to output, set the pin low before doing an SPI operation, and set it high
	// when the SPI operation is complete.
    SPI_DDR &= ~(_BV(SPI_MOSI)|_BV(SPI_MISO)|_BV(SPI_SS)|_BV(SPI_SCK));
    1716:	84 b1       	in	r24, 0x04	; 4
    1718:	80 7f       	andi	r24, 0xF0	; 240
    171a:	84 b9       	out	0x04, r24	; 4
    // Define the following pins as output
    SPI_DDR |= (_BV(SPI_MOSI) | _BV(SPI_SS) | _BV(SPI_SCK));
    171c:	84 b1       	in	r24, 0x04	; 4
    171e:	87 60       	ori	r24, 0x07	; 7
    1720:	84 b9       	out	0x04, r24	; 4
	 * SPR1 | SPR0 - Determines SCK frequency along with the SPI2X bit in SPSR.  See Table 17-4 in hardware manual [p178].
	 * bit 0
	 */

    // Set the AT90's SS pin high during config (this disables the Flash RAM or something)
    SPI_PORT |= _BV(SPI_SS);
    1722:	28 9a       	sbi	0x05, 0	; 5

	SPCR = _BV(SPE) | _BV(MSTR);	// enable SPI, set as master, set prescaler to f(osc)/4
    1724:	80 e5       	ldi	r24, 0x50	; 80
    1726:	8c bd       	out	0x2c, r24	; 44

	SPSR = _BV(SPI2X);							// Double SCK to f(osc)/2 (4 MHz)
    1728:	81 e0       	ldi	r24, 0x01	; 1
    172a:	8d bd       	out	0x2d, r24	; 45

	SPI_PORT &= ~_BV(SPI_SS);
    172c:	28 98       	cbi	0x05, 0	; 5
    172e:	08 95       	ret

00001730 <_Z19SPI_ReadWrite_BlockPhS_h>:
}

void SPI_ReadWrite_Block(uint8_t* data, uint8_t* buffer, uint8_t len)
{
    uint8_t i;
    for (i = 0; i < len; i++) {
    1730:	44 23       	and	r20, r20
    1732:	81 f0       	breq	.+32     	; 0x1754 <_Z19SPI_ReadWrite_BlockPhS_h+0x24>
    1734:	28 2f       	mov	r18, r24
    1736:	a6 2f       	mov	r26, r22
    1738:	b7 2f       	mov	r27, r23
    173a:	e8 2f       	mov	r30, r24
    173c:	f9 2f       	mov	r31, r25
          SPDR = data[i];
    173e:	81 91       	ld	r24, Z+
    1740:	8e bd       	out	0x2e, r24	; 46
          SPI_WAIT();
    1742:	0d b4       	in	r0, 0x2d	; 45
    1744:	07 fe       	sbrs	r0, 7
    1746:	fd cf       	rjmp	.-6      	; 0x1742 <_Z19SPI_ReadWrite_BlockPhS_h+0x12>
          buffer[i] = SPDR;
    1748:	8e b5       	in	r24, 0x2e	; 46
    174a:	8d 93       	st	X+, r24
    174c:	8e 2f       	mov	r24, r30
    174e:	82 1b       	sub	r24, r18
}

void SPI_ReadWrite_Block(uint8_t* data, uint8_t* buffer, uint8_t len)
{
    uint8_t i;
    for (i = 0; i < len; i++) {
    1750:	84 17       	cp	r24, r20
    1752:	a8 f3       	brcs	.-22     	; 0x173e <_Z19SPI_ReadWrite_BlockPhS_h+0xe>
    1754:	08 95       	ret

00001756 <_Z15SPI_Write_BlockPhh>:
}

void SPI_Write_Block(uint8_t* data, uint8_t len)
{
    uint8_t i;
    for (i = 0; i < len; i++) {
    1756:	66 23       	and	r22, r22
    1758:	61 f0       	breq	.+24     	; 0x1772 <_Z15SPI_Write_BlockPhh+0x1c>
    175a:	28 2f       	mov	r18, r24
    175c:	e8 2f       	mov	r30, r24
    175e:	f9 2f       	mov	r31, r25
          SPDR = data[i];
    1760:	81 91       	ld	r24, Z+
    1762:	8e bd       	out	0x2e, r24	; 46
          SPI_WAIT();
    1764:	0d b4       	in	r0, 0x2d	; 45
    1766:	07 fe       	sbrs	r0, 7
    1768:	fd cf       	rjmp	.-6      	; 0x1764 <_Z15SPI_Write_BlockPhh+0xe>
    176a:	8e 2f       	mov	r24, r30
    176c:	82 1b       	sub	r24, r18
}

void SPI_Write_Block(uint8_t* data, uint8_t len)
{
    uint8_t i;
    for (i = 0; i < len; i++) {
    176e:	86 17       	cp	r24, r22
    1770:	b8 f3       	brcs	.-18     	; 0x1760 <_Z15SPI_Write_BlockPhh+0xa>
    1772:	08 95       	ret

00001774 <_Z14SPI_Write_Byteh>:
    }
}

uint8_t SPI_Write_Byte(uint8_t byte)
{
    SPDR = byte;
    1774:	8e bd       	out	0x2e, r24	; 46
    SPI_WAIT();
    1776:	0d b4       	in	r0, 0x2d	; 45
    1778:	07 fe       	sbrs	r0, 7
    177a:	fd cf       	rjmp	.-6      	; 0x1776 <_Z14SPI_Write_Byteh+0x2>
    return SPDR;
    177c:	8e b5       	in	r24, 0x2e	; 46
}
    177e:	08 95       	ret

00001780 <roombaShoot>:
	for(;;)
	{
		cli();
		USART_Send_string("Periodic IR Transmit\n");
		IR_transmit(IR_SHOOT);
		sei();
    1780:	f8 94       	cli
    1782:	8f e2       	ldi	r24, 0x2F	; 47
    1784:	92 e0       	ldi	r25, 0x02	; 2
    1786:	65 d2       	rcall	.+1226   	; 0x1c52 <_Z17USART_Send_stringPKc>
    1788:	81 e4       	ldi	r24, 0x41	; 65
    178a:	0e 94 7d 01 	call	0x2fa	; 0x2fa <_Z11IR_transmith>
    178e:	78 94       	sei
    1790:	80 91 2d 02 	lds	r24, 0x022D
    1794:	81 11       	cpse	r24, r1
    1796:	02 c0       	rjmp	.+4      	; 0x179c <roombaShoot+0x1c>
    1798:	a5 dc       	rcall	.-1718   	; 0x10e4 <Task_Next>
    179a:	f2 cf       	rjmp	.-28     	; 0x1780 <roombaShoot>
    179c:	0e 94 7b 02 	call	0x4f6	; 0x4f6 <Task_Terminate>
    17a0:	ef cf       	rjmp	.-34     	; 0x1780 <roombaShoot>

000017a2 <roomba_Drive>:
    17a2:	0f 93       	push	r16
    17a4:	1f 93       	push	r17
    17a6:	cf 93       	push	r28
    17a8:	df 93       	push	r29
    17aa:	18 2f       	mov	r17, r24
    17ac:	09 2f       	mov	r16, r25
    17ae:	c6 2f       	mov	r28, r22
    17b0:	d7 2f       	mov	r29, r23
    17b2:	89 e8       	ldi	r24, 0x89	; 137
    17b4:	cd d1       	rcall	.+922    	; 0x1b50 <_Z16Roomba_Send_Byteh>
    17b6:	80 2f       	mov	r24, r16
    17b8:	cb d1       	rcall	.+918    	; 0x1b50 <_Z16Roomba_Send_Byteh>
    17ba:	81 2f       	mov	r24, r17
    17bc:	c9 d1       	rcall	.+914    	; 0x1b50 <_Z16Roomba_Send_Byteh>
    17be:	8d 2f       	mov	r24, r29
    17c0:	c7 d1       	rcall	.+910    	; 0x1b50 <_Z16Roomba_Send_Byteh>
    17c2:	8c 2f       	mov	r24, r28
    17c4:	c5 d1       	rcall	.+906    	; 0x1b50 <_Z16Roomba_Send_Byteh>
    17c6:	df 91       	pop	r29
    17c8:	cf 91       	pop	r28
    17ca:	1f 91       	pop	r17
    17cc:	0f 91       	pop	r16
    17ce:	08 95       	ret

000017d0 <spinAndBlink>:
    17d0:	84 b1       	in	r24, 0x04	; 4
    17d2:	85 b9       	out	0x05, r24	; 5
    17d4:	6f ef       	ldi	r22, 0xFF	; 255
    17d6:	7f ef       	ldi	r23, 0xFF	; 255
    17d8:	84 ef       	ldi	r24, 0xF4	; 244
    17da:	91 e0       	ldi	r25, 0x01	; 1
    17dc:	e2 df       	rcall	.-60     	; 0x17a2 <roomba_Drive>
    17de:	2f ef       	ldi	r18, 0xFF	; 255
    17e0:	89 e6       	ldi	r24, 0x69	; 105
    17e2:	98 e1       	ldi	r25, 0x18	; 24
    17e4:	21 50       	subi	r18, 0x01	; 1
    17e6:	80 40       	sbci	r24, 0x00	; 0
    17e8:	90 40       	sbci	r25, 0x00	; 0
    17ea:	e1 f7       	brne	.-8      	; 0x17e4 <spinAndBlink+0x14>
    17ec:	00 c0       	rjmp	.+0      	; 0x17ee <spinAndBlink+0x1e>
    17ee:	00 00       	nop
    17f0:	2f ef       	ldi	r18, 0xFF	; 255
    17f2:	89 e6       	ldi	r24, 0x69	; 105
    17f4:	98 e1       	ldi	r25, 0x18	; 24
    17f6:	21 50       	subi	r18, 0x01	; 1
    17f8:	80 40       	sbci	r24, 0x00	; 0
    17fa:	90 40       	sbci	r25, 0x00	; 0
    17fc:	e1 f7       	brne	.-8      	; 0x17f6 <spinAndBlink+0x26>
    17fe:	00 c0       	rjmp	.+0      	; 0x1800 <spinAndBlink+0x30>
    1800:	00 00       	nop
    1802:	2f ef       	ldi	r18, 0xFF	; 255
    1804:	89 e6       	ldi	r24, 0x69	; 105
    1806:	98 e1       	ldi	r25, 0x18	; 24
    1808:	21 50       	subi	r18, 0x01	; 1
    180a:	80 40       	sbci	r24, 0x00	; 0
    180c:	90 40       	sbci	r25, 0x00	; 0
    180e:	e1 f7       	brne	.-8      	; 0x1808 <spinAndBlink+0x38>
    1810:	00 c0       	rjmp	.+0      	; 0x1812 <spinAndBlink+0x42>
    1812:	00 00       	nop
    1814:	2f ef       	ldi	r18, 0xFF	; 255
    1816:	89 e6       	ldi	r24, 0x69	; 105
    1818:	98 e1       	ldi	r25, 0x18	; 24
    181a:	21 50       	subi	r18, 0x01	; 1
    181c:	80 40       	sbci	r24, 0x00	; 0
    181e:	90 40       	sbci	r25, 0x00	; 0
    1820:	e1 f7       	brne	.-8      	; 0x181a <spinAndBlink+0x4a>
    1822:	00 c0       	rjmp	.+0      	; 0x1824 <spinAndBlink+0x54>
    1824:	00 00       	nop
    1826:	60 e0       	ldi	r22, 0x00	; 0
    1828:	70 e0       	ldi	r23, 0x00	; 0
    182a:	80 e0       	ldi	r24, 0x00	; 0
    182c:	90 e0       	ldi	r25, 0x00	; 0
    182e:	b9 df       	rcall	.-142    	; 0x17a2 <roomba_Drive>
    1830:	10 92 2d 02 	sts	0x022D, r1
    1834:	15 b8       	out	0x05, r1	; 5
    1836:	08 95       	ret

00001838 <_Z15radio_rxhandlerh>:
    1838:	60 e0       	ldi	r22, 0x00	; 0
    183a:	70 e0       	ldi	r23, 0x00	; 0
    183c:	80 91 a0 15 	lds	r24, 0x15A0
    1840:	90 91 a1 15 	lds	r25, 0x15A1
    1844:	3b cc       	rjmp	.-1930   	; 0x10bc <Service_Publish>
    1846:	08 95       	ret

00001848 <ir_rxhandler>:
    1848:	1f 93       	push	r17
    184a:	cf 93       	push	r28
    184c:	df 93       	push	r29
    184e:	cd b7       	in	r28, 0x3d	; 61
    1850:	de b7       	in	r29, 0x3e	; 62
    1852:	a0 97       	sbiw	r28, 0x20	; 32
    1854:	0f b6       	in	r0, 0x3f	; 63
    1856:	f8 94       	cli
    1858:	de bf       	out	0x3e, r29	; 62
    185a:	0f be       	out	0x3f, r0	; 63
    185c:	cd bf       	out	0x3d, r28	; 61
    185e:	85 e4       	ldi	r24, 0x45	; 69
    1860:	92 e0       	ldi	r25, 0x02	; 2
    1862:	f7 d1       	rcall	.+1006   	; 0x1c52 <_Z17USART_Send_stringPKc>
    1864:	0e 94 9d 01 	call	0x33a	; 0x33a <_Z10IR_getLastv>
    1868:	18 2f       	mov	r17, r24
    186a:	90 e0       	ldi	r25, 0x00	; 0
    186c:	00 d2       	rcall	.+1024   	; 0x1c6e <_Z14USART_Send_intj>
    186e:	86 ea       	ldi	r24, 0xA6	; 166
    1870:	92 e0       	ldi	r25, 0x02	; 2
    1872:	ef d1       	rcall	.+990    	; 0x1c52 <_Z17USART_Send_stringPKc>
    1874:	60 e0       	ldi	r22, 0x00	; 0
    1876:	70 e0       	ldi	r23, 0x00	; 0
    1878:	80 91 a0 15 	lds	r24, 0x15A0
    187c:	90 91 a1 15 	lds	r25, 0x15A1
    1880:	1d dc       	rcall	.-1990   	; 0x10bc <Service_Publish>
    1882:	11 34       	cpi	r17, 0x41	; 65
    1884:	79 f4       	brne	.+30     	; 0x18a4 <ir_rxhandler+0x5c>
    1886:	83 e5       	ldi	r24, 0x53	; 83
    1888:	92 e0       	ldi	r25, 0x02	; 2
    188a:	e3 d1       	rcall	.+966    	; 0x1c52 <_Z17USART_Send_stringPKc>
    188c:	84 e1       	ldi	r24, 0x14	; 20
    188e:	92 e0       	ldi	r25, 0x02	; 2
    1890:	f5 dd       	rcall	.-1046   	; 0x147c <_Z17Radio_Set_Tx_AddrPh>
    1892:	85 e0       	ldi	r24, 0x05	; 5
    1894:	89 83       	std	Y+1, r24	; 0x01
    1896:	80 91 2e 02 	lds	r24, 0x022E
    189a:	8c 83       	std	Y+4, r24	; 0x04
    189c:	61 e0       	ldi	r22, 0x01	; 1
    189e:	ce 01       	movw	r24, r28
    18a0:	01 96       	adiw	r24, 0x01	; 1
    18a2:	2b de       	rcall	.-938    	; 0x14fa <_Z14Radio_TransmitP3_rp14_radio_tx_wait>
    18a4:	a0 96       	adiw	r28, 0x20	; 32
    18a6:	0f b6       	in	r0, 0x3f	; 63
    18a8:	f8 94       	cli
    18aa:	de bf       	out	0x3e, r29	; 62
    18ac:	0f be       	out	0x3f, r0	; 63
    18ae:	cd bf       	out	0x3d, r28	; 61
    18b0:	df 91       	pop	r29
    18b2:	cf 91       	pop	r28
    18b4:	1f 91       	pop	r17
    18b6:	08 95       	ret

000018b8 <handleStatusPacket>:
    18b8:	0f 93       	push	r16
    18ba:	1f 93       	push	r17
    18bc:	20 91 2d 02 	lds	r18, 0x022D
    18c0:	22 30       	cpi	r18, 0x02	; 2
    18c2:	71 f4       	brne	.+28     	; 0x18e0 <handleStatusPacket+0x28>
    18c4:	fc 01       	movw	r30, r24
    18c6:	32 8d       	ldd	r19, Z+26	; 0x1a
    18c8:	20 91 2e 02 	lds	r18, 0x022E
    18cc:	32 13       	cpse	r19, r18
    18ce:	08 c0       	rjmp	.+16     	; 0x18e0 <handleStatusPacket+0x28>
    18d0:	0c c0       	rjmp	.+24     	; 0x18ea <handleStatusPacket+0x32>
    18d2:	fc 01       	movw	r30, r24
    18d4:	92 8d       	ldd	r25, Z+26	; 0x1a
    18d6:	80 91 2e 02 	lds	r24, 0x022E
    18da:	98 13       	cpse	r25, r24
    18dc:	1e c0       	rjmp	.+60     	; 0x191a <handleStatusPacket+0x62>
    18de:	21 c0       	rjmp	.+66     	; 0x1922 <handleStatusPacket+0x6a>
    18e0:	20 91 2d 02 	lds	r18, 0x022D
    18e4:	22 23       	and	r18, r18
    18e6:	a9 f3       	breq	.-22     	; 0x18d2 <handleStatusPacket+0x1a>
    18e8:	1c c0       	rjmp	.+56     	; 0x1922 <handleStatusPacket+0x6a>
    18ea:	81 e0       	ldi	r24, 0x01	; 1
    18ec:	80 93 2d 02 	sts	0x022D, r24
    18f0:	60 e0       	ldi	r22, 0x00	; 0
    18f2:	70 e0       	ldi	r23, 0x00	; 0
    18f4:	88 ee       	ldi	r24, 0xE8	; 232
    18f6:	9b e0       	ldi	r25, 0x0B	; 11
    18f8:	44 db       	rcall	.-2424   	; 0xf82 <Task_Create_System>
    18fa:	84 b1       	in	r24, 0x04	; 4
    18fc:	85 b9       	out	0x05, r24	; 5
    18fe:	10 92 2d 02 	sts	0x022D, r1
    1902:	08 ec       	ldi	r16, 0xC8	; 200
    1904:	10 e0       	ldi	r17, 0x00	; 0
    1906:	23 ec       	ldi	r18, 0xC3	; 195
    1908:	30 e0       	ldi	r19, 0x00	; 0
    190a:	48 ec       	ldi	r20, 0xC8	; 200
    190c:	50 e0       	ldi	r21, 0x00	; 0
    190e:	60 e0       	ldi	r22, 0x00	; 0
    1910:	70 e0       	ldi	r23, 0x00	; 0
    1912:	80 ec       	ldi	r24, 0xC0	; 192
    1914:	9b e0       	ldi	r25, 0x0B	; 11
    1916:	6b db       	rcall	.-2346   	; 0xfee <Task_Create_Periodic>
    1918:	04 c0       	rjmp	.+8      	; 0x1922 <handleStatusPacket+0x6a>
    191a:	82 e0       	ldi	r24, 0x02	; 2
    191c:	80 93 2d 02 	sts	0x022D, r24
    1920:	15 b8       	out	0x05, r1	; 5
    1922:	1f 91       	pop	r17
    1924:	0f 91       	pop	r16
    1926:	08 95       	ret

00001928 <handleRoombaPacket>:
    1928:	ef 92       	push	r14
    192a:	ff 92       	push	r15
    192c:	0f 93       	push	r16
    192e:	1f 93       	push	r17
    1930:	cf 93       	push	r28
    1932:	df 93       	push	r29
    1934:	7c 01       	movw	r14, r24
    1936:	8c e7       	ldi	r24, 0x7C	; 124
    1938:	92 e0       	ldi	r25, 0x02	; 2
    193a:	8b d1       	rcall	.+790    	; 0x1c52 <_Z17USART_Send_stringPKc>
    193c:	83 b3       	in	r24, 0x13	; 19
    193e:	84 bb       	out	0x14, r24	; 20
    1940:	14 ba       	out	0x14, r1	; 20
    1942:	f7 01       	movw	r30, r14
    1944:	80 85       	ldd	r24, Z+8	; 0x08
    1946:	80 38       	cpi	r24, 0x80	; 128
    1948:	e9 f0       	breq	.+58     	; 0x1984 <handleRoombaPacket+0x5c>
    194a:	9d e7       	ldi	r25, 0x7D	; 125
    194c:	98 0f       	add	r25, r24
    194e:	92 30       	cpi	r25, 0x02	; 2
    1950:	c8 f0       	brcs	.+50     	; 0x1984 <handleRoombaPacket+0x5c>
    1952:	8e 38       	cpi	r24, 0x8E	; 142
    1954:	b9 f0       	breq	.+46     	; 0x1984 <handleRoombaPacket+0x5c>
    1956:	fc d0       	rcall	.+504    	; 0x1b50 <_Z16Roomba_Send_Byteh>
    1958:	f7 01       	movw	r30, r14
    195a:	81 85       	ldd	r24, Z+9	; 0x09
    195c:	88 23       	and	r24, r24
    195e:	81 f0       	breq	.+32     	; 0x1980 <handleRoombaPacket+0x58>
    1960:	87 01       	movw	r16, r14
    1962:	06 5f       	subi	r16, 0xF6	; 246
    1964:	1f 4f       	sbci	r17, 0xFF	; 255
    1966:	c0 e0       	ldi	r28, 0x00	; 0
    1968:	d0 e0       	ldi	r29, 0x00	; 0
    196a:	f8 01       	movw	r30, r16
    196c:	81 91       	ld	r24, Z+
    196e:	8f 01       	movw	r16, r30
    1970:	ef d0       	rcall	.+478    	; 0x1b50 <_Z16Roomba_Send_Byteh>
    1972:	21 96       	adiw	r28, 0x01	; 1
    1974:	f7 01       	movw	r30, r14
    1976:	21 85       	ldd	r18, Z+9	; 0x09
    1978:	30 e0       	ldi	r19, 0x00	; 0
    197a:	c2 17       	cp	r28, r18
    197c:	d3 07       	cpc	r29, r19
    197e:	ac f3       	brlt	.-22     	; 0x196a <handleRoombaPacket+0x42>
    1980:	c7 01       	movw	r24, r14
    1982:	9a df       	rcall	.-204    	; 0x18b8 <handleStatusPacket>
    1984:	df 91       	pop	r29
    1986:	cf 91       	pop	r28
    1988:	1f 91       	pop	r17
    198a:	0f 91       	pop	r16
    198c:	ff 90       	pop	r15
    198e:	ef 90       	pop	r14
    1990:	08 95       	ret

00001992 <handleIRPacket>:
    1992:	cf 93       	push	r28
    1994:	df 93       	push	r29
    1996:	ec 01       	movw	r28, r24
    1998:	84 e9       	ldi	r24, 0x94	; 148
    199a:	92 e0       	ldi	r25, 0x02	; 2
    199c:	5a d1       	rcall	.+692    	; 0x1c52 <_Z17USART_Send_stringPKc>
    199e:	88 85       	ldd	r24, Y+8	; 0x08
    19a0:	81 11       	cpse	r24, r1
    19a2:	08 c0       	rjmp	.+16     	; 0x19b4 <handleIRPacket+0x22>
    19a4:	f8 94       	cli
    19a6:	88 ea       	ldi	r24, 0xA8	; 168
    19a8:	92 e0       	ldi	r25, 0x02	; 2
    19aa:	53 d1       	rcall	.+678    	; 0x1c52 <_Z17USART_Send_stringPKc>
    19ac:	89 85       	ldd	r24, Y+9	; 0x09
    19ae:	0e 94 7d 01 	call	0x2fa	; 0x2fa <_Z11IR_transmith>
    19b2:	78 94       	sei
    19b4:	ce 01       	movw	r24, r28
    19b6:	80 df       	rcall	.-256    	; 0x18b8 <handleStatusPacket>
    19b8:	df 91       	pop	r29
    19ba:	cf 91       	pop	r28
    19bc:	08 95       	ret

000019be <rr_roomba_controler>:
    19be:	cf 93       	push	r28
    19c0:	df 93       	push	r29
    19c2:	cd b7       	in	r28, 0x3d	; 61
    19c4:	de b7       	in	r29, 0x3e	; 62
    19c6:	a2 97       	sbiw	r28, 0x22	; 34
    19c8:	0f b6       	in	r0, 0x3f	; 63
    19ca:	f8 94       	cli
    19cc:	de bf       	out	0x3e, r29	; 62
    19ce:	0f be       	out	0x3f, r0	; 63
    19d0:	cd bf       	out	0x3d, r28	; 61
    19d2:	7c d0       	rcall	.+248    	; 0x1acc <_Z11Roomba_Initv>
    19d4:	be 01       	movw	r22, r28
    19d6:	6f 5d       	subi	r22, 0xDF	; 223
    19d8:	7f 4f       	sbci	r23, 0xFF	; 255
    19da:	80 91 a0 15 	lds	r24, 0x15A0
    19de:	90 91 a1 15 	lds	r25, 0x15A1
    19e2:	5a db       	rcall	.-2380   	; 0x1098 <Service_Subscribe>
    19e4:	89 e9       	ldi	r24, 0x99	; 153
    19e6:	95 e1       	ldi	r25, 0x15	; 21
    19e8:	98 d0       	rcall	.+304    	; 0x1b1a <_Z11timer_resetPV8os_timer>
    19ea:	89 e9       	ldi	r24, 0x99	; 153
    19ec:	95 e1       	ldi	r25, 0x15	; 21
    19ee:	9e d0       	rcall	.+316    	; 0x1b2c <_Z12timer_resumePV8os_timer>
    19f0:	80 91 98 15 	lds	r24, 0x1598
    19f4:	88 23       	and	r24, r24
    19f6:	19 f0       	breq	.+6      	; 0x19fe <rr_roomba_controler+0x40>
    19f8:	10 92 98 15 	sts	0x1598, r1
    19fc:	67 d0       	rcall	.+206    	; 0x1acc <_Z11Roomba_Initv>
    19fe:	ce 01       	movw	r24, r28
    1a00:	01 96       	adiw	r24, 0x01	; 1
    1a02:	d0 dd       	rcall	.-1120   	; 0x15a4 <_Z13Radio_ReceiveP3_rp>
    1a04:	18 2f       	mov	r17, r24
    1a06:	8d ef       	ldi	r24, 0xFD	; 253
    1a08:	81 0f       	add	r24, r17
    1a0a:	82 30       	cpi	r24, 0x02	; 2
    1a0c:	60 f4       	brcc	.+24     	; 0x1a26 <rr_roomba_controler+0x68>
    1a0e:	89 81       	ldd	r24, Y+1	; 0x01
    1a10:	81 11       	cpse	r24, r1
    1a12:	04 c0       	rjmp	.+8      	; 0x1a1c <rr_roomba_controler+0x5e>
    1a14:	ce 01       	movw	r24, r28
    1a16:	01 96       	adiw	r24, 0x01	; 1
    1a18:	87 df       	rcall	.-242    	; 0x1928 <handleRoombaPacket>
    1a1a:	05 c0       	rjmp	.+10     	; 0x1a26 <rr_roomba_controler+0x68>
    1a1c:	82 30       	cpi	r24, 0x02	; 2
    1a1e:	19 f4       	brne	.+6      	; 0x1a26 <rr_roomba_controler+0x68>
    1a20:	ce 01       	movw	r24, r28
    1a22:	01 96       	adiw	r24, 0x01	; 1
    1a24:	b6 df       	rcall	.-148    	; 0x1992 <handleIRPacket>
    1a26:	13 30       	cpi	r17, 0x03	; 3
    1a28:	51 f3       	breq	.-44     	; 0x19fe <rr_roomba_controler+0x40>
    1a2a:	d4 cf       	rjmp	.-88     	; 0x19d4 <rr_roomba_controler+0x16>

00001a2c <r_main>:
	}
}

int r_main(void)
{
	USART_Init(MYUBRR); // Initializes the serial communication
    1a2c:	87 e6       	ldi	r24, 0x67	; 103
    1a2e:	90 e0       	ldi	r25, 0x00	; 0
    1a30:	fd d0       	rcall	.+506    	; 0x1c2c <_Z10USART_Initj>
	// Pin 12: Port B. It LED
	DDRB = (uint8_t)(_BV(DDB6));
    1a32:	80 e4       	ldi	r24, 0x40	; 64
    1a34:	84 b9       	out	0x04, r24	; 4
	PORTB = 0;
    1a36:	15 b8       	out	0x05, r1	; 5
	
	// RR Controlling Roomba: Pin 41
	DDRG = (uint8_t)(_BV(DDG0));
    1a38:	81 e0       	ldi	r24, 0x01	; 1
    1a3a:	83 bb       	out	0x13, r24	; 19
	PORTG = 0;
    1a3c:	14 ba       	out	0x14, r1	; 20
	
	//Turn off radio power.
	DDRL |= (1 << PL2);
    1a3e:	ea e0       	ldi	r30, 0x0A	; 10
    1a40:	f1 e0       	ldi	r31, 0x01	; 1
    1a42:	80 81       	ld	r24, Z
    1a44:	84 60       	ori	r24, 0x04	; 4
    1a46:	80 83       	st	Z, r24
	PORTL &= ~(1<<PL2);
    1a48:	eb e0       	ldi	r30, 0x0B	; 11
    1a4a:	f1 e0       	ldi	r31, 0x01	; 1
    1a4c:	80 81       	ld	r24, Z
    1a4e:	8b 7f       	andi	r24, 0xFB	; 251
    1a50:	80 83       	st	Z, r24
	#else
		//round up by default
		__ticks_dc = (uint32_t)(ceil(fabs(__tmp)));
	#endif

	__builtin_avr_delay_cycles(__ticks_dc);
    1a52:	2f ef       	ldi	r18, 0xFF	; 255
    1a54:	89 e6       	ldi	r24, 0x69	; 105
    1a56:	98 e1       	ldi	r25, 0x18	; 24
    1a58:	21 50       	subi	r18, 0x01	; 1
    1a5a:	80 40       	sbci	r24, 0x00	; 0
    1a5c:	90 40       	sbci	r25, 0x00	; 0
    1a5e:	e1 f7       	brne	.-8      	; 0x1a58 <r_main+0x2c>
    1a60:	00 c0       	rjmp	.+0      	; 0x1a62 <r_main+0x36>
    1a62:	00 00       	nop
	_delay_ms(500);
	PORTL |= (1<<PL2);
    1a64:	80 81       	ld	r24, Z
    1a66:	84 60       	ori	r24, 0x04	; 4
    1a68:	80 83       	st	Z, r24
    1a6a:	2f ef       	ldi	r18, 0xFF	; 255
    1a6c:	89 e6       	ldi	r24, 0x69	; 105
    1a6e:	98 e1       	ldi	r25, 0x18	; 24
    1a70:	21 50       	subi	r18, 0x01	; 1
    1a72:	80 40       	sbci	r24, 0x00	; 0
    1a74:	90 40       	sbci	r25, 0x00	; 0
    1a76:	e1 f7       	brne	.-8      	; 0x1a70 <r_main+0x44>
    1a78:	00 c0       	rjmp	.+0      	; 0x1a7a <r_main+0x4e>
    1a7a:	00 00       	nop
	_delay_ms(500);
	
	//Initialize radio.
	cli();
    1a7c:	f8 94       	cli
	Radio_Init();
    1a7e:	f6 db       	rcall	.-2068   	; 0x126c <_Z10Radio_Initv>
	IR_init();
    1a80:	0e 94 9c 00 	call	0x138	; 0x138 <_Z7IR_initv>
	Radio_Configure_Rx(RADIO_PIPE_0, ROOMBA_ADDRESSES[roomba_num], ENABLE);
    1a84:	80 91 2e 02 	lds	r24, 0x022E
    1a88:	90 e0       	ldi	r25, 0x00	; 0
    1a8a:	bc 01       	movw	r22, r24
    1a8c:	66 0f       	add	r22, r22
    1a8e:	77 1f       	adc	r23, r23
    1a90:	66 0f       	add	r22, r22
    1a92:	77 1f       	adc	r23, r23
    1a94:	86 0f       	add	r24, r22
    1a96:	97 1f       	adc	r25, r23
    1a98:	bc 01       	movw	r22, r24
    1a9a:	60 50       	subi	r22, 0x00	; 0
    1a9c:	7e 4f       	sbci	r23, 0xFE	; 254
    1a9e:	41 e0       	ldi	r20, 0x01	; 1
    1aa0:	80 e0       	ldi	r24, 0x00	; 0
    1aa2:	62 dc       	rcall	.-1852   	; 0x1368 <_Z18Radio_Configure_Rx11_radio_pipePh3_ed>
	Radio_Configure(RADIO_2MBPS, RADIO_HIGHEST_POWER);
    1aa4:	63 e0       	ldi	r22, 0x03	; 3
    1aa6:	81 e0       	ldi	r24, 0x01	; 1
    1aa8:	fe dc       	rcall	.-1540   	; 0x14a6 <_Z15Radio_Configure9_radio_dr15_radio_tx_power>
	sei();
    1aaa:	78 94       	sei
	
	radio_receive_service = Service_Init();
    1aac:	e1 da       	rcall	.-2622   	; 0x1070 <Service_Init>
    1aae:	90 93 a1 15 	sts	0x15A1, r25
    1ab2:	80 93 a0 15 	sts	0x15A0, r24
	ir_receive_service = Service_Init();
    1ab6:	dc da       	rcall	.-2632   	; 0x1070 <Service_Init>
    1ab8:	90 93 9f 15 	sts	0x159F, r25
    1abc:	80 93 9e 15 	sts	0x159E, r24
	Task_Create_RR(rr_roomba_controler,0);
    1ac0:	60 e0       	ldi	r22, 0x00	; 0
    1ac2:	70 e0       	ldi	r23, 0x00	; 0
    1ac4:	8f ed       	ldi	r24, 0xDF	; 223
    1ac6:	9c e0       	ldi	r25, 0x0C	; 12
    1ac8:	77 ca       	rjmp	.-2834   	; 0xfb8 <Task_Create_RR>
 	
	// Test SHooter 
	// Task_Create_Periodic(roombaShoot,0,100,95,50);
	// current_roomba_status = ROOMBA_IT;
    1aca:	08 95       	ret

00001acc <_Z11Roomba_Initv>:
	// At 8 MHz, the AT90 generates a 57600 bps signal with a framing error rate of over 2%, which means that more than
	// 1 out of every 50 bits is wrong.  The fastest bitrate with a low error rate that the Roomba supports is
	// 38400 bps (0.2% error rate, or 1 bit out of every 500).

	// Try 57.6 kbps to start (this is the Roomba's default baud rate after the battery is installed).
	Roomba_UART_Init(UART_115200);
    1acc:	83 e0       	ldi	r24, 0x03	; 3
    1ace:	48 d0       	rcall	.+144    	; 0x1b60 <_Z16Roomba_UART_Init9_uart_bps>

	// Try to start the SCI
	Roomba_Send_Byte(START);
    1ad0:	80 e8       	ldi	r24, 0x80	; 128
    1ad2:	3e d0       	rcall	.+124    	; 0x1b50 <_Z16Roomba_Send_Byteh>
    1ad4:	87 e8       	ldi	r24, 0x87	; 135
    1ad6:	93 e1       	ldi	r25, 0x13	; 19
    1ad8:	01 97       	sbiw	r24, 0x01	; 1
    1ada:	f1 f7       	brne	.-4      	; 0x1ad8 <_Z11Roomba_Initv+0xc>
    1adc:	00 c0       	rjmp	.+0      	; 0x1ade <_Z11Roomba_Initv+0x12>
    1ade:	00 00       	nop
	_delay_ms(20);

	// change the baud rate to 38400 bps.  Have to wait for 100 ms after changing the baud rate.
	Roomba_Send_Byte(BAUD);
    1ae0:	81 e8       	ldi	r24, 0x81	; 129
    1ae2:	36 d0       	rcall	.+108    	; 0x1b50 <_Z16Roomba_Send_Byteh>
	Roomba_Send_Byte(ROOMBA_19200BPS);
    1ae4:	87 e0       	ldi	r24, 0x07	; 7
    1ae6:	34 d0       	rcall	.+104    	; 0x1b50 <_Z16Roomba_Send_Byteh>
    1ae8:	87 ea       	ldi	r24, 0xA7	; 167
    1aea:	91 e6       	ldi	r25, 0x61	; 97
    1aec:	01 97       	sbiw	r24, 0x01	; 1
    1aee:	f1 f7       	brne	.-4      	; 0x1aec <_Z11Roomba_Initv+0x20>
    1af0:	00 c0       	rjmp	.+0      	; 0x1af2 <_Z11Roomba_Initv+0x26>
    1af2:	00 00       	nop
	_delay_ms(100);		// this delay will not work on old versions of WinAVR (new versions will see reduced but
						// still acceptable resolution; see _delay_ms definition)

	// change the AT90's UART clock
	Roomba_UART_Init(UART_19200);
    1af4:	80 e0       	ldi	r24, 0x00	; 0
    1af6:	34 d0       	rcall	.+104    	; 0x1b60 <_Z16Roomba_UART_Init9_uart_bps>

	// start the SCI again in case the first start didn't go through.
	Roomba_Send_Byte(START);
    1af8:	80 e8       	ldi	r24, 0x80	; 128
    1afa:	2a d0       	rcall	.+84     	; 0x1b50 <_Z16Roomba_Send_Byteh>
    1afc:	87 e8       	ldi	r24, 0x87	; 135
    1afe:	93 e1       	ldi	r25, 0x13	; 19
    1b00:	01 97       	sbiw	r24, 0x01	; 1
    1b02:	f1 f7       	brne	.-4      	; 0x1b00 <_Z11Roomba_Initv+0x34>
    1b04:	00 c0       	rjmp	.+0      	; 0x1b06 <_Z11Roomba_Initv+0x3a>
    1b06:	00 00       	nop
	_delay_ms(20);

	// finally put the Roomba into safe mode.
	Roomba_Send_Byte(SAFE);
    1b08:	83 e8       	ldi	r24, 0x83	; 131
    1b0a:	22 d0       	rcall	.+68     	; 0x1b50 <_Z16Roomba_Send_Byteh>
    1b0c:	87 e8       	ldi	r24, 0x87	; 135
    1b0e:	93 e1       	ldi	r25, 0x13	; 19
    1b10:	01 97       	sbiw	r24, 0x01	; 1
    1b12:	f1 f7       	brne	.-4      	; 0x1b10 <_Z11Roomba_Initv+0x44>
    1b14:	00 c0       	rjmp	.+0      	; 0x1b16 <_Z11Roomba_Initv+0x4a>
    1b16:	00 00       	nop
    1b18:	08 95       	ret

00001b1a <_Z11timer_resetPV8os_timer>:
		temp = (current_time - timer->last_update);
		timer->elapsed_time += temp;
	}
	
	SREG = sreg;	
}
    1b1a:	2f b7       	in	r18, 0x3f	; 63
    1b1c:	f8 94       	cli
    1b1e:	31 e0       	ldi	r19, 0x01	; 1
    1b20:	fc 01       	movw	r30, r24
    1b22:	34 83       	std	Z+4, r19	; 0x04
    1b24:	11 82       	std	Z+1, r1	; 0x01
    1b26:	10 82       	st	Z, r1
    1b28:	2f bf       	out	0x3f, r18	; 63
    1b2a:	08 95       	ret

00001b2c <_Z12timer_resumePV8os_timer>:
/**
Resumes a timer so it continues counting from where it left off, skipping any
	time it was paused.
	@param timer	The address of the timer to be resumed.
*/
void timer_resume(volatile OS_TIMER* timer) {
    1b2c:	1f 93       	push	r17
    1b2e:	cf 93       	push	r28
    1b30:	df 93       	push	r29
    1b32:	ec 01       	movw	r28, r24
	
	uint8_t sreg;
	sreg = SREG;
    1b34:	1f b7       	in	r17, 0x3f	; 63
	cli();	
    1b36:	f8 94       	cli
	
	if(timer->paused){
    1b38:	8c 81       	ldd	r24, Y+4	; 0x04
    1b3a:	88 23       	and	r24, r24
    1b3c:	21 f0       	breq	.+8      	; 0x1b46 <_Z12timer_resumePV8os_timer+0x1a>
		timer->paused = 0;
    1b3e:	1c 82       	std	Y+4, r1	; 0x04
		timer->last_update = Now();		
    1b40:	80 da       	rcall	.-2816   	; 0x1042 <Now>
    1b42:	9b 83       	std	Y+3, r25	; 0x03
    1b44:	8a 83       	std	Y+2, r24	; 0x02
	}	
	
	SREG = sreg;
    1b46:	1f bf       	out	0x3f, r17	; 63
    1b48:	df 91       	pop	r29
    1b4a:	cf 91       	pop	r28
    1b4c:	1f 91       	pop	r17
    1b4e:	08 95       	ret

00001b50 <_Z16Roomba_Send_Byteh>:
	return uart_buffer_index;
}

void uart_reset_receive(void)
{
	uart_buffer_index = 0;
    1b50:	e8 ec       	ldi	r30, 0xC8	; 200
    1b52:	f0 e0       	ldi	r31, 0x00	; 0
    1b54:	90 81       	ld	r25, Z
    1b56:	95 ff       	sbrs	r25, 5
    1b58:	fd cf       	rjmp	.-6      	; 0x1b54 <_Z16Roomba_Send_Byteh+0x4>
    1b5a:	80 93 ce 00 	sts	0x00CE, r24
    1b5e:	08 95       	ret

00001b60 <_Z16Roomba_UART_Init9_uart_bps>:
    1b60:	2f b7       	in	r18, 0x3f	; 63
    1b62:	f8 94       	cli
    1b64:	e5 e6       	ldi	r30, 0x65	; 101
    1b66:	f0 e0       	ldi	r31, 0x00	; 0
    1b68:	90 81       	ld	r25, Z
    1b6a:	9e 7f       	andi	r25, 0xFE	; 254
    1b6c:	90 83       	st	Z, r25
    1b6e:	81 30       	cpi	r24, 0x01	; 1
    1b70:	69 f0       	breq	.+26     	; 0x1b8c <_Z16Roomba_UART_Init9_uart_bps+0x2c>
    1b72:	28 f0       	brcs	.+10     	; 0x1b7e <_Z16Roomba_UART_Init9_uart_bps+0x1e>
    1b74:	82 30       	cpi	r24, 0x02	; 2
    1b76:	89 f0       	breq	.+34     	; 0x1b9a <_Z16Roomba_UART_Init9_uart_bps+0x3a>
    1b78:	83 30       	cpi	r24, 0x03	; 3
    1b7a:	b1 f0       	breq	.+44     	; 0x1ba8 <_Z16Roomba_UART_Init9_uart_bps+0x48>
    1b7c:	1c c0       	rjmp	.+56     	; 0x1bb6 <_Z16Roomba_UART_Init9_uart_bps+0x56>
    1b7e:	83 e3       	ldi	r24, 0x33	; 51
    1b80:	90 e0       	ldi	r25, 0x00	; 0
    1b82:	90 93 cd 00 	sts	0x00CD, r25
    1b86:	80 93 cc 00 	sts	0x00CC, r24
    1b8a:	1b c0       	rjmp	.+54     	; 0x1bc2 <_Z16Roomba_UART_Init9_uart_bps+0x62>
    1b8c:	89 e1       	ldi	r24, 0x19	; 25
    1b8e:	90 e0       	ldi	r25, 0x00	; 0
    1b90:	90 93 cd 00 	sts	0x00CD, r25
    1b94:	80 93 cc 00 	sts	0x00CC, r24
    1b98:	14 c0       	rjmp	.+40     	; 0x1bc2 <_Z16Roomba_UART_Init9_uart_bps+0x62>
    1b9a:	80 e1       	ldi	r24, 0x10	; 16
    1b9c:	90 e0       	ldi	r25, 0x00	; 0
    1b9e:	90 93 cd 00 	sts	0x00CD, r25
    1ba2:	80 93 cc 00 	sts	0x00CC, r24
    1ba6:	0d c0       	rjmp	.+26     	; 0x1bc2 <_Z16Roomba_UART_Init9_uart_bps+0x62>
    1ba8:	88 e0       	ldi	r24, 0x08	; 8
    1baa:	90 e0       	ldi	r25, 0x00	; 0
    1bac:	90 93 cd 00 	sts	0x00CD, r25
    1bb0:	80 93 cc 00 	sts	0x00CC, r24
    1bb4:	06 c0       	rjmp	.+12     	; 0x1bc2 <_Z16Roomba_UART_Init9_uart_bps+0x62>
    1bb6:	80 e1       	ldi	r24, 0x10	; 16
    1bb8:	90 e0       	ldi	r25, 0x00	; 0
    1bba:	90 93 cd 00 	sts	0x00CD, r25
    1bbe:	80 93 cc 00 	sts	0x00CC, r24
    1bc2:	e8 ec       	ldi	r30, 0xC8	; 200
    1bc4:	f0 e0       	ldi	r31, 0x00	; 0
    1bc6:	80 e4       	ldi	r24, 0x40	; 64
    1bc8:	80 83       	st	Z, r24
    1bca:	88 e0       	ldi	r24, 0x08	; 8
    1bcc:	80 93 c9 00 	sts	0x00C9, r24
    1bd0:	86 e0       	ldi	r24, 0x06	; 6
    1bd2:	80 93 ca 00 	sts	0x00CA, r24
    1bd6:	80 81       	ld	r24, Z
    1bd8:	8d 7f       	andi	r24, 0xFD	; 253
    1bda:	80 83       	st	Z, r24
    1bdc:	2f bf       	out	0x3f, r18	; 63
    1bde:	08 95       	ret

00001be0 <__vector_36>:

/**
 * UART receive byte ISR
 */
ISR(USART1_RX_vect)
{
    1be0:	1f 92       	push	r1
    1be2:	0f 92       	push	r0
    1be4:	0f b6       	in	r0, 0x3f	; 63
    1be6:	0f 92       	push	r0
    1be8:	11 24       	eor	r1, r1
    1bea:	0b b6       	in	r0, 0x3b	; 59
    1bec:	0f 92       	push	r0
    1bee:	8f 93       	push	r24
    1bf0:	9f 93       	push	r25
    1bf2:	ef 93       	push	r30
    1bf4:	ff 93       	push	r31
    uart_buffer[uart_buffer_index] = UDR1;
    1bf6:	e0 91 a2 15 	lds	r30, 0x15A2
    1bfa:	f0 e0       	ldi	r31, 0x00	; 0
    1bfc:	80 91 ce 00 	lds	r24, 0x00CE
    1c00:	ed 55       	subi	r30, 0x5D	; 93
    1c02:	fa 4e       	sbci	r31, 0xEA	; 234
    1c04:	80 83       	st	Z, r24
    uart_buffer_index = (uart_buffer_index + 1) % UART_BUFFER_SIZE;
    1c06:	80 91 a2 15 	lds	r24, 0x15A2
    1c0a:	90 e0       	ldi	r25, 0x00	; 0
    1c0c:	01 96       	adiw	r24, 0x01	; 1
    1c0e:	8f 71       	andi	r24, 0x1F	; 31
    1c10:	90 78       	andi	r25, 0x80	; 128
    1c12:	80 93 a2 15 	sts	0x15A2, r24
}
    1c16:	ff 91       	pop	r31
    1c18:	ef 91       	pop	r30
    1c1a:	9f 91       	pop	r25
    1c1c:	8f 91       	pop	r24
    1c1e:	0f 90       	pop	r0
    1c20:	0b be       	out	0x3b, r0	; 59
    1c22:	0f 90       	pop	r0
    1c24:	0f be       	out	0x3f, r0	; 63
    1c26:	0f 90       	pop	r0
    1c28:	1f 90       	pop	r1
    1c2a:	18 95       	reti

00001c2c <_Z10USART_Initj>:
#include <stdio.h>			// Conversions

void USART_Init( unsigned int ubrr)
{
/*Set baud rate */
UBRR0H = (unsigned char)(ubrr>>8);
    1c2c:	90 93 c5 00 	sts	0x00C5, r25
UBRR0L = (unsigned char)ubrr;
    1c30:	80 93 c4 00 	sts	0x00C4, r24
//Enable receiver and transmitter */
UCSR0B = (1<<RXEN0)|(1<<TXEN0);
    1c34:	88 e1       	ldi	r24, 0x18	; 24
    1c36:	80 93 c1 00 	sts	0x00C1, r24
/* Set frame format: 8data, 2stop bit */
UCSR0C = (1<<USBS0)|(3<<UCSZ00);
    1c3a:	8e e0       	ldi	r24, 0x0E	; 14
    1c3c:	80 93 c2 00 	sts	0x00C2, r24
    1c40:	08 95       	ret

00001c42 <_Z14USART_Sendbyteh>:


void USART_Sendbyte( unsigned char data )
{
/* Wait for empty transmit buffer */
while ( !( UCSR0A & (1<<UDRE0)) )
    1c42:	e0 ec       	ldi	r30, 0xC0	; 192
    1c44:	f0 e0       	ldi	r31, 0x00	; 0
    1c46:	90 81       	ld	r25, Z
    1c48:	95 ff       	sbrs	r25, 5
    1c4a:	fd cf       	rjmp	.-6      	; 0x1c46 <_Z14USART_Sendbyteh+0x4>
;
/* Put data into buffer, sends the data */
UDR0 = char(data);
    1c4c:	80 93 c6 00 	sts	0x00C6, r24
    1c50:	08 95       	ret

00001c52 <_Z17USART_Send_stringPKc>:
}

void USART_Send_string(const char *str)
{
    1c52:	cf 93       	push	r28
    1c54:	df 93       	push	r29
    1c56:	ec 01       	movw	r28, r24

	  while (*str) 
    1c58:	88 81       	ld	r24, Y
    1c5a:	88 23       	and	r24, r24
    1c5c:	29 f0       	breq	.+10     	; 0x1c68 <_Z17USART_Send_stringPKc+0x16>
    1c5e:	21 96       	adiw	r28, 0x01	; 1
      USART_Sendbyte(*str++);
    1c60:	f0 df       	rcall	.-32     	; 0x1c42 <_Z14USART_Sendbyteh>
}

void USART_Send_string(const char *str)
{

	  while (*str) 
    1c62:	89 91       	ld	r24, Y+
    1c64:	81 11       	cpse	r24, r1
    1c66:	fc cf       	rjmp	.-8      	; 0x1c60 <_Z17USART_Send_stringPKc+0xe>
      USART_Sendbyte(*str++);
	
}
    1c68:	df 91       	pop	r29
    1c6a:	cf 91       	pop	r28
    1c6c:	08 95       	ret

00001c6e <_Z14USART_Send_intj>:

void USART_Send_int(unsigned int d )
{
    1c6e:	0f 93       	push	r16
    1c70:	1f 93       	push	r17
    1c72:	cf 93       	push	r28
    1c74:	df 93       	push	r29
    1c76:	cd b7       	in	r28, 0x3d	; 61
    1c78:	de b7       	in	r29, 0x3e	; 62
    1c7a:	2a 97       	sbiw	r28, 0x0a	; 10
    1c7c:	0f b6       	in	r0, 0x3f	; 63
    1c7e:	f8 94       	cli
    1c80:	de bf       	out	0x3e, r29	; 62
    1c82:	0f be       	out	0x3f, r0	; 63
    1c84:	cd bf       	out	0x3d, r28	; 61
	char str[10];
	sprintf(str,"%u",d);
    1c86:	9f 93       	push	r25
    1c88:	8f 93       	push	r24
    1c8a:	86 eb       	ldi	r24, 0xB6	; 182
    1c8c:	92 e0       	ldi	r25, 0x02	; 2
    1c8e:	9f 93       	push	r25
    1c90:	8f 93       	push	r24
    1c92:	8e 01       	movw	r16, r28
    1c94:	0f 5f       	subi	r16, 0xFF	; 255
    1c96:	1f 4f       	sbci	r17, 0xFF	; 255
    1c98:	1f 93       	push	r17
    1c9a:	0f 93       	push	r16
    1c9c:	19 d0       	rcall	.+50     	; 0x1cd0 <sprintf>
	USART_Send_string(str);
    1c9e:	c8 01       	movw	r24, r16
    1ca0:	d8 df       	rcall	.-80     	; 0x1c52 <_Z17USART_Send_stringPKc>
    1ca2:	0f 90       	pop	r0
    1ca4:	0f 90       	pop	r0
    1ca6:	0f 90       	pop	r0
    1ca8:	0f 90       	pop	r0
    1caa:	0f 90       	pop	r0
    1cac:	0f 90       	pop	r0
	
}
    1cae:	2a 96       	adiw	r28, 0x0a	; 10
    1cb0:	0f b6       	in	r0, 0x3f	; 63
    1cb2:	f8 94       	cli
    1cb4:	de bf       	out	0x3e, r29	; 62
    1cb6:	0f be       	out	0x3f, r0	; 63
    1cb8:	cd bf       	out	0x3d, r28	; 61
    1cba:	df 91       	pop	r29
    1cbc:	cf 91       	pop	r28
    1cbe:	1f 91       	pop	r17
    1cc0:	0f 91       	pop	r16
    1cc2:	08 95       	ret

00001cc4 <__tablejump2__>:
    1cc4:	ee 0f       	add	r30, r30
    1cc6:	ff 1f       	adc	r31, r31

00001cc8 <__tablejump__>:
    1cc8:	05 90       	lpm	r0, Z+
    1cca:	f4 91       	lpm	r31, Z
    1ccc:	e0 2d       	mov	r30, r0
    1cce:	19 94       	eijmp

00001cd0 <sprintf>:
    1cd0:	0f 93       	push	r16
    1cd2:	1f 93       	push	r17
    1cd4:	cf 93       	push	r28
    1cd6:	df 93       	push	r29
    1cd8:	cd b7       	in	r28, 0x3d	; 61
    1cda:	de b7       	in	r29, 0x3e	; 62
    1cdc:	2e 97       	sbiw	r28, 0x0e	; 14
    1cde:	0f b6       	in	r0, 0x3f	; 63
    1ce0:	f8 94       	cli
    1ce2:	de bf       	out	0x3e, r29	; 62
    1ce4:	0f be       	out	0x3f, r0	; 63
    1ce6:	cd bf       	out	0x3d, r28	; 61
    1ce8:	0e 89       	ldd	r16, Y+22	; 0x16
    1cea:	1f 89       	ldd	r17, Y+23	; 0x17
    1cec:	86 e0       	ldi	r24, 0x06	; 6
    1cee:	8c 83       	std	Y+4, r24	; 0x04
    1cf0:	1a 83       	std	Y+2, r17	; 0x02
    1cf2:	09 83       	std	Y+1, r16	; 0x01
    1cf4:	8f ef       	ldi	r24, 0xFF	; 255
    1cf6:	9f e7       	ldi	r25, 0x7F	; 127
    1cf8:	9e 83       	std	Y+6, r25	; 0x06
    1cfa:	8d 83       	std	Y+5, r24	; 0x05
    1cfc:	ae 01       	movw	r20, r28
    1cfe:	46 5e       	subi	r20, 0xE6	; 230
    1d00:	5f 4f       	sbci	r21, 0xFF	; 255
    1d02:	68 8d       	ldd	r22, Y+24	; 0x18
    1d04:	79 8d       	ldd	r23, Y+25	; 0x19
    1d06:	ce 01       	movw	r24, r28
    1d08:	01 96       	adiw	r24, 0x01	; 1
    1d0a:	10 d0       	rcall	.+32     	; 0x1d2c <vfprintf>
    1d0c:	ef 81       	ldd	r30, Y+7	; 0x07
    1d0e:	f8 85       	ldd	r31, Y+8	; 0x08
    1d10:	e0 0f       	add	r30, r16
    1d12:	f1 1f       	adc	r31, r17
    1d14:	10 82       	st	Z, r1
    1d16:	2e 96       	adiw	r28, 0x0e	; 14
    1d18:	0f b6       	in	r0, 0x3f	; 63
    1d1a:	f8 94       	cli
    1d1c:	de bf       	out	0x3e, r29	; 62
    1d1e:	0f be       	out	0x3f, r0	; 63
    1d20:	cd bf       	out	0x3d, r28	; 61
    1d22:	df 91       	pop	r29
    1d24:	cf 91       	pop	r28
    1d26:	1f 91       	pop	r17
    1d28:	0f 91       	pop	r16
    1d2a:	08 95       	ret

00001d2c <vfprintf>:
    1d2c:	2f 92       	push	r2
    1d2e:	3f 92       	push	r3
    1d30:	4f 92       	push	r4
    1d32:	5f 92       	push	r5
    1d34:	6f 92       	push	r6
    1d36:	7f 92       	push	r7
    1d38:	8f 92       	push	r8
    1d3a:	9f 92       	push	r9
    1d3c:	af 92       	push	r10
    1d3e:	bf 92       	push	r11
    1d40:	cf 92       	push	r12
    1d42:	df 92       	push	r13
    1d44:	ef 92       	push	r14
    1d46:	ff 92       	push	r15
    1d48:	0f 93       	push	r16
    1d4a:	1f 93       	push	r17
    1d4c:	cf 93       	push	r28
    1d4e:	df 93       	push	r29
    1d50:	cd b7       	in	r28, 0x3d	; 61
    1d52:	de b7       	in	r29, 0x3e	; 62
    1d54:	2c 97       	sbiw	r28, 0x0c	; 12
    1d56:	0f b6       	in	r0, 0x3f	; 63
    1d58:	f8 94       	cli
    1d5a:	de bf       	out	0x3e, r29	; 62
    1d5c:	0f be       	out	0x3f, r0	; 63
    1d5e:	cd bf       	out	0x3d, r28	; 61
    1d60:	7c 01       	movw	r14, r24
    1d62:	6b 01       	movw	r12, r22
    1d64:	8a 01       	movw	r16, r20
    1d66:	fc 01       	movw	r30, r24
    1d68:	17 82       	std	Z+7, r1	; 0x07
    1d6a:	16 82       	std	Z+6, r1	; 0x06
    1d6c:	83 81       	ldd	r24, Z+3	; 0x03
    1d6e:	81 ff       	sbrs	r24, 1
    1d70:	b0 c1       	rjmp	.+864    	; 0x20d2 <vfprintf+0x3a6>
    1d72:	ce 01       	movw	r24, r28
    1d74:	01 96       	adiw	r24, 0x01	; 1
    1d76:	4c 01       	movw	r8, r24
    1d78:	f7 01       	movw	r30, r14
    1d7a:	93 81       	ldd	r25, Z+3	; 0x03
    1d7c:	f6 01       	movw	r30, r12
    1d7e:	93 fd       	sbrc	r25, 3
    1d80:	85 91       	lpm	r24, Z+
    1d82:	93 ff       	sbrs	r25, 3
    1d84:	81 91       	ld	r24, Z+
    1d86:	6f 01       	movw	r12, r30
    1d88:	88 23       	and	r24, r24
    1d8a:	09 f4       	brne	.+2      	; 0x1d8e <vfprintf+0x62>
    1d8c:	9e c1       	rjmp	.+828    	; 0x20ca <vfprintf+0x39e>
    1d8e:	85 32       	cpi	r24, 0x25	; 37
    1d90:	39 f4       	brne	.+14     	; 0x1da0 <vfprintf+0x74>
    1d92:	93 fd       	sbrc	r25, 3
    1d94:	85 91       	lpm	r24, Z+
    1d96:	93 ff       	sbrs	r25, 3
    1d98:	81 91       	ld	r24, Z+
    1d9a:	6f 01       	movw	r12, r30
    1d9c:	85 32       	cpi	r24, 0x25	; 37
    1d9e:	21 f4       	brne	.+8      	; 0x1da8 <vfprintf+0x7c>
    1da0:	b7 01       	movw	r22, r14
    1da2:	90 e0       	ldi	r25, 0x00	; 0
    1da4:	c7 d1       	rcall	.+910    	; 0x2134 <fputc>
    1da6:	e8 cf       	rjmp	.-48     	; 0x1d78 <vfprintf+0x4c>
    1da8:	51 2c       	mov	r5, r1
    1daa:	31 2c       	mov	r3, r1
    1dac:	20 e0       	ldi	r18, 0x00	; 0
    1dae:	20 32       	cpi	r18, 0x20	; 32
    1db0:	a0 f4       	brcc	.+40     	; 0x1dda <vfprintf+0xae>
    1db2:	8b 32       	cpi	r24, 0x2B	; 43
    1db4:	69 f0       	breq	.+26     	; 0x1dd0 <vfprintf+0xa4>
    1db6:	30 f4       	brcc	.+12     	; 0x1dc4 <vfprintf+0x98>
    1db8:	80 32       	cpi	r24, 0x20	; 32
    1dba:	59 f0       	breq	.+22     	; 0x1dd2 <vfprintf+0xa6>
    1dbc:	83 32       	cpi	r24, 0x23	; 35
    1dbe:	69 f4       	brne	.+26     	; 0x1dda <vfprintf+0xae>
    1dc0:	20 61       	ori	r18, 0x10	; 16
    1dc2:	2c c0       	rjmp	.+88     	; 0x1e1c <vfprintf+0xf0>
    1dc4:	8d 32       	cpi	r24, 0x2D	; 45
    1dc6:	39 f0       	breq	.+14     	; 0x1dd6 <vfprintf+0xaa>
    1dc8:	80 33       	cpi	r24, 0x30	; 48
    1dca:	39 f4       	brne	.+14     	; 0x1dda <vfprintf+0xae>
    1dcc:	21 60       	ori	r18, 0x01	; 1
    1dce:	26 c0       	rjmp	.+76     	; 0x1e1c <vfprintf+0xf0>
    1dd0:	22 60       	ori	r18, 0x02	; 2
    1dd2:	24 60       	ori	r18, 0x04	; 4
    1dd4:	23 c0       	rjmp	.+70     	; 0x1e1c <vfprintf+0xf0>
    1dd6:	28 60       	ori	r18, 0x08	; 8
    1dd8:	21 c0       	rjmp	.+66     	; 0x1e1c <vfprintf+0xf0>
    1dda:	27 fd       	sbrc	r18, 7
    1ddc:	27 c0       	rjmp	.+78     	; 0x1e2c <vfprintf+0x100>
    1dde:	30 ed       	ldi	r19, 0xD0	; 208
    1de0:	38 0f       	add	r19, r24
    1de2:	3a 30       	cpi	r19, 0x0A	; 10
    1de4:	78 f4       	brcc	.+30     	; 0x1e04 <vfprintf+0xd8>
    1de6:	26 ff       	sbrs	r18, 6
    1de8:	06 c0       	rjmp	.+12     	; 0x1df6 <vfprintf+0xca>
    1dea:	fa e0       	ldi	r31, 0x0A	; 10
    1dec:	5f 9e       	mul	r5, r31
    1dee:	30 0d       	add	r19, r0
    1df0:	11 24       	eor	r1, r1
    1df2:	53 2e       	mov	r5, r19
    1df4:	13 c0       	rjmp	.+38     	; 0x1e1c <vfprintf+0xf0>
    1df6:	8a e0       	ldi	r24, 0x0A	; 10
    1df8:	38 9e       	mul	r3, r24
    1dfa:	30 0d       	add	r19, r0
    1dfc:	11 24       	eor	r1, r1
    1dfe:	33 2e       	mov	r3, r19
    1e00:	20 62       	ori	r18, 0x20	; 32
    1e02:	0c c0       	rjmp	.+24     	; 0x1e1c <vfprintf+0xf0>
    1e04:	8e 32       	cpi	r24, 0x2E	; 46
    1e06:	21 f4       	brne	.+8      	; 0x1e10 <vfprintf+0xe4>
    1e08:	26 fd       	sbrc	r18, 6
    1e0a:	5f c1       	rjmp	.+702    	; 0x20ca <vfprintf+0x39e>
    1e0c:	20 64       	ori	r18, 0x40	; 64
    1e0e:	06 c0       	rjmp	.+12     	; 0x1e1c <vfprintf+0xf0>
    1e10:	8c 36       	cpi	r24, 0x6C	; 108
    1e12:	11 f4       	brne	.+4      	; 0x1e18 <vfprintf+0xec>
    1e14:	20 68       	ori	r18, 0x80	; 128
    1e16:	02 c0       	rjmp	.+4      	; 0x1e1c <vfprintf+0xf0>
    1e18:	88 36       	cpi	r24, 0x68	; 104
    1e1a:	41 f4       	brne	.+16     	; 0x1e2c <vfprintf+0x100>
    1e1c:	f6 01       	movw	r30, r12
    1e1e:	93 fd       	sbrc	r25, 3
    1e20:	85 91       	lpm	r24, Z+
    1e22:	93 ff       	sbrs	r25, 3
    1e24:	81 91       	ld	r24, Z+
    1e26:	6f 01       	movw	r12, r30
    1e28:	81 11       	cpse	r24, r1
    1e2a:	c1 cf       	rjmp	.-126    	; 0x1dae <vfprintf+0x82>
    1e2c:	98 2f       	mov	r25, r24
    1e2e:	9f 7d       	andi	r25, 0xDF	; 223
    1e30:	95 54       	subi	r25, 0x45	; 69
    1e32:	93 30       	cpi	r25, 0x03	; 3
    1e34:	28 f4       	brcc	.+10     	; 0x1e40 <vfprintf+0x114>
    1e36:	0c 5f       	subi	r16, 0xFC	; 252
    1e38:	1f 4f       	sbci	r17, 0xFF	; 255
    1e3a:	ff e3       	ldi	r31, 0x3F	; 63
    1e3c:	f9 83       	std	Y+1, r31	; 0x01
    1e3e:	0d c0       	rjmp	.+26     	; 0x1e5a <vfprintf+0x12e>
    1e40:	83 36       	cpi	r24, 0x63	; 99
    1e42:	31 f0       	breq	.+12     	; 0x1e50 <vfprintf+0x124>
    1e44:	83 37       	cpi	r24, 0x73	; 115
    1e46:	71 f0       	breq	.+28     	; 0x1e64 <vfprintf+0x138>
    1e48:	83 35       	cpi	r24, 0x53	; 83
    1e4a:	09 f0       	breq	.+2      	; 0x1e4e <vfprintf+0x122>
    1e4c:	57 c0       	rjmp	.+174    	; 0x1efc <vfprintf+0x1d0>
    1e4e:	21 c0       	rjmp	.+66     	; 0x1e92 <vfprintf+0x166>
    1e50:	f8 01       	movw	r30, r16
    1e52:	80 81       	ld	r24, Z
    1e54:	89 83       	std	Y+1, r24	; 0x01
    1e56:	0e 5f       	subi	r16, 0xFE	; 254
    1e58:	1f 4f       	sbci	r17, 0xFF	; 255
    1e5a:	44 24       	eor	r4, r4
    1e5c:	43 94       	inc	r4
    1e5e:	51 2c       	mov	r5, r1
    1e60:	54 01       	movw	r10, r8
    1e62:	14 c0       	rjmp	.+40     	; 0x1e8c <vfprintf+0x160>
    1e64:	38 01       	movw	r6, r16
    1e66:	f2 e0       	ldi	r31, 0x02	; 2
    1e68:	6f 0e       	add	r6, r31
    1e6a:	71 1c       	adc	r7, r1
    1e6c:	f8 01       	movw	r30, r16
    1e6e:	a0 80       	ld	r10, Z
    1e70:	b1 80       	ldd	r11, Z+1	; 0x01
    1e72:	26 ff       	sbrs	r18, 6
    1e74:	03 c0       	rjmp	.+6      	; 0x1e7c <vfprintf+0x150>
    1e76:	65 2d       	mov	r22, r5
    1e78:	70 e0       	ldi	r23, 0x00	; 0
    1e7a:	02 c0       	rjmp	.+4      	; 0x1e80 <vfprintf+0x154>
    1e7c:	6f ef       	ldi	r22, 0xFF	; 255
    1e7e:	7f ef       	ldi	r23, 0xFF	; 255
    1e80:	c5 01       	movw	r24, r10
    1e82:	2c 87       	std	Y+12, r18	; 0x0c
    1e84:	4c d1       	rcall	.+664    	; 0x211e <strnlen>
    1e86:	2c 01       	movw	r4, r24
    1e88:	83 01       	movw	r16, r6
    1e8a:	2c 85       	ldd	r18, Y+12	; 0x0c
    1e8c:	2f 77       	andi	r18, 0x7F	; 127
    1e8e:	22 2e       	mov	r2, r18
    1e90:	16 c0       	rjmp	.+44     	; 0x1ebe <vfprintf+0x192>
    1e92:	38 01       	movw	r6, r16
    1e94:	f2 e0       	ldi	r31, 0x02	; 2
    1e96:	6f 0e       	add	r6, r31
    1e98:	71 1c       	adc	r7, r1
    1e9a:	f8 01       	movw	r30, r16
    1e9c:	a0 80       	ld	r10, Z
    1e9e:	b1 80       	ldd	r11, Z+1	; 0x01
    1ea0:	26 ff       	sbrs	r18, 6
    1ea2:	03 c0       	rjmp	.+6      	; 0x1eaa <vfprintf+0x17e>
    1ea4:	65 2d       	mov	r22, r5
    1ea6:	70 e0       	ldi	r23, 0x00	; 0
    1ea8:	02 c0       	rjmp	.+4      	; 0x1eae <vfprintf+0x182>
    1eaa:	6f ef       	ldi	r22, 0xFF	; 255
    1eac:	7f ef       	ldi	r23, 0xFF	; 255
    1eae:	c5 01       	movw	r24, r10
    1eb0:	2c 87       	std	Y+12, r18	; 0x0c
    1eb2:	2a d1       	rcall	.+596    	; 0x2108 <strnlen_P>
    1eb4:	2c 01       	movw	r4, r24
    1eb6:	2c 85       	ldd	r18, Y+12	; 0x0c
    1eb8:	20 68       	ori	r18, 0x80	; 128
    1eba:	22 2e       	mov	r2, r18
    1ebc:	83 01       	movw	r16, r6
    1ebe:	23 fc       	sbrc	r2, 3
    1ec0:	19 c0       	rjmp	.+50     	; 0x1ef4 <vfprintf+0x1c8>
    1ec2:	83 2d       	mov	r24, r3
    1ec4:	90 e0       	ldi	r25, 0x00	; 0
    1ec6:	48 16       	cp	r4, r24
    1ec8:	59 06       	cpc	r5, r25
    1eca:	a0 f4       	brcc	.+40     	; 0x1ef4 <vfprintf+0x1c8>
    1ecc:	b7 01       	movw	r22, r14
    1ece:	80 e2       	ldi	r24, 0x20	; 32
    1ed0:	90 e0       	ldi	r25, 0x00	; 0
    1ed2:	30 d1       	rcall	.+608    	; 0x2134 <fputc>
    1ed4:	3a 94       	dec	r3
    1ed6:	f5 cf       	rjmp	.-22     	; 0x1ec2 <vfprintf+0x196>
    1ed8:	f5 01       	movw	r30, r10
    1eda:	27 fc       	sbrc	r2, 7
    1edc:	85 91       	lpm	r24, Z+
    1ede:	27 fe       	sbrs	r2, 7
    1ee0:	81 91       	ld	r24, Z+
    1ee2:	5f 01       	movw	r10, r30
    1ee4:	b7 01       	movw	r22, r14
    1ee6:	90 e0       	ldi	r25, 0x00	; 0
    1ee8:	25 d1       	rcall	.+586    	; 0x2134 <fputc>
    1eea:	31 10       	cpse	r3, r1
    1eec:	3a 94       	dec	r3
    1eee:	f1 e0       	ldi	r31, 0x01	; 1
    1ef0:	4f 1a       	sub	r4, r31
    1ef2:	51 08       	sbc	r5, r1
    1ef4:	41 14       	cp	r4, r1
    1ef6:	51 04       	cpc	r5, r1
    1ef8:	79 f7       	brne	.-34     	; 0x1ed8 <vfprintf+0x1ac>
    1efa:	de c0       	rjmp	.+444    	; 0x20b8 <vfprintf+0x38c>
    1efc:	84 36       	cpi	r24, 0x64	; 100
    1efe:	11 f0       	breq	.+4      	; 0x1f04 <vfprintf+0x1d8>
    1f00:	89 36       	cpi	r24, 0x69	; 105
    1f02:	31 f5       	brne	.+76     	; 0x1f50 <vfprintf+0x224>
    1f04:	f8 01       	movw	r30, r16
    1f06:	27 ff       	sbrs	r18, 7
    1f08:	07 c0       	rjmp	.+14     	; 0x1f18 <vfprintf+0x1ec>
    1f0a:	60 81       	ld	r22, Z
    1f0c:	71 81       	ldd	r23, Z+1	; 0x01
    1f0e:	82 81       	ldd	r24, Z+2	; 0x02
    1f10:	93 81       	ldd	r25, Z+3	; 0x03
    1f12:	0c 5f       	subi	r16, 0xFC	; 252
    1f14:	1f 4f       	sbci	r17, 0xFF	; 255
    1f16:	08 c0       	rjmp	.+16     	; 0x1f28 <vfprintf+0x1fc>
    1f18:	60 81       	ld	r22, Z
    1f1a:	71 81       	ldd	r23, Z+1	; 0x01
    1f1c:	88 27       	eor	r24, r24
    1f1e:	77 fd       	sbrc	r23, 7
    1f20:	80 95       	com	r24
    1f22:	98 2f       	mov	r25, r24
    1f24:	0e 5f       	subi	r16, 0xFE	; 254
    1f26:	1f 4f       	sbci	r17, 0xFF	; 255
    1f28:	2f 76       	andi	r18, 0x6F	; 111
    1f2a:	b2 2e       	mov	r11, r18
    1f2c:	97 ff       	sbrs	r25, 7
    1f2e:	09 c0       	rjmp	.+18     	; 0x1f42 <vfprintf+0x216>
    1f30:	90 95       	com	r25
    1f32:	80 95       	com	r24
    1f34:	70 95       	com	r23
    1f36:	61 95       	neg	r22
    1f38:	7f 4f       	sbci	r23, 0xFF	; 255
    1f3a:	8f 4f       	sbci	r24, 0xFF	; 255
    1f3c:	9f 4f       	sbci	r25, 0xFF	; 255
    1f3e:	20 68       	ori	r18, 0x80	; 128
    1f40:	b2 2e       	mov	r11, r18
    1f42:	2a e0       	ldi	r18, 0x0A	; 10
    1f44:	30 e0       	ldi	r19, 0x00	; 0
    1f46:	a4 01       	movw	r20, r8
    1f48:	27 d1       	rcall	.+590    	; 0x2198 <__ultoa_invert>
    1f4a:	a8 2e       	mov	r10, r24
    1f4c:	a8 18       	sub	r10, r8
    1f4e:	43 c0       	rjmp	.+134    	; 0x1fd6 <vfprintf+0x2aa>
    1f50:	85 37       	cpi	r24, 0x75	; 117
    1f52:	29 f4       	brne	.+10     	; 0x1f5e <vfprintf+0x232>
    1f54:	2f 7e       	andi	r18, 0xEF	; 239
    1f56:	b2 2e       	mov	r11, r18
    1f58:	2a e0       	ldi	r18, 0x0A	; 10
    1f5a:	30 e0       	ldi	r19, 0x00	; 0
    1f5c:	25 c0       	rjmp	.+74     	; 0x1fa8 <vfprintf+0x27c>
    1f5e:	f2 2f       	mov	r31, r18
    1f60:	f9 7f       	andi	r31, 0xF9	; 249
    1f62:	bf 2e       	mov	r11, r31
    1f64:	8f 36       	cpi	r24, 0x6F	; 111
    1f66:	c1 f0       	breq	.+48     	; 0x1f98 <vfprintf+0x26c>
    1f68:	18 f4       	brcc	.+6      	; 0x1f70 <vfprintf+0x244>
    1f6a:	88 35       	cpi	r24, 0x58	; 88
    1f6c:	79 f0       	breq	.+30     	; 0x1f8c <vfprintf+0x260>
    1f6e:	ad c0       	rjmp	.+346    	; 0x20ca <vfprintf+0x39e>
    1f70:	80 37       	cpi	r24, 0x70	; 112
    1f72:	19 f0       	breq	.+6      	; 0x1f7a <vfprintf+0x24e>
    1f74:	88 37       	cpi	r24, 0x78	; 120
    1f76:	21 f0       	breq	.+8      	; 0x1f80 <vfprintf+0x254>
    1f78:	a8 c0       	rjmp	.+336    	; 0x20ca <vfprintf+0x39e>
    1f7a:	2f 2f       	mov	r18, r31
    1f7c:	20 61       	ori	r18, 0x10	; 16
    1f7e:	b2 2e       	mov	r11, r18
    1f80:	b4 fe       	sbrs	r11, 4
    1f82:	0d c0       	rjmp	.+26     	; 0x1f9e <vfprintf+0x272>
    1f84:	8b 2d       	mov	r24, r11
    1f86:	84 60       	ori	r24, 0x04	; 4
    1f88:	b8 2e       	mov	r11, r24
    1f8a:	09 c0       	rjmp	.+18     	; 0x1f9e <vfprintf+0x272>
    1f8c:	24 ff       	sbrs	r18, 4
    1f8e:	0a c0       	rjmp	.+20     	; 0x1fa4 <vfprintf+0x278>
    1f90:	9f 2f       	mov	r25, r31
    1f92:	96 60       	ori	r25, 0x06	; 6
    1f94:	b9 2e       	mov	r11, r25
    1f96:	06 c0       	rjmp	.+12     	; 0x1fa4 <vfprintf+0x278>
    1f98:	28 e0       	ldi	r18, 0x08	; 8
    1f9a:	30 e0       	ldi	r19, 0x00	; 0
    1f9c:	05 c0       	rjmp	.+10     	; 0x1fa8 <vfprintf+0x27c>
    1f9e:	20 e1       	ldi	r18, 0x10	; 16
    1fa0:	30 e0       	ldi	r19, 0x00	; 0
    1fa2:	02 c0       	rjmp	.+4      	; 0x1fa8 <vfprintf+0x27c>
    1fa4:	20 e1       	ldi	r18, 0x10	; 16
    1fa6:	32 e0       	ldi	r19, 0x02	; 2
    1fa8:	f8 01       	movw	r30, r16
    1faa:	b7 fe       	sbrs	r11, 7
    1fac:	07 c0       	rjmp	.+14     	; 0x1fbc <vfprintf+0x290>
    1fae:	60 81       	ld	r22, Z
    1fb0:	71 81       	ldd	r23, Z+1	; 0x01
    1fb2:	82 81       	ldd	r24, Z+2	; 0x02
    1fb4:	93 81       	ldd	r25, Z+3	; 0x03
    1fb6:	0c 5f       	subi	r16, 0xFC	; 252
    1fb8:	1f 4f       	sbci	r17, 0xFF	; 255
    1fba:	06 c0       	rjmp	.+12     	; 0x1fc8 <vfprintf+0x29c>
    1fbc:	60 81       	ld	r22, Z
    1fbe:	71 81       	ldd	r23, Z+1	; 0x01
    1fc0:	80 e0       	ldi	r24, 0x00	; 0
    1fc2:	90 e0       	ldi	r25, 0x00	; 0
    1fc4:	0e 5f       	subi	r16, 0xFE	; 254
    1fc6:	1f 4f       	sbci	r17, 0xFF	; 255
    1fc8:	a4 01       	movw	r20, r8
    1fca:	e6 d0       	rcall	.+460    	; 0x2198 <__ultoa_invert>
    1fcc:	a8 2e       	mov	r10, r24
    1fce:	a8 18       	sub	r10, r8
    1fd0:	fb 2d       	mov	r31, r11
    1fd2:	ff 77       	andi	r31, 0x7F	; 127
    1fd4:	bf 2e       	mov	r11, r31
    1fd6:	b6 fe       	sbrs	r11, 6
    1fd8:	0b c0       	rjmp	.+22     	; 0x1ff0 <vfprintf+0x2c4>
    1fda:	2b 2d       	mov	r18, r11
    1fdc:	2e 7f       	andi	r18, 0xFE	; 254
    1fde:	a5 14       	cp	r10, r5
    1fe0:	50 f4       	brcc	.+20     	; 0x1ff6 <vfprintf+0x2ca>
    1fe2:	b4 fe       	sbrs	r11, 4
    1fe4:	0a c0       	rjmp	.+20     	; 0x1ffa <vfprintf+0x2ce>
    1fe6:	b2 fc       	sbrc	r11, 2
    1fe8:	08 c0       	rjmp	.+16     	; 0x1ffa <vfprintf+0x2ce>
    1fea:	2b 2d       	mov	r18, r11
    1fec:	2e 7e       	andi	r18, 0xEE	; 238
    1fee:	05 c0       	rjmp	.+10     	; 0x1ffa <vfprintf+0x2ce>
    1ff0:	7a 2c       	mov	r7, r10
    1ff2:	2b 2d       	mov	r18, r11
    1ff4:	03 c0       	rjmp	.+6      	; 0x1ffc <vfprintf+0x2d0>
    1ff6:	7a 2c       	mov	r7, r10
    1ff8:	01 c0       	rjmp	.+2      	; 0x1ffc <vfprintf+0x2d0>
    1ffa:	75 2c       	mov	r7, r5
    1ffc:	24 ff       	sbrs	r18, 4
    1ffe:	0d c0       	rjmp	.+26     	; 0x201a <vfprintf+0x2ee>
    2000:	fe 01       	movw	r30, r28
    2002:	ea 0d       	add	r30, r10
    2004:	f1 1d       	adc	r31, r1
    2006:	80 81       	ld	r24, Z
    2008:	80 33       	cpi	r24, 0x30	; 48
    200a:	11 f4       	brne	.+4      	; 0x2010 <vfprintf+0x2e4>
    200c:	29 7e       	andi	r18, 0xE9	; 233
    200e:	09 c0       	rjmp	.+18     	; 0x2022 <vfprintf+0x2f6>
    2010:	22 ff       	sbrs	r18, 2
    2012:	06 c0       	rjmp	.+12     	; 0x2020 <vfprintf+0x2f4>
    2014:	73 94       	inc	r7
    2016:	73 94       	inc	r7
    2018:	04 c0       	rjmp	.+8      	; 0x2022 <vfprintf+0x2f6>
    201a:	82 2f       	mov	r24, r18
    201c:	86 78       	andi	r24, 0x86	; 134
    201e:	09 f0       	breq	.+2      	; 0x2022 <vfprintf+0x2f6>
    2020:	73 94       	inc	r7
    2022:	23 fd       	sbrc	r18, 3
    2024:	12 c0       	rjmp	.+36     	; 0x204a <vfprintf+0x31e>
    2026:	20 ff       	sbrs	r18, 0
    2028:	06 c0       	rjmp	.+12     	; 0x2036 <vfprintf+0x30a>
    202a:	5a 2c       	mov	r5, r10
    202c:	73 14       	cp	r7, r3
    202e:	18 f4       	brcc	.+6      	; 0x2036 <vfprintf+0x30a>
    2030:	53 0c       	add	r5, r3
    2032:	57 18       	sub	r5, r7
    2034:	73 2c       	mov	r7, r3
    2036:	73 14       	cp	r7, r3
    2038:	60 f4       	brcc	.+24     	; 0x2052 <vfprintf+0x326>
    203a:	b7 01       	movw	r22, r14
    203c:	80 e2       	ldi	r24, 0x20	; 32
    203e:	90 e0       	ldi	r25, 0x00	; 0
    2040:	2c 87       	std	Y+12, r18	; 0x0c
    2042:	78 d0       	rcall	.+240    	; 0x2134 <fputc>
    2044:	73 94       	inc	r7
    2046:	2c 85       	ldd	r18, Y+12	; 0x0c
    2048:	f6 cf       	rjmp	.-20     	; 0x2036 <vfprintf+0x30a>
    204a:	73 14       	cp	r7, r3
    204c:	10 f4       	brcc	.+4      	; 0x2052 <vfprintf+0x326>
    204e:	37 18       	sub	r3, r7
    2050:	01 c0       	rjmp	.+2      	; 0x2054 <vfprintf+0x328>
    2052:	31 2c       	mov	r3, r1
    2054:	24 ff       	sbrs	r18, 4
    2056:	11 c0       	rjmp	.+34     	; 0x207a <vfprintf+0x34e>
    2058:	b7 01       	movw	r22, r14
    205a:	80 e3       	ldi	r24, 0x30	; 48
    205c:	90 e0       	ldi	r25, 0x00	; 0
    205e:	2c 87       	std	Y+12, r18	; 0x0c
    2060:	69 d0       	rcall	.+210    	; 0x2134 <fputc>
    2062:	2c 85       	ldd	r18, Y+12	; 0x0c
    2064:	22 ff       	sbrs	r18, 2
    2066:	16 c0       	rjmp	.+44     	; 0x2094 <vfprintf+0x368>
    2068:	21 ff       	sbrs	r18, 1
    206a:	03 c0       	rjmp	.+6      	; 0x2072 <vfprintf+0x346>
    206c:	88 e5       	ldi	r24, 0x58	; 88
    206e:	90 e0       	ldi	r25, 0x00	; 0
    2070:	02 c0       	rjmp	.+4      	; 0x2076 <vfprintf+0x34a>
    2072:	88 e7       	ldi	r24, 0x78	; 120
    2074:	90 e0       	ldi	r25, 0x00	; 0
    2076:	b7 01       	movw	r22, r14
    2078:	0c c0       	rjmp	.+24     	; 0x2092 <vfprintf+0x366>
    207a:	82 2f       	mov	r24, r18
    207c:	86 78       	andi	r24, 0x86	; 134
    207e:	51 f0       	breq	.+20     	; 0x2094 <vfprintf+0x368>
    2080:	21 fd       	sbrc	r18, 1
    2082:	02 c0       	rjmp	.+4      	; 0x2088 <vfprintf+0x35c>
    2084:	80 e2       	ldi	r24, 0x20	; 32
    2086:	01 c0       	rjmp	.+2      	; 0x208a <vfprintf+0x35e>
    2088:	8b e2       	ldi	r24, 0x2B	; 43
    208a:	27 fd       	sbrc	r18, 7
    208c:	8d e2       	ldi	r24, 0x2D	; 45
    208e:	b7 01       	movw	r22, r14
    2090:	90 e0       	ldi	r25, 0x00	; 0
    2092:	50 d0       	rcall	.+160    	; 0x2134 <fputc>
    2094:	a5 14       	cp	r10, r5
    2096:	30 f4       	brcc	.+12     	; 0x20a4 <vfprintf+0x378>
    2098:	b7 01       	movw	r22, r14
    209a:	80 e3       	ldi	r24, 0x30	; 48
    209c:	90 e0       	ldi	r25, 0x00	; 0
    209e:	4a d0       	rcall	.+148    	; 0x2134 <fputc>
    20a0:	5a 94       	dec	r5
    20a2:	f8 cf       	rjmp	.-16     	; 0x2094 <vfprintf+0x368>
    20a4:	aa 94       	dec	r10
    20a6:	f4 01       	movw	r30, r8
    20a8:	ea 0d       	add	r30, r10
    20aa:	f1 1d       	adc	r31, r1
    20ac:	80 81       	ld	r24, Z
    20ae:	b7 01       	movw	r22, r14
    20b0:	90 e0       	ldi	r25, 0x00	; 0
    20b2:	40 d0       	rcall	.+128    	; 0x2134 <fputc>
    20b4:	a1 10       	cpse	r10, r1
    20b6:	f6 cf       	rjmp	.-20     	; 0x20a4 <vfprintf+0x378>
    20b8:	33 20       	and	r3, r3
    20ba:	09 f4       	brne	.+2      	; 0x20be <vfprintf+0x392>
    20bc:	5d ce       	rjmp	.-838    	; 0x1d78 <vfprintf+0x4c>
    20be:	b7 01       	movw	r22, r14
    20c0:	80 e2       	ldi	r24, 0x20	; 32
    20c2:	90 e0       	ldi	r25, 0x00	; 0
    20c4:	37 d0       	rcall	.+110    	; 0x2134 <fputc>
    20c6:	3a 94       	dec	r3
    20c8:	f7 cf       	rjmp	.-18     	; 0x20b8 <vfprintf+0x38c>
    20ca:	f7 01       	movw	r30, r14
    20cc:	86 81       	ldd	r24, Z+6	; 0x06
    20ce:	97 81       	ldd	r25, Z+7	; 0x07
    20d0:	02 c0       	rjmp	.+4      	; 0x20d6 <vfprintf+0x3aa>
    20d2:	8f ef       	ldi	r24, 0xFF	; 255
    20d4:	9f ef       	ldi	r25, 0xFF	; 255
    20d6:	2c 96       	adiw	r28, 0x0c	; 12
    20d8:	0f b6       	in	r0, 0x3f	; 63
    20da:	f8 94       	cli
    20dc:	de bf       	out	0x3e, r29	; 62
    20de:	0f be       	out	0x3f, r0	; 63
    20e0:	cd bf       	out	0x3d, r28	; 61
    20e2:	df 91       	pop	r29
    20e4:	cf 91       	pop	r28
    20e6:	1f 91       	pop	r17
    20e8:	0f 91       	pop	r16
    20ea:	ff 90       	pop	r15
    20ec:	ef 90       	pop	r14
    20ee:	df 90       	pop	r13
    20f0:	cf 90       	pop	r12
    20f2:	bf 90       	pop	r11
    20f4:	af 90       	pop	r10
    20f6:	9f 90       	pop	r9
    20f8:	8f 90       	pop	r8
    20fa:	7f 90       	pop	r7
    20fc:	6f 90       	pop	r6
    20fe:	5f 90       	pop	r5
    2100:	4f 90       	pop	r4
    2102:	3f 90       	pop	r3
    2104:	2f 90       	pop	r2
    2106:	08 95       	ret

00002108 <strnlen_P>:
    2108:	fc 01       	movw	r30, r24
    210a:	05 90       	lpm	r0, Z+
    210c:	61 50       	subi	r22, 0x01	; 1
    210e:	70 40       	sbci	r23, 0x00	; 0
    2110:	01 10       	cpse	r0, r1
    2112:	d8 f7       	brcc	.-10     	; 0x210a <strnlen_P+0x2>
    2114:	80 95       	com	r24
    2116:	90 95       	com	r25
    2118:	8e 0f       	add	r24, r30
    211a:	9f 1f       	adc	r25, r31
    211c:	08 95       	ret

0000211e <strnlen>:
    211e:	fc 01       	movw	r30, r24
    2120:	61 50       	subi	r22, 0x01	; 1
    2122:	70 40       	sbci	r23, 0x00	; 0
    2124:	01 90       	ld	r0, Z+
    2126:	01 10       	cpse	r0, r1
    2128:	d8 f7       	brcc	.-10     	; 0x2120 <strnlen+0x2>
    212a:	80 95       	com	r24
    212c:	90 95       	com	r25
    212e:	8e 0f       	add	r24, r30
    2130:	9f 1f       	adc	r25, r31
    2132:	08 95       	ret

00002134 <fputc>:
    2134:	0f 93       	push	r16
    2136:	1f 93       	push	r17
    2138:	cf 93       	push	r28
    213a:	df 93       	push	r29
    213c:	18 2f       	mov	r17, r24
    213e:	09 2f       	mov	r16, r25
    2140:	eb 01       	movw	r28, r22
    2142:	8b 81       	ldd	r24, Y+3	; 0x03
    2144:	81 fd       	sbrc	r24, 1
    2146:	03 c0       	rjmp	.+6      	; 0x214e <fputc+0x1a>
    2148:	8f ef       	ldi	r24, 0xFF	; 255
    214a:	9f ef       	ldi	r25, 0xFF	; 255
    214c:	20 c0       	rjmp	.+64     	; 0x218e <fputc+0x5a>
    214e:	82 ff       	sbrs	r24, 2
    2150:	10 c0       	rjmp	.+32     	; 0x2172 <fputc+0x3e>
    2152:	4e 81       	ldd	r20, Y+6	; 0x06
    2154:	5f 81       	ldd	r21, Y+7	; 0x07
    2156:	2c 81       	ldd	r18, Y+4	; 0x04
    2158:	3d 81       	ldd	r19, Y+5	; 0x05
    215a:	42 17       	cp	r20, r18
    215c:	53 07       	cpc	r21, r19
    215e:	7c f4       	brge	.+30     	; 0x217e <fputc+0x4a>
    2160:	e8 81       	ld	r30, Y
    2162:	f9 81       	ldd	r31, Y+1	; 0x01
    2164:	9f 01       	movw	r18, r30
    2166:	2f 5f       	subi	r18, 0xFF	; 255
    2168:	3f 4f       	sbci	r19, 0xFF	; 255
    216a:	39 83       	std	Y+1, r19	; 0x01
    216c:	28 83       	st	Y, r18
    216e:	10 83       	st	Z, r17
    2170:	06 c0       	rjmp	.+12     	; 0x217e <fputc+0x4a>
    2172:	e8 85       	ldd	r30, Y+8	; 0x08
    2174:	f9 85       	ldd	r31, Y+9	; 0x09
    2176:	81 2f       	mov	r24, r17
    2178:	19 95       	eicall
    217a:	89 2b       	or	r24, r25
    217c:	29 f7       	brne	.-54     	; 0x2148 <fputc+0x14>
    217e:	2e 81       	ldd	r18, Y+6	; 0x06
    2180:	3f 81       	ldd	r19, Y+7	; 0x07
    2182:	2f 5f       	subi	r18, 0xFF	; 255
    2184:	3f 4f       	sbci	r19, 0xFF	; 255
    2186:	3f 83       	std	Y+7, r19	; 0x07
    2188:	2e 83       	std	Y+6, r18	; 0x06
    218a:	81 2f       	mov	r24, r17
    218c:	90 2f       	mov	r25, r16
    218e:	df 91       	pop	r29
    2190:	cf 91       	pop	r28
    2192:	1f 91       	pop	r17
    2194:	0f 91       	pop	r16
    2196:	08 95       	ret

00002198 <__ultoa_invert>:
    2198:	fa 01       	movw	r30, r20
    219a:	aa 27       	eor	r26, r26
    219c:	28 30       	cpi	r18, 0x08	; 8
    219e:	51 f1       	breq	.+84     	; 0x21f4 <__ultoa_invert+0x5c>
    21a0:	20 31       	cpi	r18, 0x10	; 16
    21a2:	81 f1       	breq	.+96     	; 0x2204 <__stack+0x5>
    21a4:	e8 94       	clt
    21a6:	6f 93       	push	r22
    21a8:	6e 7f       	andi	r22, 0xFE	; 254
    21aa:	6e 5f       	subi	r22, 0xFE	; 254
    21ac:	7f 4f       	sbci	r23, 0xFF	; 255
    21ae:	8f 4f       	sbci	r24, 0xFF	; 255
    21b0:	9f 4f       	sbci	r25, 0xFF	; 255
    21b2:	af 4f       	sbci	r26, 0xFF	; 255
    21b4:	b1 e0       	ldi	r27, 0x01	; 1
    21b6:	3e d0       	rcall	.+124    	; 0x2234 <__stack+0x35>
    21b8:	b4 e0       	ldi	r27, 0x04	; 4
    21ba:	3c d0       	rcall	.+120    	; 0x2234 <__stack+0x35>
    21bc:	67 0f       	add	r22, r23
    21be:	78 1f       	adc	r23, r24
    21c0:	89 1f       	adc	r24, r25
    21c2:	9a 1f       	adc	r25, r26
    21c4:	a1 1d       	adc	r26, r1
    21c6:	68 0f       	add	r22, r24
    21c8:	79 1f       	adc	r23, r25
    21ca:	8a 1f       	adc	r24, r26
    21cc:	91 1d       	adc	r25, r1
    21ce:	a1 1d       	adc	r26, r1
    21d0:	6a 0f       	add	r22, r26
    21d2:	71 1d       	adc	r23, r1
    21d4:	81 1d       	adc	r24, r1
    21d6:	91 1d       	adc	r25, r1
    21d8:	a1 1d       	adc	r26, r1
    21da:	20 d0       	rcall	.+64     	; 0x221c <__stack+0x1d>
    21dc:	09 f4       	brne	.+2      	; 0x21e0 <__ultoa_invert+0x48>
    21de:	68 94       	set
    21e0:	3f 91       	pop	r19
    21e2:	2a e0       	ldi	r18, 0x0A	; 10
    21e4:	26 9f       	mul	r18, r22
    21e6:	11 24       	eor	r1, r1
    21e8:	30 19       	sub	r19, r0
    21ea:	30 5d       	subi	r19, 0xD0	; 208
    21ec:	31 93       	st	Z+, r19
    21ee:	de f6       	brtc	.-74     	; 0x21a6 <__ultoa_invert+0xe>
    21f0:	cf 01       	movw	r24, r30
    21f2:	08 95       	ret
    21f4:	46 2f       	mov	r20, r22
    21f6:	47 70       	andi	r20, 0x07	; 7
    21f8:	40 5d       	subi	r20, 0xD0	; 208
    21fa:	41 93       	st	Z+, r20
    21fc:	b3 e0       	ldi	r27, 0x03	; 3
    21fe:	0f d0       	rcall	.+30     	; 0x221e <__stack+0x1f>
    2200:	c9 f7       	brne	.-14     	; 0x21f4 <__ultoa_invert+0x5c>
    2202:	f6 cf       	rjmp	.-20     	; 0x21f0 <__ultoa_invert+0x58>
    2204:	46 2f       	mov	r20, r22
    2206:	4f 70       	andi	r20, 0x0F	; 15
    2208:	40 5d       	subi	r20, 0xD0	; 208
    220a:	4a 33       	cpi	r20, 0x3A	; 58
    220c:	18 f0       	brcs	.+6      	; 0x2214 <__stack+0x15>
    220e:	49 5d       	subi	r20, 0xD9	; 217
    2210:	31 fd       	sbrc	r19, 1
    2212:	40 52       	subi	r20, 0x20	; 32
    2214:	41 93       	st	Z+, r20
    2216:	02 d0       	rcall	.+4      	; 0x221c <__stack+0x1d>
    2218:	a9 f7       	brne	.-22     	; 0x2204 <__stack+0x5>
    221a:	ea cf       	rjmp	.-44     	; 0x21f0 <__ultoa_invert+0x58>
    221c:	b4 e0       	ldi	r27, 0x04	; 4
    221e:	a6 95       	lsr	r26
    2220:	97 95       	ror	r25
    2222:	87 95       	ror	r24
    2224:	77 95       	ror	r23
    2226:	67 95       	ror	r22
    2228:	ba 95       	dec	r27
    222a:	c9 f7       	brne	.-14     	; 0x221e <__stack+0x1f>
    222c:	00 97       	sbiw	r24, 0x00	; 0
    222e:	61 05       	cpc	r22, r1
    2230:	71 05       	cpc	r23, r1
    2232:	08 95       	ret
    2234:	9b 01       	movw	r18, r22
    2236:	ac 01       	movw	r20, r24
    2238:	0a 2e       	mov	r0, r26
    223a:	06 94       	lsr	r0
    223c:	57 95       	ror	r21
    223e:	47 95       	ror	r20
    2240:	37 95       	ror	r19
    2242:	27 95       	ror	r18
    2244:	ba 95       	dec	r27
    2246:	c9 f7       	brne	.-14     	; 0x223a <__stack+0x3b>
    2248:	62 0f       	add	r22, r18
    224a:	73 1f       	adc	r23, r19
    224c:	84 1f       	adc	r24, r20
    224e:	95 1f       	adc	r25, r21
    2250:	a0 1d       	adc	r26, r0
    2252:	08 95       	ret

00002254 <_exit>:
    2254:	f8 94       	cli

00002256 <__stop_program>:
    2256:	ff cf       	rjmp	.-2      	; 0x2256 <__stop_program>
