:100000007AC0000098C0000096C0000094C00000B4
:1000100092C000000C94070BC8C000008CC0000008
:100020008AC0000088C0000086C0000084C00000B4
:1000300082C0000080C000007EC000007CC00000C4
:100040007AC0000062C2000076C0000074C00000E8
:1000500072C0000070C000006EC000006CC00000E4
:100060006AC0000068C0000066C0000064C00000F4
:1000700062C0000060C000005EC000005CC0000004
:10008000C5C0000058C0000056C0000054C00000A9
:100090000C94F00D50C000004EC000004CC0000099
:1000A0004AC0000048C0000046C0000044C0000034
:1000B00042C0000040C000003EC000003CC0000044
:1000C0003AC0000038C0000036C0000034C0000054
:1000D00032C0000030C000002EC000002CC0000064
:1000E0002AC000008B0764057F06B706D1068B0780
:1000F000F0060407370711241FBECFEFD1E2DEBFA1
:10010000CDBF00E00CBF12E0A0E0B2E0E8E5F2E213
:1001100000E00BBF02C007900D92AA3BB107D9F7D0
:1001200025E1AAEBB2E001C01D92A33CB207E1F7C2
:10013000EBD70C942A1164CFEAE0F1E08081886269
:100140008083A0E2B1E01C92E1E2F1E010828C91A8
:1001500083608C938081886180838C91877F8C936E
:1001600080818160808385EA91E09093290180936A
:10017000280182ED90E090932D0180932C01109244
:100180009000E1E9F0E01082808181608083E1E706
:10019000F0E080818D7F80836D98EAE6F0E08081D9
:1001A0008C608083ED9AE59A08951F920F920FB6A6
:1001B0000F9211240BB60F928F939F93EF93FF939F
:1001C0008091BE02811117C081E08093BE0210921F
:1001D000BC021092BB02C19A80919400909195004C
:1001E0008052914D9093990080939800E1E7F0E060
:1001F000808182608083FF91EF919F918F910F901A
:100200000BBE0F900FBE0F901F9018951F920F926C
:100210000FB60F9211240BB60F922F933F934F936B
:100220005F936F937F938F939F93AF93BF93EF935E
:10023000FF938091BE02882389F165990EC03091A9
:10024000BC022091BB0281E090E002C0880F991FA0
:100250003A95E2F7822B8093BB028091BC028F5FBC
:100260008093BC02E8E9F0E080819181805C904E4F
:10027000918380838091BC02883090F01092BE02FE
:10028000E1E7F0E080818D7F8083C19AE59A8091DB
:10029000BB028093BA020E94240C02C08091BD026E
:1002A000FF91EF91BF91AF919F918F917F916F914E
:1002B0005F914F913F912F910F900BBE0F900FBE0A
:1002C0000F901F901895E0E2F1E0808188608083B4
:1002D000429A8FEC97E00197F1F700C00000089573
:1002E000E0E2F1E08081877F808342988FEC97E0A5
:1002F0000197F1F700C0000008950F931F93CF936B
:10030000DF93082FE0DFECDFC0E0D0E010E09801E1
:100310000C2E02C0359527950A94E2F720FF02C003
:10032000D2DF01C0DDDF2196C830D10581F7D8DFEB
:10033000DF91CF911F910F9108958091BA02089596
:10034000FFCFFF93FCB7FF93FFB7F894FF93EF93B2
:10035000DF93CF93BF93AF939F938F937F936F93CD
:100360005F934F933F932F931F930F93FF92EF92BF
:10037000DF92CF92BF92AF929F928F927F926F92B5
:100380005F924F923F922F921F920F928DB79EB71E
:100390009093941580939315E0919515F09196158F
:1003A000FE5F808191819EBF8DBF0F901F902F9027
:1003B0003F904F905F906F907F908F909F90AF9005
:1003C000BF90CF90DF90EF90FF900F911F912F91F2
:1003D0003F914F915F916F917F918F919F91AF91DD
:1003E000BF91CF91DF91EF91FF91FFBFFF91FCBFD4
:1003F000FF910895FF93FCB7FF93FFB7F894FF9325
:10040000EF93DF93CF93BF93AF939F938F937F939C
:100410006F935F934F933F932F931F930F93FF928D
:10042000EF92DF92CF92BF92AF929F928F927F9284
:100430006F925F924F923F922F921F920F92E09194
:100440009515F09196158DB79EB7FE5F91838083C9
:1004500080919315909194159EBF8DBF0F901F9022
:100460002F903F904F905F906F907F908F909F90D4
:10047000AF90BF90CF90DF90EF90FF900F911F91C2
:100480002F913F914F915F916F917F918F919F91AC
:10049000AF91BF91CF91DF91EF91FF91FFBFFF919E
:1004A000FCBFFF910895FC01DB01A95FBD4F1D92C8
:1004B0001C9280819181892B29F4718360837383DD
:1004C00062830895A281B381A95FBD4F6D937C9330
:1004D000738362830895FC0180819181009751F0BC
:1004E000DC01A95FBD4F2D913C9111973183208391
:1004F0001D921C920895CF93CFB7F89483E0809318
:100500000B0378DFCFBFCF910895FF93FCB7FF9324
:10051000FFB7F894F068FF93EF93DF93CF93BF9307
:10052000AF939F938F937F936F935F934F933F937B
:100530002F931F930F93FF92EF92DF92CF92BF9270
:10054000AF929F928F927F926F925F924F923F9263
:100550002F921F920F92E0919515F09196158DB7FD
:100560009EB7FE5F9183808380919315909194153F
:100570009EBF8DBF81E080930B03E8E8F0E08081AF
:100580009181805F984D91838083809193159091A4
:1005900094159EBF8DBF0F901F902F903F904F904E
:1005A0005F906F907F908F909F90AF90BF90CF9013
:1005B000DF90EF90FF900F911F912F913F914F91FE
:1005C0005F916F917F918F919F91AF91BF91CF91EB
:1005D000DF91EF91FF91FFBFFF91FCBFFF91089565
:1005E000F89480E884B915B8209119022F5F90E043
:1005F00038EC40E018C084B185B980E5E9E6F8E15F
:100600003197F1F700C000008150C1F715B880E5BF
:10061000E9E6F8E13197F1F700C000008150C1F739
:100620009F5F01C0942F921730F3832FE9E6F8E122
:100630003197F1F700C000008150C1F7F3CFAF92BE
:10064000BF92CF92DF92EF92FF920F931F93CF93BF
:10065000DF938091F6029091F702892B09F447C14C
:1006600080910403823009F04FC18091050390917D
:100670000603892B09F444C1809107039091080374
:10068000892B09F43DC140C186EF92E024DFBC0113
:1006900002C064E873E1CB0189529E4FFC0120E067
:1006A00021932F5F2F31E1F725E5FB01EA50FE4F43
:1006B00020832EEE319620837E97108220E87F964D
:1006C000208332961082E0E0F3E020813181DB016B
:1006D000A550BE4F3C9320813181FB01E450FE4F79
:1006E0002083319610822BE732E0319630833196A9
:1006F000208331969183808382E03396808380913A
:10070000020390910303319691838083E4E0F3E048
:1007100080811B968C938081823039F0833009F47C
:10072000DAC0813009F0E6C0DCC080910903909105
:100730000A03FB01E35FFD4F9183808380910703F0
:100740009091080332979183808380910503909163
:100750000603329791838083329711821082E09052
:10076000E902F090EA02E114F10499F47093EA02CC
:100770006093E9027093EC026093EB023296808101
:100780008093C8027093C2026093C10281E090E03E
:10079000CFC0FB01E35FFD4F20813181F701E35FB3
:1007A000FD4F808191812817390708F0B6C0FB0101
:1007B000E75FFD4F40815181240F351F821793075A
:1007C00008F4ABC03297F182E0827093EA02609342
:1007D000E902F701E95FFD4F80819181892B09F0E2
:1007E00099C0C70141E04EC0DB01A35FBD4FEB01E3
:1007F000C75FDD4F8B01095F1D4FAA24A394B12C65
:100800002D913C911197FC01E35FFD4F4081518197
:100810002417350700F5E881F981E20FF31F4E1721
:100820005F07C8F0F701E75FFD4FC080D1803496C5
:100830000190F081E02DEC0DFD1D2E173F0758F0C3
:10084000F80191838083F701E95FFD4F7183608335
:10085000C7014A2D08C04217530720F083E0809358
:100860001902BEDE4B2D009769F0FC01E95FFD4FD8
:10087000208131812115310529F041114BC07C01C6
:10088000C901BECF411139C0FC01E75FFD4FDC015A
:10089000A35FBD4F208131818D919C91280F391F1D
:1008A000FB01E35FFD4F808191818217930778F010
:1008B000E091EB02F091EC02E95FFD4F7183608300
:1008C0007093EC026093EB0281E090E031C083E032
:1008D0008093190285DE8DEE92E0E5DD81E090E007
:1008E00027C081EF92E0DFDD81E090E021C080E071
:1008F00090E01EC081E090E01BC081E090E018C055
:1009000081E0809319026CDE80910403882309F44E
:10091000C0CEBACE81E090E00BC0F701E95FFD4F99
:1009200080819181009709F05FCFC70140E0AACF95
:10093000DF91CF911F910F91FF90EF90DF90CF90BB
:10094000BF90AF900895CF93DF931F921F92CDB7C2
:10095000DEB7E1E8F0E0808182608083EFE0F5E0DF
:1009600028E733E11082CF010C9695838483E15F01
:10097000FD4FE217F307B1F710927D1310927C132D
:100980000F2EFCE0EF2EF3E0FF2EF02DF092F70299
:10099000E092F60285E791E19093F9028093F802E4
:1009A00000E013E080EA91E0D80111969C938E93C9
:1009B0000F2EF4E0CF2EF3E0DF2EF02DF6011082A3
:1009C0003EDE86E19DE0D80111969C938E9383E0F4
:1009D000F601808334DEF0929615E092951581E061
:1009E00080930F058DEE92E076DDEFE6F0E08081FA
:1009F000826080838091840090918500805F984D13
:100A0000909389008093880082E086BBEE24E39473
:100A10000F2EF9EE6F2EF2E07F2EF02D0F2EF1EF5C
:100A2000AF2EF2E0BF2EF02D0F2EFCEF4F2EF2E096
:100A30005F2EF02D6894FF24F1F8912C812C99827F
:100A40008A828091951590919615FC01ED5FFD4F7E
:100A50002081213019F48458934149F5ADEEB2E07C
:100A60008D919C911197892B39F0CD0134DD9093B4
:100A700096158093951514C0F30180819181892B7F
:100A800009F479C28091C30281116EC28091C702BC
:100A900081116AC243C28091C702811148C24EC20D
:100AA000E0919515F0919615ED5FFD4FE08249DCE0
:100AB00080910B0390E08930910508F028C2FC0179
:100AC000EE58FF4F0C94620ED3016D917C9161152D
:100AD000710509F4EFC08091C80281508093C8026B
:100AE0008091C702882301F18091C1029091C202D6
:100AF000FC01E35FFD4F2091BF023091C0024091A5
:100B0000C4025091C502241B350B4081518124172A
:100B1000350708F4D7C0349780818093C8021092BB
:100B2000C3021092C702CEC08091C602882309F486
:100B30006DC0C090C102D090C2026C157D0571F0ED
:100B4000EBEEF2E000811181292C382CF601E35FF5
:100B5000FD4F29EFC21A2DEFD20A33C0FB01E95F26
:100B6000FD4F80819181D3018D939C9386EF92E01C
:100B70009ADCF301208031802FC0DC01A35FBD4FE0
:100B80004D915C91208131814217530711F0BC01D6
:100B900018C0D6012D903C90DB01A95FBD4F2D926E
:100BA0003C92D6011D921C9220813181D801A35F15
:100BB000BD4F8D919C912817390719F48B0129801D
:100BC0003A80DB01A95FBD4F8D919C910097A9F6FA
:100BD000EBEEF2E0118300833092C2022092C10258
:100BE000232879F48091BF029091C0029093C502AE
:100BF0008093C402D3018D919C919093C202809303
:100C0000C1021092C602E092C7025CC08091C80285
:100C1000811158C08091951590919615009771F0AB
:100C2000FC01EA5FFD4F8081823041F48091C30274
:100C3000811104C086E080931902D2DCE091C102E8
:100C4000F091C202E95FFD4F808191819093C202D1
:100C50008093C102892B61F48091BF029091C00200
:100C60009093C5028093C4027093C2026093C10244
:100C70008091C1029091C202FC01E35FFD4F20917F
:100C8000BF023091C0024091C4025091C502241BA2
:100C9000350B408151812417350718F4E092C702C3
:100CA00011C0FC01E75FFD4F80818093C802109264
:100CB000C30208C08091BF029091C0029093C50208
:100CC0008093C4028091BF029091C00201969093DC
:100CD000C0028093BF026091951570919615FB013B
:100CE000EA5FFD4F8081813009F015C13397808123
:100CF000813009F010C1F082C501D5DB0CC19FDC49
:100D00009093FF028093FE028091FE029091FF0279
:100D1000892B09F400C1E4E0F3E08081833061F4C1
:100D20008091951590919615FC01EA5FFD4F208109
:100D3000233009F00AC1EFC06091951570919615A6
:100D4000FB01EA5FFD4F8081813009F0E4C0A4E03F
:100D5000B3E08C91823009F4FDC0FB01ED5FFD4FE3
:100D60008081823009F0D7C0C5019DDBD4C060917D
:100D7000951570919615B3E164387B0709F4CBC0E3
:100D8000FB01ED5FFD4F108233968081823029F4A4
:100D9000E092C602E092C302BEC086EF92E083DB1F
:100DA000BAC00091951510919615F801EA5FFD4FB4
:100DB0008081823051F0833019F0813061F408C0B5
:100DC000B8018DEE92E06FDB06C0E092C30203C073
:100DD000B801C50168DBF801ED5FFD4FF0829BC0F3
:100DE0009092FC028092FD022091F502283008F0DA
:100DF00092C0822F90E001969093FD028093FC02B6
:100E00002F5F2093F50287C060919515709196151C
:100E1000E3E164387E0709F47EC02091FA02309144
:100E2000FB02FB01EA5FFD4F9081D2018C91815062
:100E30004091F502841720F089E080931902D0DBFD
:100E4000923021F48AE080931902CADBFB01ED5F46
:100E5000FD4F93E0908331963183208390E0880F9B
:100E6000991F880F991F87539D4F1DDB54C0E09138
:100E7000FA02F091FB02C080D180F20100810150A2
:100E80008091F502081750F410E0000F111F000FB9
:100E9000111F07531D4F202E312E21C08CE080934F
:100EA00019029EDB822D932D16DBFC01ED5FFD4FB9
:100EB000F08231960190F081E02DD182C082FC0158
:100EC000EA5FFD4F2081213039F0233041F4BC012D
:100ED0008DEE92E0E8DA03C0BC01C501E4DAD80186
:100EE0002D913C91232BF1F66091951570919615FB
:100EF000B3E164387B0779F0FB01ED5FFD4FF082D1
:100F000033968081813039F4C501CDDA04C08BE09D
:100F10008093190265DB10920B0393CD8091C1027F
:100F20009091C2029093961580939515B9CDC50105
:100F3000D2DA9093961580939515B2CDE4E8F3E15B
:100F4000F0939615E0939515ABCDFC01ED5FFD4F49
:100F5000F082F2CEFB01ED5FFD4FF082339680818F
:100F6000813009F4FACED7CFD5018D919C91892B90
:100F700009F091CDE3CFF50180819181892BB9F6FC
:100F8000DDCFCF93CFB7F894909301038093000304
:100F9000E0910203F09103037183608383E0809307
:100FA000040382E080930B0325DA8091FE02909186
:100FB000FF02CFBFCF910895CF93CFB7F89490930E
:100FC000010380930003E0910203F0910303718316
:100FD000608381E08093040382E080930B030ADA4C
:100FE0008091FE029091FF02CFBFCF9108950F93A1
:100FF0001F93CF93CFB7F89490930103809300038E
:10100000E0910203F09103037183608382E0809397
:101010000403509306034093050330930803209381
:10102000070310930A030093090380930B03E2D98B
:101030008091FE029091FF02CFBFCF911F910F913F
:1010400008958091BF029091C0028433934320F0B1
:101050001092C0021092BF028091BF029091C00214
:101060009C01220F331F220F331F820F931F0895FD
:10107000CF93CFB7F89486E080930B03BBD98091D0
:10108000FC029091FD02009721F48DE080931902FB
:10109000A7DACFBFCF910895CF93CFB7F89427E0C9
:1010A00020930B039093FD028093FC027093FB024C
:1010B0006093FA029FD9CFBFCF910895CF93CFB756
:1010C000F89428E020930B039093FD028093FC0298
:1010D000E091FA02F091FB02718360838BD9CFBF5C
:1010E000CF910895CF93DF931F92CDB7DEB78FB71F
:1010F0008983F89484E080930B037CD989818FBF26
:101100000F90DF91CF910895E1E6F0E080E88083D1
:10111000108219DCCF93DF93C2E0D1E088818F7B0E
:1011200088838FEF27D3988190649883DF91CF9144
:101130000895EF92FF920F931F93CF93DF938B014C
:10114000E42EC2E0D1E098819F7B98838F7180620A
:1011500011D3F82E6E2DC801FED288818064888359
:101160008F2DDF91CF911F910F91FF90EF900895F8
:1011700080912702882329F045E06DE172E08AE042
:10118000D8CF0895FF920F931F93CF93DF938B01D6
:10119000EA01F22EE2E0F1E090819F7B9083EAD2B7
:1011A000FF2051F0209721F46F2DC801D4D204C044
:1011B0004F2DBE01C801BCD2E2E0F1E08081806425
:1011C0008083DF91CF911F910F91FF900895EF924F
:1011D000FF920F931F93CF93DF93062FF72E142FB9
:1011E000442349F0362FE62FF72F2FEF21939E2F20
:1011F000931B9117D8F3C2E0D1E098819F7B98832D
:101200008F71B8D2E82E412F602F7F2D80E090E0C3
:101210008FD28881806488838E2DDF91CF911F913A
:101220000F91FF90EF900895CF93DF931F92CDB76A
:10123000DEB741E0BE016F5F7F4F80E0C8DF89818C
:1012400080FD10C08160898341E0BE016F5F7F4FE8
:1012500080E06FDF85E18A95F1F700C085E18A952E
:10126000F1F700C00F90DF91CF910895CF93DF93F6
:101270001F92CDB7DEB710929715E1E0F1E08081C3
:1012800088618083A2E0B1E08C918F7E8C938C91F9
:10129000877F8C938C918F7D8C93808180628083FB
:1012A0008081806480836C98EAE6F0E080818260CF
:1012B000808380818E7F8083EC9AE49A8DEB9AE024
:1012C0000197F1F700C0000026D283E0898341E056
:1012D000BE016F5F7F4F2DDF85E1898341E0BE0155
:1012E0006F5F7F4F84E025DF88E6898341E0BE01A0
:1012F0006F5F7F4F85E01DDF89E0898341E0BE019C
:101300006F5F7F4F86E015DF8FE0898341E0BE018C
:101310006F5F7F4F80E00DDF80E7898341E0BE0192
:101320006F5F7F4F87E005DF20E040E050E060E046
:1013300070E081EE27DF20E040E050E060E070E008
:1013400082EE20DF83EF91E00197F1F700C000000B
:10135000E2E0F1E08081806280838081806180832F
:101360000F90DF91CF910895CF92DF92EF92FF928D
:101370000F931F93CF93DF931F92CDB7DEB7D82E75
:10138000C42E85E08D1508F46FC0D11011C0FB018B
:10139000808180931D02818180931E0282818093CF
:1013A0001F0283818093200284818093210203C0E5
:1013B000F1E0FD1510F045E001C041E08AE08D0D3F
:1013C000B8DE41E0BE016F5F7F4F81E000DFED2CB2
:1013D000F12C01E010E00D2C02C0000F111F0A9447
:1013E000E2F78981802B898341E0BE016F5F7F4FE7
:1013F00081E09FDEC11008C01FC041E0BE016F5FE9
:101400007F4F82E096DE30C080E2898341E0BE01FA
:101410006F5F7F4F81E18D0D8CDE8981F701E95D82
:10142000FD4F808341E0BE016F5F7F4F82E0CFDEE2
:101430008981082B0983E1CF198241E0BE016F5FEA
:101440007F4F81E18D0D75DE8981F701E95DFD4FEB
:10145000808341E0BE016F5F7F4F82E0B8DE009580
:10146000898108230983C9CF0F90DF91CF911F9104
:101470000F91FF90EF90DF90CF900895FC01808155
:1014800080932202818180932302828180932402AF
:1014900083818093250284818093260245E0BF01E9
:1014A00080E147CE08950F931F93CF93DF931F9250
:1014B000CDB7DEB7082F162F6430C8F48230B8F4E9
:1014C00041E0BE016F5F7F4F86E081DE110F8981B1
:1014D00086601823002319F01860198302C0177F53
:1014E000198341E0BE016F5F7F4F86E022DE0F90DF
:1014F000DF91CF911F910F910895DF92EF92FF92AC
:101500000F931F93CF93DF931F92CDB7DEB77C016C
:10151000D62E81E080939715E2E0F1E080818F7D07
:10152000808341E0BE016F5F7F4F80E050DE8981A4
:1015300080FF10C08E7F898341E0BE016F5F7F4FC7
:1015400080E0F7DD85E18A95F1F700C0E5E1EA95F5
:10155000F1F700C045E062E272E08AE0EADD02E015
:1015600011E0F80180818860808320E240E050E053
:10157000B70180EA07DEF801808180628083D110A4
:1015800007C0809197158111FCCF80911A0201C08C
:1015900081E00F90DF91CF911F910F91FF90EF901D
:1015A000DF900895CF93DF93EC0110929715E2E05E
:1015B000F1E080818F7D8083ADDD8E70282F30E05B
:1015C00035952795F901FF27DF01A95DBD4F8C9166
:1015D000813270F4273071F0FD012081AE01BE012F
:1015E00081E6D0DD97DD8E708E3031F083E005C06E
:1015F00080E003C082E001C084E0E2E0F1E090819D
:101600009062908310929715DF91CF9108951F9269
:101610000F920FB60F9211240BB60F922F933F9398
:101620004F935F936F937F938F939F93AF93BF93EA
:10163000EF93FF93CF93DF931F92CDB7DEB7E2E036
:10164000F1E080818F7E808380818F7D808362DD69
:10165000898386FF03C08E708695EED0898185FFD1
:101660001BC01092971584DDDFDD80911B029091E5
:101670001C02880F991F90931C0280931B0280917B
:101680001B0290911C02816090931C0280931B02AC
:1016900081E080931A0219C084FF17C020E040E067
:1016A00050E060E070E081EE6DDD1092971560DD36
:1016B000BBDD80911B0290911C02880F991F9093B3
:1016C0001C0280931B0210921A0280E7898341E07A
:1016D000BE016F5F7F4F87E02CDDE2E0F1E08081AB
:1016E000806180838081806280830F90DF91CF91C1
:1016F000FF91EF91BF91AF919F918F917F916F91EA
:101700005F914F913F912F910F900BBE0F900FBEA5
:101710000F901F90189584B1807F84B984B1876041
:1017200084B9289A80E58CBD81E08DBD2898089504
:10173000442381F0282FA62FB72FE82FF92F81916E
:101740008EBD0DB407FEFDCF8EB58D938E2F821BFF
:101750008417A8F30895662361F0282FE82FF92F46
:1017600081918EBD0DB407FEFDCF8E2F821B861793
:10177000B8F308958EBD0DB407FEFDCF8EB5089564
:10178000F8948FE292E065D281E40E947D01789422
:1017900080912D02811102C0A5DCF2CF0E947B0254
:1017A000EFCF0F931F93CF93DF93182F092FC62FDF
:1017B000D72F89E8CDD1802FCBD1812FC9D18D2FC3
:1017C000C7D18C2FC5D1DF91CF911F910F91089573
:1017D00084B185B96FEF7FEF84EF91E0E2DF2FEF07
:1017E00089E698E1215080409040E1F700C0000078
:1017F0002FEF89E698E1215080409040E1F700C04A
:1018000000002FEF89E698E1215080409040E1F7F9
:1018100000C000002FEF89E698E121508040904001
:10182000E1F700C0000060E070E080E090E0B9DF28
:1018300010922D0215B8089560E070E08091A01517
:101840009091A1153BCC08951F93CF93DF93CDB713
:10185000DEB7A0970FB6F894DEBF0FBECDBF85E40C
:1018600092E0F7D10E949D01182F90E000D286EA05
:1018700092E0EFD160E070E08091A0159091A11509
:101880001DDC113479F483E592E0E3D184E192E048
:10189000F5DD85E0898380912E028C8361E0CE01A5
:1018A00001962BDEA0960FB6F894DEBF0FBECDBF1B
:1018B000DF91CF911F9108950F931F9320912D02D7
:1018C000223071F4FC01328D20912E02321308C0B7
:1018D0000CC0FC01928D80912E0298131EC021C075
:1018E00020912D022223A9F31CC081E080932D02B8
:1018F00060E070E088EE9BE044DB84B185B9109233
:101900002D0208EC10E023EC30E048EC50E060E001
:1019100070E080EC9BE06BDB04C082E080932D02E2
:1019200015B81F910F910895EF92FF920F931F9397
:10193000CF93DF937C018CE792E08BD183B384BBA0
:1019400014BAF70180858038E9F09DE7980F92304E
:10195000C8F08E38B9F0FCD0F7018185882381F07A
:101960008701065F1F4FC0E0D0E0F80181918F0131
:10197000EFD02196F701218530E0C217D307ACF3F1
:10198000C7019ADFDF91CF911F910F91FF90EF90E8
:101990000895CF93DF93EC0184E992E05AD18885D2
:1019A000811108C0F89488EA92E053D189850E9499
:1019B0007D017894CE0180DFDF91CF910895CF93A0
:1019C000DF93CDB7DEB7A2970FB6F894DEBF0FBE98
:1019D000CDBF7CD0BE016F5D7F4F8091A0159091EF
:1019E000A1155ADB89E995E198D089E995E19ED066
:1019F00080919815882319F01092981567D0CE0120
:101A00000196D0DD182F8DEF810F823060F489812F
:101A1000811104C0CE01019687DF05C0823019F420
:101A2000CE010196B6DF133051F3D4CF87E690E0B4
:101A3000FDD080E484B915B881E083BB14BAEAE034
:101A4000F1E0808184608083EBE0F1E080818B7F36
:101A500080832FEF89E698E1215080409040E1F7A4
:101A600000C000008081846080832FEF89E698E1C8
:101A7000215080409040E1F700C00000F894F6DB70
:101A80000E949C0080912E0290E0BC01660F771F9F
:101A9000660F771F860F971FBC0160507E4F41E095
:101AA00080E062DC63E081E0FEDC7894E1DA909330
:101AB000A1158093A015DCDA90939F1580939E1555
:101AC00060E070E08FED9CE077CA089583E048D035
:101AD00080E83ED087E893E10197F1F700C000006D
:101AE00081E836D087E034D087EA91E60197F1F7B4
:101AF00000C0000080E034D080E82AD087E893E17D
:101B00000197F1F700C0000083E822D087E893E155
:101B10000197F1F700C0000008952FB7F89431E065
:101B2000FC013483118210822FBF08951F93CF933D
:101B3000DF93EC011FB7F8948C81882321F01C827D
:101B400080DA9B838A831FBFDF91CF911F91089515
:101B5000E8ECF0E0908195FFFDCF8093CE000895F2
:101B60002FB7F894E5E6F0E090819E7F9083813076
:101B700069F028F0823089F08330B1F01CC083E333
:101B800090E09093CD008093CC001BC089E190E061
:101B90009093CD008093CC0014C080E190E09093AE
:101BA000CD008093CC000DC088E090E09093CD00F4
:101BB0008093CC0006C080E190E09093CD008093AC
:101BC000CC00E8ECF0E080E4808388E08093C900FA
:101BD00086E08093CA0080818D7F80832FBF089527
:101BE0001F920F920FB60F9211240BB60F928F9384
:101BF0009F93EF93FF93E091A215F0E08091CE00C8
:101C0000ED55FA4E80838091A21590E001968F7178
:101C100090788093A215FF91EF919F918F910F90F3
:101C20000BBE0F900FBE0F901F9018959093C5009C
:101C30008093C40088E18093C1008EE08093C2004D
:101C40000895E0ECF0E0908195FFFDCF8093C60011
:101C50000895CF93DF93EC018881882329F02196A2
:101C6000F0DF89918111FCCFDF91CF9108950F931F
:101C70001F93CF93DF93CDB7DEB72A970FB6F894B3
:101C8000DEBF0FBECDBF9F938F9386EB92E09F93F5
:101C90008F938E010F5F1F4F1F930F9319D0C801B1
:101CA000D8DF0F900F900F900F900F900F902A9603
:101CB0000FB6F894DEBF0FBECDBFDF91CF911F915D
:101CC0000F910895EE0FFF1F0590F491E02D1994E8
:101CD0000F931F93CF93DF93CDB7DEB72E970FB639
:101CE000F894DEBF0FBECDBF0E891F8986E08C83BE
:101CF0001A8309838FEF9FE79E838D83AE01465E33
:101D00005F4F688D798DCE01019610D0EF81F885F7
:101D1000E00FF11F10822E960FB6F894DEBF0FBEB3
:101D2000CDBFDF91CF911F910F9108952F923F92D8
:101D30004F925F926F927F928F929F92AF92BF92DB
:101D4000CF92DF92EF92FF920F931F93CF93DF9387
:101D5000CDB7DEB72C970FB6F894DEBF0FBECDBF60
:101D60007C016B018A01FC0117821682838181FF4D
:101D7000B0C1CE0101964C01F7019381F60193FDAC
:101D8000859193FF81916F01882309F49EC185326B
:101D900039F493FD859193FF81916F01853221F490
:101DA000B70190E0C7D1E8CF512C312C20E0203290
:101DB000A0F48B3269F030F4803259F0833269F448
:101DC00020612CC08D3239F0803339F4216026C077
:101DD0002260246023C0286021C027FD27C030ED89
:101DE000380F3A3078F426FF06C0FAE05F9E300DD7
:101DF0001124532E13C08AE0389E300D1124332E47
:101E000020620CC08E3221F426FD5FC1206406C022
:101E10008C3611F4206802C0883641F4F60193FD37
:101E2000859193FF81916F018111C1CF982F9F7D83
:101E30009554933028F40C5F1F4FFFE3F9830DC0D6
:101E4000833631F0833771F0833509F057C021C0F4
:101E5000F801808189830E5F1F4F44244394512CE5
:101E6000540114C03801F2E06F0E711CF801A0801B
:101E7000B18026FF03C0652D70E002C06FEF7FEFD9
:101E8000C5012C874CD12C0183012C852F77222E64
:101E900016C03801F2E06F0E711CF801A080B1800D
:101EA00026FF03C0652D70E002C06FEF7FEFC50114
:101EB0002C872AD12C012C852068222E830123FC1B
:101EC00019C0832D90E048165906A0F4B70180E2AE
:101ED00090E030D13A94F5CFF50127FC859127FEAB
:101EE00081915F01B70190E025D131103A94F1E082
:101EF0004F1A51084114510479F7DEC0843611F0AD
:101F0000893631F5F80127FF07C060817181828130
:101F100093810C5F1F4F08C060817181882777FD16
:101F20008095982F0E5F1F4F2F76B22E97FF09C016
:101F300090958095709561957F4F8F4F9F4F20684A
:101F4000B22E2AE030E0A40127D1A82EA81843C061
:101F5000853729F42F7EB22E2AE030E025C0F22FFB
:101F6000F97FBF2E8F36C1F018F4883579F0ADC0F7
:101F7000803719F0883721F0A8C02F2F2061B22EAA
:101F8000B4FE0DC08B2D8460B82E09C024FF0AC09A
:101F90009F2F9660B92E06C028E030E005C020E1F2
:101FA00030E002C020E132E0F801B7FE07C06081F6
:101FB0007181828193810C5F1F4F06C060817181A6
:101FC00080E090E00E5F1F4FA401E6D0A82EA81875
:101FD000FB2DFF77BF2EB6FE0BC02B2D2E7FA51439
:101FE00050F4B4FE0AC0B2FC08C02B2D2E7E05C0F2
:101FF0007A2C2B2D03C07A2C01C0752C24FF0DC028
:10200000FE01EA0DF11D8081803311F4297E09C0A3
:1020100022FF06C07394739404C0822F867809F05F
:10202000739423FD12C020FF06C05A2C731418F4B9
:10203000530C5718732C731460F4B70180E290E0CE
:102040002C8778D073942C85F6CF731410F437183E
:1020500001C0312C24FF11C0B70180E390E02C8730
:1020600069D02C8522FF16C021FF03C088E590E0CF
:1020700002C088E790E0B7010CC0822F867851F04B
:1020800021FD02C080E201C08BE227FD8DE2B70195
:1020900090E050D0A51430F4B70180E390E04AD02E
:1020A0005A94F8CFAA94F401EA0DF11D8081B7018A
:1020B00090E040D0A110F6CF332009F45DCEB701F7
:1020C00080E290E037D03A94F7CFF701868197818C
:1020D00002C08FEF9FEF2C960FB6F894DEBF0FBEB5
:1020E000CDBFDF91CF911F910F91FF90EF90DF90C7
:1020F000CF90BF90AF909F908F907F906F905F90A8
:102100004F903F902F900895FC01059061507040D2
:102110000110D8F7809590958E0F9F1F0895FC01B0
:102120006150704001900110D8F7809590958E0F06
:102130009F1F08950F931F93CF93DF93182F092F9D
:10214000EB018B8181FD03C08FEF9FEF20C082FFE9
:1021500010C04E815F812C813D81421753077CF472
:10216000E881F9819F012F5F3F4F398328831083D6
:1021700006C0E885F985812F1995892B29F72E81CD
:102180003F812F5F3F4F3F832E83812F902FDF9121
:10219000CF911F910F910895FA01AA27283051F18C
:1021A000203181F1E8946F936E7F6E5F7F4F8F4F88
:1021B0009F4FAF4FB1E03ED0B4E03CD0670F781FE7
:1021C000891F9A1FA11D680F791F8A1F911DA11DCC
:1021D0006A0F711D811D911DA11D20D009F4689405
:1021E0003F912AE0269F11243019305D3193DEF6AD
:1021F000CF010895462F4770405D4193B3E00FD063
:10220000C9F7F6CF462F4F70405D4A3318F0495D4D
:1022100031FD4052419302D0A9F7EACFB4E0A69530
:102220009795879577956795BA95C9F70097610552
:10223000710508959B01AC010A2E069457954795A8
:1022400037952795BA95C9F7620F731F841F951F9D
:08225000A01D0895F894FFCFD2
:10225800AAAAAAAAAABBBBBBBBBBCCCCCCCCCCDDA4
:10226800DDDDDDDDDBDBDBDBDB0401FF00E7E7E7F2
:10227800E7E7E7E7E7E7E720200000000002015072
:102288006572696F646963204952205472616E7384
:102298006D69740A00495220526563656976656400
:1022A8000A09005472616E736D697474696E6720EF
:1022B80053686F74205061636B657420546F2042BB
:1022C80061736573746174696F6E0A00526F6F6D24
:1022D8006261205061636B6574205265636569763D
:1022E80065640A004952205061636B657420526529
:1022F8006365697665640A00094952205472616E03
:0A230800736D69740A00257500006A
:00000001FF
