
RTOS.elf:     file format elf32-avr

Sections:
Idx Name          Size      VMA       LMA       File off  Algn
  0 .data         00000002  00800200  0000093c  000009d0  2**0
                  CONTENTS, ALLOC, LOAD, DATA
  1 .text         0000093c  00000000  00000000  00000094  2**1
                  CONTENTS, ALLOC, LOAD, READONLY, CODE
  2 .bss          00001385  00800202  00800202  000009d2  2**0
                  ALLOC
  3 .comment      00000030  00000000  00000000  000009d2  2**0
                  CONTENTS, READONLY
  4 .debug_aranges 00000100  00000000  00000000  00000a02  2**0
                  CONTENTS, READONLY, DEBUGGING
  5 .debug_info   00000eed  00000000  00000000  00000b02  2**0
                  CONTENTS, READONLY, DEBUGGING
  6 .debug_abbrev 00000575  00000000  00000000  000019ef  2**0
                  CONTENTS, READONLY, DEBUGGING
  7 .debug_line   000009d9  00000000  00000000  00001f64  2**0
                  CONTENTS, READONLY, DEBUGGING
  8 .debug_frame  0000020c  00000000  00000000  00002940  2**2
                  CONTENTS, READONLY, DEBUGGING
  9 .debug_str    000007d5  00000000  00000000  00002b4c  2**0
                  CONTENTS, READONLY, DEBUGGING
 10 .debug_loc    0000079c  00000000  00000000  00003321  2**0
                  CONTENTS, READONLY, DEBUGGING
 11 .debug_ranges 00000110  00000000  00000000  00003abd  2**0
                  CONTENTS, READONLY, DEBUGGING

Disassembly of section .text:

00000000 <__vectors>:
   0:	71 c0       	rjmp	.+226    	; 0xe4 <__ctors_end>
   2:	00 00       	nop
   4:	8e c0       	rjmp	.+284    	; 0x122 <__bad_interrupt>
   6:	00 00       	nop
   8:	8c c0       	rjmp	.+280    	; 0x122 <__bad_interrupt>
   a:	00 00       	nop
   c:	8a c0       	rjmp	.+276    	; 0x122 <__bad_interrupt>
   e:	00 00       	nop
  10:	88 c0       	rjmp	.+272    	; 0x122 <__bad_interrupt>
  12:	00 00       	nop
  14:	86 c0       	rjmp	.+268    	; 0x122 <__bad_interrupt>
  16:	00 00       	nop
  18:	84 c0       	rjmp	.+264    	; 0x122 <__bad_interrupt>
  1a:	00 00       	nop
  1c:	82 c0       	rjmp	.+260    	; 0x122 <__bad_interrupt>
  1e:	00 00       	nop
  20:	80 c0       	rjmp	.+256    	; 0x122 <__bad_interrupt>
  22:	00 00       	nop
  24:	7e c0       	rjmp	.+252    	; 0x122 <__bad_interrupt>
  26:	00 00       	nop
  28:	7c c0       	rjmp	.+248    	; 0x122 <__bad_interrupt>
  2a:	00 00       	nop
  2c:	7a c0       	rjmp	.+244    	; 0x122 <__bad_interrupt>
  2e:	00 00       	nop
  30:	78 c0       	rjmp	.+240    	; 0x122 <__bad_interrupt>
  32:	00 00       	nop
  34:	76 c0       	rjmp	.+236    	; 0x122 <__bad_interrupt>
  36:	00 00       	nop
  38:	74 c0       	rjmp	.+232    	; 0x122 <__bad_interrupt>
  3a:	00 00       	nop
  3c:	72 c0       	rjmp	.+228    	; 0x122 <__bad_interrupt>
  3e:	00 00       	nop
  40:	70 c0       	rjmp	.+224    	; 0x122 <__bad_interrupt>
  42:	00 00       	nop
  44:	47 c1       	rjmp	.+654    	; 0x2d4 <__vector_17>
  46:	00 00       	nop
  48:	6c c0       	rjmp	.+216    	; 0x122 <__bad_interrupt>
  4a:	00 00       	nop
  4c:	6a c0       	rjmp	.+212    	; 0x122 <__bad_interrupt>
  4e:	00 00       	nop
  50:	68 c0       	rjmp	.+208    	; 0x122 <__bad_interrupt>
  52:	00 00       	nop
  54:	66 c0       	rjmp	.+204    	; 0x122 <__bad_interrupt>
  56:	00 00       	nop
  58:	64 c0       	rjmp	.+200    	; 0x122 <__bad_interrupt>
  5a:	00 00       	nop
  5c:	62 c0       	rjmp	.+196    	; 0x122 <__bad_interrupt>
  5e:	00 00       	nop
  60:	60 c0       	rjmp	.+192    	; 0x122 <__bad_interrupt>
  62:	00 00       	nop
  64:	5e c0       	rjmp	.+188    	; 0x122 <__bad_interrupt>
  66:	00 00       	nop
  68:	5c c0       	rjmp	.+184    	; 0x122 <__bad_interrupt>
  6a:	00 00       	nop
  6c:	5a c0       	rjmp	.+180    	; 0x122 <__bad_interrupt>
  6e:	00 00       	nop
  70:	58 c0       	rjmp	.+176    	; 0x122 <__bad_interrupt>
  72:	00 00       	nop
  74:	56 c0       	rjmp	.+172    	; 0x122 <__bad_interrupt>
  76:	00 00       	nop
  78:	54 c0       	rjmp	.+168    	; 0x122 <__bad_interrupt>
  7a:	00 00       	nop
  7c:	52 c0       	rjmp	.+164    	; 0x122 <__bad_interrupt>
  7e:	00 00       	nop
  80:	50 c0       	rjmp	.+160    	; 0x122 <__bad_interrupt>
  82:	00 00       	nop
  84:	4e c0       	rjmp	.+156    	; 0x122 <__bad_interrupt>
  86:	00 00       	nop
  88:	4c c0       	rjmp	.+152    	; 0x122 <__bad_interrupt>
  8a:	00 00       	nop
  8c:	4a c0       	rjmp	.+148    	; 0x122 <__bad_interrupt>
  8e:	00 00       	nop
  90:	48 c0       	rjmp	.+144    	; 0x122 <__bad_interrupt>
  92:	00 00       	nop
  94:	14 c4       	rjmp	.+2088   	; 0x8be <__vector_37>
  96:	00 00       	nop
  98:	44 c0       	rjmp	.+136    	; 0x122 <__bad_interrupt>
  9a:	00 00       	nop
  9c:	42 c0       	rjmp	.+132    	; 0x122 <__bad_interrupt>
  9e:	00 00       	nop
  a0:	40 c0       	rjmp	.+128    	; 0x122 <__bad_interrupt>
  a2:	00 00       	nop
  a4:	3e c0       	rjmp	.+124    	; 0x122 <__bad_interrupt>
  a6:	00 00       	nop
  a8:	3c c0       	rjmp	.+120    	; 0x122 <__bad_interrupt>
  aa:	00 00       	nop
  ac:	3a c0       	rjmp	.+116    	; 0x122 <__bad_interrupt>
  ae:	00 00       	nop
  b0:	38 c0       	rjmp	.+112    	; 0x122 <__bad_interrupt>
  b2:	00 00       	nop
  b4:	36 c0       	rjmp	.+108    	; 0x122 <__bad_interrupt>
  b6:	00 00       	nop
  b8:	34 c0       	rjmp	.+104    	; 0x122 <__bad_interrupt>
  ba:	00 00       	nop
  bc:	32 c0       	rjmp	.+100    	; 0x122 <__bad_interrupt>
  be:	00 00       	nop
  c0:	30 c0       	rjmp	.+96     	; 0x122 <__bad_interrupt>
  c2:	00 00       	nop
  c4:	2e c0       	rjmp	.+92     	; 0x122 <__bad_interrupt>
  c6:	00 00       	nop
  c8:	2c c0       	rjmp	.+88     	; 0x122 <__bad_interrupt>
  ca:	00 00       	nop
  cc:	2a c0       	rjmp	.+84     	; 0x122 <__bad_interrupt>
  ce:	00 00       	nop
  d0:	28 c0       	rjmp	.+80     	; 0x122 <__bad_interrupt>
  d2:	00 00       	nop
  d4:	26 c0       	rjmp	.+76     	; 0x122 <__bad_interrupt>
  d6:	00 00       	nop
  d8:	24 c0       	rjmp	.+72     	; 0x122 <__bad_interrupt>
  da:	00 00       	nop
  dc:	22 c0       	rjmp	.+68     	; 0x122 <__bad_interrupt>
  de:	00 00       	nop
  e0:	20 c0       	rjmp	.+64     	; 0x122 <__bad_interrupt>
	...

000000e4 <__ctors_end>:
  e4:	11 24       	eor	r1, r1
  e6:	1f be       	out	0x3f, r1	; 63
  e8:	cf ef       	ldi	r28, 0xFF	; 255
  ea:	d1 e2       	ldi	r29, 0x21	; 33
  ec:	de bf       	out	0x3e, r29	; 62
  ee:	cd bf       	out	0x3d, r28	; 61
  f0:	00 e0       	ldi	r16, 0x00	; 0
  f2:	0c bf       	out	0x3c, r16	; 60

000000f4 <__do_copy_data>:
  f4:	12 e0       	ldi	r17, 0x02	; 2
  f6:	a0 e0       	ldi	r26, 0x00	; 0
  f8:	b2 e0       	ldi	r27, 0x02	; 2
  fa:	ec e3       	ldi	r30, 0x3C	; 60
  fc:	f9 e0       	ldi	r31, 0x09	; 9
  fe:	00 e0       	ldi	r16, 0x00	; 0
 100:	0b bf       	out	0x3b, r16	; 59
 102:	02 c0       	rjmp	.+4      	; 0x108 <__do_copy_data+0x14>
 104:	07 90       	elpm	r0, Z+
 106:	0d 92       	st	X+, r0
 108:	a2 30       	cpi	r26, 0x02	; 2
 10a:	b1 07       	cpc	r27, r17
 10c:	d9 f7       	brne	.-10     	; 0x104 <__do_copy_data+0x10>

0000010e <__do_clear_bss>:
 10e:	25 e1       	ldi	r18, 0x15	; 21
 110:	a2 e0       	ldi	r26, 0x02	; 2
 112:	b2 e0       	ldi	r27, 0x02	; 2
 114:	01 c0       	rjmp	.+2      	; 0x118 <.do_clear_bss_start>

00000116 <.do_clear_bss_loop>:
 116:	1d 92       	st	X+, r1

00000118 <.do_clear_bss_start>:
 118:	a7 38       	cpi	r26, 0x87	; 135
 11a:	b2 07       	cpc	r27, r18
 11c:	e1 f7       	brne	.-8      	; 0x116 <.do_clear_bss_loop>
 11e:	ce d3       	rcall	.+1948   	; 0x8bc <main>
 120:	0b c4       	rjmp	.+2070   	; 0x938 <_exit>

00000122 <__bad_interrupt>:
 122:	6e cf       	rjmp	.-292    	; 0x0 <__vectors>

00000124 <_Z6r_mainv>:
#include "ApplicationLayer.h"

int r_main()
{
	return 0;
}
 124:	80 e0       	ldi	r24, 0x00	; 0
 126:	90 e0       	ldi	r25, 0x00	; 0
 128:	08 95       	ret

0000012a <_ZL4idlev>:
    arg = cur_task->arg;

    SREG = sreg;

    return arg;
}
 12a:	ff cf       	rjmp	.-2      	; 0x12a <_ZL4idlev>

0000012c <_ZL11exit_kernelv>:
 12c:	ff 93       	push	r31
 12e:	fc b7       	in	r31, 0x3c	; 60
 130:	ff 93       	push	r31
 132:	ff b7       	in	r31, 0x3f	; 63
 134:	f8 94       	cli
 136:	ff 93       	push	r31
 138:	ef 93       	push	r30
 13a:	df 93       	push	r29
 13c:	cf 93       	push	r28
 13e:	bf 93       	push	r27
 140:	af 93       	push	r26
 142:	9f 93       	push	r25
 144:	8f 93       	push	r24
 146:	7f 93       	push	r23
 148:	6f 93       	push	r22
 14a:	5f 93       	push	r21
 14c:	4f 93       	push	r20
 14e:	3f 93       	push	r19
 150:	2f 93       	push	r18
 152:	1f 93       	push	r17
 154:	0f 93       	push	r16
 156:	ff 92       	push	r15
 158:	ef 92       	push	r14
 15a:	df 92       	push	r13
 15c:	cf 92       	push	r12
 15e:	bf 92       	push	r11
 160:	af 92       	push	r10
 162:	9f 92       	push	r9
 164:	8f 92       	push	r8
 166:	7f 92       	push	r7
 168:	6f 92       	push	r6
 16a:	5f 92       	push	r5
 16c:	4f 92       	push	r4
 16e:	3f 92       	push	r3
 170:	2f 92       	push	r2
 172:	1f 92       	push	r1
 174:	0f 92       	push	r0
 176:	8d b7       	in	r24, 0x3d	; 61
 178:	9e b7       	in	r25, 0x3e	; 62
 17a:	90 93 7c 14 	sts	0x147C, r25
 17e:	80 93 7b 14 	sts	0x147B, r24
 182:	e0 91 7d 14 	lds	r30, 0x147D
 186:	f0 91 7e 14 	lds	r31, 0x147E
 18a:	fe 5f       	subi	r31, 0xFE	; 254
 18c:	80 81       	ld	r24, Z
 18e:	91 81       	ldd	r25, Z+1	; 0x01
 190:	9e bf       	out	0x3e, r25	; 62
 192:	8d bf       	out	0x3d, r24	; 61
 194:	0f 90       	pop	r0
 196:	1f 90       	pop	r1
 198:	2f 90       	pop	r2
 19a:	3f 90       	pop	r3
 19c:	4f 90       	pop	r4
 19e:	5f 90       	pop	r5
 1a0:	6f 90       	pop	r6
 1a2:	7f 90       	pop	r7
 1a4:	8f 90       	pop	r8
 1a6:	9f 90       	pop	r9
 1a8:	af 90       	pop	r10
 1aa:	bf 90       	pop	r11
 1ac:	cf 90       	pop	r12
 1ae:	df 90       	pop	r13
 1b0:	ef 90       	pop	r14
 1b2:	ff 90       	pop	r15
 1b4:	0f 91       	pop	r16
 1b6:	1f 91       	pop	r17
 1b8:	2f 91       	pop	r18
 1ba:	3f 91       	pop	r19
 1bc:	4f 91       	pop	r20
 1be:	5f 91       	pop	r21
 1c0:	6f 91       	pop	r22
 1c2:	7f 91       	pop	r23
 1c4:	8f 91       	pop	r24
 1c6:	9f 91       	pop	r25
 1c8:	af 91       	pop	r26
 1ca:	bf 91       	pop	r27
 1cc:	cf 91       	pop	r28
 1ce:	df 91       	pop	r29
 1d0:	ef 91       	pop	r30
 1d2:	ff 91       	pop	r31
 1d4:	ff bf       	out	0x3f, r31	; 63
 1d6:	ff 91       	pop	r31
 1d8:	fc bf       	out	0x3c, r31	; 60
 1da:	ff 91       	pop	r31
 1dc:	08 95       	ret

000001de <_ZL12enter_kernelv>:
 1de:	ff 93       	push	r31
 1e0:	fc b7       	in	r31, 0x3c	; 60
 1e2:	ff 93       	push	r31
 1e4:	ff b7       	in	r31, 0x3f	; 63
 1e6:	f8 94       	cli
 1e8:	ff 93       	push	r31
 1ea:	ef 93       	push	r30
 1ec:	df 93       	push	r29
 1ee:	cf 93       	push	r28
 1f0:	bf 93       	push	r27
 1f2:	af 93       	push	r26
 1f4:	9f 93       	push	r25
 1f6:	8f 93       	push	r24
 1f8:	7f 93       	push	r23
 1fa:	6f 93       	push	r22
 1fc:	5f 93       	push	r21
 1fe:	4f 93       	push	r20
 200:	3f 93       	push	r19
 202:	2f 93       	push	r18
 204:	1f 93       	push	r17
 206:	0f 93       	push	r16
 208:	ff 92       	push	r15
 20a:	ef 92       	push	r14
 20c:	df 92       	push	r13
 20e:	cf 92       	push	r12
 210:	bf 92       	push	r11
 212:	af 92       	push	r10
 214:	9f 92       	push	r9
 216:	8f 92       	push	r8
 218:	7f 92       	push	r7
 21a:	6f 92       	push	r6
 21c:	5f 92       	push	r5
 21e:	4f 92       	push	r4
 220:	3f 92       	push	r3
 222:	2f 92       	push	r2
 224:	1f 92       	push	r1
 226:	0f 92       	push	r0
 228:	e0 91 7d 14 	lds	r30, 0x147D
 22c:	f0 91 7e 14 	lds	r31, 0x147E
 230:	8d b7       	in	r24, 0x3d	; 61
 232:	9e b7       	in	r25, 0x3e	; 62
 234:	fe 5f       	subi	r31, 0xFE	; 254
 236:	91 83       	std	Z+1, r25	; 0x01
 238:	80 83       	st	Z, r24
 23a:	80 91 7b 14 	lds	r24, 0x147B
 23e:	90 91 7c 14 	lds	r25, 0x147C
 242:	9e bf       	out	0x3e, r25	; 62
 244:	8d bf       	out	0x3d, r24	; 61
 246:	0f 90       	pop	r0
 248:	1f 90       	pop	r1
 24a:	2f 90       	pop	r2
 24c:	3f 90       	pop	r3
 24e:	4f 90       	pop	r4
 250:	5f 90       	pop	r5
 252:	6f 90       	pop	r6
 254:	7f 90       	pop	r7
 256:	8f 90       	pop	r8
 258:	9f 90       	pop	r9
 25a:	af 90       	pop	r10
 25c:	bf 90       	pop	r11
 25e:	cf 90       	pop	r12
 260:	df 90       	pop	r13
 262:	ef 90       	pop	r14
 264:	ff 90       	pop	r15
 266:	0f 91       	pop	r16
 268:	1f 91       	pop	r17
 26a:	2f 91       	pop	r18
 26c:	3f 91       	pop	r19
 26e:	4f 91       	pop	r20
 270:	5f 91       	pop	r21
 272:	6f 91       	pop	r22
 274:	7f 91       	pop	r23
 276:	8f 91       	pop	r24
 278:	9f 91       	pop	r25
 27a:	af 91       	pop	r26
 27c:	bf 91       	pop	r27
 27e:	cf 91       	pop	r28
 280:	df 91       	pop	r29
 282:	ef 91       	pop	r30
 284:	ff 91       	pop	r31
 286:	ff bf       	out	0x3f, r31	; 63
 288:	ff 91       	pop	r31
 28a:	fc bf       	out	0x3c, r31	; 60
 28c:	ff 91       	pop	r31
 28e:	08 95       	ret

00000290 <_ZL7enqueueP7queue_tP9td_struct>:
 290:	fc 01       	movw	r30, r24
 292:	db 01       	movw	r26, r22
 294:	a9 5f       	subi	r26, 0xF9	; 249
 296:	bd 4f       	sbci	r27, 0xFD	; 253
 298:	1d 92       	st	X+, r1
 29a:	1c 92       	st	X, r1
 29c:	80 81       	ld	r24, Z
 29e:	91 81       	ldd	r25, Z+1	; 0x01
 2a0:	89 2b       	or	r24, r25
 2a2:	29 f4       	brne	.+10     	; 0x2ae <_ZL7enqueueP7queue_tP9td_struct+0x1e>
 2a4:	71 83       	std	Z+1, r23	; 0x01
 2a6:	60 83       	st	Z, r22
 2a8:	73 83       	std	Z+3, r23	; 0x03
 2aa:	62 83       	std	Z+2, r22	; 0x02
 2ac:	08 95       	ret
 2ae:	a2 81       	ldd	r26, Z+2	; 0x02
 2b0:	b3 81       	ldd	r27, Z+3	; 0x03
 2b2:	a9 5f       	subi	r26, 0xF9	; 249
 2b4:	bd 4f       	sbci	r27, 0xFD	; 253
 2b6:	6d 93       	st	X+, r22
 2b8:	7c 93       	st	X, r23
 2ba:	73 83       	std	Z+3, r23	; 0x03
 2bc:	62 83       	std	Z+2, r22	; 0x02
 2be:	08 95       	ret

000002c0 <Task_Terminate>:
 2c0:	cf 93       	push	r28
 2c2:	cf b7       	in	r28, 0x3f	; 63
 2c4:	f8 94       	cli
 2c6:	83 e0       	ldi	r24, 0x03	; 3
 2c8:	80 93 29 02 	sts	0x0229, r24
 2cc:	88 df       	rcall	.-240    	; 0x1de <_ZL12enter_kernelv>
 2ce:	cf bf       	out	0x3f, r28	; 63
 2d0:	cf 91       	pop	r28
 2d2:	08 95       	ret

000002d4 <__vector_17>:
 2d4:	ff 93       	push	r31
 2d6:	fc b7       	in	r31, 0x3c	; 60
 2d8:	ff 93       	push	r31
 2da:	ff b7       	in	r31, 0x3f	; 63
 2dc:	f8 94       	cli
 2de:	f0 68       	ori	r31, 0x80	; 128
 2e0:	ff 93       	push	r31
 2e2:	ef 93       	push	r30
 2e4:	df 93       	push	r29
 2e6:	cf 93       	push	r28
 2e8:	bf 93       	push	r27
 2ea:	af 93       	push	r26
 2ec:	9f 93       	push	r25
 2ee:	8f 93       	push	r24
 2f0:	7f 93       	push	r23
 2f2:	6f 93       	push	r22
 2f4:	5f 93       	push	r21
 2f6:	4f 93       	push	r20
 2f8:	3f 93       	push	r19
 2fa:	2f 93       	push	r18
 2fc:	1f 93       	push	r17
 2fe:	0f 93       	push	r16
 300:	ff 92       	push	r15
 302:	ef 92       	push	r14
 304:	df 92       	push	r13
 306:	cf 92       	push	r12
 308:	bf 92       	push	r11
 30a:	af 92       	push	r10
 30c:	9f 92       	push	r9
 30e:	8f 92       	push	r8
 310:	7f 92       	push	r7
 312:	6f 92       	push	r6
 314:	5f 92       	push	r5
 316:	4f 92       	push	r4
 318:	3f 92       	push	r3
 31a:	2f 92       	push	r2
 31c:	1f 92       	push	r1
 31e:	0f 92       	push	r0
 320:	e0 91 7d 14 	lds	r30, 0x147D
 324:	f0 91 7e 14 	lds	r31, 0x147E
 328:	8d b7       	in	r24, 0x3d	; 61
 32a:	9e b7       	in	r25, 0x3e	; 62
 32c:	fe 5f       	subi	r31, 0xFE	; 254
 32e:	91 83       	std	Z+1, r25	; 0x01
 330:	80 83       	st	Z, r24
 332:	80 91 7b 14 	lds	r24, 0x147B
 336:	90 91 7c 14 	lds	r25, 0x147C
 33a:	9e bf       	out	0x3e, r25	; 62
 33c:	8d bf       	out	0x3d, r24	; 61
 33e:	81 e0       	ldi	r24, 0x01	; 1
 340:	80 93 29 02 	sts	0x0229, r24
 344:	e8 e8       	ldi	r30, 0x88	; 136
 346:	f0 e0       	ldi	r31, 0x00	; 0
 348:	80 81       	ld	r24, Z
 34a:	91 81       	ldd	r25, Z+1	; 0x01
 34c:	8f 58       	subi	r24, 0x8F	; 143
 34e:	9d 4f       	sbci	r25, 0xFD	; 253
 350:	91 83       	std	Z+1, r25	; 0x01
 352:	80 83       	st	Z, r24
 354:	80 91 7b 14 	lds	r24, 0x147B
 358:	90 91 7c 14 	lds	r25, 0x147C
 35c:	9e bf       	out	0x3e, r25	; 62
 35e:	8d bf       	out	0x3d, r24	; 61
 360:	0f 90       	pop	r0
 362:	1f 90       	pop	r1
 364:	2f 90       	pop	r2
 366:	3f 90       	pop	r3
 368:	4f 90       	pop	r4
 36a:	5f 90       	pop	r5
 36c:	6f 90       	pop	r6
 36e:	7f 90       	pop	r7
 370:	8f 90       	pop	r8
 372:	9f 90       	pop	r9
 374:	af 90       	pop	r10
 376:	bf 90       	pop	r11
 378:	cf 90       	pop	r12
 37a:	df 90       	pop	r13
 37c:	ef 90       	pop	r14
 37e:	ff 90       	pop	r15
 380:	0f 91       	pop	r16
 382:	1f 91       	pop	r17
 384:	2f 91       	pop	r18
 386:	3f 91       	pop	r19
 388:	4f 91       	pop	r20
 38a:	5f 91       	pop	r21
 38c:	6f 91       	pop	r22
 38e:	7f 91       	pop	r23
 390:	8f 91       	pop	r24
 392:	9f 91       	pop	r25
 394:	af 91       	pop	r26
 396:	bf 91       	pop	r27
 398:	cf 91       	pop	r28
 39a:	df 91       	pop	r29
 39c:	ef 91       	pop	r30
 39e:	ff 91       	pop	r31
 3a0:	ff bf       	out	0x3f, r31	; 63
 3a2:	ff 91       	pop	r31
 3a4:	fc bf       	out	0x3c, r31	; 60
 3a6:	ff 91       	pop	r31
 3a8:	08 95       	ret

000003aa <OS_Abort>:
 3aa:	f8 94       	cli
 3ac:	80 ef       	ldi	r24, 0xF0	; 240
 3ae:	8a b9       	out	0x0a, r24	; 10
 3b0:	80 91 00 02 	lds	r24, 0x0200
 3b4:	86 30       	cpi	r24, 0x06	; 6
 3b6:	28 f4       	brcc	.+10     	; 0x3c2 <OS_Abort+0x18>
 3b8:	30 91 00 02 	lds	r19, 0x0200
 3bc:	3f 5f       	subi	r19, 0xFF	; 255
 3be:	40 e6       	ldi	r20, 0x60	; 96
 3c0:	04 c0       	rjmp	.+8      	; 0x3ca <OS_Abort+0x20>
 3c2:	30 91 00 02 	lds	r19, 0x0200
 3c6:	35 50       	subi	r19, 0x05	; 5
 3c8:	40 e9       	ldi	r20, 0x90	; 144
 3ca:	70 ef       	ldi	r23, 0xF0	; 240
 3cc:	64 e6       	ldi	r22, 0x64	; 100
 3ce:	2a e0       	ldi	r18, 0x0A	; 10
 3d0:	54 e1       	ldi	r21, 0x14	; 20
 3d2:	74 bb       	out	0x14, r23	; 20
 3d4:	86 2f       	mov	r24, r22
 3d6:	e9 e6       	ldi	r30, 0x69	; 105
 3d8:	f8 e1       	ldi	r31, 0x18	; 24
 3da:	31 97       	sbiw	r30, 0x01	; 1
 3dc:	f1 f7       	brne	.-4      	; 0x3da <OS_Abort+0x30>
 3de:	00 c0       	rjmp	.+0      	; 0x3e0 <OS_Abort+0x36>
 3e0:	00 00       	nop
 3e2:	81 50       	subi	r24, 0x01	; 1
 3e4:	c1 f7       	brne	.-16     	; 0x3d6 <OS_Abort+0x2c>
 3e6:	14 ba       	out	0x14, r1	; 20
 3e8:	88 e2       	ldi	r24, 0x28	; 40
 3ea:	e9 e6       	ldi	r30, 0x69	; 105
 3ec:	f8 e1       	ldi	r31, 0x18	; 24
 3ee:	31 97       	sbiw	r30, 0x01	; 1
 3f0:	f1 f7       	brne	.-4      	; 0x3ee <OS_Abort+0x44>
 3f2:	00 c0       	rjmp	.+0      	; 0x3f4 <OS_Abort+0x4a>
 3f4:	00 00       	nop
 3f6:	81 50       	subi	r24, 0x01	; 1
 3f8:	c1 f7       	brne	.-16     	; 0x3ea <OS_Abort+0x40>
 3fa:	33 23       	and	r19, r19
 3fc:	11 f1       	breq	.+68     	; 0x442 <OS_Abort+0x98>
 3fe:	90 e0       	ldi	r25, 0x00	; 0
 400:	44 bb       	out	0x14, r20	; 20
 402:	82 2f       	mov	r24, r18
 404:	e9 e6       	ldi	r30, 0x69	; 105
 406:	f8 e1       	ldi	r31, 0x18	; 24
 408:	31 97       	sbiw	r30, 0x01	; 1
 40a:	f1 f7       	brne	.-4      	; 0x408 <OS_Abort+0x5e>
 40c:	00 c0       	rjmp	.+0      	; 0x40e <OS_Abort+0x64>
 40e:	00 00       	nop
 410:	81 50       	subi	r24, 0x01	; 1
 412:	c1 f7       	brne	.-16     	; 0x404 <OS_Abort+0x5a>
 414:	14 ba       	out	0x14, r1	; 20
 416:	82 2f       	mov	r24, r18
 418:	e9 e6       	ldi	r30, 0x69	; 105
 41a:	f8 e1       	ldi	r31, 0x18	; 24
 41c:	31 97       	sbiw	r30, 0x01	; 1
 41e:	f1 f7       	brne	.-4      	; 0x41c <OS_Abort+0x72>
 420:	00 c0       	rjmp	.+0      	; 0x422 <OS_Abort+0x78>
 422:	00 00       	nop
 424:	81 50       	subi	r24, 0x01	; 1
 426:	c1 f7       	brne	.-16     	; 0x418 <OS_Abort+0x6e>
 428:	9f 5f       	subi	r25, 0xFF	; 255
 42a:	93 13       	cpse	r25, r19
 42c:	e9 cf       	rjmp	.-46     	; 0x400 <OS_Abort+0x56>
 42e:	09 c0       	rjmp	.+18     	; 0x442 <OS_Abort+0x98>
 430:	e9 e6       	ldi	r30, 0x69	; 105
 432:	f8 e1       	ldi	r31, 0x18	; 24
 434:	31 97       	sbiw	r30, 0x01	; 1
 436:	f1 f7       	brne	.-4      	; 0x434 <OS_Abort+0x8a>
 438:	00 c0       	rjmp	.+0      	; 0x43a <OS_Abort+0x90>
 43a:	00 00       	nop
 43c:	81 50       	subi	r24, 0x01	; 1
 43e:	c1 f7       	brne	.-16     	; 0x430 <OS_Abort+0x86>
 440:	c8 cf       	rjmp	.-112    	; 0x3d2 <OS_Abort+0x28>
 442:	85 2f       	mov	r24, r21
 444:	f5 cf       	rjmp	.-22     	; 0x430 <OS_Abort+0x86>

00000446 <_ZL18kernel_create_taskv>:
 446:	60 91 1d 02 	lds	r22, 0x021D
 44a:	70 91 1e 02 	lds	r23, 0x021E
 44e:	61 15       	cp	r22, r1
 450:	71 05       	cpc	r23, r1
 452:	09 f4       	brne	.+2      	; 0x456 <_ZL18kernel_create_taskv+0x10>
 454:	95 c0       	rjmp	.+298    	; 0x580 <_ZL18kernel_create_taskv+0x13a>
 456:	80 91 27 02 	lds	r24, 0x0227
 45a:	82 30       	cpi	r24, 0x02	; 2
 45c:	09 f0       	breq	.+2      	; 0x460 <_ZL18kernel_create_taskv+0x1a>
 45e:	9a c0       	rjmp	.+308    	; 0x594 <_ZL18kernel_create_taskv+0x14e>
 460:	80 91 28 02 	lds	r24, 0x0228
 464:	88 23       	and	r24, r24
 466:	09 f4       	brne	.+2      	; 0x46a <_ZL18kernel_create_taskv+0x24>
 468:	91 c0       	rjmp	.+290    	; 0x58c <_ZL18kernel_create_taskv+0x146>
 46a:	80 91 28 02 	lds	r24, 0x0228
 46e:	89 30       	cpi	r24, 0x09	; 9
 470:	08 f0       	brcs	.+2      	; 0x474 <_ZL18kernel_create_taskv+0x2e>
 472:	8c c0       	rjmp	.+280    	; 0x58c <_ZL18kernel_create_taskv+0x146>
 474:	8f c0       	rjmp	.+286    	; 0x594 <_ZL18kernel_create_taskv+0x14e>
 476:	80 91 28 02 	lds	r24, 0x0228
 47a:	84 e0       	ldi	r24, 0x04	; 4
 47c:	80 93 00 02 	sts	0x0200, r24
 480:	94 df       	rcall	.-216    	; 0x3aa <OS_Abort>
 482:	e0 91 28 02 	lds	r30, 0x0228
 486:	f0 e0       	ldi	r31, 0x00	; 0
 488:	ee 0f       	add	r30, r30
 48a:	ff 1f       	adc	r31, r31
 48c:	ee 5f       	subi	r30, 0xFE	; 254
 48e:	fd 4f       	sbci	r31, 0xFD	; 253
 490:	80 81       	ld	r24, Z
 492:	91 81       	ldd	r25, Z+1	; 0x01
 494:	89 2b       	or	r24, r25
 496:	09 f0       	breq	.+2      	; 0x49a <_ZL18kernel_create_taskv+0x54>
 498:	87 c0       	rjmp	.+270    	; 0x5a8 <_ZL18kernel_create_taskv+0x162>
 49a:	8a c0       	rjmp	.+276    	; 0x5b0 <_ZL18kernel_create_taskv+0x16a>
 49c:	fb 01       	movw	r30, r22
 49e:	e9 5f       	subi	r30, 0xF9	; 249
 4a0:	fd 4f       	sbci	r31, 0xFD	; 253
 4a2:	80 81       	ld	r24, Z
 4a4:	91 81       	ldd	r25, Z+1	; 0x01
 4a6:	90 93 1e 02 	sts	0x021E, r25
 4aa:	80 93 1d 02 	sts	0x021D, r24
 4ae:	11 82       	std	Z+1, r1	; 0x01
 4b0:	10 82       	st	Z, r1
 4b2:	02 c0       	rjmp	.+4      	; 0x4b8 <_ZL18kernel_create_taskv+0x72>
 4b4:	62 e7       	ldi	r22, 0x72	; 114
 4b6:	72 e1       	ldi	r23, 0x12	; 18
 4b8:	cb 01       	movw	r24, r22
 4ba:	89 52       	subi	r24, 0x29	; 41
 4bc:	9e 4f       	sbci	r25, 0xFE	; 254
 4be:	fc 01       	movw	r30, r24
 4c0:	20 e0       	ldi	r18, 0x00	; 0
 4c2:	21 93       	st	Z+, r18
 4c4:	2f 5f       	subi	r18, 0xFF	; 255
 4c6:	2f 31       	cpi	r18, 0x1F	; 31
 4c8:	e1 f7       	brne	.-8      	; 0x4c2 <_ZL18kernel_create_taskv+0x7c>
 4ca:	25 e5       	ldi	r18, 0x55	; 85
 4cc:	fb 01       	movw	r30, r22
 4ce:	ea 50       	subi	r30, 0x0A	; 10
 4d0:	fe 4f       	sbci	r31, 0xFE	; 254
 4d2:	20 83       	st	Z, r18
 4d4:	2e ee       	ldi	r18, 0xEE	; 238
 4d6:	31 96       	adiw	r30, 0x01	; 1
 4d8:	20 83       	st	Z, r18
 4da:	7e 97       	sbiw	r30, 0x1e	; 30
 4dc:	10 82       	st	Z, r1
 4de:	20 e8       	ldi	r18, 0x80	; 128
 4e0:	7f 96       	adiw	r30, 0x1f	; 31
 4e2:	20 83       	st	Z, r18
 4e4:	32 96       	adiw	r30, 0x02	; 2
 4e6:	10 82       	st	Z, r1
 4e8:	e3 e2       	ldi	r30, 0x23	; 35
 4ea:	f2 e0       	ldi	r31, 0x02	; 2
 4ec:	20 81       	ld	r18, Z
 4ee:	31 81       	ldd	r19, Z+1	; 0x01
 4f0:	db 01       	movw	r26, r22
 4f2:	a5 50       	subi	r26, 0x05	; 5
 4f4:	be 4f       	sbci	r27, 0xFE	; 254
 4f6:	3c 93       	st	X, r19
 4f8:	20 81       	ld	r18, Z
 4fa:	31 81       	ldd	r19, Z+1	; 0x01
 4fc:	fb 01       	movw	r30, r22
 4fe:	e4 50       	subi	r30, 0x04	; 4
 500:	fe 4f       	sbci	r31, 0xFE	; 254
 502:	20 83       	st	Z, r18
 504:	31 96       	adiw	r30, 0x01	; 1
 506:	10 82       	st	Z, r1
 508:	20 e6       	ldi	r18, 0x60	; 96
 50a:	31 e0       	ldi	r19, 0x01	; 1
 50c:	31 96       	adiw	r30, 0x01	; 1
 50e:	30 83       	st	Z, r19
 510:	31 96       	adiw	r30, 0x01	; 1
 512:	20 83       	st	Z, r18
 514:	31 96       	adiw	r30, 0x01	; 1
 516:	91 83       	std	Z+1, r25	; 0x01
 518:	80 83       	st	Z, r24
 51a:	82 e0       	ldi	r24, 0x02	; 2
 51c:	33 96       	adiw	r30, 0x03	; 3
 51e:	80 83       	st	Z, r24
 520:	80 91 25 02 	lds	r24, 0x0225
 524:	90 91 26 02 	lds	r25, 0x0226
 528:	31 96       	adiw	r30, 0x01	; 1
 52a:	91 83       	std	Z+1, r25	; 0x01
 52c:	80 83       	st	Z, r24
 52e:	e7 e2       	ldi	r30, 0x27	; 39
 530:	f2 e0       	ldi	r31, 0x02	; 2
 532:	80 81       	ld	r24, Z
 534:	1b 96       	adiw	r26, 0x0b	; 11
 536:	8c 93       	st	X, r24
 538:	80 91 28 02 	lds	r24, 0x0228
 53c:	14 97       	sbiw	r26, 0x04	; 4
 53e:	8c 93       	st	X, r24
 540:	80 81       	ld	r24, Z
 542:	82 30       	cpi	r24, 0x02	; 2
 544:	29 f0       	breq	.+10     	; 0x550 <_ZL18kernel_create_taskv+0x10a>
 546:	83 30       	cpi	r24, 0x03	; 3
 548:	79 f0       	breq	.+30     	; 0x568 <_ZL18kernel_create_taskv+0x122>
 54a:	81 30       	cpi	r24, 0x01	; 1
 54c:	e1 f4       	brne	.+56     	; 0x586 <_ZL18kernel_create_taskv+0x140>
 54e:	12 c0       	rjmp	.+36     	; 0x574 <_ZL18kernel_create_taskv+0x12e>
 550:	e0 91 28 02 	lds	r30, 0x0228
 554:	f0 e0       	ldi	r31, 0x00	; 0
 556:	ee 0f       	add	r30, r30
 558:	ff 1f       	adc	r31, r31
 55a:	ee 5f       	subi	r30, 0xFE	; 254
 55c:	fd 4f       	sbci	r31, 0xFD	; 253
 55e:	71 83       	std	Z+1, r23	; 0x01
 560:	60 83       	st	Z, r22
 562:	81 e0       	ldi	r24, 0x01	; 1
 564:	90 e0       	ldi	r25, 0x00	; 0
 566:	08 95       	ret
 568:	85 e1       	ldi	r24, 0x15	; 21
 56a:	92 e0       	ldi	r25, 0x02	; 2
 56c:	91 de       	rcall	.-734    	; 0x290 <_ZL7enqueueP7queue_tP9td_struct>
 56e:	81 e0       	ldi	r24, 0x01	; 1
 570:	90 e0       	ldi	r25, 0x00	; 0
 572:	08 95       	ret
 574:	89 e1       	ldi	r24, 0x19	; 25
 576:	92 e0       	ldi	r25, 0x02	; 2
 578:	8b de       	rcall	.-746    	; 0x290 <_ZL7enqueueP7queue_tP9td_struct>
 57a:	81 e0       	ldi	r24, 0x01	; 1
 57c:	90 e0       	ldi	r25, 0x00	; 0
 57e:	08 95       	ret
 580:	80 e0       	ldi	r24, 0x00	; 0
 582:	90 e0       	ldi	r25, 0x00	; 0
 584:	08 95       	ret
 586:	81 e0       	ldi	r24, 0x01	; 1
 588:	90 e0       	ldi	r25, 0x00	; 0
 58a:	08 95       	ret
 58c:	81 e0       	ldi	r24, 0x01	; 1
 58e:	80 93 00 02 	sts	0x0200, r24
 592:	0b df       	rcall	.-490    	; 0x3aa <OS_Abort>
 594:	80 91 27 02 	lds	r24, 0x0227
 598:	82 30       	cpi	r24, 0x02	; 2
 59a:	09 f4       	brne	.+2      	; 0x59e <_ZL18kernel_create_taskv+0x158>
 59c:	6c cf       	rjmp	.-296    	; 0x476 <_ZL18kernel_create_taskv+0x30>
 59e:	80 91 27 02 	lds	r24, 0x0227
 5a2:	82 30       	cpi	r24, 0x02	; 2
 5a4:	29 f4       	brne	.+10     	; 0x5b0 <_ZL18kernel_create_taskv+0x16a>
 5a6:	6d cf       	rjmp	.-294    	; 0x482 <_ZL18kernel_create_taskv+0x3c>
 5a8:	83 e0       	ldi	r24, 0x03	; 3
 5aa:	80 93 00 02 	sts	0x0200, r24
 5ae:	fd de       	rcall	.-518    	; 0x3aa <OS_Abort>
 5b0:	80 91 27 02 	lds	r24, 0x0227
 5b4:	88 23       	and	r24, r24
 5b6:	09 f4       	brne	.+2      	; 0x5ba <_ZL18kernel_create_taskv+0x174>
 5b8:	7d cf       	rjmp	.-262    	; 0x4b4 <_ZL18kernel_create_taskv+0x6e>
 5ba:	70 cf       	rjmp	.-288    	; 0x49c <_ZL18kernel_create_taskv+0x56>

000005bc <_Z7OS_Initv>:
 5bc:	e1 e8       	ldi	r30, 0x81	; 129
 5be:	f0 e0       	ldi	r31, 0x00	; 0
 5c0:	80 81       	ld	r24, Z
 5c2:	82 60       	ori	r24, 0x02	; 2
 5c4:	80 83       	st	Z, r24
 5c6:	ed e2       	ldi	r30, 0x2D	; 45
 5c8:	f4 e0       	ldi	r31, 0x04	; 4
 5ca:	a2 e0       	ldi	r26, 0x02	; 2
 5cc:	b2 e0       	ldi	r27, 0x02	; 2
 5ce:	2c e6       	ldi	r18, 0x6C	; 108
 5d0:	32 e1       	ldi	r19, 0x12	; 18
 5d2:	10 82       	st	Z, r1
 5d4:	1d 92       	st	X+, r1
 5d6:	1d 92       	st	X+, r1
 5d8:	cf 01       	movw	r24, r30
 5da:	06 96       	adiw	r24, 0x06	; 6
 5dc:	95 83       	std	Z+5, r25	; 0x05
 5de:	84 83       	std	Z+4, r24	; 0x04
 5e0:	e7 5f       	subi	r30, 0xF7	; 247
 5e2:	fd 4f       	sbci	r31, 0xFD	; 253
 5e4:	e2 17       	cp	r30, r18
 5e6:	f3 07       	cpc	r31, r19
 5e8:	a1 f7       	brne	.-24     	; 0x5d2 <_Z7OS_Initv+0x16>
 5ea:	10 92 71 12 	sts	0x1271, r1
 5ee:	10 92 70 12 	sts	0x1270, r1
 5f2:	0f 2e       	mov	r0, r31
 5f4:	fa e2       	ldi	r31, 0x2A	; 42
 5f6:	ef 2e       	mov	r14, r31
 5f8:	f2 e0       	ldi	r31, 0x02	; 2
 5fa:	ff 2e       	mov	r15, r31
 5fc:	f0 2d       	mov	r31, r0
 5fe:	f0 92 1e 02 	sts	0x021E, r15
 602:	e0 92 1d 02 	sts	0x021D, r14
 606:	89 e6       	ldi	r24, 0x69	; 105
 608:	90 e1       	ldi	r25, 0x10	; 16
 60a:	90 93 20 02 	sts	0x0220, r25
 60e:	80 93 1f 02 	sts	0x021F, r24
 612:	03 e2       	ldi	r16, 0x23	; 35
 614:	12 e0       	ldi	r17, 0x02	; 2
 616:	85 e9       	ldi	r24, 0x95	; 149
 618:	90 e0       	ldi	r25, 0x00	; 0
 61a:	d8 01       	movw	r26, r16
 61c:	11 96       	adiw	r26, 0x01	; 1
 61e:	9c 93       	st	X, r25
 620:	8e 93       	st	-X, r24
 622:	c7 e2       	ldi	r28, 0x27	; 39
 624:	d2 e0       	ldi	r29, 0x02	; 2
 626:	18 82       	st	Y, r1
 628:	0e df       	rcall	.-484    	; 0x446 <_ZL18kernel_create_taskv>
 62a:	82 e9       	ldi	r24, 0x92	; 146
 62c:	90 e0       	ldi	r25, 0x00	; 0
 62e:	f8 01       	movw	r30, r16
 630:	91 83       	std	Z+1, r25	; 0x01
 632:	80 83       	st	Z, r24
 634:	83 e0       	ldi	r24, 0x03	; 3
 636:	88 83       	st	Y, r24
 638:	06 df       	rcall	.-500    	; 0x446 <_ZL18kernel_create_taskv>
 63a:	f0 92 7e 14 	sts	0x147E, r15
 63e:	e0 92 7d 14 	sts	0x147D, r14
 642:	81 e0       	ldi	r24, 0x01	; 1
 644:	80 93 2d 04 	sts	0x042D, r24
 648:	80 91 15 02 	lds	r24, 0x0215
 64c:	90 91 16 02 	lds	r25, 0x0216
 650:	00 97       	sbiw	r24, 0x00	; 0
 652:	59 f0       	breq	.+22     	; 0x66a <_Z7OS_Initv+0xae>
 654:	fc 01       	movw	r30, r24
 656:	e9 5f       	subi	r30, 0xF9	; 249
 658:	fd 4f       	sbci	r31, 0xFD	; 253
 65a:	80 81       	ld	r24, Z
 65c:	91 81       	ldd	r25, Z+1	; 0x01
 65e:	90 93 16 02 	sts	0x0216, r25
 662:	80 93 15 02 	sts	0x0215, r24
 666:	11 82       	std	Z+1, r1	; 0x01
 668:	10 82       	st	Z, r1
 66a:	ef e6       	ldi	r30, 0x6F	; 111
 66c:	f0 e0       	ldi	r31, 0x00	; 0
 66e:	80 81       	ld	r24, Z
 670:	82 60       	ori	r24, 0x02	; 2
 672:	80 83       	st	Z, r24
 674:	80 91 84 00 	lds	r24, 0x0084
 678:	90 91 85 00 	lds	r25, 0x0085
 67c:	8f 58       	subi	r24, 0x8F	; 143
 67e:	9d 4f       	sbci	r25, 0xFD	; 253
 680:	90 93 89 00 	sts	0x0089, r25
 684:	80 93 88 00 	sts	0x0088, r24
 688:	82 e0       	ldi	r24, 0x02	; 2
 68a:	86 bb       	out	0x16, r24	; 22
 68c:	10 92 80 14 	sts	0x1480, r1
 690:	10 92 7f 14 	sts	0x147F, r1
 694:	c5 e1       	ldi	r28, 0x15	; 21
 696:	d2 e0       	ldi	r29, 0x02	; 2
 698:	77 24       	eor	r7, r7
 69a:	73 94       	inc	r7
 69c:	09 e1       	ldi	r16, 0x19	; 25
 69e:	12 e0       	ldi	r17, 0x02	; 2
 6a0:	0f 2e       	mov	r0, r31
 6a2:	f2 e7       	ldi	r31, 0x72	; 114
 6a4:	cf 2e       	mov	r12, r31
 6a6:	f2 e1       	ldi	r31, 0x12	; 18
 6a8:	df 2e       	mov	r13, r31
 6aa:	f0 2d       	mov	r31, r0
 6ac:	0f 2e       	mov	r0, r31
 6ae:	f7 e2       	ldi	r31, 0x27	; 39
 6b0:	ef 2e       	mov	r14, r31
 6b2:	f2 e0       	ldi	r31, 0x02	; 2
 6b4:	ff 2e       	mov	r15, r31
 6b6:	f0 2d       	mov	r31, r0
 6b8:	0f 2e       	mov	r0, r31
 6ba:	f8 e2       	ldi	r31, 0x28	; 40
 6bc:	af 2e       	mov	r10, r31
 6be:	f2 e0       	ldi	r31, 0x02	; 2
 6c0:	bf 2e       	mov	r11, r31
 6c2:	f0 2d       	mov	r31, r0
 6c4:	68 94       	set
 6c6:	66 24       	eor	r6, r6
 6c8:	61 f8       	bld	r6, 1
 6ca:	80 91 7d 14 	lds	r24, 0x147D
 6ce:	90 91 7e 14 	lds	r25, 0x147E
 6d2:	fc 01       	movw	r30, r24
 6d4:	ed 5f       	subi	r30, 0xFD	; 253
 6d6:	fd 4f       	sbci	r31, 0xFD	; 253
 6d8:	20 81       	ld	r18, Z
 6da:	21 30       	cpi	r18, 0x01	; 1
 6dc:	09 f0       	breq	.+2      	; 0x6e0 <_Z7OS_Initv+0x124>
 6de:	d9 c0       	rjmp	.+434    	; 0x892 <_Z7OS_Initv+0x2d6>
 6e0:	82 57       	subi	r24, 0x72	; 114
 6e2:	92 41       	sbci	r25, 0x12	; 18
 6e4:	89 f5       	brne	.+98     	; 0x748 <_Z7OS_Initv+0x18c>
 6e6:	88 81       	ld	r24, Y
 6e8:	99 81       	ldd	r25, Y+1	; 0x01
 6ea:	00 97       	sbiw	r24, 0x00	; 0
 6ec:	71 f0       	breq	.+28     	; 0x70a <_Z7OS_Initv+0x14e>
 6ee:	fc 01       	movw	r30, r24
 6f0:	e9 5f       	subi	r30, 0xF9	; 249
 6f2:	fd 4f       	sbci	r31, 0xFD	; 253
 6f4:	20 81       	ld	r18, Z
 6f6:	31 81       	ldd	r19, Z+1	; 0x01
 6f8:	39 83       	std	Y+1, r19	; 0x01
 6fa:	28 83       	st	Y, r18
 6fc:	11 82       	std	Z+1, r1	; 0x01
 6fe:	10 82       	st	Z, r1
 700:	90 93 7e 14 	sts	0x147E, r25
 704:	80 93 7d 14 	sts	0x147D, r24
 708:	18 c0       	rjmp	.+48     	; 0x73a <_Z7OS_Initv+0x17e>
 70a:	d8 01       	movw	r26, r16
 70c:	8d 91       	ld	r24, X+
 70e:	9c 91       	ld	r25, X
 710:	11 97       	sbiw	r26, 0x01	; 1
 712:	00 97       	sbiw	r24, 0x00	; 0
 714:	71 f0       	breq	.+28     	; 0x732 <_Z7OS_Initv+0x176>
 716:	fc 01       	movw	r30, r24
 718:	e9 5f       	subi	r30, 0xF9	; 249
 71a:	fd 4f       	sbci	r31, 0xFD	; 253
 71c:	20 81       	ld	r18, Z
 71e:	31 81       	ldd	r19, Z+1	; 0x01
 720:	2d 93       	st	X+, r18
 722:	3c 93       	st	X, r19
 724:	11 82       	std	Z+1, r1	; 0x01
 726:	10 82       	st	Z, r1
 728:	90 93 7e 14 	sts	0x147E, r25
 72c:	80 93 7d 14 	sts	0x147D, r24
 730:	04 c0       	rjmp	.+8      	; 0x73a <_Z7OS_Initv+0x17e>
 732:	d0 92 7e 14 	sts	0x147E, r13
 736:	c0 92 7d 14 	sts	0x147D, r12
 73a:	e0 91 7d 14 	lds	r30, 0x147D
 73e:	f0 91 7e 14 	lds	r31, 0x147E
 742:	ed 5f       	subi	r30, 0xFD	; 253
 744:	fd 4f       	sbci	r31, 0xFD	; 253
 746:	70 82       	st	Z, r7
 748:	f1 dc       	rcall	.-1566   	; 0x12c <_ZL11exit_kernelv>
 74a:	80 91 29 02 	lds	r24, 0x0229
 74e:	82 30       	cpi	r24, 0x02	; 2
 750:	21 f1       	breq	.+72     	; 0x79a <_Z7OS_Initv+0x1de>
 752:	30 f4       	brcc	.+12     	; 0x760 <_Z7OS_Initv+0x1a4>
 754:	88 23       	and	r24, r24
 756:	09 f4       	brne	.+2      	; 0x75a <_Z7OS_Initv+0x19e>
 758:	99 c0       	rjmp	.+306    	; 0x88c <_Z7OS_Initv+0x2d0>
 75a:	81 30       	cpi	r24, 0x01	; 1
 75c:	51 f0       	breq	.+20     	; 0x772 <_Z7OS_Initv+0x1b6>
 75e:	92 c0       	rjmp	.+292    	; 0x884 <_Z7OS_Initv+0x2c8>
 760:	84 30       	cpi	r24, 0x04	; 4
 762:	09 f4       	brne	.+2      	; 0x766 <_Z7OS_Initv+0x1aa>
 764:	71 c0       	rjmp	.+226    	; 0x848 <_Z7OS_Initv+0x28c>
 766:	08 f4       	brcc	.+2      	; 0x76a <_Z7OS_Initv+0x1ae>
 768:	52 c0       	rjmp	.+164    	; 0x80e <_Z7OS_Initv+0x252>
 76a:	85 30       	cpi	r24, 0x05	; 5
 76c:	09 f4       	brne	.+2      	; 0x770 <_Z7OS_Initv+0x1b4>
 76e:	8e c0       	rjmp	.+284    	; 0x88c <_Z7OS_Initv+0x2d0>
 770:	89 c0       	rjmp	.+274    	; 0x884 <_Z7OS_Initv+0x2c8>
 772:	60 91 7d 14 	lds	r22, 0x147D
 776:	70 91 7e 14 	lds	r23, 0x147E
 77a:	fb 01       	movw	r30, r22
 77c:	ea 5f       	subi	r30, 0xFA	; 250
 77e:	fd 4f       	sbci	r31, 0xFD	; 253
 780:	80 81       	ld	r24, Z
 782:	81 30       	cpi	r24, 0x01	; 1
 784:	09 f0       	breq	.+2      	; 0x788 <_Z7OS_Initv+0x1cc>
 786:	82 c0       	rjmp	.+260    	; 0x88c <_Z7OS_Initv+0x2d0>
 788:	33 97       	sbiw	r30, 0x03	; 3
 78a:	80 81       	ld	r24, Z
 78c:	81 30       	cpi	r24, 0x01	; 1
 78e:	09 f0       	breq	.+2      	; 0x792 <_Z7OS_Initv+0x1d6>
 790:	7d c0       	rjmp	.+250    	; 0x88c <_Z7OS_Initv+0x2d0>
 792:	60 82       	st	Z, r6
 794:	c8 01       	movw	r24, r16
 796:	7c dd       	rcall	.-1288   	; 0x290 <_ZL7enqueueP7queue_tP9td_struct>
 798:	79 c0       	rjmp	.+242    	; 0x88c <_Z7OS_Initv+0x2d0>
 79a:	55 de       	rcall	.-854    	; 0x446 <_ZL18kernel_create_taskv>
 79c:	90 93 22 02 	sts	0x0222, r25
 7a0:	80 93 21 02 	sts	0x0221, r24
 7a4:	80 91 21 02 	lds	r24, 0x0221
 7a8:	90 91 22 02 	lds	r25, 0x0222
 7ac:	89 2b       	or	r24, r25
 7ae:	09 f4       	brne	.+2      	; 0x7b2 <_Z7OS_Initv+0x1f6>
 7b0:	6d c0       	rjmp	.+218    	; 0x88c <_Z7OS_Initv+0x2d0>
 7b2:	f7 01       	movw	r30, r14
 7b4:	80 81       	ld	r24, Z
 7b6:	83 30       	cpi	r24, 0x03	; 3
 7b8:	61 f4       	brne	.+24     	; 0x7d2 <_Z7OS_Initv+0x216>
 7ba:	80 91 7d 14 	lds	r24, 0x147D
 7be:	90 91 7e 14 	lds	r25, 0x147E
 7c2:	fc 01       	movw	r30, r24
 7c4:	ea 5f       	subi	r30, 0xFA	; 250
 7c6:	fd 4f       	sbci	r31, 0xFD	; 253
 7c8:	20 81       	ld	r18, Z
 7ca:	23 30       	cpi	r18, 0x03	; 3
 7cc:	09 f0       	breq	.+2      	; 0x7d0 <_Z7OS_Initv+0x214>
 7ce:	67 c0       	rjmp	.+206    	; 0x89e <_Z7OS_Initv+0x2e2>
 7d0:	5d c0       	rjmp	.+186    	; 0x88c <_Z7OS_Initv+0x2d0>
 7d2:	60 91 7d 14 	lds	r22, 0x147D
 7d6:	70 91 7e 14 	lds	r23, 0x147E
 7da:	fb 01       	movw	r30, r22
 7dc:	ea 5f       	subi	r30, 0xFA	; 250
 7de:	fd 4f       	sbci	r31, 0xFD	; 253
 7e0:	80 81       	ld	r24, Z
 7e2:	81 30       	cpi	r24, 0x01	; 1
 7e4:	09 f0       	breq	.+2      	; 0x7e8 <_Z7OS_Initv+0x22c>
 7e6:	52 c0       	rjmp	.+164    	; 0x88c <_Z7OS_Initv+0x2d0>
 7e8:	d7 01       	movw	r26, r14
 7ea:	8c 91       	ld	r24, X
 7ec:	82 30       	cpi	r24, 0x02	; 2
 7ee:	29 f4       	brne	.+10     	; 0x7fa <_Z7OS_Initv+0x23e>
 7f0:	f5 01       	movw	r30, r10
 7f2:	80 81       	ld	r24, Z
 7f4:	88 23       	and	r24, r24
 7f6:	09 f4       	brne	.+2      	; 0x7fa <_Z7OS_Initv+0x23e>
 7f8:	57 c0       	rjmp	.+174    	; 0x8a8 <_Z7OS_Initv+0x2ec>
 7fa:	fb 01       	movw	r30, r22
 7fc:	ed 5f       	subi	r30, 0xFD	; 253
 7fe:	fd 4f       	sbci	r31, 0xFD	; 253
 800:	80 81       	ld	r24, Z
 802:	82 30       	cpi	r24, 0x02	; 2
 804:	09 f0       	breq	.+2      	; 0x808 <_Z7OS_Initv+0x24c>
 806:	42 c0       	rjmp	.+132    	; 0x88c <_Z7OS_Initv+0x2d0>
 808:	c8 01       	movw	r24, r16
 80a:	42 dd       	rcall	.-1404   	; 0x290 <_ZL7enqueueP7queue_tP9td_struct>
 80c:	3f c0       	rjmp	.+126    	; 0x88c <_Z7OS_Initv+0x2d0>
 80e:	60 91 7d 14 	lds	r22, 0x147D
 812:	70 91 7e 14 	lds	r23, 0x147E
 816:	f2 e1       	ldi	r31, 0x12	; 18
 818:	62 37       	cpi	r22, 0x72	; 114
 81a:	7f 07       	cpc	r23, r31
 81c:	b9 f1       	breq	.+110    	; 0x88c <_Z7OS_Initv+0x2d0>
 81e:	fb 01       	movw	r30, r22
 820:	ed 5f       	subi	r30, 0xFD	; 253
 822:	fd 4f       	sbci	r31, 0xFD	; 253
 824:	10 82       	st	Z, r1
 826:	33 96       	adiw	r30, 0x03	; 3
 828:	80 81       	ld	r24, Z
 82a:	82 30       	cpi	r24, 0x02	; 2
 82c:	49 f4       	brne	.+18     	; 0x840 <_Z7OS_Initv+0x284>
 82e:	34 97       	sbiw	r30, 0x04	; 4
 830:	e0 81       	ld	r30, Z
 832:	f0 e0       	ldi	r31, 0x00	; 0
 834:	ee 0f       	add	r30, r30
 836:	ff 1f       	adc	r31, r31
 838:	ee 5f       	subi	r30, 0xFE	; 254
 83a:	fd 4f       	sbci	r31, 0xFD	; 253
 83c:	11 82       	std	Z+1, r1	; 0x01
 83e:	10 82       	st	Z, r1
 840:	8d e1       	ldi	r24, 0x1D	; 29
 842:	92 e0       	ldi	r25, 0x02	; 2
 844:	25 dd       	rcall	.-1462   	; 0x290 <_ZL7enqueueP7queue_tP9td_struct>
 846:	22 c0       	rjmp	.+68     	; 0x88c <_Z7OS_Initv+0x2d0>
 848:	80 90 7d 14 	lds	r8, 0x147D
 84c:	90 90 7e 14 	lds	r9, 0x147E
 850:	f4 01       	movw	r30, r8
 852:	ea 5f       	subi	r30, 0xFA	; 250
 854:	fd 4f       	sbci	r31, 0xFD	; 253
 856:	80 81       	ld	r24, Z
 858:	82 30       	cpi	r24, 0x02	; 2
 85a:	49 f0       	breq	.+18     	; 0x86e <_Z7OS_Initv+0x2b2>
 85c:	83 30       	cpi	r24, 0x03	; 3
 85e:	19 f0       	breq	.+6      	; 0x866 <_Z7OS_Initv+0x2aa>
 860:	81 30       	cpi	r24, 0x01	; 1
 862:	59 f4       	brne	.+22     	; 0x87a <_Z7OS_Initv+0x2be>
 864:	07 c0       	rjmp	.+14     	; 0x874 <_Z7OS_Initv+0x2b8>
 866:	b4 01       	movw	r22, r8
 868:	ce 01       	movw	r24, r28
 86a:	12 dd       	rcall	.-1500   	; 0x290 <_ZL7enqueueP7queue_tP9td_struct>
 86c:	06 c0       	rjmp	.+12     	; 0x87a <_Z7OS_Initv+0x2be>
 86e:	70 92 14 02 	sts	0x0214, r7
 872:	03 c0       	rjmp	.+6      	; 0x87a <_Z7OS_Initv+0x2be>
 874:	b4 01       	movw	r22, r8
 876:	c8 01       	movw	r24, r16
 878:	0b dd       	rcall	.-1514   	; 0x290 <_ZL7enqueueP7queue_tP9td_struct>
 87a:	f4 01       	movw	r30, r8
 87c:	ed 5f       	subi	r30, 0xFD	; 253
 87e:	fd 4f       	sbci	r31, 0xFD	; 253
 880:	60 82       	st	Z, r6
 882:	04 c0       	rjmp	.+8      	; 0x88c <_Z7OS_Initv+0x2d0>
 884:	8b e0       	ldi	r24, 0x0B	; 11
 886:	80 93 00 02 	sts	0x0200, r24
 88a:	8f dd       	rcall	.-1250   	; 0x3aa <OS_Abort>
 88c:	10 92 29 02 	sts	0x0229, r1
 890:	1c cf       	rjmp	.-456    	; 0x6ca <_Z7OS_Initv+0x10e>
 892:	88 81       	ld	r24, Y
 894:	99 81       	ldd	r25, Y+1	; 0x01
 896:	00 97       	sbiw	r24, 0x00	; 0
 898:	09 f0       	breq	.+2      	; 0x89c <_Z7OS_Initv+0x2e0>
 89a:	29 cf       	rjmp	.-430    	; 0x6ee <_Z7OS_Initv+0x132>
 89c:	36 cf       	rjmp	.-404    	; 0x70a <_Z7OS_Initv+0x14e>
 89e:	fc 01       	movw	r30, r24
 8a0:	ed 5f       	subi	r30, 0xFD	; 253
 8a2:	fd 4f       	sbci	r31, 0xFD	; 253
 8a4:	60 82       	st	Z, r6
 8a6:	95 cf       	rjmp	.-214    	; 0x7d2 <_Z7OS_Initv+0x216>
 8a8:	fb 01       	movw	r30, r22
 8aa:	ed 5f       	subi	r30, 0xFD	; 253
 8ac:	fd 4f       	sbci	r31, 0xFD	; 253
 8ae:	60 82       	st	Z, r6
 8b0:	33 96       	adiw	r30, 0x03	; 3
 8b2:	80 81       	ld	r24, Z
 8b4:	81 30       	cpi	r24, 0x01	; 1
 8b6:	09 f4       	brne	.+2      	; 0x8ba <_Z7OS_Initv+0x2fe>
 8b8:	a0 cf       	rjmp	.-192    	; 0x7fa <_Z7OS_Initv+0x23e>
 8ba:	e8 cf       	rjmp	.-48     	; 0x88c <_Z7OS_Initv+0x2d0>

000008bc <main>:
/**
 * Runtime entry point into the program; just start the RTOS.  The application layer must define r_main() for its entry point.
 */
int main()
{
	OS_Init();
 8bc:	7f de       	rcall	.-770    	; 0x5bc <_Z7OS_Initv>

000008be <__vector_37>:

/**
 * Interrupt service routine for the UART transmission.
 */
ISR(USART1_UDRE_vect)
{
 8be:	1f 92       	push	r1
 8c0:	0f 92       	push	r0
 8c2:	0f b6       	in	r0, 0x3f	; 63
 8c4:	0f 92       	push	r0
 8c6:	11 24       	eor	r1, r1
 8c8:	0b b6       	in	r0, 0x3b	; 59
 8ca:	0f 92       	push	r0
 8cc:	2f 93       	push	r18
 8ce:	3f 93       	push	r19
 8d0:	8f 93       	push	r24
 8d2:	9f 93       	push	r25
 8d4:	ef 93       	push	r30
 8d6:	ff 93       	push	r31
    UDR1 = uart_TX_buf[head];
 8d8:	e0 91 85 14 	lds	r30, 0x1485
 8dc:	f0 91 86 14 	lds	r31, 0x1486
 8e0:	e9 57       	subi	r30, 0x79	; 121
 8e2:	fb 4e       	sbci	r31, 0xEB	; 235
 8e4:	80 81       	ld	r24, Z
 8e6:	80 93 ce 00 	sts	0x00CE, r24

    ++head;
 8ea:	80 91 85 14 	lds	r24, 0x1485
 8ee:	90 91 86 14 	lds	r25, 0x1486
 8f2:	01 96       	adiw	r24, 0x01	; 1
    head &= UART_TX_BUF_MASK;
 8f4:	99 27       	eor	r25, r25
 8f6:	90 93 86 14 	sts	0x1486, r25
 8fa:	80 93 85 14 	sts	0x1485, r24

    /* Last byte was written? */
    if (head == tail)
 8fe:	20 91 83 14 	lds	r18, 0x1483
 902:	30 91 84 14 	lds	r19, 0x1484
 906:	82 17       	cp	r24, r18
 908:	93 07       	cpc	r25, r19
 90a:	49 f4       	brne	.+18     	; 0x91e <__vector_37+0x60>
    {
        non_empty = 0;
 90c:	10 92 82 14 	sts	0x1482, r1
 910:	10 92 81 14 	sts	0x1481, r1
        TXIntDisable();
 914:	e9 ec       	ldi	r30, 0xC9	; 201
 916:	f0 e0       	ldi	r31, 0x00	; 0
 918:	80 81       	ld	r24, Z
 91a:	8f 7d       	andi	r24, 0xDF	; 223
 91c:	80 83       	st	Z, r24
    }
}
 91e:	ff 91       	pop	r31
 920:	ef 91       	pop	r30
 922:	9f 91       	pop	r25
 924:	8f 91       	pop	r24
 926:	3f 91       	pop	r19
 928:	2f 91       	pop	r18
 92a:	0f 90       	pop	r0
 92c:	0b be       	out	0x3b, r0	; 59
 92e:	0f 90       	pop	r0
 930:	0f be       	out	0x3f, r0	; 63
 932:	0f 90       	pop	r0
 934:	1f 90       	pop	r1
 936:	18 95       	reti

00000938 <_exit>:
 938:	f8 94       	cli

0000093a <__stop_program>:
 93a:	ff cf       	rjmp	.-2      	; 0x93a <__stop_program>
